S00D000041544D4F532E7372656393
S113000021C100003FC100003DC100003BC1000010
S113001039C1000037C1000035C1000033C1000000
S113002031C100002FC100002DC100002BC1000010
S113003029C1000027C1000025C100000C94081646
S113004021C100001FC100001DC100001BC1000030
S113005019C1000017C1000015C1000013C1000040
S113006011C100000FC100000DC100000BC1000050
S113007009C1000007C1000005C1000003C1000060
S113008001C10000FFC00000FDC00000FBC0000073
S1130090F9C00000F7C00000F5C00000F3C0000084
S11300A0F1C00000EFC000000C94A819EBC00000E0
S11300B0E9C00000E7C00000E5C00000E3C00000A4
S11300C0E1C00000DFC00000DDC00000DBC00000B4
S11300D0D9C00000D7C00000D5C00000D3C00000C4
S11300E0D1C00000CFC00000CDC00000CBC00000D4
S11300F0C9C00000C7C00000C5C00000C3C00000E4
S1130100C1C00000BFC00000BDC00000BBC00000F3
S1130110B9C00000B7C00000B5C00000B3C0000003
S1130120B1C00000AFC00000ADC00000ABC0000013
S1130130A9C00000700F5C0F610F5C0F660F5C0FAD
S11301406B0F6E616E00696E660000407A10F35AA0
S113015000A0724E18090010A5D4E80000E8764803
S1130160170000E40B54020000CA9A3B000000E1AF
S1130170F505000080969800000040420F00000042
S1130180A08601000000102700000000E803000022
S113019000006400000000000A00000000000100EC
S11301A0000000002C76D888DC674F0823DFC1DF0D
S11301B0AE59E1B1B796E5E3E453C63AE651997610
S11301C096E8E6C28426EB898C9B62ED407C6FFC4A
S11301D0EFBC9C9F40F2BAA56FA5F490055A2AF78C
S11301E05C936B6CF9676DC11BFCE0E40D47FEF595
S11301F020E6B500D0ED902E0300943577050080FD
S1130200841E080000204E0A000000C80C3333335B
S1130210330F986E12831141EF8D2114893BE655FB
S113022016CFFEE6DB18D1844B381BF77C1D901DDE
S1130230A4BBE424203284725E228100C9F124EC40
S1130240A1E53D2711241FBECFEFD1E8DEBFCDBF0E
S113025000E00CBF17E0A0E0B2E0E6E4F2E600E064
S11302600BBF02C007900D92AA37B107D9F72DE052
S1130270AAE7B7E001C01D92A43BB207E1F794D00E
S11302800C942131BDCEAF92BF92CF92DF92EF9208
S1130290FF920F931F93CF93DF935C01A6E3B2E029
S11302A0FC01B0962AE232E08EE192E002E412E030
S11302B00F2EF0EECF2EFEE2DF2EE12CF12CF02DEE
S11302C04D915D916D917D914083518362837383E0
S11302D0C482D582E682F782E901499159916991F4
S11302E079919E014487558766877787EC01499108
S11302F0599169917991CE014087518762877387BB
S11303007096A017B107E1F68EE092E0FC014081FF
S1130310518162817381E501488359836A837B83B8
S1130320A6E1B2E04D915D916D917C9113974C8360
S11303305D836E837F83E6E0F2E0408151816281D8
S113034073814C875D876E877F87188619861A8626
S11303501B86EC014C815D816E817F81E501488BB8
S1130360598B6A8B7B8B14968D919D910D90BC91CA
S1130370A02D8C8B9D8BAE8BBF8B84819581A681A8
S1130380B7818C8F9D8FAE8FBF8F188E198E1A8E6A
S11303901B8EDF91CF911F910F91FF90EF90DF9013
S11303A0CF90BF90AF9008950E94D91D0E947F17EF
S11303B00E94831760E875E280E090E00E943E1995
S11303C0249A6B9A739A60E177E280E090E00E944D
S11303D067180E94FC150E9443209F938F9386E820
S11303E092E09F938F930E94803084E090E00E947B
S11303F072220E94851710921E0D10921D0D89E223
S11304009DE041DF8FE891E00197F1F700C0000023
S11304100E94F11B8FE891E00197F1F700C0000002
S113042080EC9AE00E94B61E8FE891E00197F1F704
S113043000C0000062E070E080E090E00E94F727D6
S11304408C0128E932E03F932F930E9480308FE89B
S113045091E00197F1F700C0000061E070E080E0F6
S113046090E00E94BA155C0180E090E0D8D06C0165
S11304700E94501685EA92E00E949330C9E2DDE0C2
S11304802CA13DA14EA15FA168A179A18AA19BA144
S1130490E12CF12C0E94A81C20916D0D30916E0D61
S11304A040916F0D5091700D6091690D70916A0DBE
S11304B080916B0D90916C0D85010E94A81C2C8974
S11304C03D894E895F89688979898A899B898601F2
S11304D00E94EA1C0E943B1C0E944B1778940F90C8
S11304E00F900F900F900F900F90FFCF88E60E940F
S11304F09318883169F464E070E082E492E00E9429
S11305002519883241F40E94E6188AE090E00895A3
S11305108FEF9FEF08958FEF9FEF0895AF92BF92F3
S1130520CF92DF92EF92FF920F931F93CF93DF93BB
S113053000D01F92CDB7DEB719821A821B821C82AB
S113054088E60E94AF188034C1F541E064E070E0B1
S1130550CE0101960E94EB18803591F50E94E618B1
S11305609A81A92EB12CFA2CEE242B81C22ED12CE7
S1130570EC28FD288981082F10E03C811F923F93CD
S11305801F922F931F929F931F928F9380EB92E061
S11305909F938F930E9480308C8190E00A0D1B1DE5
S11305A00C0D1D1D0FB6F894DEBF0FBECDBF801716
S11305B0910749F48E2D9F2D08C082EF98ED05C058
S11305C083EF98ED02C081EF98ED0F900F900F909C
S11305D00F90DF91CF911F910F91FF90EF90DF90DB
S11305E0CF90BF90AF9008952CE432E0FC013183AA
S11305F02083089580E090E0089580E090E00895DD
S113060084E090E0089526E432E0FC013383228301
S1130610089580E090E0089580E090E008950F93BD
S11306201F93CF93DF938C0186E090E00E942D2EE0
S1130630EC011D830C838CE492E09983888386E427
S113064092E09B838A838DE99CE076D28093E80ACA
S1130650833139F489EC92E00E9493308FEF9FEF5D
S113066006C084EE92E00E9493308C2F9D2FDF9180
S1130670CF911F910F910895E0917F0DF091800D1E
S113068005A002C0880F991F0A94E2F7BC0180E01C
S113069090E008950F931F93CF93DF93CDB7DEB708
S11306A060970FB6F894DEBF0FBECDBF8C018FE903
S11306B08D8781E090E0A0E0B0E08B839C83AD83E4
S11306C0BE83CE010D969A83898383E090E0A0E0F7
S11306D0B0E089879A87AB87BC87CE010E9698874E
S11306E08F8323E041E0BE01695F7F4F0D970E9435
S11306F09417EF81F88580811F928F938FEF92E09A
S11307009F938F930E948030EF81F88581811F929F
S11307108F9383E193E09F938F930E948030EF81C6
S1130720F88582811F928F9387E293E09F938F9342
S11307300E948030EF81F885408150E060E070E0F5
S1130740762F652F542F4427D8014D935D936D93D5
S11307507C9313978181482B762F652F542F442740
S11307604D935D936D937C9313978281482BF8018D
S113077040835183628373830FB6F894DEBF0FBE48
S1130780CDBF80E060960FB6F894DEBF0FBECDBF3C
S1130790DF91CF911F910F910895CF93DF93CDB740
S11307A0DEB72D970FB6F894DEBF0FBECDBF25E0A0
S11307B02D8741E050E060E070E04B835C836D8303
S11307C07E839E01235F3F4F3A83298349875A875B
S11307D06B877C8798878F8323E0BE01695F7F4F97
S11307E0CE0101960E94941780E02D960FB6F894DE
S11307F0DEBF0FBECDBFDF91CF910895CF93DF93BE
S1130800CDB7DEB728970FB6F894DEBF0FBECDBFC5
S113081086E08F8381E090E0A0E0B0E08B839C834E
S1130820AD83BE83CE0107969A83898323E041E09A
S113083060E070E006970E949417CE010896ADDF41
S1130840888581FFFACF80E028960FB6F894DEBF42
S11308500FBECDBFDF91CF910895CF93DF93CDB776
S1130860DEB728970FB6F894DEBF0FBECDBF84E085
S11308708F8381E090E0A0E0B0E08B839C83AD8324
S1130880BE83CE0107969A83898323E041E060E02A
S113089070E006970E949417CE0108967EDF888543
S11308A081FDFACF80E028960FB6F894DEBF0FBE24
S11308B0CDBFDF91CF910895CF93DF93CDB7DEB74E
S11308C027970FB6F894DEBF0FBECDBF80E58F83A8
S11308D081E090E0A0E0B0E08B839C83AD83BE8395
S11308E0CE0107969A83898323E041E060E070E0BB
S11308F006970E94941780E027960FB6F894DEBFFF
S11309000FBECDBFDF91CF910895CF93DF93CDB7C5
S1130910DEB72D970FB6F894DEBF0FBECDBF25EB23
S11309202D8741E050E060E070E04B835C836D8391
S11309307E839E01235F3F4F3A83298342E050E048
S113094060E070E049875A876B877C8798878F833C
S113095023E041E0BE01695F7F4FCE0101960E9412
S1130960941780E02D960FB6F894DEBF0FBECDBF6E
S1130970DF91CF910895CF93DF93CDB7DEB72D9755
S11309800FB6F894DEBF0FBECDBF25E82D8741E03A
S113099050E060E070E04B835C836D837E839E0156
S11309A0235F3F4F3A83298349875A876B877C8724
S11309B098878F8323E0BE01695F7F4FCE01019644
S11309C00E94941780E02D960FB6F894DEBF0FBEF8
S11309D0CDBFDF91CF910895CF93DF93CDB7DEB72D
S11309E02D970FB6F894DEBF0FBECDBF25E62D8739
S11309F041E050E060E070E04B835C836D837E8374
S1130A009E01235F3F4F3A83298349875A876B8727
S1130A107C8798878F8323E0BE01695F7F4FCE0177
S1130A2001960E94941780E02D960FB6F894DEBFCD
S1130A300FBECDBFDF91CF910895CF93DF93CDB794
S1130A40DEB72D970FB6F894DEBF0FBECDBF20E7FB
S1130A502D8741E050E060E070E04B835C836D8360
S1130A607E839E01235F3F4F3A83298349875A87B8
S1130A706B877C8798878F8323E0BE01695F7F4FF4
S1130A80CE0101960E94941780E02D960FB6F8943B
S1130A90DEBF0FBECDBFDF91CF910895CF93DF931B
S1130AA0CDB7DEB728970FB6F894DEBF0FBECDBF23
S1130AB087EB8F83A3DE81E090E0A0E0B0E08B833E
S1130AC09C83AD83BE83CE0107969A83898323E0FA
S1130AD041E060E070E006970E9494178BE393E096
S1130AE00E949330E0917F0DF091800DE659FF4F05
S1130AF00190F081E02DCE0108961995888580FF3C
S1130B0009C0E0917F0DF091800DE95BFF4F84E017
S1130B10808308C0E0917F0DF091800DE95BFF4F69
S1130B2083E0808380E028960FB6F894DEBF0FBE82
S1130B30CDBFDF91CF9108950F931F93CF93DF9390
S1130B4000D01F921F92CDB7DEB719821A821B8282
S1130B501C821D829093800D80937F0DCE0102969E
S1130B6099DD81110CC0E0917F0DF091800D8A8197
S1130B709B81AC81BD8180839183A283B3838A816D
S1130B809B81AC81BD8184312BEB920720E2A207CB
S1130B90B10509F0F0C082E593E00E949330E09142
S1130BA07F0DF091800D80E090E0A0E1B0E085A79A
S1130BB096A7A7A7B0AB80E190E0A0E0B0E085875E
S1130BC09687A787B08B40E050E061E070E041A3D6
S1130BD052A363A374A385A396A3A7A3B0A780E09D
S1130BE091E0A0E0B0E0818B928BA38BB48B40E0CA
S1130BF050E160E070E041A752A763A774A70CE03E
S1130C0010E020E030E0058B168B278B308F458F6A
S1130C10568F678F70A3818F928FA38FB48F80E4D8
S1130C2090E0A0E0B0E081AB92ABA3ABB4AB8FEFAC
S1130C3090E0A0E0B0E081879287A387B487DF01CA
S1130C40A95BBF4F83E08C9313968AE493E01196DB
S1130C509C938E9312968DEC93E011969C938E93B5
S1130C60129686E392E111969C938E9312968DE4EC
S1130C709FE011969C938E93129687E592E11196CC
S1130C809C938E93129683ED92E111969C938E938E
S1130C90129611961C921E92129611961C921E92F6
S1130CA050978CE393E011969C938E9352968EEF1B
S1130CB093E011969C938E9312968DE294E0119694
S1130CC09C938E93129611961C921E9212961196D4
S1130CD01C921E9212968CE594E011969C938E932E
S1130CE0129685E894E011969C938E9312968BEB62
S1130CF094E011969C938E9312968CEE94E0119648
S1130D009C938E9312968DE195E011969C938E930D
S1130D1012968AE194E111969C938E93129688EB35
S1130D2093E111969C938E93129689EE93E111961A
S1130D309C938E93129611961C921E921296119663
S1130D401C921E9212968DE290E111969C938E93C2
S1130D50129685EF90E111969C938E93129683EAF6
S1130D6094E18D939C93E458FF4F86E89FE0918330
S1130D70808380E0A6C785312BEB920720E2A2078F
S1130D80B10509F0FCC081E693E00E949330E09144
S1130D907F0DF091800D80E090E0A0E2B0E085A7A7
S1130DA096A7A7A7B0AB80E290E0A0E0B0E085876B
S1130DB09687A787B08B80E090E0A1E0B0E081A3A4
S1130DC092A3A3A3B4A380E190E0A0E0B0E085A344
S1130DD096A3A7A3B0A780E092E0A0E0B0E0818B47
S1130DE0928BA38BB48B80E090E1A0E0B0E081A76C
S1130DF092A7A3A7B4A78CE090E0A0E0B0E0858B15
S1130E00968BA78BB08F80E090E2A0E0B0E0858F56
S1130E10968FA78FB0A380E091E0A0E0B0E0818F2F
S1130E20928FA38FB48F80E490E0A0E0B0E081AB18
S1130E3092ABA3ABB4AB8FEF90E0A0E0B0E08187BE
S1130E409287A387B487DF01A95BBF4F83E08C93AC
S1130E5013968AE493E011969C938E9312968DECEC
S1130E6093E011969C938E93129686E392E11196E9
S1130E709C938E9312968DE49FE011969C938E938F
S1130E80129687E592E111969C938E93129683EDC8
S1130E9092E111969C938E93129611961C921E9237
S1130EA0129611961C921E9250978CE393E0119621
S1130EB09C938E9352968EEF93E011969C938E930F
S1130EC012968DE294E011969C938E93129611964D
S1130ED01C921E92129611961C921E9212968CE5EA
S1130EE094E011969C938E93129685E894E0119663
S1130EF09C938E9312968BEB94E011969C938E9315
S1130F0012968CEE94E011969C938E9312968DE13A
S1130F1095E011969C938E9312968AE194E1119632
S1130F209C938E93129688EB93E111969C938E93E7
S1130F30129689EE93E111969C938E9312961196D4
S1130F401C921E92129611961C921E9212968DE27B
S1130F5090E111969C938E93129685EF90E11196F1
S1130F609C938E93129683EA94E18D939C93E45818
S1130F70FF4F86E89FE09183808380E0A2C686319C
S1130F802AEB920720E2A207B10509F0F8C081E735
S1130F9093E00E949330E0917F0DF091800D80E00A
S1130FA090E0A0E4B0E085A796A7A7A7B0AB80E443
S1130FB090E0A0E0B0E085879687A787B08B40E0FB
S1130FC050E061E070E041A352A363A374A340E145
S1130FD050E060E070E045A356A367A370A740E02B
S1130FE054E060E070E0418B528B638B748B40E083
S1130FF050E160E070E041A752A763A774A74CE0FA
S113100050E060E070E0458B568B678B708F40E05A
S113101050E460E070E0458F568F678F70A340E026
S113102051E060E070E0418F528F638F748F81AB29
S113103092ABA3ABB4AB8FEF90E0A0E0B0E08187BC
S11310409287A387B487DF01A95BBF4F83E08C93AA
S113105013968AE493E011969C938E9312968DECEA
S113106093E011969C938E93129686E392E11196E7
S11310709C938E9312968DE49FE011969C938E938D
S1131080129687E592E111969C938E93129683EDC6
S113109092E111969C938E93129611961C921E9235
S11310A0129611961C921E9250978CE393E011961F
S11310B09C938E9352968EEF93E011969C938E930D
S11310C012968DE294E011969C938E93129611964B
S11310D01C921E92129611961C921E9212968CE5E8
S11310E094E011969C938E93129685E894E0119661
S11310F09C938E9312968BEB94E011969C938E9313
S113110012968CEE94E011969C938E9312968DE138
S113111095E011969C938E9312968AE194E1119630
S11311209C938E93129688EB93E111969C938E93E5
S1131130129689EE93E111969C938E9312961196D2
S11311401C921E92129611961C921E9212968DE279
S113115090E111969C938E93129685EF90E11196EF
S11311609C938E93129683EA94E18D939C93E45816
S1131170FF4F86E89FE09183808380E0A2C587319A
S11311802AEB920720E2A207B10509F0FCC081E82E
S113119093E00E949330E0917F0DF091800D80E008
S11311A090E0A0E8B0E085A796A7A7A7B0AB80E839
S11311B090E0A0E0B0E085879687A787B08B80E0B9
S11311C090E0A1E0B0E081A392A3A3A3B4A380E143
S11311D090E0A0E0B0E085A396A3A7A3B0A780E029
S11311E098E0A0E0B0E0818B928BA38BB48B80E07D
S11311F090E1A0E0B0E081A792A7A3A7B4A78CE0F8
S113120090E0A0E0B0E0858B968BA78BB08F80E058
S113121090E8A0E0B0E0858F968FA78FB0A380E020
S113122091E0A0E0B0E0818F928FA38FB48F80E42F
S113123090E0A0E0B0E081AB92ABA3ABB4AB8FEF96
S113124090E0A0E0B0E081879287A387B487DF01B4
S1131250A95BBF4F83E08C9313968AE493E01196C5
S11312609C938E9312968DEC93E011969C938E939F
S1131270129686E392E111969C938E9312968DE4D6
S11312809FE011969C938E93129687E592E11196B6
S11312909C938E93129683ED92E111969C938E9378
S11312A0129611961C921E92129611961C921E92E0
S11312B050978CE393E011969C938E9352968EEF05
S11312C093E011969C938E9312968DE294E011967E
S11312D09C938E93129611961C921E9212961196BE
S11312E01C921E9212968CE594E011969C938E9318
S11312F0129685E894E011969C938E9312968BEB4C
S113130094E011969C938E9312968CEE94E0119631
S11313109C938E9312968DE195E011969C938E93F7
S113132012968AE194E111969C938E93129688EB1F
S113133093E111969C938E93129689EE93E1119604
S11313409C938E93129611961C921E92129611964D
S11313501C921E9212968DE290E111969C938E93AC
S1131360129685EF90E111969C938E93129683EAE0
S113137094E18D939C93E458FF4F86E89FE091831A
S1131380808380E09EC488312AEB920720E2A20782
S1131390B10509F0F0C081E993E00E949330E09137
S11313A07F0DF091800D80E090E0A0E0B1E085A792
S11313B096A7A7A7B0AB80E091E0A0E0B0E0858756
S11313C09687A787B08B40E050E061E070E041A3CE
S11313D052A363A374A300E110E020E030E005A36E
S11313E016A327A330A700E010E120E030E0018B32
S11313F0128B238B348B01A712A723A734A70CE0ED
S113140010E020E030E0058B168B278B308F458F62
S1131410568F678F70A3818F928FA38FB48F80E4D0
S113142090E0A0E0B0E081AB92ABA3ABB4AB8FEFA4
S113143090E0A0E0B0E081879287A387B487DF01C2
S1131440A95BBF4F83E08C9313968AE493E01196D3
S11314509C938E9312968DEC93E011969C938E93AD
S1131460129686E392E111969C938E9312968DE4E4
S11314709FE011969C938E93129687E592E11196C4
S11314809C938E93129683ED92E111969C938E9386
S1131490129611961C921E92129611961C921E92EE
S11314A050978CE393E011969C938E9352968EEF13
S11314B093E011969C938E9312968DE294E011968C
S11314C09C938E93129611961C921E9212961196CC
S11314D01C921E9212968CE594E011969C938E9326
S11314E0129685E894E011969C938E9312968BEB5A
S11314F094E011969C938E9312968CEE94E0119640
S11315009C938E9312968DE195E011969C938E9305
S113151012968AE194E111969C938E93129688EB2D
S113152093E111969C938E93129689EE93E1119612
S11315309C938E93129611961C921E92129611965B
S11315401C921E9212968DE290E111969C938E93BA
S1131550129685EF90E111969C938E93129683EAEE
S113156094E18D939C93E458FF4F86E89FE0918328
S1131570808380E0A6C389312AEB920720E2A20788
S1131580B10509F018C182EA93E00E949330E0911A
S11315907F0DF091800D80E090E0A0E0B2E085A79F
S11315A096A7A7A7B0AB80E092E0A0E0B0E0858763
S11315B09687A787B08B80E090E0A1E0B0E081A39C
S11315C092A3A3A3B4A380E190E0A0E0B0E085A33C
S11315D096A3A7A3B0A780E090E2A0E0B0E0818B3F
S11315E0928BA38BB48B80E090E1A0E0B0E081A764
S11315F092A7A3A7B4A78CE090E0A0E0B0E0858B0D
S1131600968BA78BB08F80E090E0A2E0B0E0858F4E
S1131610968FA78FB0A380E091E0A0E0B0E0818F27
S1131620928FA38FB48F80E490E0A0E0B0E081AB10
S113163092ABA3ABB4AB8FEF90E0A0E0B0E08187B6
S11316409287A387B487DF01A95BBF4F83E08C93A4
S113165013968AE493E011969C938E9312968DECE4
S113166093E011969C938E93129686E392E11196E1
S11316709C938E9312968DE49FE011969C938E9387
S1131680129687E592E111969C938E93129683EDC0
S113169092E111969C938E93129611961C921E922F
S11316A0129611961C921E9250978CE393E0119619
S11316B09C938E9352968EEF93E011969C938E9307
S11316C012968DE294E011969C938E931296119645
S11316D01C921E92129611961C921E9212968CE5E2
S11316E094E011969C938E93129685E894E011965B
S11316F09C938E9312968BEB94E011969C938E930D
S113170012968CEE94E011969C938E9312968DE132
S113171095E011969C938E9312968AE194E111962A
S11317209C938E93129688EB93E111969C938E93DF
S1131730129689EE93E111969C938E9312968EE401
S113174095E011969C938E9312968FE494E11196F2
S11317509C938E9312968DE290E111969C938E93B6
S1131760129685EF90E111969C938E93129683EADC
S113177094E18D939C93E458FF4F86E89FE0918316
S113178080838CD9E0917F0DF091800DE659FF4F55
S11317900190F081E02DCE0101961995898180FF99
S11317A08BC2E0917F0DF091800DE95BFF4F84E0E7
S11317B0808380E086C2AC01BD015E7F40325A4B1B
S11317C06042710509F029C183EB93E00E949330D4
S11317D0E0917F0DF091800D80E090E0A0E0B4E016
S11317E085A796A7A7A7B0AB80E094E0A0E0B0E0FF
S11317F085879687A787B08B80E090E0A1E0B0E072
S113180081A392A3A3A3B4A380E190E0A0E0B0E0FD
S113181085A396A3A7A3B0A780E197E2A0E0B0E0D8
S1131820818B928BA38BB48B80E090E1A0E0B0E03D
S113183081A792A7A3A7B4A78CE090E0A0E0B0E0B2
S1131840858B968BA78BB08F80E090E0A4E0B0E00E
S1131850858F968FA78FB0A380E091E0A0E0B0E0E1
S1131860818F928FA38FB48F80E490E0A0E0B0E0EA
S113187081AB92ABA3ABB4AB82E085AB80E090E0EC
S1131880A0E0B2E086AB97ABA0AFB1AF89E190E046
S1131890A0E0B0E082AF93AFA4AFB5AF8FEF90E01C
S11318A0A0E0B0E081879287A387B487DF01A65BBD
S11318B0BF4F8AE493E011969C938E9312968DEC1D
S11318C093E011969C938E93129686E392E111967F
S11318D09C938E9312968DE49FE011969C938E9325
S11318E0129687E592E111969C938E93129683ED5E
S11318F092E111969C938E93129689E493E111964A
S11319009C938E93129611961C921E9250978CE380
S113191093E011969C938E9352968EEF93E01196DA
S11319209C938E9312968DE294E011969C938E93E1
S1131930129611961C921E92129611961C921E9249
S113194012968CE594E011969C938E93129685E8FA
S113195094E011969C938E9312968BEB94E01196DF
S11319609C938E9312968CEE94E011969C938E9396
S113197012968DE195E011969C938E9312968AE1CE
S113198094E111969C938E93129688EB93E11196B1
S11319909C938E93129689EE93E111969C938E9369
S11319A012968EE495E011969C938E9312968FE492
S11319B094E111969C938E9312968DE290E1119688
S11319C09C938E93129685EF90E111969C938E933F
S11319D0129683EA94E18D939C93E458FF4F86E832
S11319E09FE0918380835AD8E0917F0DF091800D20
S11319F0E659FF4F0190F081E02DCE010196199533
S1131A00898180FF5BC1E0917F0DF091800DE95BDE
S1131A10FF4F84E0808380E054C181322AEB920737
S1131A2020E2A207B10509F035C184EC93E00E94DD
S1131A309330E0917F0DF091800D80E090E0A0E084
S1131A40B8E085A796A7A7A7B0AB80E098E0A0E090
S1131A50B0E085879687A787B08B80E090E0A1E00F
S1131A60B0E081A392A3A3A3B4A380E190E0A0E09B
S1131A70B0E085A396A3A7A3B0A780E090E8A0E078
S1131A80B0E0818B928BA38BB48B80E090E1A0E0DB
S1131A90B0E081A792A7A3A7B4A78CE090E0A0E050
S1131AA0B0E0858B968BA78BB08F80E090E0A8E0A8
S1131AB0B0E0858F968FA78FB0A380E091E0A0E07F
S1131AC0B0E0818F928FA38FB48F80E490E0A0E088
S1131AD0B0E081AB92ABA3ABB4AB8FEF90E0A0E0EE
S1131AE0B0E081879287A387B48784E085AB80E0E8
S1131AF090E0A0E0B2E086AB97ABA0AFB1AF89E1D4
S1131B0090E0A0E0B0E082AF93AFA4AFB5AFDF0147
S1131B10A95BBF4F83E08C9313968AE493E01196FC
S1131B209C938E9312968DEC93E011969C938E93D6
S1131B30129686E392E111969C938E9312968DE40D
S1131B409FE011969C938E93129687E592E11196ED
S1131B509C938E93129683ED92E111969C938E93AF
S1131B60129689E493E111969C938E9312961196A2
S1131B701C921E9250978CE393E011969C938E9343
S1131B8052968EEF93E011969C938E9312968DE26B
S1131B9094E011969C938E93129611961C921E9229
S1131BA0129611961C921E9212968CE594E0119650
S1131BB09C938E93129685E894E011969C938E9351
S1131BC012968BEB94E011969C938E9312968CEE66
S1131BD094E011969C938E9312968DE195E0119664
S1131BE09C938E9312968AE194E111969C938E9322
S1131BF0129688EB93E111969C938E93129689EE3C
S1131C0093E111969C938E9312968EE495E011962F
S1131C109C938E9312968FE494E111969C938E93E9
S1131C2012968DE290E111969C938E93129685EF15
S1131C3090E111969C938E93129683EA94E18D938E
S1131C409C93E458FF4F86E89FE0918380830E9431
S1131C504E0584ED93E09F938F930E948030E09132
S1131C607F0DF091800DE659FF4F0190F081E02D3A
S1131C70CE010196199589810F900F9080FF20C0A5
S1131C80E0917F0DF091800DE95BFF4F84E080834C
S1131C9080E017C0BF93AF939F938F938BED93E036
S1131CA09F938F930E9480300F900F900F900F900E
S1131CB00F900F9083E105C080E003C080E001C075
S1131CC080E00F900F900F900F900F90DF91CF91C5
S1131CD01F910F910895CF93DF931F92CDB7DEB775
S1131CE0E0917F0DF091800D80819181A281B3817B
S1131CF0AC01BD0140525A4B60427109423051055A
S1131D006105710528F080329B4BA042B10551F466
S1131D10CE0101960E941D0589818095881F882720
S1131D20881F06C0CE0101960E94CD03898181706F
S1131D300F90DF91CF910895CF92DF92EF92FF92AF
S1131D406115710581059105A9F0C0907C07D090BB
S1131D507D07E0907E07F0907F079B01AC016FEF59
S1131D607FEF8FEF90E00E94DB2DC616D706E806C2
S1131D70F90650F010927C0710927D0710927E07AE
S1131D8010927F078AE00EC08FEFC81AD80AE80ABB
S1131D90F80AC0927C07D0927D07E0927E07F09209
S1131DA07F0789E0FF90EF90DF90CF900895FA01CC
S1131DB0233021F48183728363830895243021F4D2
S1131DC0918382837383648308954F925F926F92A9
S1131DD07F928F929F92AF92BF92CF92DF92EF92B7
S1131DE0FF920F931F93CF93DF93CDB7DEB7619725
S1131DF00FB6F894DEBF0FBECDBFAE2DE0917F0DC0
S1131E00F091800DC5A4D6A4E7A4F0A86C157D05B7
S1131E108E059F0550F5480159016A01E95BFF4FA2
S1131E202081422F50E04F5F5F4F2A01550F660813
S1131E3077084B825C826D827E82AE01435F5F4F86
S1131E405A834983AD87B3DF89869A86AB86BC867D
S1131E50D886CF8223E041E0BE01695F7F4FCE0187
S1131E6001960E94941780E001C081E061960FB64C
S1131E70F894DEBF0FBECDBFDF91CF911F910F91BC
S1131E80FF90EF90DF90CF90BF90AF909F908F9096
S1131E907F906F905F904F900895EF920F931F93F0
S1131EA090E0FC013697E730F10558F58827E656AF
S1131EB0FF4F8F4F0C940C2E0F2EFBE0EF2EF02DC6
S1131EC013C00F2EFBE3EF2EF02D0EC00F2EFBE6FA
S1131ED0EF2EF02D09C00F2EFAE5EF2EF02D04C0E1
S1131EE00F2EF3E0EF2EF02DFB01048115812681E6
S1131EF0378140855185608171818281938165DF5D
S1131F0001C087E01F910F91EF9008958F929F92E7
S1131F10AF92BF92EF92FF920F931F93CF93DF93F1
S1131F20CDB7DEB761970FB6F894DEBF0FBECDBF55
S1131F307C014A015B01E0917F0DF091800DE95B2A
S1131F40FF4F008110E00F5F1F4F012E000C220B8A
S1131F50330B0B831C832D833E83AE01435F5F4FA2
S1131F605A8349838BE48D8723E060E070E0CB01E2
S1131F701EDF89869A86AB86BC86F886EF8223E0CC
S1131F8041E0BE01695F7F4FCE010196CDD780E06D
S1131F9061960FB6F894DEBF0FBECDBFDF91CF912F
S1131FA01F910F91FF90EF90BF90AF909F908F90F3
S1131FB00895CF92DF92EF92FF926C0160E070E09F
S1131FC0CB01BADE0D2C000CEE08FF0805C0C701DA
S1131FD0B601B2DE8A3019F07EDE8111F8CFFF90AF
S1131FE0EF90DF90CF9008951F93CF93DF93CDB7F9
S1131FF0DEB728970FB6F894DEBF0FBECDBF182FFB
S1132000E0917F0DF091800DE65AFF4F0190F08131
S1132010E02D199582E090E0A0E0B0E08B839C83F2
S1132020AD83BE83CE0107969A83898381E08F8333
S1132030188723E041E060E070E0CE01019674D798
S113204081E090E0B6DF28960FB6F894DEBF0FBEAD
S1132050CDBFDF91CF911F9108952F923F924F9260
S11320605F926F927F928F929F92AF92BF92CF9224
S1132070DF92EF92FF920F931F93CF93DF9300D0E1
S113208000D0CDB7DEB769837A838B839C83290123
S11320903A01E0917F0DF091800DC1A0D2A085841A
S11320A09684A784B0880E94FE030D2C000CEE08D1
S11320B0FF08C301B201A70196010E94EA2D29017C
S11320C03A013E832D832115310509F46EC0840144
S11320D0821693060CF46BC069817A818B819C8192
S11320E0A70196010E94EA2D29833A834B835C83DE
S11320F02115310531F0240D351D2815390509F058
S113210058C0C201019748225922452809F053C0FA
S1132110640111231CF43FEFC31AD30AD594C79466
S11321200D2C000CEE08FF0881E029813A814B81D7
S11321305C812C153D054E055F0508F080E0101606
S11321401106ACF44D815E814130510591F021E0DE
S113215030E091E005C0ED81FE81E217F30751F014
S11321609F5F220F331F02171307ACF703C091E0E0
S113217001C091E0392F3770330F330F8295880FE8
S1132180807E282F232B93FB222420F8312CC1019D
S11321900024969587950794969587950794982F8C
S11321A0802D822B21DF80E007C081E005C081E023
S11321B003C081E001C081E026960FB6F894DEBF2B
S11321C00FBECDBFDF91CF911F910F91FF90EF9084
S11321D0DF90CF90BF90AF909F908F907F906F9043
S11321E05F904F903F902F90089580E0FDDE80E057
S11321F008954F925F926F927F928F929F92AF92C7
S1132200BF92CF92DF92EF92FF920F931F93CF93DF
S1132210DF93CDB7DEB72C970FB6F894DEBF0FBEB1
S1132220CDBFAE2DE0917F0DF091800DC5A4D6A455
S1132230E7A4F0A86C157D058E059F0508F052C033
S1132240EA2E480159016A012B013C0144DD811148
S11322504BC0E0917F0DF091800DE65AFF4F019045
S1132260F081E02D1995E0917F0DF091800DE95BEF
S1132270FF4F2081822F90E00196092E000CAA0BBB
S1132280BB0B8B839C83AD83BE83AE01495F5F4FE1
S11322905A834983EF82C301B20189DD22E041E020
S11322A060E070E0CE0101963FD68B829C82AD82C5
S11322B0BE82DA82C98223E041E060E070E0CE01B0
S11322C0019632D681E090E074DE182FCE010C9690
S11322D00E941D050E945C048C858271823131F05C
S11322E0812F05C081E003C089E001C08CE02C96F9
S11322F00FB6F894DEBF0FBECDBFDF91CF911F9113
S11323000F91FF90EF90DF90CF90BF90AF909F9090
S11323108F907F906F905F904F9008952F923F928F
S11323204F925F926F927F928F929F92AF92BF92E1
S1132330CF92DF92EF92FF920F931F93CF93DF938D
S11323404B015C016A011901F02EE0917F0DF091BF
S1132350800DE65AFF4F0190F081E02D1995E09130
S11323607F0DF091800D41855285CA018821992104
S1132370C18DD28DC81BD90BC423D5232C163D0681
S113238008F4E1012097D1F4CE01A0E0B0E0E0919F
S11323907F0DF091800D018D128D238D348D2101DF
S11323A0612C712CAC01BD01400F511F621F731FC2
S11323B0441555056605770560F030C08E0120E0B0
S11323C030E0EF2CA601C501B40113DF8823E1F24C
S11323D03AC0BC01CD01680D791D8A1D9B1DEF2CEF
S11323E0A6014C0F5D1F05DF81112DC0E0917F0D0B
S11323F0F091800D018D128D238D348DC00FD11F6E
S1132400CE01A0E0B0E0AC01BD01400F511F621F3E
S1132410731F4415550566057705D8F2C215D30513
S113242088F481010C1B1D0B20E030E0A6014C0F49
S11324305D1FBC01CD01680D791D8A1D9B1DEF2C0C
S1132440D8DE01C080E0DF91CF911F910F91FF9002
S1132450EF90DF90CF90BF90AF909F908F907F9040
S11324606F905F904F903F902F9008950F938F300F
S113247079F028F48D3061F08E3031F015C0803160
S113248029F0813189F404C002EA03C002E301C0E7
S113249002E0FB0124813581408551856081718191
S11324A0828193813BDF01C087E00F910895CF9231
S11324B0DF92EF92FF920F931F93CF93DF93CDB7E9
S11324C0DEB72C970FB6F894DEBF0FBECDBFE091F8
S11324D07F0DF091800D8C0120E030E0458556851C
S11324E067857089041715072607370708F047C062
S11324F0E85BFF4F0190F081E02D19956B017C01A1
S1132500EADB81113EC0E0917F0DF091800DE65A27
S1132510FF4F0190F081E02D1995E0917F0DF0912E
S1132520800DE95BFF4F2081822F90E00196092EF8
S1132530000CAA0BBB0B8B839C83AD83BE83AE01C3
S1132540495F5F4F5A83498388ED8F83C701B60182
S11325502EDC23E041E060E070E0CE010196E4D49B
S113256083E090E026DDCE010C960E941D050E94BA
S11325705C048C858272823231F080E005C086E092
S113258003C089E001C08CE02C960FB6F894DEBF3E
S11325900FBECDBFDF91CF911F910F91FF90EF90B0
S11325A0DF90CF900895FF920F931F93CF93DF9303
S11325B0CDB7DEB72C970FB6F894DEBF0FBECDBFF4
S11325C0E0917F0DF091800D8C0120E030E0418995
S11325D0528963897489041715072607370708F099
S11325E047C08C01F58877DB811144C0E0917F0DF1
S11325F0F091800DE65AFF4F0190F081E02D19957E
S1132600E0917F0DF091800DE95BFF4F2081822FD7
S113261090E00196092E000CAA0BBB0B8B839C83C4
S1132620AD83BE83AE01495F5F4F5A83498380E225
S11326308F83B80102C0660F771FFA94E2F780E037
S113264090E0B5DB23E041E060E070E0CE0101966C
S11326506BD483E090E0ADDCCE010C960E941D05A6
S11326600E945C048C858272823231F080E005C065
S113267086E003C089E001C08CE02C960FB6F89484
S1132680DEBF0FBECDBFDF91CF911F910F91FF90A1
S11326900895FF920F931F93CF93DF93CDB7DEB7C7
S11326A02C970FB6F894DEBF0FBECDBFE0917F0D1F
S11326B0F091800D25A930E08217930708F047C0F8
S11326C08C01F2AC08DB811144C0E0917F0DF091E4
S11326D0800DE65AFF4F0190F081E02D1995E091AD
S11326E07F0DF091800DE95BFF4F2081822F90E0F8
S11326F00196092E000CAA0BBB0B8B839C83AD8324
S1132700BE83AE01495F5F4F5A83498384EC8F8354
S1132710B80102C0660F771FFA94E2F780E090E0F8
S113272046DB23E041E060E070E0CE010196FCD39B
S113273080EE91E03EDCCE010C960E941D050E94C5
S11327405C048C858272823231F080E005C086E0C0
S113275003C089E001C08CE02C960FB6F894DEBF6C
S11327600FBECDBFDF91CF911F910F91FF900895C0
S11327701F93CF93DF93CDB7DEB728970FB6F894A6
S1132780DEBF0FBECDBF182F0E94FE0382E090E093
S1132790A0E0B0E08B839C83AD83BE83CE0107961B
S11327A09A83898381E88F83188723E041E060E07E
S11327B070E0CE010196B8D381E090E0FADB289670
S11327C00FB6F894DEBF0FBECDBFDF91CF911F913E
S11327D008951F93CF93DF93CDB7DEB728970FB635
S11327E0F894DEBF0FBECDBF182F0E94FE0382E017
S11327F090E0A0E0B0E08B839C83AD83BE83CE01E8
S113280007969A83898381E68F83188723E041E0C2
S113281060E070E0CE01019687D381E090E0C9DBEF
S113282028960FB6F894DEBF0FBECDBFDF91CF91CF
S11328301F9108950F931F93CF93DF93CDB7DEB706
S113284029970FB6F894DEBF0FBECDBF182F092FFE
S11328500E94FE0383E090E0A0E0B0E08B839C83C1
S1132860AD83BE83CE0107969A83898381EB8F83E0
S11328700887198723E041E060E070E0CE0101960B
S113288053D381E090E095DB29960FB6F894DEBF30
S11328900FBECDBFDF91CF911F910F9108951F936C
S11328A0CF93DF93CDB7DEB728970FB6F894DEBF8A
S11328B00FBECDBF89EE8F830E94FE0381E090E0BE
S11328C0A0E0B0E08B839C83AD83BE83CE010796EA
S11328D09A83898323E041E060E070E0069724D383
S11328E082EF93E00E94933081E090E062DB182F46
S11328F0E0917F0DF091800DE659FF4F0190F0813A
S1132900E02DCE0108961995888580FF09C0E091D5
S11329107F0DF091800DE95BFF4F84E0808308C058
S1132920E0917F0DF091800DE95BFF4F83E08083A0
S1132930812F28960FB6F894DEBF0FBECDBFDF916E
S1132940CF911F9108952F923F924F925F926F9271
S11329507F928F929F92AF92BF92CF92DF92EF922B
S1132960FF920F931F93CF93DF93CDB7DEB72D97CD
S11329700FB6F894DEBF0FBECDBF8C014A015B01D8
S11329802DB73EB73D872C87E0917F0DF091800DE8
S113299041A852A863A874A8D301C2010196A11D3D
S11329A0B11D281B390B0FB6F8943EBF0FBE2DBFC7
S11329B08DB79EB701961C01BC01481459046A04E2
S11329C07B0408F479C081149104A104B104A9F032
S11329D090E0292F30E0FB01E20FF31FD801A20F92
S11329E0B31F8C9180839F5FC92ED12CE12CF12CD5
S11329F0C814D904EA04FB0460F3982DA5019401DA
S1132A00332744275527241535054605570570F403
S1132A10FB01E90FF11D10829F5FC92ED12CE12C1F
S1132A20F12CC414D504E604F70490F3F101E40D89
S1132A30F51D108250D9811141C0E0917F0DF091B4
S1132A40800DE65AFF4F0190F081E02D1995E09139
S1132A507F0DF091800DE95BFF4F808190E001963E
S1132A60092E000CAA0BBB0B8B839C83AD83BE8306
S1132A70AE01495F5F4F5A83498382E48F8323E029
S1132A8060E070E0CB0193D922E041E060E070E0C7
S1132A90CE01019649D28B829C82AD82BE821A837A
S1132AA0098323E041E060E070E0CE0101963CD26E
S1132AB081E090E07EDA03C081E001C089E02C85EA
S1132AC03D850FB6F8943EBF0FBE2DBF2D960FB6B1
S1132AD0F894DEBF0FBECDBFDF91CF911F910F9150
S1132AE0FF90EF90DF90CF90BF90AF909F908F902A
S1132AF07F906F905F904F903F902F9008952CE5BA
S1132B0032E0FC0135872487089580E090E0089541
S1132B1080E090E0089524E532E0FC0131832083D5
S1132B20089580E090E0089583E090E008950C9487
S1132B30760208950E948E02BC01990F880B990BAE
S1132B400E943C299F938F937F936F9388E094E036
S1132B509F938F930E9480300F900F900F900F904F
S1132B600F900F9008958AE194E00E94933080E0E2
S1132B7090E00895EF92FF920F931F93CF93DF930A
S1132B807C018B018EE090E00E942D2EEC0184E507
S1132B9092E0998388838CE592E09D878C8780EC12
S1132BA09EE19987888784EC9EE19B878A87FB82D4
S1132BB0EA821F830E8380911D0D90911E0D9D83CB
S1132BC08C83B801680F791F70931E0D60931D0DDF
S1132BD07F936F938AE294E09F938F930E94803057
S1132BE00F900F900F900F90CE01DF91CF911F9116
S1132BF00F91FF90EF90089584E880937A0085EC1C
S1132C0080937700EBE7F0E080818823ECF7089568
S1132C101F920F920FB60F9211240BB60F922F939F
S1132C203F934F935F936F937F938F939F93AF9350
S1132C30BF93EF93FF93809184079091850701964A
S1132C409093850780938407809183078F93809165
S1132C5082078F93809181078F93809180078F9350
S1132C608EE394E09F938F930E948030F7D60F9069
S1132C700F900F900F900F900F90FF91EF91BF91D5
S1132C80AF919F918F917F916F915F914F913F9100
S1132C902F910F900BBE0F900FBE0F901F901895A1
S1132CA01092800710928107109282071092830776
S1132CB01092850710928407E6EBF0E08081806231
S1132CC0808380818F71E9F71092B1000895CF92CB
S1132CD0DF92EF92FF926B017C01E6EBF0E08081E2
S1132CE08F71E9F71092B100E6EBF0E080818F710B
S1132CF0E9F78BEFC816D104E104F104ECF4C70141
S1132D00B6010E943C292FE632E143E85FE30E94CA
S1132D10F0290E94092920E031E0C901861B970BA4
S1132D208F3F910519F014F08FEF90E08093B2007B
S1132D3083E08093B10094C085EFC81681E0D80683
S1132D40E104F104ECF4C701B6010E943C292FE62A
S1132D5032E143E05FE30E94F0290E94092920E068
S1132D6031E0C901861B970B8F3F910519F014F0D0
S1132D708FEF90E08093B20084E08093B10070C044
S1132D8089EEC81683E0D806E104F104ECF4C70127
S1132D90B6010E943C292FE632E143E85EE30E943B
S1132DA0F0290E94092920E031E0C901861B970B14
S1132DB08F3F910519F014F08FEF90E08093B200EB
S1132DC085E08093B1004CC081EDC81687E0D80639
S1132DD0E104F104ECF4C701B6010E943C292FE69A
S1132DE032E143E05EE30E94F0290E94092920E0D9
S1132DF031E0C901861B970B8F3F910519F014F040
S1132E008FEF90E08093B20086E08093B10028C0F9
S1132E1081E4C8168FE1D806E104F104ECF4C7019B
S1132E20B6010E943C292FE632E143E05DE30E94B3
S1132E30F0290E94092920E031E0C901861B970B83
S1132E408F3F910519F014F08FEF90E08093B2005A
S1132E5087E08093B10004C08FE494E00E94933033
S1132E601092B0008091800790918107A091820711
S1132E70B0918307C80ED91EEA1EFB1EC0928007BC
S1132E80D0928107E0928207F0928307FF90EF903F
S1132E90DF90CF9008951BDF87E087BB81E08093AC
S1132EA070000895CF92DF92EF92FF926B017C0144
S1132EB0FF92EF92DF926F9381E694E09F938F935A
S1132EC00E9480300F900F900F900F900F900F90F2
S1132ED0C114D104E104F10469F080918407909154
S1132EE08507892B21F4C701B601D5DF03C0C701CB
S1132EF0B601EDDEFF90EF90DF90CF9008958AB198
S1132F00806C8AB908955F9A089584B1807F84B9EA
S1132F1084B1876084B981E58CBD08958EBD0DB4FC
S1132F2007FEFDCF8EB508958F929F92AF92BF9208
S1132F30CF92DF92EF92FF920F931F93CF93DF9381
S1132F407C018B0187E794E09F938F930E948030EC
S1132F500F900F90F70182819381A481B581892B11
S1132F608A2B8B2B09F49CC0C0E0D0E00F2EFEE727
S1132F70CF2EF4E0DF2EF02DD701ED91FC91EC0F74
S1132F80FD1F80811F928F93DF92CF920E94803029
S1132F902196F70182819381A481B581AE010D2E22
S1132FA0000C660B770B0F900F900F900F90481743
S1132FB059076A077B0700F39C0140815181011581
S1132FC0110509F45EC0F80182809380B080A1806D
S1132FD0EC012197892B19F40CC0812C912CC42E5F
S1132FE0D52ED6018D916D0199DFCE012197892BC4
S1132FF0C1F78114910451F0EB2CFA2CE4018FEF0A
S11330008DDFF70181937F012197C9F786E894E06A
S11330109F938F930E9480300F900F90F8018281CC
S11330209381A481B581892B8A2B8B2B09F441C010
S1133030C0E0D0E00F2EFEE7EF2EF4E0FF2EF02DDF
S1133040D801ED91FC91EC0FFD1F80811F928F93AD
S1133050FF92EF920E9480302196AE010D2E000C5B
S1133060660B770B0F900F900F900F90F8018281F1
S11330709381A481B581481759076A077B0700F338
S113308018C0E9012197232B09F0A7CFBFCFD8019E
S113309012968D909C901397BC901196AC90A9CFEA
S11330A0F701408151810115110589F720E030E0D5
S11330B0E8CF81E0DF91CF911F910F91FF90EF90C6
S11330C0DF90CF90BF90AF909F908F9008959B0119
S11330D0AC011092B90060E074E284EF90E00E94C9
S11330E0EA2DDA01C9014097A109B109689412F8DF
S11330F0B695A795979587951694D1F78093B800C0
S113310084E08093BC0081E008958093BB0084E850
S11331108093BC00ECEBF0E080818823ECF7809195
S1133120B900887F089594EE9093BC00ECEBF0E036
S113313090819923ECF7EFE9FFE03197F1F700C0B4
S113314000009091B900987F983031F0903121F0CF
S11331508091B900887F0895880FD7CF089594EEA1
S11331609093BC00ECEBF0E090819923ECF7909104
S1133170B900987F983031F0903121F08091B900F6
S1133180887F0895880F8160C0CF0895DC0184ECA6
S11331908093BC00ECEBF0E090819923ECF78091F4
S11331A0BB008C938091B900887F0895DC0184E88A
S11331B08093BC00ECEBF0E090819923ECF78091D4
S11331C0BB008C938091B900887F089584E9809333
S11331D0BC0081E008959F92AF92BF92CF92DF929C
S11331E0EF92FF920F931F93CF93DF931616170658
S11331F0FCF4942E8B017C01C0E0D0E06B0181E0F3
S1133200C81AD1085701AC0CBD1C911006C0CC16CD
S1133210DD0619F4C501CADF04C0C7018C0F9D1F68
S1133220B5DF803531F42196C017D10771F701C09D
S113323080E0DF91CF911F910F91FF90EF90DF908D
S1133240CF90BF90AF909F9008950F931F93CF930B
S1133250DF931616170664F48C01EC01060F171F92
S1133260899153DF883229F4C017D107C9F701C007
S113327080E0DF91CF911F910F91089526E632E00F
S11332803093B10D2093B00DDC01CB01880F991F51
S1133290AA1FBB1F880F991FAA1FBB1F9C01AD014A
S11332A0220F331F441F551F220F331F441F551F66
S11332B060E074E284EF90E00E94EA2D215031092D
S11332C03093C5002093C40086E08093C20088E157
S11332D08093C1000895E0ECF0E0908195FFFDCF6C
S11332E08093C6000895CF93C82F8A3011F48DE0DF
S11332F0F2DF8C2FF0DF80E090E0CF91089514BED0
S11333000FB6F894A895809160008861809360005E
S1133310109260000FBEE1E6F0E080E88083108246
S1133320789401C008951092810D80E29EE49093F8
S1133330A9008093A800E1EAF0E088E0808380811E
S113334082608083E2E7F0E0808182608083089578
S11333501F920F920FB60F9211248F938091810DBB
S11333608F5F8093810D8F910F900FBE0F901F90F0
S11333701895E2E8FDE0148215821182108217A2EA
S113338016A2E8E8FDE088EA9DE011921192E817A0
S1133390F907D9F7E3D067D010D00AC00895E82F11
S11333A0F0E0EE0FFF1FE857F24F7183608308953A
S11333B0109287071092860708951092880710923A
S11333C0110810929A08109223091092AC090895DA
S11333D0009741F0FC01E757FF4F8AE0E533F80717
S11333E018F015C0E8E8F7E08081882339F003C0BD
S11333F08081882319F08E2F9F2F0895E757FF4F60
S11334008AE0E533F807A0F380E090E0089580E0D7
S113341090E00895DC0119962C911997222349F024
S11334201796ED91FC9118972081211104C0B9C021
S1133430089580E0089580E00895BC01E6E4FAE090
S113344028E73AE040E051E09081992319F0915047
S11334509083452F3596E217F307B1F7442311F013
S1133460CB012FC40895E6E4FAE088E79AE01082DD
S11334703596E817F907D9F7E5E3FAE084E690E032
S1133480A0E0B0E086839783A087B18712868DE1A0
S11334909AE1948783876AE07AE180E080CF089597
S11334A0EF92FF920F931F93CF937C0110E080E083
S11334B090E001E0C3E113C0FC012081213179F4E3
S11334C0EC57FF4F20813181215031093183208312
S11334D0232B21F4FC01C083102F01C0102F78DFAF
S11334E0009751F7112311F0C701EBD3CF911F912E
S11334F00F91FF90EF900895EF92FF920F931F9317
S1133500CF93DF937C0110E080E090E001E0D7E10D
S1133510C0E116C0FC012081263191F4EC57FF4F25
S1133520208131812150310931832083232B39F4C7
S1133530FC01D083ED57FF4FC083102F01C0102F23
S113354047DF009739F7112311F0C701BAD3DF9190
S1133550CF911F910F91FF90EF90089510928F0AD1
S113356010928E0AE1E8FAE082E390E0A0E0B0E095
S113357086839783A087B18712868CE79AE1948724
S11335808387E4E7FAE08AE090E0A0E0B0E0868395
S11335909783A087B187128680E59AE19487838711
S11335A00895CF93DF93FC01C781D0858185833053
S11335B0C1F480E090E010C0FC012081263161F468
S11335C034852981321308C027E120832A81EA57F0
S11335D0FF4F208381E006C0FBDE009769F780E09F
S11335E001C080E0DF91CF91089593E09093420170
S11335F0E1E4F1E090819F719830E1F7809342011A
S1133600E1E4F1E090819F719813FCCF0895E9E320
S1133610F1E08081816080831092910A1092900A77
S113362081E08093920A88E0E0DF8BEE809356017C
S1133630ECE4F1E080818068808308950F931F9308
S1133640CF93DF93EC01892B59F48CE894E09F939A
S11336508F930E9480300F900F9080E090E070C0B4
S113366008891989988D9130A9F038F0923009F4BD
S11336704EC0943009F45AC061C0D801ED91FC9158
S11336800280F381E02DC801199581E0888F80E0E4
S113369090E056C0D8011C96ED91FC911D970480D2
S11336A0F581E02DC80119958F3FBFEF9B0729F4E1
S11336B084E0888F80E090E043C0009781F481E04B
S11336C0888FD8011C96ED91FC911D970680F78197
S11336D0E02D88899989199580E090E031C022E035
S11336E0288F092E000CAA0BBB0B8C839D83AE8301
S11336F0BF838C879D87AE87BF8780911B0D909178
S11337001C0D29D3CE01DBD081E090E019C081E00B
S1133710888FD8011C96ED91FC911D970680F78146
S1133720E02DC801199580E090E00AC081EA94E098
S11337300E949330188E80E090E002C080E090E018
S1133740DF91CF911F910F9108950F931F93CF9302
S1133750DF93FC01C289D38904891589892B29F453
S11337608CE894E00E94933035C0908D992319F031
S1133770913021F02FC081E0808F2CC0E881F98145
S11337800680F781E02DCE011995059781F480EC30
S113379094E00E949330EA81FB810280F381E02D62
S11337A0CE0119958CEC94E00E94933013C0E8810B
S11337B0F9810680F781E02DCE011995049751F423
S11337C0D8011296ED91FC9113970280F381E02DBC
S11337D0C801199580E090E0DF91CF911F910F917E
S11337E008950F931F93CF93DF93E9E9FCE0F093DF
S11337F01C0DE0931B0DF383E283F183E083E9E77F
S1133800FDE0F0937E0DE0937D0DF383E283F1837D
S1133810E083C9EEDAE009E91CE0BE0180917D0D88
S113382090917E0D62D26B96C017D107B1F7DF91EC
S1133830CF911F910F910895CF92DF92EF92FF9253
S11338406B017C0180911B0D90911C0D45D200975A
S113385069F0FC0144815581668177814C195D09C9
S11338606E097F094483558366837783FF90EF90C5
S1133870DF90CF90089580911B0D90911C0D2CD258
S1133880009769F48FED94E00E94933084E295E010
S11338900E94933060E47FE180E090E00895FC01B1
S11338A064817581868197816034FFE17F0781059A
S11338B0910524F060E47FE180E090E008950F93A7
S11338C01F93CF93DF93DC01C0911B0DD0911C0D8E
S11338D0EA81FB81CE17DF0771F1309731F1048162
S11338E015812681378114964D915D916D917C915E
S11338F0179740175107620773076CF4041B150BE5
S1133900260B370B0483158326833783BD018081FF
S11339109181EBD118C0401B510B620B730B1496B1
S11339204D935D936D937C9317970280F381E02D03
S1133930CE17DF0791F6E0911B0DF0911C0DBD0130
S113394080819181D2D1DF91CF911F910F91089500
S11339504F925F926F927F928F929F92AF92BF929B
S1133960EF92FF920F931F932B013C0149015A01DF
S113397080917D0D90917E0DEED1FC01892BD9F0C3
S1133980448255826682778280869186A286B38637
S11339901486158616861786118B008BF78AE68A9D
S11339A081E0808F8EE19BE1928F818FCF0187DF51
S11339B080E090E002C08FEF9FEF1F910F91FF9086
S11339C0EF90BF90AF909F908F907F906F905F909B
S11339D04F9008954F925F926F927F928F929F9231
S11339E0AF92BF92EF92FF920F931F932B013C0172
S11339F049015A0180917D0D90917E0DACD1FC015D
S1133A00892BE9F04482558266827782808691868A
S1133A10A286B3861486158616861786138B028BA8
S1133A20158B048BF78AE68A81E0808F85EA9BE117
S1133A30928F818FCF0143DF80E090E002C08FEF4F
S1133A409FEF1F910F91FF90EF90BF90AF909F90C9
S1133A508F907F906F905F904F900895CF92DF92F8
S1133A60EF92FF920F931F93CF93DF9380911B0DDF
S1133A7090911C0D31D1EC01892B39F48BE695E042
S1133A800E9493308FEF9FEF8BC088899989892B8F
S1133A9049F48A899B89892B29F48C899D89892BEE
S1133AA009F47CC08C819D81AE81BF81892B8A2BD6
S1133AB08B2B71F0E0DE6B01770FEE08FF08C70176
S1133AC0B601BADEC701B601EDD980E090E068C066
S1133AD0E98DFA8DCE0119950197A9F4CCDE611513
S1133AE0710521F4BBDF80E090E05AC06B01770FD1
S1133AF0EE08FF08C701B6019FDEC701B601D2D99F
S1133B0080E090E04DC080911B0D90911C0D23D15D
S1133B1088859985AA85BB850097A105B10519F10A
S1133B204C855D856E857F858C019D01041B150B7D
S1133B30260B370BB901A8010C831D832E833F8309
S1133B40332354F4480F591F6A1F7B1F7723D4F380
S1133B504C835D836E837F831C861D861E861F8631
S1133B60CE01ADDE06C0BE0180917D0D90917E0D2B
S1133B70BCD081DE6115710521F470DF80E090E036
S1133B800FC06B01770FEE08FF08C701B60154DEC2
S1133B90C701B60187D980E090E002C08FEF9FEFA4
S1133BA0DF91CF911F910F91FF90EF90DF90CF9015
S1133BB00895A5DB67D02BDDDCCB08950F931F930D
S1133BC0CF93DF93EC018091930A9091940A00972C
S1133BD009F445C04E815F8168857985FC010281C5
S1133BE0138124813581401751076207730760F000
S1133BF0DC0117C0028113812481358140175107EC
S1133C006207730768F403C0FC01A0E0B0E0041B82
S1133C10150B260B370B02831383248335830AC0C9
S1133C20DF01401B510B620B730BED91FC9111975B
S1133C30309701F74A835B836C837D83109741F04F
S1133C408D919C91119799838883CD93DC9315C0B2
S1133C5099838883D093940AC093930A0EC01982DF
S1133C6018828E819F81A885B9858A839B83AC83C2
S1133C70BD83D093940AC093930ADF91CF911F918F
S1133C800F9108951092940A1092930A0895E09166
S1133C90930AF091940A309771F0E817F90721F428
S1133CA00CC08E179F0759F00190F081E02D3097DA
S1133CB0C1F780E0089580E0089581E0089581E0EF
S1133CC00895CF93DF93EC01E2DF811102C0CE01AE
S1133CD075DFDF91CF910895FC01828193818E1766
S1133CE09F0711F480E090E00895DC011296ED91B5
S1133CF0FC91139771836083DB011396FC93EE931D
S1133D001297FC01738362838D939C93CB01089576
S1133D10FB01DC0112962D913C911397281739076A
S1133D20A1F086179707A1F0A081B18182819381C8
S1133D3013969C938E931297A281B3818081918173
S1133D408D939C93862F9F2F089580E090E0089593
S1133D5080E090E00895FC0162817381681779071F
S1133D6011F0D6CF089580E090E00895FC0114820C
S1133D70158216821782108211821282138208958C
S1133D80FC01848195810895FC012481358186811B
S1133D909781820F931F08951F93CF93DF93EC01B4
S1133DA0162F86E7C0D98881B0D986E7D8D9809301
S1133DB0950A803471F4612F70E040E0CE010BDA93
S1133DC0887F883541F402DA91E0811105C090E0E2
S1133DD003C090E001C090E0892FDF91CF911F9143
S1133DE008950F931F93CF93DF931F921F92CDB724
S1133DF0DEB78B01898362E0CE010196CDDF882393
S1133E0059F08A8190E0982F88272981822BF80124
S1133E109183808381E003C0F801118210820F90A6
S1133E200F90DF91CF911F910F9108950F931F93DE
S1133E30CF93DF931F921F92CDB7DEB78B01898397
S1133E4062E0CE010196A8DF882359F08A8190E0D0
S1133E50982F88272981822BF8019183808381E020
S1133E6003C0F801118210820F900F90DF91CF915F
S1133E701F910F9108950F931F93CF93DF931F9278
S1133E80CDB7DEB78B01898361E0CE01019684DF73
S1133E908823A1F089811F928F9389EE95E09F93E7
S1133EA08F930E948030898190E0F8019183808310
S1133EB00F900F900F900F9081E003C0F8011182D2
S1133EC010820F90DF91CF911F910F910895CF929F
S1133ED0DF92EF92FF920F931F93CF93DF931F9282
S1133EE01F92CDB7DEB77B0189830091000010914A
S1133EF00100B8018C2F8F5FBEDF882351F1C09081
S1133F000000D0900100B6018C2F8E5FB4DF8823AF
S1133F1001F1DF92CF921F930F938FEF95E09F9360
S1133F208F930E94803002951295107F1027007F96
S1133F3010278FE0C822DD240C291D29F7011183E5
S1133F4000830F900F900F900F900F900F9081E0CF
S1133F5004C0F7011182108280E00F900F90DF916E
S1133F60CF911F910F91FF90EF90DF90CF90089524
S1133F70CF92DF92EF92FF920F931F93CF93DF9331
S1133F801F921F92CDB7DEB77B0189830091000099
S1133F9010910100B8018C2F8F5F6DDF882309F128
S1133FA0C0900000D0900100B6018C2F8E5F63DFBB
S1133FB08823B9F0159507951595079515950795D7
S1133FC015950795CC0CDD1CCC0CDD1CCC0CDD1C34
S1133FD0CC0CDD1C0C291D29F7011183008381E021
S1133FE004C0F7011182108280E00F900F90DF91DE
S1133FF0CF911F910F91FF90EF90DF90CF90089594
S11340001092A50A1092A40A1092BF0A1092BE0A36
S11340101092BD0A1092BC0A1092A30A1092A20A2E
S11340201092BB0A1092BA0A1092B90A1092B80AF6
S11340301092B70A1092B60A1092B50A1092B40AF6
S11340401092B30A1092B20A1092B10A1092B00AF6
S11340501092AF0A1092AE0A1092AD0A1092AC0AF6
S11340601092A10A1092AB0A1092AA0A1092A00A06
S11340701092A90A1092A80A1092A70A1092A60AEE
S113408010929F0A08950F931F93CF93DF931F926B
S1134090CDB7DEB7B5DF64EA7AE088E8A2DE1F9226
S11340A08F9307E116E01F930F930E9480306EEB0D
S11340B07AE08AE8BBDE1F928F931F930F930E94CE
S11340C080306CEB7AE08CE8B1DE1F928F931F9303
S11340D00F930E94803062EA7AE08EE882DE1F92BB
S11340E08F931F930F930E9480306AEB7AE080E9EC
S11340F09DDE1F928F931F930F930E94803068EB75
S11341007AE082E993DE1F928F931F930F930E94AC
S1134110803066EB7AE084E989DE1F928F931F93E7
S11341200F930E94803064EB7AE086E97FDE1F9271
S11341308F931F930F930E9480300FB6F894DEBFC5
S11341400FBECDBF62EB7AE088E970DE1F928F93D9
S11341501F930F930E94803060EB7AE08AE966DE59
S11341601F928F931F930F930E9480306EEA7AE020
S11341708CE95CDE1F928F931F930F930E94803013
S11341806CEA7AE08EE952DE1F928F931F930F93AD
S11341900E94803061EA7AE081EA6DDE1F928F939B
S11341A01F930F930E9480308091A10A1F928F93D6
S11341B088E296E09F938F930E9480306AEA7AE0C7
S11341C081EE34DE1F928F931F930F930E948030F1
S11341D08091AB0A8F938091AA0A8F9387E396E02C
S11341E09F938F930E9480300FB6F894DEBF0FBE6A
S11341F0CDBF60EA7AE083EE3EDE1F928F931F9379
S11342000F930E9480308091A00A1F928F9386E4BE
S113421096E09F938F930E94803068EA7AE084EE60
S113422056DE1F928F931F930F930E9480308091CC
S1134230A90A8F938091A80A8F9385E596E09F93AE
S11342408F930E94803066EA7AE085EE91DE1F92B9
S11342508F931F930F930E9480308091A70A8F93AE
S11342608091A60A8F9384E696E09F938F930E9491
S1134270803087EE898361E0CE0101968DDD0FB633
S1134280F894DEBF0FBECDBF882341F0898190E052
S11342909093A00A80939F0A81E004C01092A00A20
S11342A010929F0A1F928F9387E196E09F938F93BA
S11342B00E94803080919F0A282F082E000C330B17
S11342C03F938F9383E796E09F938F930E94803070
S11342D064EA7AE088E885DD0FB6F894DEBF0FBEA5
S11342E0CDBF882309F4F8C06EEB7AE08AE89EDD3E
S11342F0882309F4F1C06CEB7AE08CE897DD88231D
S113430009F4EAC062EA7AE08EE86BDD882309F4F6
S1134310E3C06AEB7AE080E989DD882309F4DCC034
S113432068EB7AE082E982DD882309F4D5C066EB84
S11343307AE084E97BDD882309F4CEC064EB7AE07B
S113434086E974DD882309F4C7C062EB7AE088E962
S11343506DDD882309F4C0C060EB7AE08AE966DD8C
S1134360882309F4B9C06EEA7AE08CE95FDD88231A
S113437009F4B2C06CEA7AE08EE958DD882309F4C6
S1134380ABC061EA7AE081EA76DD882309F4A4C04F
S11343906AEA7AE081EE4ADD882309F49DC060EA86
S11343A07AE083EE68DD882309F496C068EA7AE04F
S11343B084EE8DDD882309F48FC066EA7AE085EE09
S11343C0D7DD882309F488C087EE898361E0CE01B4
S11343D00196E2DC882309F47BC0898190E0909304
S11343E0A00A80939F0A282F082E000C330B3F93BA
S11343F08F938091A70A8F938091A60A8F938091BF
S1134400A90A8F938091A80A8F938091A00A1F9282
S11344108F938091AB0A8F938091AA0A8F93809196
S1134420A10A1F928F938091AD0A8F938091AC0A59
S11344308F938091AF0A8F938091AE0A8F9380916E
S1134440B10A8F938091B00A8F938091B30A8F93AE
S11344508091B20A8F938091B50A8F938091B40AA8
S11344608F938091B70A8F938091B60A8F9380912E
S1134470B90A8F938091B80A8F938091BB0A8F9366
S11344808091BA0A8F938091A30A8F938091A20A94
S11344908F938091BD0A8F938091BC0A8F938091F2
S11344A0BF0A8F938091BE0A8F938091A50A8F9340
S11344B08091A40A8F9382E896E09F938F930E9441
S11344C080300FB6F894DEBF0FBECDBF81E004C0CC
S11344D01092A00A10929F0A0F90DF91CF911F9122
S11344E00F91089590939E0A80939D0A81E0089508
S11344F01F93CF93DF931F921F92CDB7DEB784EF44
S1134500898380919D0A90919E0A8230910501F1E0
S11345102CF4009749F0019789F038C08330910555
S113452009F1049749F132C085E28A8381E090E081
S113453090939C0A80939B0A18E02BC089E28A839B
S113454081E090E090939C0A80939B0A1AE021C03A
S11345508DE28A8381E090E090939C0A80939B0A89
S11345601FE017C081E38A8381E090E090939C0A66
S113457080939B0A18E10DC08DE58A8381E090E069
S113458090939C0A80939B0A1DE203C085E28A8370
S113459019E086E70E94931862E070E0CE0101966C
S11345A00E942519883231F40E94E618882321F0EC
S11345B0812F03C08FEF01C08FEF0F900F90DF9119
S11345C0CF911F9108954F925F926F927F92AF9215
S11345D0BF92CF92DF92EF92FF921F93CF93DF931C
S11345E0CDB7DEB729970FB6F894DEBF0FBECDBFA7
S11345F05C016B017A0197EF998368E0CE01019623
S1134600CBDB182F882309F4B4C0698170E080E003
S113461090E032D620E030E040E853E4E1D62B01CC
S11346203C018A81682F70E080E090E025D69B01F0
S1134630AC01C301B2011DD52B013C018B81682F54
S113464070E080E090E018D620E030E040E85BE3E2
S1134650C7D69B01AC01C301B2010BD520E030E009
S113466040E851E4BDD6F50160837183828393836E
S11346706C8170E080E090E0FFD520E030E040E81D
S113468053E4AED62B013C018D81682F70E080E0AD
S113469090E0F2D59B01AC01C301B201EAD42B0135
S11346A03C018E81682F70E080E090E0E5D520E049
S11346B030E040E85BE394D69B01AC01C301B20156
S11346C0D8D420E030E040E851E48AD6F601608393
S11346D07183828393836F8170E080E090E0CCD516
S11346E020E030E040E853E47BD62B013C01888590
S11346F0682F70E080E090E0BFD59B01AC01C3015E
S1134700B201B7D420E030E040E851E469D6F701C3
S1134710608371838283938380919F0A282F082E5C
S1134720000C330B3F938F938091A70A8F93809152
S1134730A60A8F938091A90A8F938091A80A8F93D8
S11347408091A00A1F928F938091AB0A8F938091DE
S1134750AA0A8F938091A10A1F928F9389EB96E006
S11347609F938F930E9480300FB6F894DEBF0FBEE4
S1134770CDBF812F29960FB6F894DEBF0FBECDBFF3
S1134780DF91CF911F91FF90EF90DF90CF90BF907A
S1134790AF907F906F905F904F9008954F925F928B
S11347A06F927F928F929F92AF92BF92CF92DF923D
S11347B0EF92FF92CF93DF93EC01FB01C080D18095
S11347C0E280F3808091A40A9091A50ABC0180E064
S11347D090E050D52B013C0120E030E040E057E36D
S11347E0C701B601FDD54B015C0120E030E040E09B
S11347F059E3C301B201F4D59B01AC01C501B40175
S113480037D44B015C0120E030E040E858E3C701B5
S1134810B601E6D56B017C0120E030E040E85AE3C4
S1134820C301B201DDD59B01AC01C701B60120D49F
S11348306B017C018091BE0A9091BF0ABC01990F63
S1134840880B990B19D59B01AC01C701B601C8D5DA
S11348506B017C01A5019401C501B401C1D54B01D3
S11348605C014091BC0A5091BD0ABA01550F880BF6
S1134870990B02D59B01AC01C501B401B1D59B01D3
S1134880AC01C701B601F5D36B017C01C2D46093BE
S1134890970A7093980A8093990A90939A0A20E051
S11348A030E040EA55E4C701B6014BD46B017C010A
S11348B0688379838A839B8320E030E048EC52E468
S11348C08BD518166CF020E030E048EC52ECC701B0
S11348D0B60133D4881F8827881F91E0892701C037
S11348E080E0DF91CF91FF90EF90DF90CF90BF9069
S11348F0AF909F908F907F906F905F904F900895AE
S11349004F925F926F927F928F929F92AF92BF92DB
S1134910CF92DF92EF92FF920F931F93CF93DF9387
S11349208C01EB016091970A7091980A8091990A21
S113493090919A0AA1D420E030E040E05FE350D5A2
S113494020E030E04AE757E493D36B017C016091A7
S1134950B20A7091B30A072E000C880B990B8CD401
S1134960A70196013DD520E030E040E058E338D57A
S1134970A701960135D54B015C016091B40A709191
S1134980B50A072E000C880B990B76D4A701960163
S113499027D59B01AC016DD3A50194016AD320E016
S11349A030E040E85EE31CD54B015C016091B80A3D
S11349B07091B90A072E000C880B990B5DD4A701DE
S11349C096010ED5A70196010BD520E030E040E01A
S11349D056E306D52B013C016091BA0A7091BB0ADB
S11349E0072E000C880B990B47D4A7019601F8D425
S11349F09B01AC01C301B2013CD320E030E040E0B4
S1134A0056E3EED420E030E040E057E432D320E037
S1134A1030E040E058E3E4D46B017C012881398123
S1134A204A815B8160E070E080E899E421D32B0146
S1134A303C016091B60A7091B70A072E000C880BEE
S1134A40990B1AD420E030E040E857E4C9D49B0124
S1134A50AC01C501B4010DD320E030E040E859E3D6
S1134A60BFD49B01AC01C301B20102D320E030E505
S1134A7043EC55E4B5D44B015C018091A20A9091BA
S1134A80A30ABC0180E090E0F5D39B01AC01C7010F
S1134A90B601A6D49B01AC01C501B40152D36B018C
S1134AA07C016091AC0A7091AD0A072E000C880B52
S1134AB0990BE2D3A701960193D4A701960190D450
S1134AC020E030E040E050E38BD44B015C01809166
S1134AD0AE0A9091AF0ABC01990F880B990BCCD305
S1134AE0A70196017DD420E030E040E058E378D47B
S1134AF09B01AC01C501B401BCD24B015C018091A6
S1134B00B00A9091B10ABC01990F880B990BB4D3E8
S1134B109B01AC01C501B401ACD220E030E040E817
S1134B205DE35ED4A7019601A4D220E030E048EC16
S1134B3052E407D36B017C01F801608371838283A3
S1134B40938320E030E046E954E446D418166CF030
S1134B5020E030E048E454E4C701B601EED2881FF7
S1134B608827881F91E0892701C080E0DF91CF91D9
S1134B701F910F91FF90EF90DF90CF90BF90AF9077
S1134B809F908F907F906F905F904F9008954F9279
S1134B905F926F927F928F929F92AF92BF92CF92C9
S1134BA0DF92EF92FF92CF93DF93EC01FB018080C1
S1134BB09180A280B3806091970A7091980A809145
S1134BC0990A90919A0A58D320E030E046E957E4D4
S1134BD04FD26B017C0120E030E0A901AED28823E2
S1134BE009F4DAC020E030E040E856E4C501B4013D
S1134BF0F7D34B015C018091A80A9091A90ABC01EA
S1134C00990F880B990B38D320E030E040E859E441
S1134C10E7D39B01AC01C501B4012AD24B015C016D
S1134C208091A60A9091A70ABC01990F880B990B51
S1134C3023D3A7019601D4D39B01AC01C501B401D0
S1134C4017D220E030E040E856E413D220E030E010
S1134C5040E058E3C5D34B015C0160919F0A062EE6
S1134C60000C770B880B990B07D3A7019601B8D3D7
S1134C7020E030E040E85AE3B3D32B013C016091DB
S1134C80A00A70E080E090E0F5D2A7019601A8D3D5
S1134C9020E030E040E05AE3A3D320E030E040E0FD
S1134CA057E4E7D19B01AC01C301B20199D320E0E1
S1134CB030E040E85AE394D320E030E040E05AE4A6
S1134CC0D8D16B017C018091AA0A9091AB0ABC01F6
S1134CD0990F880B990BD0D220E030E040E056E4E5
S1134CE0C8D19B01AC01C701B6017AD320E030E002
S1134CF040E858E375D39B01AC01C501B40170D3FE
S1134D006B017C01688379838A839B8320E030E094
S1134D1040E058E365D39B01AC0162D320E030E06E
S1134D2040E05CE35DD34B015C018091A10A682FF4
S1134D3070E080E090E09ED29B01AC01C501B4011B
S1134D404FD320E030E040E85DE34AD39B01AC015F
S1134D50C701B6018DD16B017C0120E030E048EC45
S1134D6052E43AD3181654F480E090E0A8ECB2E48C
S1134D7088839983AA83BB8381E011C020E030E05B
S1134D80A901C701B601D9D1882344F41882198234
S1134D901A821B8281E003C080E001C081E0DF91C0
S1134DA0CF91FF90EF90DF90CF90BF90AF909F9006
S1134DB08F907F906F905F904F900895CF92DF9285
S1134DC0EF92FF920F931F93CF93DF93CDB7DEB78C
S1134DD02C970FB6F894DEBF0FBECDBF8C017B01BC
S1134DE06A01AE01475F5F4FBE016B5F7F4FCE012B
S1134DF00196E9DB882321F1BE016B5F7F4FC80177
S1134E00CDDC8823C1F0BE016F5F7F4FC70178DD21
S1134E10882361F0BE01675F7F4FC601B8DE811150
S1134E2014C084E08093960A80E010C083E08093ED
S1134E30960A80E00BC082E08093960A80E006C068
S1134E4081E08093960A80E001C081E02C960FB641
S1134E50F894DEBF0FBECDBFDF91CF911F910F91AC
S1134E60FF90EF90DF90CF9008952CE732E0FC01A3
S1134E7035872487089580E090E0089524E732E0A0
S1134E80FC0131832083089580E090E0089583E05D
S1134E9090E0089586ED96E00E94933080E090E0E3
S1134EA0089583EE96E00E94933080E090E00895A8
S1134EB0CF93DF9386EF96E00E94933019DBC82FDF
S1134EC0D0E01F928F9385E097E09F938F930E9489
S1134ED080300F900F900F900F90209719F0CE0113
S1134EE0019602C080E090E0DF91CF910895EF92A7
S1134EF0FF920F931F93CF93DF93CDB7DEB72C9719
S1134F000FB6F894DEBF0FBECDBF8C0186E197E0EB
S1134F100E949330AE01475F5F4FBE016B5F7F4FCE
S1134F20CE0101964BDF8C858F938B858F938A8579
S1134F308F9389858F9388858F938F818F938E81AB
S1134F408F938D818F938C818F938B818F938A81A3
S1134F508F9389818F9385E297E09F938F930E942B
S1134F608030D8011A96ED91FC911B97C8011995D0
S1134F70F82EE92ED8011896ED91FC911997C801E5
S1134F801995EF92FF929F938F938CE597E09F93EF
S1134F908F930E948030E0917A07F0917B0789819A
S1134FA09A81AB81BC8180839183A283B383E09196
S1134FB07A07F0917B078D819E81AF81B8858483C8
S1134FC09583A683B7830FB6F894DEBF0FBECDBF1B
S1134FD080E090E02C960FB6F894DEBF0FBECDBFF4
S1134FE0DF91CF911F910F91FF90EF900895EF9271
S1134FF0FF920F931F93CF93DF937C018B018EE07D
S113500090E02BD6EC0180EC9EE19987888784ECB4
S11350109EE19B878A8784E792E0998388838CE763
S113502092E09D878C87FB82EA821F830E838091A6
S11350301D0D90911E0D9D838C83B801680F791FFF
S113504070931E0D60931D0D7F936F938AE294E01D
S11350509F938F930E9480300F900F900F900F902A
S1135060CE01DF91CF911F910F91FF90EF900895A2
S11350705058BB27AA270ED075C166D130F06BD12A
S113508020F031F49F3F11F41EF45BC10EF4E0955F
S1135090E7FB51C1E92F77D180F3BA176207730791
S11350A08407950718F071F49EF58FC10EF4E0950E
S11350B00B2EBA2FA02D0B01B90190010C01CA01CE
S11350C0A0011124FF27591B99F0593F50F4503E79
S11350D068F11A16F040A22F232F342F4427585F6B
S11350E0F3CF469537952795A795F0405395C9F783
S11350F07EF41F16BA0B620B730B840BBAF091503B
S1135100A1F0FF0FBB1F661F771F881FC2F70EC0D9
S1135110BA0F621F731F841F48F4879577956795AC
S1135120B795F7959E3F08F0B3CF9395880F08F095
S11351309927EE0F979587950895D9D008F481E0C3
S113514008950CD00FC107D140F0FED030F021F407
S11351505F3F19F0F0C0511139C1F3C014D198F375
S11351609923C9F35523B1F3951B550BBB27AA27E4
S113517062177307840738F09F5F5F4F220F331F56
S1135180441FAA1FA9F333D00E2E3AF0E0E830D022
S113519091505040E695001CCAF729D0FE2F27D025
S11351A0660F771F881FBB1F261737074807AB07F3
S11351B0B0E809F0BB0B802DBF01FF2793585F4F68
S11351C02AF09E3F510568F0B6C000C15F3FECF382
S11351D0983EDCF3869577956795B795F7959F5F2D
S11351E0C9F7880F911D9695879597F90895E1E081
S11351F0660F771F881FBB1F621773078407BA07E0
S113520020F0621B730B840BBA0BEE1F88F7E0953A
S1135210089504D06894B111D9C00895BCD088F021
S11352209F5790F0B92F9927B751A0F0D1F0660F8E
S1135230771F881F991F1AF0BA95C9F712C0B130A9
S113524081F0C3D0B1E00895C0C0672F782F8827BC
S1135250B85F39F0B93FCCF3869577956795B395E8
S1135260D9F73EF490958095709561957F4F8F4F57
S11352709F4F0895E89409C097FB3EF4909580955C
S1135280709561957F4F8F4F9F4F9923A9F0F92F08
S113529096E9BB279395F695879577956795B79586
S11352A0F111F8CFFAF4BB0F11F460FF1BC06F5F6C
S11352B07F4F8F4F9F4F16C0882311F096E911C07E
S11352C0772321F09EE8872F762F05C0662371F09F
S11352D096E8862F70E060E02AF09A95660F771FB3
S11352E0881FDAF7880F9695879597F90895990F8F
S11352F00008550FAA0BE0E8FEEF16161706E8079C
S1135300F907C0F012161306E407F50798F0621BBC
S1135310730B840B950B39F40A2661F0232B242B91
S1135320252B21F408950A2609F4A140A6958FEFB0
S1135330811D811D089597F99F6780E870E060E002
S113534008959FEF80EC089500240A94161617061A
S113535018060906089500240A9412161306140662
S113536005060895092E0394000C11F4882352F0C5
S1135370BB0F40F4BF2B11F460FF04C06F5F7F4F7D
S11353808F4F9F4F089557FD9058440F551F59F064
S11353905F3F71F04795880F97FB991F61F09F3F1E
S11353A079F087950895121613061406551FF2CF47
S11353B04695F1DF08C0161617061806991FF1CF97
S11353C086957105610508940895E894BB276627BE
S11353D07727CB0197F908958ADF08F48FEF0895B2
S11353E00BD0C0CFB1DF28F0B6DF18F0952309F059
S11353F0A2CFA7CF1124EACFC6DFA0F3959FD1F3A4
S1135400950F50E0551F629FF001729FBB27F00D6E
S1135410B11D639FAA27F00DB11DAA1F649F6627C3
S1135420B00DA11D661F829F2227B00DA11D621F12
S1135430739FB00DA11D621F839FA00D611D221FCC
S1135440749F3327A00D611D231F849F600D211DB0
S1135450822F762F6A2F11249F5750408AF0E1F053
S113546088234AF0EE0FFF1FBB1F661F771F881F9C
S113547091505040A9F79E3F510570F05CCFA6CFE4
S11354805F3FECF3983EDCF3869577956795B79587
S1135490F795E7959F5FC1F7FE2B880F911D9695B1
S11354A0879597F908952F923F924F925F926F924A
S11354B07F928F929F92AF92BF92CF92DF92EF92A0
S11354C0FF920F931F93CF93DF93CDB7DEB763970C
S11354D00FB6F894DEBF0FBECDBF6C014B012A019D
S11354E0FC0117821682838181FF29C3AE014F5FBD
S11354F05F4F3A01F6019381F40193FD859193FF87
S113550081914F01882309F416C3853239F493FD40
S1135510859193FF81914F01853231F4B60190E07A
S1135520B7D552012501E6CF10E0F12C20E020325E
S1135530A0F48B3269F030F4803259F0833269F48C
S113554020612CC08D3239F0803339F4216026C0BB
S11355502260246023C0286021C027FD27C030EDCD
S1135560380F3A3078F426FF06C0FAE01F9F300D5A
S11355701124132F13C04AE0F49E300D1124F32E8E
S113558020620CC08E3221F426FDD5C2206406C0F0
S11355908C3611F4206802C0883641F4F40193FD7E
S11355A0859193FF81914F018111C1CF9BEB980F9E
S11355B0933018F42061805E06C09BE9980F933005
S11355C008F064C12F7E26FF16E02F73322E853635
S11355D019F42064322E08C0863621F4F22FF068C4
S11355E03F2E02C01111115037FE07C01C3350F476
S11355F0EE24E394E10E27E00BC0183038F027E0E6
S113560017E005C027E04CE3E42E02C0212FE12C73
S1135610520144E0A40EB11CF201608171818281C7
S113562093810E2DA30146D42C01098100FF02C0F1
S113563003FF07C031FC08C032FE09C030E2232E4C
S113564007C02DE2222E04C09BE2292E01C0212C8A
S1135650802F8C7019F0211051C28DC237FE0FC0FB
S1135660E40C04FF04C08A81813309F4EA941E1413
S113567074F5F8E0FE1578F588E0E82E2CC036FCC9
S11356802AC0812F90E0841595059CF02CEF4216DA
S11356902FEF520674F0432D4068342E0AC0E2E026
S11356A0F0E0EC0FFD1FE10FF11D8081803319F450
S11356B011501111F4CF37FE0EC0EE24E394E10E25
S11356C0812F90E0481659062CF4141904C0EE24D6
S11356D0E39401C010E037FE06C01414150434F43A
S11356E0C201019605C085E090E002C081E090E02F
S11356F021100196112331F0212F30E02F5F3F4F0D
S1135700820F931F2F2D30E08217930714F4F81A99
S113571001C0F12C832D897041F4FF2031F0B601D2
S113572080E290E0B5D4FA94F8CF222021F0B601BB
S1135730822D90E0ADD433FC08C0FF2031F0B601D7
S113574080E390E0A5D4FA94F8CF37FE58C0942DA6
S1135750852D57FE02C090E080E0292E382E20E0EF
S113576030E0A2014E1951095D874C87A20142190C
S113577053095F874E87612F70E044275527461BE6
S1135780570B598B488B5FEF2516350641F4B6014C
S11357908EE290E02A8B3B8B7BD43B892A8942148E
S11357A053046CF04C855D854215530544F4EE8535
S11357B0FF85E20FF31FE60DF71D818101C080E331
S11357C051E0251A31082F5F3F4F48895989241623
S11357D0350644F0B60190E02A8B3B8B59D42A89D4
S11357E03B89D1CF2414350439F49A81963318F4C3
S11357F0953311F404FF81E3B60190E045C08A813A
S1135800813309F00F7EB60190E042D4111105C036
S113581034FC16C085E690E015C0B6018EE290E037
S113582037D482E0EE24E394E80EF301E80FF11D8F
S11358308081B60190E02CD411508E2D99F7E8CFD9
S113584085E490E0B60124D457FC05C0411451040A
S113585039F404FF05C05194419451088DE201C00C
S11358608BE2B60190E014D480E39AE04916510427
S11358702CF08F5F5AE0451A5108F7CFB60190E03B
S113588007D4B601C201C09603D44CC1833631F0AB
S1135890833779F0833509F054C020C05201E2E027
S11358A0AE0EB11CF2018081898301E010E0230176
S11358B013C05201F2E0AF0EB11CF20140805180DE
S11358C026FF03C0612F70E002C06FEF7FEFC201BB
S11358D02A8BD3D38C012A892F7714C05201F2E08A
S11358E0AF0EB11CF2014080518026FF03C0612F2E
S11358F070E002C06FEF7FEFC2012A8BB3D38C013B
S11359002A892068322E23FD18C08F2D90E00817B5
S1135910190798F4B60180E290E0BAD3FA94F5CF6F
S1135920F20137FC859137FE81912F01B60190E099
S1135930AFD3F110FA94015011090115110581F743
S1135940F1C0843611F0893651F5520127FF09C0A0
S1135950F4E0AF0EB11CF201608171818281938108
S11359600AC0F2E0AF0EB11CF20160817181072E12
S1135970000C880B990B2F76322E97FF09C0909557
S11359808095709561957F4F8F4F9F4F2068322E81
S11359902AE030E0A301F7D3E82EE6183EC0022F38
S11359A0853721F40F7E2AE030E01DC0097F8F3651
S11359B091F018F4883559F0BEC0803719F0883753
S11359C011F0B9C0006104FF09C0046007C024FFDE
S11359D008C0066006C028E030E005C020E130E0E1
S11359E002C020E132E0520107FF09C0F4E0AF0E2B
S11359F0B11CF201608171818281938108C0F2E05F
S1135A00AF0EB11CF2016081718180E090E0A301CE
S1135A10BAD3E82EE6180F77302E36FE0BC0332D9E
S1135A203E7FE11650F434FE0AC032FC08C0332D28
S1135A303E7E05C00E2D332D03C00E2D01C0012F57
S1135A4034FF0CC0FE01EE0DF11D8081803311F492
S1135A50397E08C032FF05C00E5F04C0832F8678EC
S1135A6009F00F5F33FD12C030FF06C01E2D0F1565
S1135A7018F41F0D101B0F2D0F1560F4B60180E2F2
S1135A8090E03B8B05D30F5F3B89F6CF0F1510F4E5
S1135A90F01A01C0F12C34FF11C0B60180E390E08C
S1135AA03B8BF6D23B8932FF16C031FD03C088E739
S1135AB090E002C088E590E0B6010CC0832F8678A0
S1135AC051F031FF02C08BE201C080E237FD8DE26C
S1135AD0B60190E0DDD2E11630F4B60180E390E047
S1135AE0D7D21150F8CFEA94F301EE0DF11D808165
S1135AF0B60190E0CDD2E110F6CF14C0F4E0FF156A
S1135B0048F584E0F81A33FE1DC0211024C003FFB9
S1135B1027C002E411E0F32DF0713F2EF8018491C7
S1135B20811121C0FF2009F4FDCCB60180E290E090
S1135B30AFD2FA94F7CFF6018681978123C08FEF15
S1135B409FEF20C0B60180E290E0A2D2FA94F11057
S1135B50F9CFDBCFF12CB601822D90E099D2D7CFCB
S1135B6006E411E0D8CF31108052B60190E090D213
S1135B700F5F1F4FD3CF23E02F1510F483E0C2CF64
S1135B80F12CC5CF63960FB6F894DEBF0FBECDBF20
S1135B90DF91CF911F910F91FF90EF90DF90CF9005
S1135BA0BF90AF909F908F907F906F905F904F9039
S1135BB03F902F900895DB018F939F9335D0BF9131
S1135BC0AF91A29F800D911DA39F900DB29F900D48
S1135BD011240895A1E21A2EAA1BBB1BFD010DC0BE
S1135BE0AA1FBB1FEE1FFF1FA217B307E407F50789
S1135BF020F0A21BB30BE40BF50B661F771F881F65
S1135C00991F1A9469F760957095809590959B01FA
S1135C10AC01BD01CF010895EE0FFF1F881F8BBF9C
S1135C200790F691E02D199409D0A59F900DB49F8B
S1135C30900DA49F800D911D11240895A29FB00181
S1135C40B39FC001A39F700D811D1124911DB29FAC
S1135C50700D811D1124911D0895CF93DF9382301F
S1135C60910510F482E090E0E091AC0DF091AD0D5F
S1135C7020E030E0C0E0D0E0309711F14081518164
S1135C8048175907C0F04817590761F48281938176
S1135C90209719F09B838A832BC09093AD0D80933A
S1135CA0AC0D26C02115310519F04217530718F41D
S1135CB09A01BE01DF01EF010280F381E02DDCCF08
S1135CC02115310509F1281B390B2430310590F4D5
S1135CD012968D919C9113976115710521F0FB012A
S1135CE09383828304C09093AD0D8093AC0DFD012A
