S00D000041544D4F532E7372656393
S11300001AC1000038C1000036C1000034C100002C
S113001032C1000030C100002EC100002CC100001C
S11300202AC1000028C1000026C1000024C100002C
S113003022C1000020C100001EC1000015C3000041
S11300401AC1000018C1000016C1000014C100004C
S113005012C1000010C100000EC100000CC100005C
S11300600AC1000008C1000006C1000004C100006C
S113007002C1000000C10000FEC00000FCC000007E
S1130080FAC00000F8C00000F6C00000F4C0000090
S1130090F2C00000F0C00000EEC00000ECC00000A0
S11300A0EAC00000E8C00000A1C50000E4C00000F0
S11300B0E2C00000E0C00000DEC00000DCC00000C0
S11300C0DAC00000D8C00000D6C00000D4C00000D0
S11300D0D2C00000D0C00000CEC00000CCC00000E0
S11300E0CAC00000C8C00000C6C00000C4C00000F0
S11300F0C2C00000C0C00000BEC00000BCC0000000
S1130100BAC00000B8C00000B6C00000B4C000000F
S1130110B2C00000B0C00000AEC00000ACC000001F
S1130120AAC00000A8C00000A6C00000A4C000002F
S1130130A2C000006E616E00696E660000407A1015
S1130140F35A00A0724E18090010A5D4E80000E884
S11301507648170000E40B54020000CA9A3B0000E2
S113016000E1F505000080969800000040420F0071
S11301700000A08601000000102700000000E80332
S1130180000000006400000000000A0000000000FD
S11301900100000000002C76D888DC674F0823DFBC
S11301A0C1DFAE59E1B1B796E5E3E453C63AE6518F
S11301B0997696E8E6C28426EB898C9B62ED407CB6
S11301C06FFCEFBC9C9F40F2BAA56FA5F490055A52
S11301D02AF75C936B6CF9676DC11BFCE0E40D4777
S11301E0FEF520E6B500D0ED902E0300943577059A
S11301F00080841E080000204E0A000000C80C3352
S11302003333330F986E12831141EF8D2114893BE0
S1130210E65516CFFEE6DB18D1844B381BF77C1D60
S1130220901DA4BBE424203284725E228100C9F1B3
S113023024ECA1E53D2711241FBECFEFD1E8DEBF9A
S1130240CDBF00E00CBF16E0A0E0B2E0E4EAFAE3C0
S113025000E00BBF02C007900D92A630B107D9F79A
S11302602BE0A6E0B6E001C01D92A83AB207E1F780
S113027094D00C94501DC4CEAF92BF92CF92DF9213
S1130280EF92FF920F931F93CF93DF935C01A6E34A
S1130290B2E0FC01B0962AE232E08EE192E002E4A0
S11302A012E00F2EF0EECF2EFEE2DF2EE12CF12C29
S11302B0F02D4D915D916D917D91408351836283C9
S11302C07383C482D582E682F782E9014991599108
S11302D0699179919E014487558766877787EC01F8
S11302E04991599169917991CE01408751876287EB
S11302F073877096A017B107E1F68EE092E0FC01D7
S11303004081518162817381E501488359836A8305
S11303107B83A6E1B2E04D915D916D917C91139741
S11303204C835D836E837F83E6E0F2E040815181FC
S1130330628173814C875D876E877F8718861986F3
S11303401A861B86EC014C815D816E817F81E501FB
S1130350488B598B6A8B7B8B14968D919D910D9054
S1130360BC91A02D8C8B9D8BAE8BBF8B8481958192
S1130370A681B7818C8F9D8FAE8FBF8F188E198EFB
S11303801A8E1B8EDF91CF911F910F91FF90EF90EA
S1130390DF90CF90BF90AF9008950E94270ADBD2E0
S11303A0DED260E875E280E090E0B6D3249A6B9ADE
S11303B0739A60E177E280E090E0D7D249D10E945D
S11303C0680D9F938F9386E992E09F938F930E9489
S11303D0AA1C84E090E00E94140EC3D210921E0B5B
S11303E010921D0B8FE19BE047DF49D68FE399E024
S11303F00E94D10C62E070E080E090E00E9418144A
S11304008C0188EA92E09F938F930E94AA1C61E07A
S113041070E080E090E0DAD04C0180E090E00E944F
S113042061126C01BC0180E090E00E943D135C010C
S113043063D185EB92E00E94C21CCFE1DBE02CA1EA
S11304403DA14EA15FA168A179A18AA19BA1E12C44
S1130450F12CCCD62091630B3091640B4091650B49
S11304605091660B60915F0B7091600B8091610BF2
S11304709091620B8401BAD68F898F938E898F9362
S11304808D898F938C898F938B898F938A898F938E
S113049089898F9388898F9320EC32E03F932F933F
S11304A00E94AA1C2C813D814E815F8168817981E3
S11304B08A819B818501DCD62C893D894E895F899F
S11304C0688979898A899B898601D2D622D60FD2F6
S11304D078948DB79EB740960FB6F8949EBF0FBE22
S11304E08DBFFFCF2AE432E0FC01358724870895CD
S11304F080E090E0089580E090E0089522E432E006
S1130500FC0131832083089580E090E0089583E026
S113051090E0089588E655D2883171F464E070E083
S113052084E592E0E0D2883239F49ED28FE39CE9EC
S11305300197F1F700C0000080E090E00895CF93A8
S1130540DF9300D01F92CDB7DEB719821A821B82C7
S11305501C8288E652D28034F1F441E064E070E019
S1130560CE01019686D28035C9F47ED28A8190E08C
S11305702B8130E06C8170E04981FC01E40FF11DB6
S1130580AF01420F531F6417750759F4982F88273A
S1130590822B932B08C080E090E005C080E090E0BF
S11305A002C080E090E00F900F900F900F90DF91C9
S11305B0CF91089560E47DE083E090E0D6D187ECAC
S11305C092E00E94C21C80E090E00895EF92FF92B6
S11305D00F931F93CF93DF937C018B018EE090E008
S11305E00E94571AEC0182E492E0998388838AE49A
S11305F092E09D878C878BED9CE0998788878FEDAF
S11306009CE09B878A87FB82EA821F830E8380910A
S11306101D0B90911E0B9D838C83B801680F791F6D
S113062070931E0B60931D0B7F936F9387ED92E085
S11306309F938F930E94AA1C0F900F900F900F907E
S1130640CE01DF91CF911F910F91FF90EF9008950C
S113065084E880937A0085EC80937700EBE7F0E000
S113066080818823ECF708951F920F920FB60F92A2
S113067011240BB60F922F933F934F935F936F9375
S11306807F938F939F93AF93BF93EF93FF93809147
S11306900C0690910D06019690930D0680930C061E
S11306A080910B068F9380910A068F93809109069F
S11306B08F93809108068F938BEE92E09F938F9394
S11306C00E94AA1C19D60F900F900F900F900F90B4
S11306D00F90FF91EF91BF91AF919F918F917F9177
S11306E06F915F914F913F912F910F900BBE0F909F
S11306F00FBE0F901F9018951092080610920906CD
S113070010920A0610920B0610920D0610920C0617
S1130710E6EBF0E080818062808380818F71E9F76D
S11307201092B1000895CF92DF92EF92FF926B0185
S11307307C01E6EBF0E080818F71E9F71092B10063
S1130740E6EBF0E080818F71E9F78BEFC816D104F6
S1130750E104F104ECF4C701B6010E945B152FE635
S113076032E143E85FE30E940F160E94281520E05F
S113077031E0C901861B970B8F3F910519F014F0E6
S11307808FEF90E08093B20083E08093B10094C037
S113079085EFC81681E0D806E104F104ECF4C70142
S11307A0B6010E945B152FE632E143E05FE30E944D
S11307B00F160E94281520E031E0C901861B970B13
S11307C08F3F910519F014F08FEF90E08093B20001
S11307D084E08093B10070C089EEC81683E0D80627
S11307E0E104F104ECF4C701B6010E945B152FE6A5
S11307F032E143E85EE30E940F160E94281520E0D0
S113080031E0C901861B970B8F3F910519F014F055
S11308108FEF90E08093B20085E08093B1004CC0EC
S113082081EDC81687E0D806E104F104ECF4C701B1
S1130830B6010E945B152FE632E143E05EE30E94BD
S11308400F160E94281520E031E0C901861B970B82
S11308508F3F910519F014F08FEF90E08093B20070
S113086086E08093B10028C081E4C8168FE1D806E1
S1130870E104F104ECF4C701B6010E945B152FE614
S113088032E143E05DE30E940F160E94281520E048
S113089031E0C901861B970B8F3F910519F014F0C5
S11308A08FEF90E08093B20087E08093B10004C0A2
S11308B08CEF92E00E94C21C1092B0008091080656
S11308C090910906A0910A06B0910B06C80ED91E94
S11308D0EA1EFB1EC0920806D0920906E0920A06A0
S11308E0F0920B06FF90EF90DF90CF9008951BDFFE
S11308F087E087BB81E0809370000895CF92DF92F8
S1130900EF92FF926B017C01FF92EF92DF926F9363
S11309108EE093E09F938F930E94AA1C0F900F90F8
S11309200F900F900F900F90C114D104E104F104C3
S113093069F080910C0690910D06892B21F4C70172
S1130940B601D5DF03C0C701B601EDDEFF90EF901D
S1130950DF90CF9008958AB1806C8AB908955F9A28
S11309600895239A80E48CBD08959B01AC011092F4
S1130970B90060E074E284EF90E00E94FA19DA01B1
S1130980C9014097A109B109689412F8B695A795D1
S1130990979587951694D1F78093B80084E0809357
S11309A0BC0081E008958093BB0084E88093BC0080
S11309B0ECEBF0E080818823ECF78091B900887F2C
S11309C0089594EE9093BC00ECEBF0E090819923B1
S11309D0ECF7EFE9FFE03197F1F700C000009091E8
S11309E0B900987F983031F0903121F08091B900AE
S11309F0887F0895880FD7CF089594EE9093BC0014
S1130A00ECEBF0E090819923ECF79091B900987F9A
S1130A10983031F0903121F08091B900887F0895A9
S1130A20880F8160C0CF0895DC0184EC8093BC0002
S1130A30ECEBF0E090819923ECF78091BB008C9370
S1130A408091B900887F0895DC0184E88093BC001C
S1130A50ECEBF0E090819923ECF78091BB008C9350
S1130A608091B900887F089584E98093BC0081E077
S1130A7008959F92AF92BF92CF92DF92EF92FF922E
S1130A800F931F93CF93DF9316161706FCF4942E3F
S1130A908B017C01C0E0D0E06B0181E0C81AD10871
S1130AA05701AC0CBD1C911006C0CC16DD0619F420
S1130AB0C501CADF04C0C7018C0F9D1FB5DF803597
S1130AC031F42196C017D10771F701C080E0DF919E
S1130AD0CF911F910F91FF90EF90DF90CF90BF9037
S1130AE0AF909F9008950F931F93CF93DF931616A3
S1130AF0170664F48C01EC01060F171F899153DF6C
S1130B00883229F4C017D107C9F701C080E0DF910A
S1130B10CF911F910F91089528E532E03093A50BF2
S1130B202093A40BDC01CB01880F991FAA1FBB1FC4
S1130B30880F991FAA1FBB1F9C01AD01220F331FF1
S1130B40441F551F220F331F441F551F60E074E2DA
S1130B5084EF90E00E94FA19215031093093C500C6
S1130B602093C40086E08093C20088E18093C10092
S1130B700895E0ECF0E0908195FFFDCF8093C600EE
S1130B800895CF93C82F8A3011F48DE0F2DF8C2FB3
S1130B90F0DF80E090E0CF91089514BE0FB6F89492
S1130BA0A895809160008861809360001092600035
S1130BB00FBEE1E6F0E080E880831082789401C003
S1130BC008951092750B80E29EE49093A90080939F
S1130BD0A800E1EAF0E088E080838081826080837D
S1130BE0E2E7F0E080818260808308951F920F9293
S1130BF00FB60F9211248F938091750B8F5F8093A2
S1130C00750B8F910F900FBE0F901F901895E6E70C
S1130C10FBE0148215821182108217A216A2ECE75F
S1130C20FBE08CE99BE011921192E817F907D9F7E0
S1130C30E3D067D010D00AC00895E82FF0E0EE0F9B
S1130C40FF1FE458F44F71836083089510920F06D8
S1130C5010920E06089510921006109299061092A2
S1130C6022071092AB07109234080895009741F0C0
S1130C70FC01E757FF4F88E0ED3BF80718F015C07B
S1130C80E0E1F6E08081882339F003C08081882385
S1130C9019F08E2F9F2F0895E757FF4F88E0ED3B03
S1130CA0F807A0F380E090E0089580E090E00895D4
S1130CB0DC0119962C911997222349F01796ED918E
S1130CC0FC9118972081211104C0B9C0089580E0D7
S1130CD0089580E00895BC01EEECF8E020E039E0EE
S1130CE040E051E09081992319F091509083452F71
S1130CF03596E217F307B1F7442311F0CB012FC463
S1130D000895EEECF8E080E099E010823596E8175B
S1130D10F907D9F7EDEBF8E084E690E0A0E0B0E065
S1130D2086839783A087B18712868BE696E09487A3
S1130D30838768E576E080E080CF0895EF92FF92A4
S1130D400F931F93CF937C0110E080E090E001E0CB
S1130D50C3E113C0FC012081213179F4EC57FF4F2A
S1130D60208131812150310931832083232B21F4C7
S1130D70FC01C083102F01C0102F78DF009751F7BA
S1130D80112311F0C701EBD3CF911F910F91FF9065
S1130D90EF900895EF92FF920F931F93CF93DF93F9
S1130DA07C0110E080E090E001E0D7E1C0E116C0F2
S1130DB0FC012081263191F4EC57FF4F20813181D1
S1130DC02150310931832083232B39F4FC01D08352
S1130DD0ED57FF4FC083102F01C0102F47DF00973E
S1130DE039F7112311F0C701BAD3DF91CF911F91C5
S1130DF00F91FF90EF900895109217091092160921
S1130E00E9E0F9E082E390E0A0E0B0E08683978334
S1130E10A087B18712868AEC96E094878387ECEFEB
S1130E20F8E08AE090E0A0E0B0E086839783A087B2
S1130E30B18712868EE996E0948783870895CF93CD
S1130E40DF93FC01C781D08581858330C1F480E0C4
S1130E5090E010C0FC012081263161F434852981A1
S1130E60321308C027E120832A81EA57FF4F2083E9
S1130E7081E006C0FBDE009769F780E001C080E0F6
S1130E80DF91CF91089593E090934201E1E4F1E082
S1130E9090819F719830E1F780934201E1E4F1E0A1
S1130EA090819F719813FCCF0895E9E3F1E080816C
S1130EB081608083109219091092180981E080934F
S1130EC01A0988E0E0DF8BEE80935601ECE4F1E050
S1130ED080818068808308950F931F93CF93DF935D
S1130EE0EC01892B59F484E293E09F938F930E9441
S1130EF0AA1C0F900F9080E090E070C008891989B7
S1130F00988D9130A9F038F0923009F44EC09430A5
S1130F1009F45AC061C0D801ED91FC910280F381BB
S1130F20E02DC801199581E0888F80E090E056C0DB
S1130F30D8011C96ED91FC911D970480F581E02D5C
S1130F40C80119958F3FBFEF9B0729F484E0888F70
S1130F5080E090E043C0009781F481E0888FD8015D
S1130F601C96ED91FC911D970680F781E02D8889F0
S1130F709989199580E090E031C022E0288F092EEC
S1130F80000CAA0BBB0B8C839D83AE83BF838C8721
S1130F909D87AE87BF8780911B0B90911C0B29D333
S1130FA0CE01DBD081E090E019C081E0888FD801C8
S1130FB01C96ED91FC911D970680F781E02DC801E8
S1130FC0199580E090E00AC089E393E00E94C21C76
S1130FD0188E80E090E002C080E090E0DF91CF9135
S1130FE01F910F9108950F931F93CF93DF93FC01EB
S1130FF0C289D38904891589892B29F484E293E071
S11310000E94C21C35C0908D992319F0913021F0B3
S11310102FC081E0808F2CC0E881F9810680F781A0
S1131020E02DCE011995059781F488E593E00E949F
S1131030C21CEA81FB810280F381E02DCE01199567
S113104084E693E00E94C21C13C0E881F981068003
S1131050F781E02DCE011995049751F4D801129629
S1131060ED91FC9113970280F381E02DC80119954D
S113107080E090E0DF91CF911F910F9108950F933D
S11310801F93CF93DF93E7E1FBE0F0931C0BE09316
S11310901B0BF383E283F183E083EFE6FBE0F09341
S11310A0740BE093730BF383E283F183E083C7E66D
S11310B0D9E007E11BE0BE018091730B9091740BA2
S11310C062D26B96C017D107B1F7DF91CF911F9110
S11310D00F910895CF92DF92EF92FF926B017C0102
S11310E080911B0B90911C0B45D2009769F0FC0179
S11310F044815581668177814C195D096E097F09A8
S11311004483558366837783FF90EF90DF90CF907D
S1131110089580911B0B90911C0B2CD2009769F4BD
S113112087E793E00E94C21C8CEB93E00E94C21CF0
S113113060E47FE180E090E00895FC0164817581C2
S1131140868197816034FFE17F078105910524F052
S113115060E47FE180E090E008950F931F93CF93C4
S1131160DF93DC01C0911B0BD0911C0BEA81FB8146
S1131170CE17DF0771F1309731F104811581268193
S1131180378114964D915D916D917C91179740171D
S11311905107620773076CF4041B150B260B370BFE
S11311A00483158326833783BD0180819181EBD12C
S11311B018C0401B510B620B730B14964D935D9337
S11311C06D937C9317970280F381E02DCE17DF0790
S11311D091F6E0911B0BF0911C0BBD018081918174
S11311E0D2D1DF91CF911F910F9108954F925F92C9
S11311F06F927F928F929F92AF92BF92EF92FF92E3
S11312000F931F932B013C0149015A018091730BE9
S11312109091740BEED1FC01892BD9F04482558254
S11312206682778280869186A286B3861486158626
S113123016861786118B008BF78AE68A81E0808FE9
S11312408CE697E0928F818FCF0187DF80E090E07A
S113125002C08FEF9FEF1F910F91FF90EF90BF900F
S1131260AF909F908F907F906F905F904F90089574
S11312704F925F926F927F928F929F92AF92BF92A2
S1131280EF92FF920F931F932B013C0149015A01E6
S11312908091730B9091740BACD1FC01892BE9F014
S11312A0448255826682778280869186A286B3863E
S11312B01486158616861786138B028B158B048B62
S11312C0F78AE68A81E0808F83EF97E0928F818F9F
S11312D0CF0143DF80E090E002C08FEF9FEF1F91CA
S11312E00F91FF90EF90BF90AF909F908F907F9061
S11312F06F905F904F900895CF92DF92EF92FF929C
S11313000F931F93CF93DF9380911B0B90911C0B32
S113131031D1EC01892B39F483E094E00E94C21CA2
S11313208FEF9FEF8BC088899989892B49F48A892B
S11313309B89892B29F48C899D89892B09F47CC08C
S11313408C819D81AE81BF81892B8A2B8B2B71F07F
S1131350E0DE6B01770FEE08FF08C701B601BADEC5
S1131360C701B601CBDA80E090E068C0E98DFA8D60
S1131370CE0119950197A9F4CCDE6115710521F40C
S1131380BBDF80E090E05AC06B01770FEE08FF08E6
S1131390C701B6019FDEC701B601B0DA80E090E074
S11313A04DC080911B0B90911C0B23D1888599858E
S11313B0AA85BB850097A105B10519F14C855D850A
S11313C06E857F858C019D01041B150B260B370B45
S11313D0B901A8010C831D832E833F83332354F466
S11313E0480F591F6A1F7B1F7723D4F34C835D83F7
S11313F06E837F831C861D861E861F86CE01ADDE0E
S113140006C0BE018091730B9091740BBCD081DE39
S11314106115710521F470DF80E090E00FC06B016D
S1131420770FEE08FF08C701B60154DEC701B60105
S113143065DA80E090E002C08FEF9FEFDF91CF91FB
S11314401F910F91FF90EF90DF90CF900895A5DB4F
S113145067D02BDDDCCB08950F931F93CF93DF93DD
S1131460EC0180911B0990911C09009709F445C077
S11314704E815F8168857985FC0102811381248115
S11314803581401751076207730760F0DC0117C00C
S11314900281138124813581401751076207730744
S11314A068F403C0FC01A0E0B0E0041B150B260B9C
S11314B0370B02831383248335830AC0DF01401B67
S11314C0510B620B730BED91FC911197309701F75F
S11314D04A835B836C837D83109741F08D919C914B
S11314E0119799838883CD93DC9315C0998388835E
S11314F0D0931C09C0931B090EC0198218828E81D7
S11315009F81A885B9858A839B83AC83BD83D0934F
S11315101C09C0931B09DF91CF911F910F9108956E
S113152010921C0910921B090895E0911B09F09177
S11315301C09309771F0E817F90721F40CC08E17D5
S11315409F0759F00190F081E02D3097C1F780E0BA
S1131550089580E0089581E0089581E00895CF938F
S1131560DF93EC01E2DF811102C0CE0175DFDF9170
S1131570CF910895FC01828193818E179F0711F406
S113158080E090E00895DC011296ED91FC911397B0
S113159071836083DB011396FC93EE931297FC0135
S11315A0738362838D939C93CB010895FB01DC01CB
S11315B012962D913C91139728173907A1F086179D
S11315C09707A1F0A081B1818281938113969C93A6
S11315D08E931297A281B381808191818D939C9384
S11315E0862F9F2F089580E090E0089580E090E09A
S11315F00895FC01628173816817790711F0D6CFD1
S1131600089580E090E008952F923F924F925F9268
S11316106F927F928F929F92AF92BF92CF92DF92FE
S1131620EF92FF920F931F93CF93DF93CDB7DEB763
S113163062970FB6F894DEBF0FBECDBF9A8B898B2D
S1131640DC014D905D906D907C900F2EFCE38F2E0D
S1131650912CA12CB12CF02DC301B201A501940150
S11316600E941C1A69017A01A4ECBFEF0E943A1A85
S11316709B01AC01240D351D461D571D29833A835A
S11316804B835C83C701B601A50194010E941C1A17
S113169049015A01A4ECBFEF0E943A1A9B01AC0124
S11316A02C0D3D1D4E1D5F1D2D833E834F8358879A
S11316B0C501B40128E130E040E050E00E941C1A6A
S11316C0C22ED32EE42EF52EA8EEBFEF0E943A1AB6
S11316D09B01AC01280D391D4A1D5B1D29873A87E2
S11316E04B875C87812C912C5401689482F80F2ECF
S11316F0F2EB4F2EF7E05F2E612C712CF02D0DE6EE
S113170011E0212C312CD301C20183709927AA271F
S1131710BB27892B8A2B8B2B09F0EAC0C301B201AA
S113172024E630E040E050E00E941C1A672B682B4E
S1131730692B09F0D0C0C301B20120E931E040E0D7
S113174050E00E941C1A672B682B692B09F4C3C054
S1131750CFC08EE691E0A0E0B0E042E050E060E06F
S113176070E008C0802F912FA22DB0E041E050E03E
S113177060E0732D840E951EA61EB71EC81AD90AE2
S1131780EA0AFB0A57E085169104A104B1042CF07F
S113179087E0881A9108A108B1089FEF491A590AED
S11317A0690A790AB0CFE989FA8984A395A3A6A323
S11317B0B7A3BC01CD01680D791D8A1D9B1D27E0CF
S11317C030E040E050E00E941C1A6D877E878F87CE
S11317D0988BE1E8F4E0812C912C5401839440E04F
S11317E050E0BA0109C04F5F5F4F6F4F7F4F3FEF2B
S11317F0831A930AA30AB30A8A019B018191413097
S113180051056105710529F4332009F45BC08F5F2C
S113181059C090E0A0E0B0E0C816D906EA06FB067D
S11318206CF0C81AD90AEA0AFB0A950184018CE013
S113183088169104A104B104B4F200C089819A818C
S1131840AB81BC81E989FA8980879187A287B387B4
S11318508D819E81AF81B88584879587A687B78758
S113186089859A85AB85BC85808B918BA28BB38B44
S1131870FFEFCF1ADF0AEF0AFF0AA989BA89549643
S1131880CD92DD92ED92FC925797D901C801019651
S1131890A11DB11DE989FA89808F918FA28FB38F21
S11318A0448E558E668E778E2D853E854F8558895C
S11318B020A331A342A353A327C0C81AD90AEA0A12
S11318C0FB0A91CF90E0A0E0B0E0C816D906EA0682
S11318D0FB069CF7B3CFFEE6CF16F1E0DF06E1048A
S11318E0F1040CF036CFD701C601332433945BCF17
S11318F03DE6C31631E0D306E104F1040CF032CF27
S1131900D701C601312C4FCF62960FB6F894DEBFD3
S11319100FBECDBFDF91CF911F910F91FF90EF903C
S1131920DF90CF90BF90AF909F908F907F906F90FB
S11319305F904F903F902F900895CF92DF92EF9257
S1131940FF920F931F93CF93DF93EA01CC80DD8046
S1131950EE80FF806C0D7D1D8E1D9F1D28EE33E0F3
S113196040E050E00E941C1AC880D980EA80FB80C5
S113197089019A010C0D1D1D2E1D3F1D088319831D
S11319802A833B836C837D838E839F83CE013CDEDD
S1131990DF91CF911F910F91FF90EF90DF90CF9047
S11319A00895FC0114821582168217821082118216
S11319B0128213820895FC01848195810895FC01AB
S11319C02481358186819781820F931F08951F9307
S11319D0CF93DF93EC01162F86E70E94E104888100
S11319E00E94D30486E709D880931D09803459F4F2
S11319F0612F70E040E0CE013CD8887F883519F42F
S1131A0033D881110AC08DE894E09F938F930E948C
S1131A10AA1C0F900F9080E001C081E0DF91CF916C
S1131A201F910895EF92FF921F93CF93DF931F921C
S1131A301F92CDB7DEB77B01898362E0CE010196A8
S1131A40C6DF182F882359F08A8190E0982F8827C1
S1131A502981822BF7019183808311E00BC0F70168
S1131A601182108282EA94E09F938F930E94AA1CB1
S1131A700F900F90812F0F900F90DF91CF911F91B6
S1131A80FF90EF9008950F931F93CF93DF931F92CE
S1131A901F92CDB7DEB78B01898362E0CE01019638
S1131AA096DF882359F08A8190E0982F882729812E
S1131AB0822BF8019183808381E003C0F8011182B5
S1131AC010820F900F90DF91CF911F910F91089585
S1131AD067E279E088E8A6DF882309F4A4C06DE30F
S1131AE079E08AE8D0DF882309F49DC06BE379E0CC
S1131AF08CE8C9DF882309F496C069E279E08EE8AE
S1131B0091DF882309F48FC069E379E080E9BBDFC2
S1131B10882309F488C067E379E082E9B4DF882385
S1131B2009F481C065E379E084E9ADDF882309F431
S1131B307AC063E379E086E9A6DF882309F473C0F9
S1131B4061E379E088E99FDF882309F46CC06FE2E0
S1131B5079E08AE998DF882309F465C06DE279E0C9
S1131B608CE991DF882309F45EC06BE279E08EE9A9
S1131B708ADF882309F457C080912C098F938091C0
S1131B802B098F9380912E098F9380912D098F9328
S1131B90809130098F9380912F098F93809132091E
S1131BA08F93809131098F93809134098F93809121
S1131BB033098F93809136098F93809135098F93E0
S1131BC0809138098F93809137098F9380913A09D6
S1131BD08F93809139098F9380912A098F938091F3
S1131BE029098F9380913C098F9380913B098F93AE
S1131BF080913E098F9380913D098F9380912809AC
S1131C008F93809127098F9386EB94E09F938F9312
S1131C100E94AA1C8DB79EB74A960FB6F8949EBF31
S1131C200FBE8DBF81E00895909326098093250906
S1131C3081E008951F93CF93DF931F921F92CDB736
S1131C40DEB784EF8983809125099091260982303B
S1131C50910501F12CF4009749F0019789F038C0FF
S1131C608330910509F1049749F132C085E28A83F2
S1131C7081E090E0909324098093230918E02BC01D
S1131C8089E28A8381E090E0909324098093230978
S1131C901AE021C08DE28A8381E090E090932409C8
S1131CA0809323091FE017C081E38A8381E090E0D9
S1131CB0909324098093230918E10DC08DE58A834C
S1131CC081E090E090932409809323091DE203C0EE
S1131CD085E28A8319E086E70E94E10462E070E00D
S1131CE0CE0101960E947305883231F40E943405B6
S1131CF0882321F0812F03C08FEF01C08FEF0F9055
S1131D000F90DF91CF911F9108958F929F92AF9280
S1131D10BF92CF92DF92EF92FF921F93CF93DF9304
S1131D2000D000D0CDB7DEB76C017B0187EF89838B
S1131D3066E0CE0101964BDE182F882309F466C0B5
S1131D40698170E080E090E0B6D620E030E040E8C1
S1131D5053E465D74B015C018A81682F70E080E011
S1131D6090E0A9D69B01AC01C501B401A1D54B01FA
S1131D705C014B81642F70E080E090E09CD620E011
S1131D8030E040E85BE34BD79B01AC01C501B401F3
S1131D908FD520E030E040E851E441D7F60160837C
S1131DA07183828393836C8170E080E090E083D6BA
S1131DB020E030E040E853E432D74B015C018D81F0
S1131DC0682F70E080E090E076D69B01AC01C501FD
S1131DD0B4016ED54B015C018E81682F70E080E008
S1131DE090E069D620E030E040E85BE318D79B013F
S1131DF0AC01C501B4015CD520E030E040E851E419
S1131E000ED7F7016083718382839383812F269693
S1131E100FB6F894DEBF0FBECDBFDF91CF911F91F7
S1131E20FF90EF90DF90CF90BF90AF909F908F90F6
S1131E3008954F925F926F927F928F929F92AF928A
S1131E40BF92CF92DF92EF92FF92CF93DF93EC0198
S1131E50FB01C080D180E280F380809127099091BA
S1131E602809BC0180E090E024D62B013C0120E04D
S1131E7030E040E057E3C701B601D1D64B015C0125
S1131E8020E030E040E059E3C301B201C8D69B0131
S1131E90AC01C501B4010BD54B015C0120E030E07D
S1131EA040E858E3C701B601BAD66B017C0120E0D3
S1131EB030E040E85AE3C301B201B1D69B01AC0162
S1131EC0C701B601F4D46B017C0180913D09909166
S1131ED03E09BC01990F880B990BEDD59B01AC0110
S1131EE0C701B6019CD66B017C01A5019401C50113
S1131EF0B40195D64B015C0140913B0950913C09DA
S1131F00BA01550F880B990BD6D59B01AC01C501BD
S1131F10B40185D69B01AC01C701B601C9D46B01DC
S1131F207C0196D560931F09709320098093210941
S1131F309093220920E030E040EA55E4C701B6015D
S1131F401FD56B017C01688379838A839B8320E09E
S1131F5030E048EC52E45FD618166CF020E030E034
S1131F6048EC52ECC701B60107D5881F8827881FA3
S1131F7091E0892701C080E0DF91CF91FF90EF903D
S1131F80DF90CF90BF90AF909F908F907F906F9095
S1131F905F904F9008954F925F926F927F928F92CD
S1131FA09F92AF92BF92CF92DF92EF92FF920F93E4
S1131FB01F93CF93DF938C01EB0160911F09709104
S1131FC02009809121099091220975D520E030E003
S1131FD040E05FE324D620E030E04AE757E467D4EA
S1131FE06B017C016091310970913209072E000C5C
S1131FF0880B990B60D5A701960111D620E030E03B
S113200040E058E30CD6A701960109D64B015C01C8
S11320106091330970913409072E000C880B990BD9
S11320204AD5A7019601FBD59B01AC0141D4A5017A
S113203094013ED420E030E040E85EE3F0D54B016B
S11320405C016091370970913809072E000C880BE8
S1132050990B31D5A7019601E2D5A7019601DFD5E9
S113206020E030E040E056E3DAD52B013C016091FA
S1132070390970913A09072E000C880B990B1BD56E
S1132080A7019601CCD59B01AC01C301B20110D4C8
S113209020E030E040E056E3C2D520E030E040E00C
S11320A057E406D420E030E040E058E3B8D56B01B3
S11320B07C01288139814A815B8160E070E080E89D
S11320C099E4F5D32B013C016091350970913609EF
S11320D0072E000C880B990BEED420E030E040E88A
S11320E057E49DD59B01AC01C501B401E1D320E0C7
S11320F030E040E859E393D59B01AC01C301B20140
S1132100D6D320E030E543EC55E489D54B015C019E
S11321108091290990912A09BC0180E090E0C9D4FA
S11321209B01AC01C701B6017AD59B01AC01C50185
S1132130B40126D46B017C0160912B0970912C09A8
S1132140072E000C880B990BB6D4A701960167D50E
S1132150A701960164D520E030E040E050E35FD56C
S11321604B015C0180912D0990912E09BC01990FBE
S1132170880B990BA0D4A701960151D520E030E03B
S113218040E058E34CD59B01AC01C501B40190D3A8
S11321904B015C0180912F0990913009BC01990F8A
S11321A0880B990B88D49B01AC01C501B40180D381
S11321B020E030E040E85DE332D5A701960178D312
S11321C020E030E048EC52E4DBD36B017C01F80101
S11321D0608371838283938320E030E046E954E492
S11321E01AD518166CF020E030E048E454E4C70136
S11321F0B601C2D3881F8827881F91E0892701C0B0
S113220080E0DF91CF911F910F91FF90EF90DF90CD
S1132210CF90BF90AF909F908F907F906F905F9082
S11322204F900895EF92FF920F931F93CF93DF93F4
S1132230CDB7DEB728970FB6F894DEBF0FBECDBF7B
S11322408C017B01BE016B5F7F4FCE0101965DDD8A
S11322508823C1F0BE016B5F7F4FC801EADD88238C
S113226061F0BE016F5F7F4FC70195DE81110FC022
S113227083E080931E0980E00BC082E080931E09F6
S113228080E006C081E080931E0980E001C081E007
S113229028960FB6F894DEBF0FBECDBFDF91CF9165
S11322A01F910F91FF90EF9008952EE632E0FC010C
S11322B031832083089580E090E0089580E090E0E9
S11322C0089584E090E0089526E632E0FC0133832B
S11322D02283089580E090E008950F931F93CF9395
S11322E0DF93EC010E811F811F930F938DEE94E019
S11322F09F938F930E94AA1C8E819F8101969F8336
S11323008E8328E3209FC001219F900D11242885EE
S113231039850F900F900F900F90820F931FDF91CC
S1132320CF911F910F9108953F924F925F926F92B8
S11323307F928F929F92AF92BF92CF92DF92EF9251
S1132340FF920F931F93CF93DF93CDB7DEB7E89738
S11323500FB6F894DEBF0FBECDBF3C018DE095E013
S11323600E94C21CF30186819781181619060CF08D
S11323708BC0812C912CA12CB12C0F2EF8E33F2E75
S1132380F02D0F2EF5E24F2EF5E05F2EF02D6E01AD
S1132390F1E1CF0ED11C0F2EFAE4EF2EF5E0FF2E63
S11323A0F02DF30180859185880D991DFC01DE01D6
S11323B01196232D01900D922A95E1F7FC01238DAE
S11323C02F93228D2F93218D2F93208D2F93278D43
S11323D02F93268D2F93258D2F93248D2F9323A117
S11323E02F9322A12F9321A12F9320A12F9327A1D3
S11323F02F9326A12F9325A12F9324A12F9323A5B7
S11324002F9322A52F9321A52F9320A52F9327A5A2
S11324102F9326A52F9325A52F9384A58F935F92A1
S11324204F920E94AA1C8E010F5F1F4F0FB6F894A3
S1132430DEBF0FBECDBFF80180819181228133813F
S11324400C5F1F4F3F932F939F938F93FF92EF92B5
S11324500E94AA1C0F900F900F900F900F900F9056
S11324600C151D0541F78AE090E00E94BD1CFFEFAA
S1132470AF1ABF0A88E3880E911CF3018681978105
S1132480A816B9060CF48DCFF3011782168280E0EA
S113249090E0E8960FB6F894DEBF0FBECDBFDF9193
S11324A0CF911F910F91FF90EF90DF90CF90BF904D
S11324B0AF909F908F907F906F905F904F903F90E0
S11324C00895CF92DF92EF92FF92CF93DF937C0136
S11324D08AE090E0ECD7EC01FD82EC828EE692E09B
S11324E09983888386E692E09B838A8388E493E0D9
S11324F0DED79987888740E050E070E060E00F2ED7
S1132500C12CFCE3DF2EFCE1EF2EF6ECFF2EF02DC8
S11325102AC0E885F985E40FF51FC901880F991FC2
S1132520880F991FE80FF91FC082D182E282F382DB
S1132530E885F985E40FF51F148A158A168A178A27
S1132540E885F985E40FF51F108A118A128A138A27
S11325502F5F3F4F24303105E1F6485C5F4F48342C
S113256083E0580719F0272F362FD3CF1F821E82FE
S1132570CE01DF91CF91FF90EF90DF90CF9008953F
S11325802CE732E0FC0131832083089580E090E061
S1132590089580E090E0089585E090E0089526E7AE
S11325A032E0FC0133832283089580E090E00895B3
S11325B0CF93DF93EC018E819F81892B21F481E5F8
S11325C095E00E94C21C8E819F81DC011296ED91E0
S11325D0FC9113970680F781E02D199590930706D7
S11325E080930606892B09F443C0809108069091D4
S11325F00906A0910A06B0910B06BC01CD018827FB
S113260099274FE359E099D98091060690910706DE
S113261040913F09509140096091410970914209EC
S1132620FC01408B518B628B738B40960E94040B90
S1132630E0910606F091070683898F9382898F9330
S113264081898F9380898F9383E695E09F938F93FD
S11326500E94AA1C109208061092090610920A06FB
S113266010920B060F900F900F900F900F900F90F9
S113267080E090E0DF91CF9108950F931F93CF9363
S1132680DF938C01EB0188E090E011D7FC01158306
S11326900483D783C6838CE792E09183808386E7A3
S11326A092E093838283CF01DF91CF911F910F91A9
S11326B0089580E090E0089524E832E0FC0131833D
S11326C02083089580E090E0089583E090E00895E9
S11326D02CE832E0FC013587248788EA92E09F9356
S11326E08F930E94AA1C0F900F90089584E795E0A1
S11326F00E94C21C80E090E0089581E895E00E9469
S1132700C21C80E090E00895CF93DF9384E995E0C4
S11327100E94C21C8FDAC82FD0E01F928F9383EAE5
S113272095E09F938F930E94AA1C0F900F900F9097
S11327300F90209719F0CE01019602C080E090E03E
S1132740DF91CF910895EF92FF920F931F93CF9350
S1132750DF93CDB7DEB728970FB6F894DEBF0FBE70
S1132760CDBF8C0184EB95E00E94C21CBE016B5F5F
S11327707F4FCE01019656DD88858F938F818F938D
S11327808E818F938D818F938C818F938B818F9387
S11327908A818F9389818F9383EC95E09F938F93A4
S11327A00E94AA1CD8011A96ED91FC911B97C801AE
S11327B01995F82EE92ED8011896ED91FC911997E8
S11327C0C8011995EF92FF929F938F9389EE95E03C
S11327D09F938F930E94AA1CE0910606F09107062E
S11327E089819A81AB81BC8180839183A283B383E5
S11327F0E0910606F09107068D819E81AF81B88530
S113280084839583A683B7830FB6F894DEBF0FBE87
S1132810CDBF80E090E028960FB6F894DEBF0FBEDF
S1132820CDBFDF91CF911F910F91FF90EF9008954D
S1132830EF92FF920F931F93CF93DF937C018B0151
S11328408EE090E034D6EC018BED9CE0998788878C
S11328508FED9CE09B878A8784E892E09983888344
S1132860CE0136DFFB82EA821F830E8380911D0B2B
S113287090911E0B9D838C83B801680F791F709310
S11328801E0B60931D0B7F936F9387ED92E09F93D4
S11328908F930E94AA1C0F900F900F900F90CE015F
S11328A0DF91CF911F910F91FF90EF9008955058B1
S11328B0BB27AA270ED075C166D130F06BD120F0AA
S11328C031F49F3F11F41EF45BC10EF4E095E7FB75
S11328D051C1E92F77D180F3BA17620773078407D0
S11328E0950718F071F49EF58FC10EF4E0950B2E48
S11328F0BA2FA02D0B01B90190010C01CA01A0014E
S11329001124FF27591B99F0593F50F4503E68F1A8
S11329101A16F040A22F232F342F4427585FF3CFE9
S1132920469537952795A795F0405395C9F77EF4BA
S11329301F16BA0B620B730B840BBAF09150A1F003
S1132940FF0FBB1F661F771F881FC2F70EC0BA0F89
S1132950621F731F841F48F4879577956795B79511
S1132960F7959E3F08F0B3CF9395880F08F0992709
S1132970EE0F979587950895D9D008F481E00895CE
S11329800CD00FC107D140F0FED030F021F45F3FEE
S113299019F0F0C0511139C1F3C014D198F399233F
S11329A0C9F35523B1F3951B550BBB27AA2762170F
S11329B07307840738F09F5F5F4F220F331F441F54
S11329C0AA1FA9F333D00E2E3AF0E0E830D091508C
S11329D05040E695001CCAF729D0FE2F27D0660F79
S11329E0771F881FBB1F261737074807AB07B0E8B8
S11329F009F0BB0B802DBF01FF2793585F4F2AF0CE
S1132A009E3F510568F0B6C000C15F3FECF3983EAD
S1132A10DCF3869577956795B795F7959F5FC9F72A
S1132A20880F911D9695879597F90895E1E0660FB3
S1132A30771F881FBB1F621773078407BA0720F02C
S1132A40621B730B840BBA0BEE1F88F7E095089595
S1132A5004D06894B111D9C00895BCD088F09F57B0
S1132A6090F0B92F9927B751A0F0D1F0660F771FD6
S1132A70881F991F1AF0BA95C9F712C0B13081F0B6
S1132A80C3D0B1E00895C0C0672F782F8827B85FFE
S1132A9039F0B93FCCF3869577956795B395D9F717
S1132AA03EF490958095709561957F4F8F4F9F4F21
S1132AB00895E89409C097FB3EF49095809570952D
S1132AC061957F4F8F4F9F4F9923A9F0F92F96E976
S1132AD0BB279395F695879577956795B795F111EB
S1132AE0F8CFFAF4BB0F11F460FF1BC06F5F7F4F88
S1132AF08F4F9F4F16C0882311F096E911C077239A
S1132B0021F09EE8872F762F05C0662371F096E8A2
S1132B10862F70E060E02AF09A95660F771F881F71
S1132B20DAF7880F9695879597F90895990F000815
S1132B30550FAA0BE0E8FEEF16161706E807F9078B
S1132B40C0F012161306E407F50798F0621B730B26
S1132B50840B950B39F40A2661F0232B242B252BA7
S1132B6021F408950A2609F4A140A6958FEF811D4A
S1132B70811D089597F99F6780E870E060E00895EB
S1132B809FEF80EC089500240A9416161706180681
S1132B900906089500240A9412161306140605065D
S1132BA00895092E0394000C11F4882352F0BB0FEE
S1132BB040F4BF2B11F460FF04C06F5F7F4F8F4F51
S1132BC09F4F089557FD9058440F551F59F05F3F8C
S1132BD071F04795880F97FB991F61F09F3F79F03B
S1132BE087950895121613061406551FF2CF4695BD
S1132BF0F1DF08C0161617061806991FF1CF86953F
S1132C007105610508940895E894BB276627772722
S1132C10CB0197F908958ADF08F48FEF08950BD05C
S1132C20C0CFB1DF28F0B6DF18F0952309F0A2CFAA
S1132C30A7CF1124EACFC6DFA0F3959FD1F3950F58
S1132C4050E0551F629FF001729FBB27F00DB11D2C
S1132C50639FAA27F00DB11DAA1F649F6627B00DBC
S1132C60A11D661F829F2227B00DA11D621F739FA5
S1132C70B00DA11D621F839FA00D611D221F749FB3
S1132C803327A00D611D231F849F600D211D822FFA
S1132C90762F6A2F11249F5750408AF0E1F0882341
S1132CA04AF0EE0FFF1FBB1F661F771F881F91504E
S1132CB05040A9F79E3F510570F05CCFA6CF5F3F0F
S1132CC0ECF3983EDCF3869577956795B795F79581
S1132CD0E7959F5FC1F7FE2B880F911D9695879509
S1132CE097F908952F923F924F925F926F927F923D
S1132CF08F929F92AF92BF92CF92DF92EF92FF9208
S1132D000F931F93CF93DF93CDB7DEB763970FB6BF
S1132D10F894DEBF0FBECDBF6C014B012A01FC014C
S1132D2017821682838181FF29C3AE014F5F5F4FF3
S1132D303A01F6019381F40193FD859193FF81910A
S1132D404F01882309F416C3853239F493FD859124
S1132D5093FF81914F01853231F4B60190E0C2D5E1
S1132D6052012501E6CF10E0F12C20E02032A0F43E
S1132D708B3269F030F4803259F0833269F4206187
S1132D802CC08D3239F0803339F4216026C02260A2
S1132D90246023C0286021C027FD27C030ED380FF0
S1132DA03A3078F426FF06C0FAE01F9F300D112454
S1132DB0132F13C04AE0F49E300D1124F32E206229
S1132DC00CC08E3221F426FDD5C2206406C08C3698
S1132DD011F4206802C0883641F4F40193FD859112
S1132DE093FF81914F018111C1CF9BEB980F9330D9
S1132DF018F42061805E06C09BE9980F933008F0B8
S1132E0064C12F7E26FF16E02F73322E853619F407
S1132E102064322E08C0863621F4F22FF0683F2E4B
S1132E2002C01111115037FE07C01C3350F4EE24B8
S1132E30E394E10E27E00BC0183038F027E017E0E8
S1132E4005C027E04CE3E42E02C0212FE12C5201FF
S1132E5044E0A40EB11CF2016081718182819381EE
S1132E600E2DA30151D42C01098100FF02C003FFE0
S1132E7007C031FC08C032FE09C030E2232E07C06F
S1132E802DE2222E04C09BE2292E01C0212C802F8A
S1132E908C7019F0211051C28DC237FE0FC0E40CA2
S1132EA004FF04C08A81813309F4EA941E1474F582
S1132EB0F8E0FE1578F588E0E82E2CC036FC2AC030
S1132EC0812F90E0841595059CF02CEF42162FEF8E
S1132ED0520674F0432D4068342E0AC0E2E0F0E05C
S1132EE0EC0FFD1FE10FF11D8081803319F41150A7
S1132EF01111F4CF37FE0EC0EE24E394E10E812FBE
S1132F0090E0481659062CF4141904C0EE24E394F6
S1132F1001C010E037FE06C01414150434F4C201D5
S1132F20019605C085E090E002C081E090E02110A8
S1132F300196112331F0212F30E02F5F3F4F820F94
S1132F40931F2F2D30E08217930714F4F81A01C051
S1132F50F12C832D897041F4FF2031F0B60180E219
S1132F6090E0C0D4FA94F8CF222021F0B601822D4B
S1132F7090E0B8D433FC08C0FF2031F0B60180E300
S1132F8090E0B0D4FA94F8CF37FE58C0942D852D34
S1132F9057FE02C090E080E0292E382E20E030E079
S1132FA0A2014E1951095D874C87A20142195309A8
S1132FB05F874E87612F70E044275527461B570BC8
S1132FC0598B488B5FEF2516350641F4B6018EE226
S1132FD090E02A8B3B8B86D43B892A894214530484
S1132FE06CF04C855D854215530544F4EE85FF85F0
S1132FF0E20FF31FE60DF71D818101C080E351E06C
S1133000251A31082F5F3F4F488959892416350600
S113301044F0B60190E02A8B3B8B64D42A893B8927
S1133020D1CF2414350439F49A81963318F49533A6
S113303011F404FF81E3B60190E045C08A81813335
S113304009F00F7EB60190E04DD4111105C034FC97
S113305016C085E690E015C0B6018EE290E042D439
S113306082E0EE24E394E80EF301E80FF11D808181
S1133070B60190E037D411508E2D99F7E8CF85E44E
S113308090E0B6012FD457FC05C04114510439F423
S113309004FF05C05194419451088DE201C08BE2B4
S11330A0B60190E01FD480E39AE0491651042CF055
S11330B08F5F5AE0451A5108F7CFB60190E012D459
S11330C0B601C201C0960ED44CC1833631F08337A9
S11330D079F0833509F054C020C05201E2E0AE0E0D
S11330E0B11CF2018081898301E010E0230113C047
S11330F05201F2E0AF0EB11CF2014080518026FF74
S113310003C0612F70E002C06FEF7FEFC2012A8B12
S1133110DED38C012A892F7714C05201F2E0AF0E5E
S1133120B11CF2014080518026FF03C0612F70E082
S113313002C06FEF7FEFC2012A8BBED38C012A89B4
S11331402068322E23FD18C08F2D90E00817190730
S113315098F4B60180E290E0C5D3FA94F5CFF20179
S113316037FC859137FE81912F01B60190E0BAD3E7
S1133170F110FA94015011090115110581F7F1C0FC
S1133180843611F0893651F5520127FF09C0F4E065
S1133190AF0EB11CF20160817181828193810AC0FA
S11331A0F2E0AF0EB11CF20160817181072E000CB8
S11331B0880B990B2F76322E97FF09C09095809536
S11331C0709561957F4F8F4F9F4F2068322E2AE074
S11331D030E0A30107D4E82EE6183EC0022F85375D
S11331E021F40F7E2AE030E01DC0097F8F3691F074
S11331F018F4883559F0BEC0803719F0883711F0BB
S1133200B9C0006104FF09C0046007C024FF08C0FE
S1133210066006C028E030E005C020E130E002C0CE
S113322020E132E0520107FF09C0F4E0AF0EB11C07
S1133230F201608171818281938108C0F2E0AF0E56
S1133240B11CF2016081718180E090E0A301CAD3D6
S1133250E82EE6180F77302E36FE0BC0332D3E7F56
S1133260E11650F434FE0AC032FC08C0332D3E7E11
S113327005C00E2D332D03C00E2D01C0012F34FFC8
S11332800CC0FE01EE0DF11D8081803311F4397EF6
S113329008C032FF05C00E5F04C0832F867809F092
S11332A00F5F33FD12C030FF06C01E2D0F1518F43A
S11332B01F0D101B0F2D0F1560F4B60180E290E076
S11332C03B8B10D30F5F3B89F6CF0F1510F4F01A28
S11332D001C0F12C34FF11C0B60180E390E03B8BB8
S11332E001D33B8932FF16C031FD03C088E790E06B
S11332F002C088E590E0B6010CC0832F867851F0B7
S113330031FF02C08BE201C080E237FD8DE2B601DD
S113331090E0E8D2E11630F4B60180E390E0E2D226
S11333201150F8CFEA94F301EE0DF11D8081B6013E
S113333090E0D8D2E110F6CF14C0F4E0FF1548F5C0
S113334084E0F81A33FE1DC0211024C003FF27C0F7
S113335004E311E0F32DF0713F2EF8018491811103
S113336021C0FF2009F4FDCCB60180E290E0BAD27E
S1133370FA94F7CFF6018681978123C08FEF9FEFF0
S113338020C0B60180E290E0ADD2FA94F110F9CFFA
S1133390DBCFF12CB601822D90E0A4D2D7CF08E385
S11333A011E0D8CF31108052B60190E09BD20F5F6C
S11333B01F4FD3CF23E02F1510F483E0C2CFF12C9D
S11333C0C5CF63960FB6F894DEBF0FBECDBFDF91B5
S11333D0CF911F910F91FF90EF90DF90CF90BF900E
S11333E0AF909F908F907F906F905F904F903F90A1
S11333F02F900895A1E21A2EAA1BBB1BFD010DC03C
S1133400AA1FBB1FEE1FFF1FA217B307E407F50790
S113341020F0A21BB30BE40BF50B661F771F881F6C
S1133420991F1A9469F760957095809590959B0102
S1133430AC01BD01CF010895052E97FB16F400944D
S11334400FD057FD05D0D6DF07FC02D046F408C0E4
S113345050954095309521953F4F4F4F5F4F0895BC
S113346090958095709561957F4F8F4F9F4F0895EC
S1133470B7FF04C003D0821B930B089509D0A59F06
S1133480900DB49F900DA49F800D911D112408955B
S1133490A29FB001B39FC001A39F700D811D112491
S11334A0911DB29F700D811D1124911D0895CF931C
S11334B0DF938230910510F482E090E0E091A00B5C
S11334C0F091A10B20E030E0C0E0D0E0309711F1A2
S11334D04081518148175907C0F04817590761F4D2
S11334E082819381209719F09B838A832BC09093C8
S11334F0A10B8093A00B26C02115310519F04217AA
S1133500530718F49A01BE01DF01EF010280F38131
S1133510E02DDCCF2115310509F1281B390B2430AE
S1133520310590F412968D919C9113976115710554
S113353021F0FB019383828304C09093A10B8093B9
S1133540A00BFD01329644C0FD01E20FF31F8193ED
S11335509193225031092D933C933AC020919E0BB4
S113356030919F0B232B41F42091020230910302EE
S113357030939F0B20939E0B209100023091010207
S11335802115310541F42DB73EB740910402509105
S11335900502241B350BE0919E0BF0919F0BE21763
S11335A0F307A0F42E1B3F0B2817390778F0AC0162
S11335B04E5F5F4F2417350748F04E0F5F1F50933F
S11335C09F0B40939E0B8193919302C0E0E0F0E047
S11335D0CF01DF91CF9108950F931F93CF93DF9382
S11335E0009709F48CC0FC01329713821282009177
S11335F0A00B1091A10B0115110581F420813181DB
S1133600820F931F20919E0B30919F0B281739072F
S113361079F5F0939F0BE0939E0B71C0D80140E0C5
S113362050E0AE17BF0750F412962D913C911397BA
S1133630AD012115310509F1D901F3CF9D01DA015D
S11336403383228360817181860F971F82179307CA
S113365069F4EC0128813981260F371F2E5F3F4F13
S1133660318320838A819B8193838283452B29F430
S1133670F093A10BE093A00B42C01396FC93EE933E
S11336801297ED01499159919E01240F351FE217BC
S1133690F30771F480819181840F951F029611962E
S11336A09C938E938281938113969C938E9312970D
S11336B0E0E0F0E0D80112968D919C911397009769
S11336C019F0F8018C01F6CF8D919C9198012E5F31
S11336D03F4F820F931F20919E0B30919F0B281711
S11336E0390769F4309729F41092A10B1092A00BBA
S11336F002C01382128210939F0B00939E0BDF91E2
S1133700CF911F910F910895283008F027E03327B7
S1133710DA01990F311D87FD9160009661057105ED
S113372039F432602E5F3D9330E32A95E1F7089532
S11337309F3F30F080387105610509F03C5F3C5FC4
S11337403D93913008F08068911DDF93CF931F93D0
S11337500F93FF92EF92192F987F9695E92F9695E4
S11337609695E90FFF27EA56FE4F99273327EE2453
S1133770FF24A701E70105900894079428F4360F65
S1133780E71EF81E491F511D660F771F881F991FDA
S11337900694A1F70590079428F4E70EF81E491F34
S11337A0561FC11D770F881F991F661F0694A1F726
S11337B00590079428F4F80E491F561FC71FD11D02
S11337C0880F991F661F771F0694A1F70590079429
S11337D020F4490F561FC71FD81F990F661F771F64
S11337E0881F0694A9F784911095177041F0D69517
S11337F0C79557954795F794E7941A95C1F7ECE365
S1133800F1E0689415901591359165919591059025
S11338107FE27395E118F10A430B560BC90BD009EB
S1133820C0F7E10CF11E431F561FC91FD01D7EF4C3
S1133830703311F48A95E6CFE894015030F0080F04
S11338400AF40027021708F4202F2395022F7A3355
S113385028F079E37D932A95E9F710C07D932A95A2
S113386089F6069497956795379517951794E118F7
S1133870F10A430B560BC90BD00998F023957E919E
S113388073957A3308F070E37C932013B8F77E9134
S113389070617D9330F0839571E37D9370E32A9595
S11338A0E1F71124EF90FF900F911F91CF91DF91D9
S11338B0992787FD90950895FC010590615070400B
S11338C00110D8F7809590958E0F9F1F0895FC01E5
S11338D06150704001900110D8F7809590958E0F3B
S11338E09F1F08950F931F93CF93DF93FB012381B1
S11338F021FD03C08FEF9FEF28C022FF16C0468131
S11339005781248135814217530744F4A081B18142
S11339109D012F5F3F4F318320838C932681378114
S11339202F5F3F4F3783268310C0EB01092F182FD9
S11339300084F185E02D1995892BE1F68E819F8114
S113394001969F838E83812F902FDF91CF911F91BA
S11339500F910895CF93DF93CDB7DEB7AE014A5FE1
S11339605F4FFA0161917191AF018091A40B909125
S1133970A50BB8D9DF91CF9108956091A40B7091F4
S1133980A50BB0CF0F931F93CF93DF93E091A40BBC
S1133990F091A50B238121FF1BC08C01D0E0C0E076
S11339A0F80181918F016091A40B7091A50BDB014B
S11339B01896ED91FC911997882331F01995892B6C
S11339C079F3DFEFCFEFECCF8AE01995892B19F06B
S11339D08FEF9FEF02C08D2F9C2FDF91CF911F910E
S11339E00F910895FA01AA27283051F1203181F16D
S11339F0E8946F936E7F6E5F7F4F8F4F9F4FAF4FF3
S1133A00B1E03ED0B4E03CD0670F781F891F9A1F05
S1133A10A11D680F791F8A1F911DA11D6A0F711DB9
S1133A20811D911DA11D20D009F468943F912AE0C5
S1133A30269F11243019305D3193DEF6CF010895AD
S1133A40462F4770405D4193B3E00FD0C9F7F6CFDE
S1133A50462F4F70405D4A3318F0495D31FD4052A6
S1133A60419302D0A9F7EACFB4E0A695979587953C
S1133A7077956795BA95C9F700976105710508951B
S1133A809B01AC010A2E06945795479537952795C7
S1133A90BA95C9F7620F731F841F951FA01D08955F
S1073AA0F894FFCFC4
S1133AA40000A80B200091050000FF03000064003F
S1133AB40000E40C0000E02E0000A08CFFFF0200D4
S1133AC40000020000000100000091050000FF0353
S1133AD4000057040000E8030000B80B0000A00F26
S1133AE400007E02DA0284028702720278028A02E9
S1133AF49F027B022200082A00000002000000004A
S1133B04C10500000000641194116A116D1155116E
S1133B145B115E116111CF12D812D512C012C612F4
S1133B24C912CC125C137D13621365136813591301
S1133B348413A3137613424D5032383020537461E6
S1133B447475732025690A00696E6974207375633A
S1133B546365737300696E697420646F6E65210014
S1133B6425640925640A004B33302053656E736F52
S1133B747220496E69740053656E736F7244617484
S1133B8461436F756E742025640A0054696D65730E
S1133B9474616D70203A20256C640A0054696D6563
S1133BA4722065786365656473206D61780073655C
S1133BB4742074696D657220676170203D20256CE2
S1133BC4640A0A004E756C6C204576656E74204553
S1133BD472726F722021212100536F6D65746869BC
S1133BE46E67207265616C6C792077726F6E6720E2
S1133BF468617070656E73004C6F6164204465760F
S1133C04696365004C6F616420446576696365206B
S1133C1446696E697368007765206D61792067650C
S1133C247420736F6D65206D656D6F7279206C659A
S1133C34616B6167652069737375652C206F7220ED
S1133C44736F6D657468696E67207265616C6C79F5
S1133C5420626164206F636375727300736F2077ED
S1133C64652061726520676F696E6720746F2074C4
S1133C74616B6520736F6D65207265616C6C79206E
S1133C84736C6565702C2073696E6365206E6F2098
S1133C946576656E7420696E207363686564756CFB
S1133CA4657200657272000A0A0A3D3D3D3D3D3D60
S1133CB43D3D3D3D3D3D3D3D3D3D3D0A656E7465A7
S1133CC4722066756E6374696F6E0A3D3D3D3D3DB9
S1133CD43D3D3D3D3D3D3D3D3D3D3D0074696D658E
S1133CE46F75742025640A004E554C4C21003D3DEB
S1133CF43D3D3D3D3D3D3D3D3D3D3D3D3D3D3D0A1F
S1133D04657869742066756E6374696F6E0A3D3DE7
S1133D143D3D3D3D3D3D3D3D3D3D3D3D3D3D0A0A31
S1133D24001F1C1F1E1F1E1F1F1E1F1E1F737563D3
S1133D3463657373206F6E205265646142797465A0
S1133D44730073756363657373206F6E20526564C7
S1133D546155496E74000A543A202569202C25695A
S1133D64202C256920503A202569202C2569202CF3
S1133D742569202C2569202C2569202C2569202CD3
S1133D842569202C2531202C2569200A00457865D5
S1133D946375747265206765742073746F7265202B
S1133DA4446576696365203A2025640A004578658C
S1133DB463757472652053746F726167652044651A
S1133DC476696365002530346C64202530326C6474
S1133DD4202530326C64202530326C642025303246
S1133DE46C64202530326C64090025332E3366203C
S1133DF4004E554C4C2073746F726520646576696B
S1133E0463650074696D6520646562756733202594
S1133E146C640A00424D503238305F4572726F72DE
S1133E2400424D503238302053656E736F7220490E
S1133E346E697400424D5032383020526571756594
S1133E44737400095761697420666F7220256420B5
S1133E546D730A00424D5032383020436F6C6C65E8
S1133E646374000954656D706572617475726520BC
S1133E743D20252E33660A09507265737375726585
S1133E84203D20252E33660A000967657453746146
S1133E947274203D2025640A09676574456E6420A4
S1093EA43D2025640A0024
S9030000FC
