S00D000041544D4F532E7372656393
S11300000C941B010C9438010C9438010C943801A5
S11300100C9438010C9438010C9438010C94380178
S11300200C9438010C9438010C9438010C94380168
S11300300C9438010C9451010C9438010C9438013F
S11300400C9438010C9438010C9438010C94380148
S11300500C9438010C9438010C9438010C94380138
S11300600C9438010C9438010C9438010C94380128
S11300700C9438010C9438010C9438010C94380118
S11300800C9438010C9438010C9438010C94380108
S11300900C9438010C9438010C9438010C943801F8
S11300A00C9438010C9438010C9449040C943801D4
S11300B00C9438010C9438010C9438010C943801D8
S11300C00C9438010C9438010C9438010C943801C8
S11300D00C9438010C9438010C9438010C943801B8
S11300E00C9438010C9438010C9438010C943801A8
S11300F00C9438010C9438010C9438010C94380198
S11301000C9438010C9438010C9438010C94380187
S11301100C9438010C9438010C9438010C94380177
S11301200C9438010C9438010C9438010C94380167
S11301300C9438016E616E00696E660000407A109E
S1130140F35A00A0724E18090010A5D4E80000E884
S11301507648170000E40B54020000CA9A3B0000E2
S113016000E1F505000080969800000040420F0071
S11301700000A08601000000102700000000E80332
S1130180000000006400000000000A0000000000FD
S11301900100000000002C76D888DC674F0823DFBC
S11301A0C1DFAE59E1B1B796E5E3E453C63AE6518F
S11301B0997696E8E6C28426EB898C9B62ED407CB6
S11301C06FFCEFBC9C9F40F2BAA56FA5F490055A52
S11301D02AF75C936B6CF9676DC11BFCE0E40D4777
S11301E0FEF520E6B500D0ED902E0300943577059A
S11301F00080841E080000204E0A000000C80C3352
S11302003333330F986E12831141EF8D2114893BE0
S1130210E65516CFFEE6DB18D1844B381BF77C1D60
S1130220901DA4BBE424203284725E228100C9F1B3
S113023024ECA1E53D2711241FBECFEFD1E2DEBFA0
S1130240CDBF13E0A0E0B2E0EAE2F8E102C005901D
S11302500D92A031B107D9F726E0A0E1B3E001C0C7
S11302601D92AB36B207E1F70E948A010C94130C7D
S11302700C940000E6EBF0E080818062808382E4ED
S11302808093B00087E08093B10080E28093B30054
S113029080818F71E9F787E087BB82E080937000EB
S11302A008951F920F920FB60F9211242F933F932C
S11302B04F935F936F937F938F939F93AF93BF936A
S11302C0EF93FF9380911003909111030196909303
S11302D01103809310039F938F938EE092E09F937A
S11302E08F930E94740B0E941D040F900F900F9027
S11302F00F90FF91EF91BF91AF919F918F917F915B
S11303006F915F914F913F912F910F900FBE0F907E
S11303101F9018950E94E7050E940E030E94120385
S113032060E07CE281E090E00E94DA03249A6B9A18
S1130330739A60E177E280E090E00E9418030E94E3
S113034002030E94FE020E94FA020E9414021F92FB
S11303508F938AE192E09F938F930E94740B84E0C1
S113036090E00E94F4020E9414038CE292E00E9446
S1130370880B10921103109210030E943A01789492
S11303800F900F900F900F90FFCF1F93CF93DF9399
S1130390EC01162F86E70E94440388810E943603ED
S11303A086E70E94610380931203803481F4612FF5
S11303B070E040E0CE010E949E03887F883549F4B6
S11303C00E94990391E0811105C090E003C090E080
S11303D001C090E0892FDF91CF911F9108950F9371
S11303E01F93CF93DF9300D0CDB7DEB78B01898302
S11303F062E0CE0101960E94C501882359F08A81EA
S113040090E0982F88272981822BF801918380839B
S113041081E003C0F801118210820F900F90DF91E8
S1130420CF911F910F910895CF93DF9300D0CDB753
S1130430DEB788E8898362E0CE0101960E94C50197
S1130440882399F08A8190E0982F88272981822B2C
S113045090931603809315036BE273E08AE80E947D
S1130460EF01882309F4BBC005C010921603109253
S11304701503B5C069E273E08CE80E94EF0188239C
S113048009F4ADC08EE8898362E0CE0101960E9432
S1130490C501882399F08A8190E0982F88272981C3
S11304A0822B909318038093170367E273E080E92B
S11304B00E94EF01882309F492C005C0109218032A
S11304C0109217038CC065E273E082E90E94EF0189
S11304D0882309F484C063E273E084E90E94EF0195
S11304E0882309F47CC061E273E086E90E94EF018D
S11304F0882309F474C06FE173E088E90E94EF0176
S1130500882309F46CC06DE173E08AE90E94EF016D
S1130510882309F464C06BE173E08CE90E94EF0165
S1130520882309F45CC069E173E08EE90E94EF015D
S1130530882309F454C080911A038F93809119037E
S11305408F9380911C038F9380911B038F938091D1
S11305501E038F9380911D038F93809120038F93AB
S113056080911F038F93809122038F9380912103A5
S11305708F93809124038F93809123038F93809191
S113058026038F93809125038F93809128038F9363
S1130590809127038F93809118038F938091170381
S11305A08F9380912A038F93809129038F93809155
S11305B02C038F9380912B038F93809116038F9339
S11305C0809115038F9387E392E09F938F930E940A
S11305D0740B0FB6F894DEBF0FBECDBF81E00F9051
S11305E00F90DF91CF910895909314038093130398
S11305F081E0089580E008952D9A0895259A0E9437
S1130600FC02089584E880937A0085EC8093770057
S1130610EBE7F0E080818823ECF708958AB1806CE1
S11306208AB908955F9A0895239A80E48CBD089549
S11306309B01AC011092B90060E074E284EF90E099
S11306400E94FB09DA01C9014097A109B109689424
S113065012F8B695A795979587951694D1F7809338
S1130660B80084E08093BC0081E008958093BB00CF
S113067084E88093BC00ECEBF0E080818823ECF705
S11306808091B900887F089594EE9093BC00ECEBC0
S1130690F0E090819923ECF7EFE9FFE03197F1F76F
S11306A000C000009091B900987F983031F09031EB
S11306B021F08091B900887F0895880F0E94360345
S11306C0089594EE9093BC00ECEBF0E090819923B4
S11306D0ECF79091B900987F983031F0903121F087
S11306E08091B900887F0895880F81600E94360345
S11306F0089524EC2093BC00ECEBF0E0208122234D
S1130700ECF72091BB00FC0120838091B900887F25
S1130710089524E82093BC00ECEBF0E02081222330
S1130720ECF72091BB00FC0120838091B900887F05
S1130730089584E98093BC0081E008959F92AF926C
S1130740BF92CF92DF92EF92FF920F931F93CF93BA
S1130750DF937C018B01942E16161706F4F4C0E087
S1130760D0E06B0181E0C81AD1085701AC0CBD1C64
S1130770911007C0CC16DD0621F4C5010E9489033F
S113078005C0C7018C0F9D1F0E947903803531F489
S11307902196C017D10761F701C080E0DF91CF91A6
S11307A01F910F91FF90EF90DF90CF90BF90AF908B
S11307B09F90089520E032E0309368062093670606
S11307C0DC01CB01880F991FAA1FBB1F880F991F3B
S11307D0AA1FBB1F9C01AD01220F331F441F551FCD
S11307E0220F331F441F551F60E074E284EF90E032
S11307F00E94FB09215031093093C5002093C400A5
S113080086E08093C20088E18093C1000895E0EC03
S1130810F0E0908195FFFDCF8093C6000895CF93BB
S1130820C82F8A3019F48DE00E9407048C2F0E948F
S1130830070480E090E0CF91089581E093E00E9466
S1130840880B089514BE88E10FB6F8948093600075
S1130850109260000FBEE1E6F0E080E88083108231
S113086078940E943404089510923C0680E29EE439
S11308709093A9008093A800E1EAF0E088E08083E7
S1130880808182608083E2E7F0E0808182608083FF
S113089008951F920F920FB60F9211248F93809197
S11308A03C068F5F80933C068F910F900FBE0F9094
S11308B01F901895109241061092420610923E061F
S11308C010923D061092640610926306E3E4F6E08B
S11308D083E696E011921192E817F907D9F70E947E
S11308E06B050E94DE040E9486040E948104089520
S11308F0E82FF0E0EE0FFF1FED5BF94F718360838B
S1130900089510922E0310922D03089510922F0330
S11309101092B803109241041092CA041092530525
S11309200895009741F0FC01E757FF4F85E0EC3D47
S1130930F80718F012C0EFE2F3E08081882321F079
S11309400FC0808181110FC0E757FF4F85E0EC3D58
S1130950F807B8F380E090E0089580E090E008950F
S11309608E2F9F2F08958E2F9F2F0895DC011996A7
S11309702C911997222351F01796ED91FC91189719
S11309802081211105C00E949805089580E00895F2
S113099080E00895EDEEF5E02FE136E050E061E00F
S11309A04081442319F041504083562F3596E21775
S11309B0F307B1F751110E9473060895EDEEF5E0C7
S11309C08FE196E010823596E817F907D9F784E6A7
S11309D090E0A0E0B0E08093E2059093E305A0935B
S11309E0E405B093E5051092E6058AEC94E0909353
S11309F0E8058093E70566EB74E080E00E947804E4
S1130A000895FF920F931F93CF93DF93EC0110E0AF
S1130A1080E090E001E00F2EF3E1FF2EF02D13C0F3
S1130A20FC012081213179F4EC57FF4F2081318181
S1130A302150310931832083232B21F4FC01F082DE
S1130A40102F01C0102F0E949104009749F7112321
S1130A5019F0CE010E947306DF91CF911F910F917F
S1130A60FF900895EF92FF920F931F93CF93DF931C
S1130A70EC0110E080E090E001E00F2EF7E1EF2EB2
S1130A80F02D6894FF24F4F816C0FC01208126316F
S1130A9091F4EC57FF4F208131812150310931838A
S1130AA02083232B39F4FC01E082ED57FF4FF082C1
S1130AB0102F01C0102F0E949104009731F71123C9
S1130AC019F0CE010E947306DF91CF911F910F910F
S1130AD0FF90EF900895109236061092350682E347
S1130AE090E0A0E0B0E080932E0690932F06A093B0
S1130AF03006B09331061092320682E395E090936B
S1130B003406809333068AE090E0A0E0B0E080935E
S1130B10210690932206A0932306B09324061092F4
S1130B20250681E095E09093270680932606089594
S1130B30CF93DF93FC01C781D08581858330C9F4CD
S1130B4010C0FC012081263171F4348529813213CF
S1130B500AC027E120832A81EA57FF4F208381E0DE
S1130B6009C080E090E00E949104009751F780E072
S1130B7001C080E0DF91CF91089593E0909342010A
S1130B80E1E4F1E090819F719830E1F780934201B4
S1130B90E1E4F1E090819F719813FCCF0895E9E3BB
S1130BA0F1E08081816080831092380610923706CC
S1130BB081E08093390688E00E94BD058BEE809326
S1130BC05601ECE4F1E080818068808308950E94FE
S1130BD022040E9454060E94CF050E945A040895DC
S1130BE00F931F93CF93DF93EC0180913A0690917A
S1130BF03B06009709F445C04E815F81688579857D
S1130C00FC01028113812481358140175107620759
S1130C107307C0F40BC0028113812481358140170E
S1130C2051076207730728F0DF010DC0FC01A0E043
S1130C30B0E0041B150B260B370B028313832483AC
S1130C4035830AC0DC01401B510B620B730BED9121
S1130C50FC9111973097F9F64A835B836C837D830B
S1130C60109741F08D919C91119799838883CD932E
S1130C70DC9315C099838883D0933B06C0933A06CE
S1130C800EC0198218828E819F81A885B9858A83B6
S1130C909B83AC83BD83D0933B06C0933A06DF911C
S1130CA0CF911F910F91089510923B0610923A062E
S1130CB00895E0913A06F0913B06309771F0E817F9
S1130CC0F90721F40CC08E179F0759F00190F081A9
S1130CD0E02D3097C1F780E0089580E0089581E029
S1130CE0089581E00895CF93DF93EC010E945906A3
S1130CF0811103C0CE010E94F005DF91CF910895C8
S1130D00A3E1B0E0E6E8F6E00C941D0A7C011B01C7
S1130D106A01FC0117821682838181FF66C3BE01CA
S1130D206F5F7F4F4B01F7019381F10193FD859133
S1130D3093FF81911F01882309F453C3853239F449
S1130D4093FD859193FF81911F01853239F4B70199
S1130D5090E00E94420B56016501E5CF10E0512C52
S1130D6020E02032A0F48B3269F030F4803259F064
S1130D70833269F420612CC08D3239F0803339F428
S1130D80216026C02260246023C0286021C027FD82
S1130D9027C030ED380F3A3078F426FF06C0FAE069
S1130DA01F9F300D1124132F13C06AE0569E300D7F
S1130DB01124532E20620CC08E3221F426FD11C35F
S1130DC0206406C08C3611F4206802C0883641F4D1
S1130DD0F10193FD859193FF81911F018111C1CF91
S1130DE09BEB980F933018F42061805E06C09BE95A
S1130DF0980F933008F0AAC12F7E26FF16E02F73B8
S1130E00722E853621F4F22FF0647F2E08C08636C8
S1130E1021F4622F6068762E02C01111115077FE02
S1130E2007C01C3348F444244394410E27E00BC00C
S1130E30183030F4212F06C027E04CE3442E03C0C1
S1130E4027E017E0412C560174E0A70EB11CF6010F
S1130E506081718182819381042DA4010E94540ACE
S1130E606C01098100FF02C003FF06C071FC07C0CA
S1130E7072FC08C0612C08C03DE2632E05C02BE261
S1130E80622E02C090E2692E802F8C7099F1662048
S1130E9011F084E001C083E0851510F0512C0BC0E3
S1130EA0581A73FC08C0B70180E290E00E94420B1C
S1130EB05A94C9F7F3CF662029F0B701862D90E044
S1130EC00E94420B03FD03C008E311E002C004E3E7
S1130ED011E0F72DF0717F2EF8018491882309F435
S1130EE076C271108052B70190E00E94420B0F5FEE
S1130EF01F4FF2CF77FE0FC04C0C04FF04C08A8151
S1130F00813309F44A94141474F5F8E0F41578F56F
S1130F1088E0482E2CC076FC2AC0812F90E08C15E6
S1130F209D059CF06CEFC6166FEFD60674F0772D16
S1130F307068772E0AC0E2E0F0E0EC0FFD1FE10FCD
S1130F40F11D8081803319F411501111F4CF77FE13
S1130F500EC044244394410E812F90E0C816D90654
S1130F602CF41C1904C04424439401C010E077FEFF
S1130F7007C01C141D043CF496012F5F3F4F05C0AD
S1130F8025E030E002C021E030E0662011F02F5F60
S1130F903F4F112331F0412F50E04F5F5F4F240F3B
S1130FA0351F452D50E02417350714F4521A01C09B
S1130FB0512C872D897049F4552039F0B70180E20E
S1130FC090E00E94420B5A94F7CF662029F0B701B3
S1130FD0862D90E00E94420B73FC09C0552039F025
S1130FE0B70180E390E00E94420B5A94F7CF77FE5A
S1130FF05FC09C2D8D2DD7FE02C090E080E0692E4D
S1131000782E40E050E0C601841991099D878C87B1
S1131010960126193709280D391D812F90E0EE27F6
S1131020FF27E81BF90BFF87EE87FFEF6F167F069C
S113103069F4B7018EE290E02B8B3A8B488B598B85
S11310400E94420B598948893A892B89C614D704CE
S113105054F06C857D85661577052CF4F901E40F51
S1131060F51F818101C080E371E0671A71084F5F49
S11310705F4FEE85FF856E167F066CF0B70190E03A
S11310802B8B3A8B488B598B0E94420B2B893A89C4
S113109048895989CACF6C147D0439F49A819633EE
S11310A018F4953311F404FF81E3B70190E04BC0C9
S11310B08A81813309F00F7EB70190E00E94420BD0
S11310C0111105C074FE18C085E490E017C0B70183
S11310D08EE290E00E94420B82E066246394680EE4
S11310E0F401E80FF11D8081B70190E00E94420BEA
S11310F0115041F3862DF1CF85E690E0B7010E94AF
S1131100420BD7FC05C0C114D10439F404FF05C057
S1131110D194C194D1088DE201C08BE2B70190E073
S11311200E94420B80E36AE0C616D1042CF08F5F64
S1131130FAE0CF1AD108F7CFB70190E00E94420B32
S1131140B701C601C0960E94420B41C1833631F0FB
S1131150833779F0833509F058C021C0560172E015
S1131160A70EB11CF6018081898301E010E06401BF
S113117014C05601F2E0AF0EB11CF601C080D1805C
S113118026FF03C0612F70E002C06FEF7FEFC6013E
S11311902B8B0E94370B8C012B892F7715C056019E
S11311A0F2E0AF0EB11CF601C080D18026FF03C06F
S11311B0612F70E002C06FEF7FEFC6012B8B0E949E
S11311C02C0B8C012B892068722E23FD1AC0852DCF
S11311D090E008171907A8F4B70180E290E00E9494
S11311E0420B5A94F4CFF60177FC859177FE8191F6
S11311F06F01B70190E00E94420B51105A940150C4
S113120011090115110579F7E2C0843611F0893608
S113121051F5560127FF09C0F4E0AF0EB11CF601E9
S113122060817181828193810AC0F2E0AF0EB11CAA
S1131230F60160817181882777FD8095982F022FB0
S11312400F7697FF08C090958095709561957F4FB4
S11312508F4F9F4F00682AE030E0A4010E94B50B35
S1131260C82EC8183EC0022F853721F40F7E2AE00D
S113127030E01DC0097F8F3691F018F4883559F09D
S1131280B0C0803719F0883711F0ABC0006104FF9B
S113129009C0046007C024FF08C0066006C028E037
S11312A030E005C020E130E002C020E132E0560128
S11312B007FF09C0F4E0AF0EB11CF6016081718133
S11312C08281938108C0F2E0AF0EB11CF601608107
S11312D0718180E090E0A4010E94B50BC82EC8186B
S11312E00F7706FF0BC0202F2E7FC11650F404FF8A
S11312F00AC002FD08C0202F2E7E05C0DC2C202F42
S113130003C0DC2C01C0D12E24FF0DC0FE01EC0D66
S1131310F11D8081803311F4297E09C022FF06C0AB
S1131320D394D39404C0822F867809F0D39423FDF8
S113133013C020FF06C01C2DD51418F4150D1D195B
S1131340D52CD51468F4B70180E290E02B8B0E9471
S1131350420BD3942B89F5CFD51410F45D1801C03A
S1131360512C24FF12C0B70180E390E02B8B0E9424
S1131370420B2B8922FF17C021FF03C088E590E0B0
S113138002C088E790E0B7010CC0822F867859F03C
S113139021FD02C080E201C08BE227FD8DE2B7018E
S11313A090E00E94420BC11638F4B70180E390E04C
S11313B00E94420B1150F7CFCA94F401EC0DF11DB9
S11313C08081B70190E00E94420BC110F5CF5520F7
S11313D009F4C2CCB70180E290E00E94420B5A9417
S11313E0F6CFF7018681978102C08FEF9FEF639656
S11313F0E2E10C94390AA1E21A2EAA1BBB1BFD01DF
S11314000DC0AA1FBB1FEE1FFF1FA217B307E407DF
S1131410F50720F0A21BB30BE40BF50B661F771F37
S1131420881F991F1A9469F7609570958095909517
S11314309B01AC01BD01CF0108952F923F924F92C1
S11314405F926F927F928F929F92AF92BF92CF9250
S1131450DF92EF92FF920F931F93CF93DF93CDB759
S1131460DEB7CA1BDB0B0FB6F894DEBF0FBECDBFD1
S113147009942A88398848885F846E847D848C84A2
S11314809B84AA84B984C884DF80EE80FD800C81AB
S11314901B81AA81B981CE0FD11D0FB6F894DEBF8E
S11314A00FBECDBFED010895283008F027E03327A3
S11314B0DA01990F311D87FD916000966105710570
S11314C039F432602E5F3D9330E32A95E1F70895B5
S11314D09F3F30F080387105610509F03C5F3C5F47
S11314E03D93913008F08068911DDF93CF931F9353
S11314F00F93FF92EF92192F987F9695E92F969567
S11315009695E90FFF27EA56FE4F99273327EE24D5
S1131510FF24A701E70105900894079428F4360FE7
S1131520E71EF81E491F511D660F771F881F991F5C
S11315300694A1F70590079428F4E70EF81E491FB6
S1131540561FC11D770F881F991F661F0694A1F7A8
S11315500590079428F4F80E491F561FC71FD11D84
S1131560880F991F661F771F0694A1F705900794AB
S113157020F4490F561FC71FD81F990F661F771FE6
S1131580881F0694A9F784911095177041F0D69599
S1131590C79557954795F794E7941A95C1F7ECE3E7
S11315A0F1E06894159015913591659195910590A8
S11315B07FE27395E118F10A430B560BC90BD0096E
S11315C0C0F7E10CF11E431F561FC91FD01D7EF446
S11315D0703311F48A95E6CFE894015030F0080F87
S11315E00AF40027021708F4202F2395022F7A33D8
S11315F028F079E37D932A95E9F710C07D932A9525
S113160089F6069497956795379517951794E11879
S1131610F10A430B560BC90BD00998F023957E9120
S113162073957A3308F070E37C932013B8F77E91B6
S113163070617D9330F0839571E37D9370E32A9517
S1131640E1F71124EF90FF900F911F91CF91DF915B
S1131650992787FD90950895FC010590615070408D
S11316600110D8F7809590958E0F9F1F0895FC0167
S11316706150704001900110D8F7809590958E0FBD
S11316809F1F08950F931F93CF93DF93182F092F54
S1131690EB018B8181FD03C08FEF9FEF20C082FFA0
S11316A010C04E815F812C813D81421753077CF429
S11316B0E881F9819F012F5F3F4F3983288310838D
S11316C006C0E885F985812F0995892B29F72E8194
S11316D03F812F5F3F4F3F832E83812F902FDF91D8
S11316E0CF911F910F910895A0E0B0E0EAE7FBE0ED
S11316F00C942D0AFE01359661917191AF01809190
S11317006706909168060E948006E2E00C94490AFC
S11317100F931F93CF93DF93E0916706F0916806D0
S1131720238121FF1BC0EC0100E010E0899160914E
S1131730670670916806DB011896ED91FC91199784
S1131740882331F00995892B89F30FEF1FEFEECF32
S11317508AE00995892B11F4C80102C08FEF9FEF2D
S1131760DF91CF911F910F910895FA01AA27283094
S113177051F1203181F1E8946F936E7F6E5F7F4F5A
S11317808F4F9F4FAF4FB1E03ED0B4E03CD0670FD6
S1131790781F891F9A1FA11D680F791F8A1F911D29
S11317A0A11D6A0F711D811D911DA11D20D009F479
S11317B068943F912AE0269F11243019305D3193BB
S11317C0DEF6CF010895462F4770405D4193B3E0A4
S11317D00FD0C9F7F6CF462F4F70405D4A3318F04B
S11317E0495D31FD4052419302D0A9F7EACFB4E0FC
S11317F0A6959795879577956795BA95C9F70097B4
S11318006105710508959B01AC010A2E0694579554
S1131810479537952795BA95C9F7620F731F841FAB
S10D1820951FA01D0895F894FFCF52
S113182A00000002000000000F0400000000636FC3
S113183A756E74203D2025640A00424D50323830BA
S113184A205374617475732025690A00696E69747A
S113185A20646F6E6521000A543A202569202C25DC
S113186A69202C256920503A202569202C256920D5
S113187A2C2569202C2569202C2569202C256920F2
S113188A2C2569202C2531202C2569200A000A0AD6
S113189A0A3D3D3D3D3D3D3D3D3D3D3D3D3D3D3D9D
S11318AA3D3D0A656E7465722066756E6374696F70
S11318BA6E0A3D3D3D3D3D3D3D3D3D3D3D3D3D3D4C
S11318CA3D3D0074696D656F75742025640A004E88
S11318DA554C4C21003D3D3D3D3D3D3D3D3D3D3D4D
S11318EA3D3D3D3D3D3D0A657869742066756E63EC
S11318FA74696F6E0A3D3D3D3D3D3D3D3D3D3D3D77
S113190A3D3D3D3D3D0A0A006C65667420696E736F
S113191A65727420007461696C20696E73657274EF
S113192A00546F70206F66206C6F6F702021000066
S9030000FC
