S00D000041544D4F532E7372656393
S11300001AC1000038C1000036C1000034C100002C
S113001032C1000030C100002EC100002CC100001C
S11300202AC1000028C1000026C1000024C100002C
S113003022C1000020C100001EC100006AC30000EC
S11300401AC1000018C1000016C1000014C100004C
S113005012C1000010C100000EC100000CC100005C
S11300600AC1000008C1000006C1000004C100006C
S113007002C1000000C10000FEC00000FCC000007E
S1130080FAC00000F8C00000F6C00000F4C0000090
S1130090F2C00000F0C00000EEC00000ECC00000A0
S11300A0EAC00000E8C00000F6C50000E4C000009B
S11300B0E2C00000E0C00000DEC00000DCC00000C0
S11300C0DAC00000D8C00000D6C00000D4C00000D0
S11300D0D2C00000D0C00000CEC00000CCC00000E0
S11300E0CAC00000C8C00000C6C00000C4C00000F0
S11300F0C2C00000C0C00000BEC00000BCC0000000
S1130100BAC00000B8C00000B6C00000B4C000000F
S1130110B2C00000B0C00000AEC00000ACC000001F
S1130120AAC00000A8C00000A6C00000A4C000002F
S1130130A2C000006E616E00696E660000407A1015
S1130140F35A00A0724E18090010A5D4E80000E884
S11301507648170000E40B54020000CA9A3B0000E2
S113016000E1F505000080969800000040420F0071
S11301700000A08601000000102700000000E80332
S1130180000000006400000000000A0000000000FD
S11301900100000000002C76D888DC674F0823DFBC
S11301A0C1DFAE59E1B1B796E5E3E453C63AE6518F
S11301B0997696E8E6C28426EB898C9B62ED407CB6
S11301C06FFCEFBC9C9F40F2BAA56FA5F490055A52
S11301D02AF75C936B6CF9676DC11BFCE0E40D4777
S11301E0FEF520E6B500D0ED902E0300943577059A
S11301F00080841E080000204E0A000000C80C3352
S11302003333330F986E12831141EF8D2114893BE0
S1130210E65516CFFEE6DB18D1844B381BF77C1D60
S1130220901DA4BBE424203284725E228100C9F1B3
S113023024ECA1E53D2711241FBECFEFD1E8DEBF9A
S1130240CDBF00E00CBF16E0A0E0B2E0ECEEFEE3B0
S113025000E00BBF02C007900D92AA31B107D9F795
S11302602BE0AAE1B6E001C01D92A53CB207E1F77C
S113027094D00C94741FC4CEAF92BF92CF92DF92ED
S1130280EF92FF920F931F93CF93DF935C01A6E34A
S1130290B2E0FC01B0962AE232E08EE192E002E4A0
S11302A012E00F2EF0EECF2EFEE2DF2EE12CF12C29
S11302B0F02D4D915D916D917D91408351836283C9
S11302C07383C482D582E682F782E9014991599108
S11302D0699179919E014487558766877787EC01F8
S11302E04991599169917991CE01408751876287EB
S11302F073877096A017B107E1F68EE092E0FC01D7
S11303004081518162817381E501488359836A8305
S11303107B83A6E1B2E04D915D916D917C91139741
S11303204C835D836E837F83E6E0F2E040815181FC
S1130330628173814C875D876E877F8718861986F3
S11303401A861B86EC014C815D816E817F81E501FB
S1130350488B598B6A8B7B8B14968D919D910D9054
S1130360BC91A02D8C8B9D8BAE8BBF8B8481958192
S1130370A681B7818C8F9D8FAE8FBF8F188E198EFB
S11303801A8E1B8EDF91CF911F910F91FF90EF90EA
S1130390DF90CF90BF90AF9008950E947C0A30D335
S11303A033D360E875E280E090E00BD4249A6B9A32
S11303B0739A60E177E280E090E02CD39ED10E94B2
S11303C0880D9F938F9386E992E09F938F930E9469
S11303D0CE1E84E090E00E94D20E18D310923B0B04
S11303E010923A0B8CE39BE047DF8FE891E0019792
S11303F0F1F700C0000098D68FE891E00197F1F77B
S113040000C000008CE599E00E94260D8FE891E081
S11304100197F1F700C0000062E070E080E090E036
S11304200E943A168C0188EA92E09F938F930E946F
S1130430CE1E8FE891E00197F1F700C0000061E063
S113044070E080E090E017D14C0180E090E00E94E1
S11304507F146C01BC0180E090E00E945C155C019B
S1130460A0D185EB92E00E94E61ECCE3DBE02CA158
S11304703DA14EA15FA168A179A18AA19BA1E12C14
S1130480F12C09D72091800B3091810B4091820B84
S11304905091830B60917C0B70917D0B80917E0B4E
S11304A090917F0B8401F7D68F898F938E898F93D8
S11304B08D898F938C898F938B898F938A898F935E
S11304C089898F9388898F9320EC32E03F932F930F
S11304D00E94CE1E2C813D814E815F81688179818D
S11304E08A819B81850119D72C893D894E895F8931
S11304F0688979898A899B8986010FD75FD64CD20E
S113050078948DB79EB740960FB6F8949EBF0FBEF1
S11305108DBFFFCF88E6AAD2883159F464E070E039
S113052082E492E035D3883239F4F3D28AE090E061
S113053008958FEF9FEF08958FEF9FEF0895AF9287
S1130540BF92CF92DF92EF92FF920F931F93CF93BC
S1130550DF9300D01F92CDB7DEB719821A821B82B7
S11305601C8288E69FD28034B1F541E064E070E0FB
S1130570CE010196D3D2803589F5CBD29A81A92EAA
S1130580B12CFA2CEE242B81C22ED12CEC28FD2880
S11305908981082F10E03C811F923F931F922F9373
S11305A01F929F931F928F9387EC92E09F938F9358
S11305B00E94CE1E8C8190E00A0D1B1D0C0D1D1D8A
S11305C00FB6F894DEBF0FBECDBF8017910749F474
S11305D08E2D9F2D08C082EF98ED05C083EF98ED16
S11305E002C081EF98ED0F900F900F900F90DF9164
S11305F0CF911F910F91FF90EF90DF90CF90BF901C
S1130600AF9008952EE432E0FC01358724870895E5
S113061080E090E0089580E090E0089526E432E0E0
S1130620FC0131832083089580E090E0089583E005
S113063090E008956FCF089582DFBC01990F880B75
S1130640990B0E947F179F938F937F936F9380EEF4
S113065092E09F938F930E94CE1E0F900F900F9065
S11306600F900F900F90089582EF92E00E94E61E83
S113067080E090E00895EF92FF920F931F93CF9341
S1130680DF937C018B018EE090E00E947B1CEC01E7
S113069086E492E0998388838EE492E09D878C8738
S11306A080E39DE09987888784E39DE09B878A8720
S11306B0FB82EA821F830E8380913A0B90913B0B5D
S11306C09D838C83B801680F791F70933B0B6093F3
S11306D03A0B7F936F9382E093E09F938F930E94F2
S11306E0CE1E0F900F900F900F90CE01DF91CF91FF
S11306F01F910F91FF90EF90089584E880937A0002
S113070085EC80937700EBE7F0E080818823ECF7B9
S113071008951F920F920FB60F9211240BB60F92E9
S11307202F933F934F935F936F937F938F939F93F5
S1130730AF93BF93EF93FF9380912006909121068E
S11307400196909321068093200680911F068F9333
S113075080911E068F9380911D068F9380911C06B5
S11307608F9386E193E09F938F930E94CE1E19D6B8
S11307700F900F900F900F900F900F90FF91EF91AB
S1130780BF91AF919F918F917F916F915F914F91A5
S11307903F912F910F900BBE0F900FBE0F901F90A3
S11307A0189510921C0610921D0610921E061092A7
S11307B01F061092210610922006E6EBF0E08081DD
S11307C08062808380818F71E9F71092B10008956F
S11307D0CF92DF92EF92FF926B017C01E6EBF0E0A7
S11307E080818F71E9F71092B100E6EBF0E080812F
S11307F08F71E9F78BEFC816D104E104F104ECF42E
S1130800C701B6010E947F172FE632E143E85FE398
S11308100E9433180E944C1720E031E0C901861B66
S1130820970B8F3F910519F014F08FEF90E08093B0
S1130830B20083E08093B10094C085EFC81681E0D4
S1130840D806E104F104ECF4C701B6010E947F1755
S11308502FE632E143E05FE30E9433180E944C1715
S113086020E031E0C901861B970B8F3F910519F0F9
S113087014F08FEF90E08093B20084E08093B10095
S113088070C089EEC81683E0D806E104F104ECF4E4
S1130890C701B6010E947F172FE632E143E85EE309
S11308A00E9433180E944C1720E031E0C901861BD6
S11308B0970B8F3F910519F014F08FEF90E0809320
S11308C0B20085E08093B1004CC081EDC81687E08A
S11308D0D806E104F104ECF4C701B6010E947F17C5
S11308E02FE632E143E05EE30E9433180E944C1786
S11308F020E031E0C901861B970B8F3F910519F069
S113090014F08FEF90E08093B20086E08093B10002
S113091028C081E4C8168FE1D806E104F104ECF4A0
S1130920C701B6010E947F172FE632E143E05DE381
S11309300E9433180E944C1720E031E0C901861B45
S1130940970B8F3F910519F014F08FEF90E080938F
S1130950B20087E08093B10004C087E293E00E9474
S1130960E61E1092B00080911C0690911D06A09185
S11309701E06B0911F06C80ED91EEA1EFB1EC092A9
S11309801C06D0921D06E0921E06F0921F06FF90F0
S1130990EF90DF90CF9008951BDF87E087BB81E065
S11309A0809370000895CF92DF92EF92FF926B01D3
S11309B07C01FF92EF92DF926F9389E393E09F9320
S11309C08F930E94CE1E0F900F900F900F900F9058
S11309D00F90C114D104E104F10469F08091200660
S11309E090912106892B21F4C701B601D5DF03C0FC
S11309F0C701B601EDDEFF90EF90DF90CF90089530
S1130A008AB1806C8AB908955F9A0895239A80E424
S1130A108CBD08959B01AC011092B90060E074E2B2
S1130A2084EF90E00E941E1CDA01C9014097A109DD
S1130A30B109689412F8B695A79597958795169479
S1130A40D1F78093B80084E08093BC0081E00895DE
S1130A508093BB0084E88093BC00ECEBF0E08081E1
S1130A608823ECF78091B900887F089594EE9093E1
S1130A70BC00ECEBF0E090819923ECF7EFE9FFE0A8
S1130A803197F1F700C000009091B900987F983039
S1130A9031F0903121F08091B900887F0895880F5A
S1130AA0D7CF089594EE9093BC00ECEBF0E09081E6
S1130AB09923ECF79091B900987F983031F09031F8
S1130AC021F08091B900887F0895880F8160C0CF9C
S1130AD00895DC0184EC8093BC00ECEBF0E09081A1
S1130AE09923ECF78091BB008C938091B900887FA7
S1130AF00895DC0184E88093BC00ECEBF0E0908185
S1130B009923ECF78091BB008C938091B900887F86
S1130B10089584E98093BC0081E008959F92AF9288
S1130B20BF92CF92DF92EF92FF920F931F93CF93D6
S1130B30DF9316161706FCF4942E8B017C01C0E09B
S1130B40D0E06B0181E0C81AD1085701AC0CBD1C80
S1130B50911006C0CC16DD0619F4C501CADF04C025
S1130B60C7018C0F9D1FB5DF803531F42196C01766
S1130B70D10771F701C080E0DF91CF911F910F91F0
S1130B80FF90EF90DF90CF90BF90AF909F9008952B
S1130B900F931F93CF93DF931616170664F48C01FB
S1130BA0EC01060F171F899153DF883229F4C0170F
S1130BB0D107C9F701C080E0DF91CF911F910F9158
S1130BC0089528E532E03093C20B2093C10BDC0179
S1130BD0CB01880F991FAA1FBB1F880F991FAA1F3B
S1130BE0BB1F9C01AD01220F331F441F551F220F51
S1130BF0331F441F551F60E074E284EF90E00E94AD
S1130C001E1C215031093093C5002093C40086E096
S1130C108093C20088E18093C1000895E0ECF0E085
S1130C20908195FFFDCF8093C6000895CF93C82F80
S1130C308A3011F48DE0F2DF8C2FF0DF80E090E059
S1130C40CF91089514BE0FB6F894A89580916000D2
S1130C50886180936000109260000FBEE1E6F0E0CE
S1130C6080E880831082789401C008951092920BDA
S1130C7080E29EE49093A9008093A800E1EAF0E06A
S1130C8088E08083808182608083E2E7F0E0808175
S1130C908260808308951F920F920FB60F921124E1
S1130CA08F938091920B8F5F8093920B8F910F9013
S1130CB00FBE0F901F901895E3E9FBE01482158294
S1130CC01182108217A216A2E9E9FBE089EB9BE0EE
S1130CD011921192E817F907D9F7E3D067D010D031
S1130CE00AC00895E82FF0E0EE0FFF1FE756F44F17
S1130CF0718360830895109223061092220608954A
S1130D00109224061092AD06109236071092BF0777
S1130D10109248080895009741F0FC01E757FF4FEF
S1130D2088E0E13DF80718F015C0E4E2F6E08081C0
S1130D30882339F003C08081882319F08E2F9F2FD8
S1130D400895E757FF4F88E0E13DF807A0F380E0FE
S1130D5090E0089580E090E00895DC0119962C91CC
S1130D601997222349F01796ED91FC911897208149
S1130D70211104C0B9C0089580E0089580E0089569
S1130D80BC01E2EEF8E024E139E040E051E090817A
S1130D90992319F091509083452F3596E217F30764
S1130DA0B1F7442311F0CB012FC40895E2EEF8E02B
S1130DB084E199E010823596E817F907D9F7E1ED57
S1130DC0F8E084E690E0A0E0B0E086839783A08713
S1130DD0B187128680EC96E0948783876DEA76E08B
S1130DE080E080CF0895EF92FF920F931F93CF93EB
S1130DF07C0110E080E090E001E0C3E113C0FC015D
S1130E002081213179F4EC57FF4F20813181215029
S1130E10310931832083232B21F4FC01C083102F5B
S1130E2001C0102F78DF009751F7112311F0C7018B
S1130E30EBD3CF911F910F91FF90EF900895EF9214
S1130E40FF920F931F93CF93DF937C0110E080E018
S1130E5090E001E0D7E1C0E116C0FC012081263119
S1130E6091F4EC57FF4F20813181215031093183B6
S1130E702083232B39F4FC01D083ED57FF4FC0832B
S1130E80102F01C0102F47DF009739F7112311F0FD
S1130E90C701BAD3DF91CF911F910F91FF90EF90CB
S1130EA0089510922B0910922A09EDE1F9E082E3EA
S1130EB090E0A0E0B0E086839783A087B187128694
S1130EC08FE197E094878387E0E1F9E08AE090E09E
S1130ED0A0E0B0E086839783A087B187128683EF72
S1130EE096E0948783870895CF93DF93FC01C781AD
S1130EF0D08581858330C1F480E090E010C0FC018E
S1130F002081263161F434852981321308C027E118
S1130F1020832A81EA57FF4F208381E006C0FBDE4D
S1130F20009769F780E001C080E0DF91CF910895D8
S1130F3093E090934201E1E4F1E090819F71983055
S1130F40E1F780934201E1E4F1E090819F7198130D
S1130F50FCCF0895E9E3F1E0808181608083109201
S1130F602D0910922C0981E080932E0988E0E0DF9E
S1130F708BEE80935601ECE4F1E0808180688083FD
S1130F8008950F931F93CF93DF93EC01892B59F4AA
S1130F908FE493E09F938F930E94CE1E0F900F9047
S1130FA080E090E070C008891989988D9130A9F08B
S1130FB038F0923009F44EC0943009F45AC061C03C
S1130FC0D801ED91FC910280F381E02DC8011995BF
S1130FD081E0888F80E090E056C0D8011C96ED91A6
S1130FE0FC911D970480F581E02DC80119958F3F70
S1130FF0BFEF9B0729F484E0888F80E090E043C032
S1131000009781F481E0888FD8011C96ED91FC91C2
S11310101D970680F781E02D88899989199580E0CC
S113102090E031C022E0288F092E000CAA0BBB0BE4
S11310308C839D83AE83BF838C879D87AE87BF8758
S11310408091380B9091390B29D3CE01DBD081E00C
S113105090E019C081E0888FD8011C96ED91FC9135
S11310601D970680F781E02DC801199580E090E076
S11310700AC084E693E00E94E61E188E80E090E0A9
S113108002C080E090E0DF91CF911F910F9108950D
S11310900F931F93CF93DF93FC01C289D3890489F3
S11310A01589892B29F48FE493E00E94E61E35C04C
S11310B0908D992319F0913021F02FC081E0808F19
S11310C02CC0E881F9810680F781E02DCE011995C5
S11310D0059781F483E893E00E94E61EEA81FB8190
S11310E00280F381E02DCE0119958FE893E00E94F0
S11310F0E61E13C0E881F9810680F781E02DCE0158
S11311001995049751F4D8011296ED91FC91139717
S11311100280F381E02DC801199580E090E0DF9111
S1131120CF911F910F9108950F931F93CF93DF9346
S1131130E4E3FBE0F093390BE093380BF383E283B1
S1131140F183E083ECE8FBE0F093910BE093900BE8
S1131150F383E283F183E083C4E8D9E004E31BE092
S1131160BE018091900B9091910B62D26B96C01747
S1131170D107B1F7DF91CF911F910F910895CF92CD
S1131180DF92EF92FF926B017C018091380B90917A
S1131190390B45D2009769F0FC0144815581668181
S11311A077814C195D096E097F09448355836683F1
S11311B07783FF90EF90DF90CF9008958091380B64
S11311C09091390B2CD2009769F482EA93E00E9443
S11311D0E61E87EE93E00E94E61E60E47FE180E075
S11311E090E00895FC016481758186819781603463
S11311F0FFE17F078105910524F060E47FE180E051
S113120090E008950F931F93CF93DF93DC01C09177
S1131210380BD091390BEA81FB81CE17DF0771F1CE
S1131220309731F1048115812681378114964D91CF
S11312305D916D917C911797401751076207730771
S11312406CF4041B150B260B370B048315832683C0
S11312503783BD0180819181EBD118C0401B510BB4
S1131260620B730B14964D935D936D937C93179758
S11312700280F381E02DCE17DF0791F6E091380B61
S1131280F091390BBD0180819181D2D1DF91CF9151
S11312901F910F9108954F925F926F927F928F9258
S11312A09F92AF92BF92EF92FF920F931F932B01E5
S11312B03C0149015A018091900B9091910BEED120
S11312C0FC01892BD9F0448255826682778280861C
S11312D09186A286B3861486158616861786118B88
S11312E0008BF78AE68A81E0808F81EC97E0928F09
S11312F0818FCF0187DF80E090E002C08FEF9FEF06
S11313001F910F91FF90EF90BF90AF909F908F909F
S11313107F906F905F904F9008954F925F926F927D
S11313207F928F929F92AF92BF92EF92FF920F9310
S11313301F932B013C0149015A018091900B90911C
S1131340910BACD1FC01892BE9F044825582668271
S1131350778280869186A286B38614861586168641
S11313601786138B028B158B048BF78AE68A81E030
S1131370808F88E498E0928F818FCF0143DF80E0F3
S113138090E002C08FEF9FEF1F910F91FF90EF90BD
S1131390BF90AF909F908F907F906F905F904F9091
S11313A00895CF92DF92EF92FF920F931F93CF9302
S11313B0DF938091380B9091390B31D1EC01892B5B
S11313C039F48EE294E00E94E61E8FEF9FEF8BC00B
S11313D088899989892B49F48A899B89892B29F4DD
S11313E08C899D89892B09F47CC08C819D81AE8177
S11313F0BF81892B8A2B8B2B71F0E0DE6B01770F79
S1131400EE08FF08C701B601BADEC701B601CBDAA0
S113141080E090E068C0E98DFA8DCE0119950197BE
S1131420A9F4CCDE6115710521F4BBDF80E090E006
S11314305AC06B01770FEE08FF08C701B6019FDEA3
S1131440C701B601B0DA80E090E04DC08091380B5E
S11314509091390B23D188859985AA85BB850097FE
S1131460A105B10519F14C855D856E857F858C01DB
S11314709D01041B150B260B370BB901A8010C8326
S11314801D832E833F83332354F4480F591F6A1F4F
S11314907B1F7723D4F34C835D836E837F831C8609
S11314A01D861E861F86CE01ADDE06C0BE0180915C
S11314B0900B9091910BBCD081DE6115710521F4E4
S11314C070DF80E090E00FC06B01770FEE08FF083B
S11314D0C701B60154DEC701B60165DA80E090E0C9
S11314E002C08FEF9FEFDF91CF911F910F91FF907B
S11314F0EF90DF90CF900895A5DB67D02BDDDCCB98
S113150008950F931F93CF93DF93EC0180912F09DC
S113151090913009009709F445C04E815F81688538
S11315207985FC010281138124813581401751079B
S11315306207730760F0DC0117C002811381248104
S11315403581401751076207730768F403C0FC0133
S1131550A0E0B0E0041B150B260B370B02831383AA
S1131560248335830AC0DF01401B510B620B730BCC
S1131570ED91FC911197309701F74A835B836C835B
S11315807D83109741F08D919C9111979983888365
S1131590CD93DC9315C099838883D0933009C0938D
S11315A02F090EC0198218828E819F81A885B98562
S11315B08A839B83AC83BD83D0933009C0932F0966
S11315C0DF91CF911F910F910895109230091092DD
S11315D02F090895E0912F09F0913009309771F0A7
S11315E0E817F90721F40CC08E179F0759F00190F2
S11315F0F081E02D3097C1F780E0089580E00895F0
S113160081E0089581E00895CF93DF93EC01E2DF58
S1131610811102C0CE0175DFDF91CF910895FC01E5
S1131620828193818E179F0711F480E090E00895E2
S1131630DC011296ED91FC91139771836083DB01B9
S11316401396FC93EE931297FC01738362838D933C
S11316509C93CB010895FB01DC0112962D913C91E2
S1131660139728173907A1F086179707A1F0A081CF
S1131670B1818281938113969C938E931297A28158
S1131680B381808191818D939C93862F9F2F0895A0
S113169080E090E0089580E090E00895FC0162818C
S11316A073816817790711F0D6CF089580E090E030
S11316B008952F923F924F925F926F927F928F92F2
S11316C09F92AF92BF92CF92DF92EF92FF920F93CD
S11316D01F93CF93DF93CDB7DEB762970FB6F8941D
S11316E0DEBF0FBECDBF9A8B898BDC014D905D9020
S11316F06D907C900F2EFCE38F2E912CA12CB12C9D
S1131700F02DC301B201A50194010E94401C69019E
S11317107A01A4ECBFEF0E945E1C9B01AC01240D76
S1131720351D461D571D29833A834B835C83C701AE
S1131730B601A50194010E94401C49015A01A4EC80
S1131740BFEF0E945E1C9B01AC012C0D3D1D4E1D84
S11317505F1D2D833E834F835887C501B40128E163
S113176030E040E050E00E94401CC22ED32EE42E14
S1131770F52EA8EEBFEF0E945E1C9B01AC01280D64
S1131780391D4A1D5B1D29873A874B875C87812C4D
S1131790912C5401689482F80F2EF2EB4F2EF7E04F
S11317A05F2E612C712CF02D0DE611E0212C312CD3
S11317B0D301C20183709927AA27BB27892B8A2BBF
S11317C08B2B09F0EAC0C301B20124E630E040E00B
S11317D050E00E94401C672B682B692B09F0D0C095
S11317E0C301B20120E931E040E050E00E94401C16
S11317F0672B682B692B09F4C3C0CFC08EE691E038
S1131800A0E0B0E042E050E060E070E008C0802F6B
S1131810912FA22DB0E041E050E060E0732D840EE2
S1131820951EA61EB71EC81AD90AEA0AFB0A57E073
S113183085169104A104B1042CF087E0881A91085C
S1131840A108B1089FEF491A590A690A790AB0CF69
S1131850E989FA8984A395A3A6A3B7A3BC01CD0102
S1131860680D791D8A1D9B1D27E030E040E050E0A3
S11318700E94401C6D877E878F87988BECEAF4E08A
S1131880812C912C5401839440E050E0BA0109C0AA
S11318904F5F5F4F6F4F7F4F3FEF831A930AA30A47
S11318A0B30A8A019B01819141305105610571059B
S11318B029F4332009F45BC08F5F59C090E0A0E0A5
S11318C0B0E0C816D906EA06FB066CF0C81AD90AB5
S11318D0EA0AFB0A950184018CE088169104A104AC
S11318E0B104B4F200C089819A81AB81BC81E989D9
S11318F0FA8980879187A287B3878D819E81AF8182
S1131900B88584879587A687B78789859A85AB85A7
S1131910BC85808B918BA28BB38BFFEFCF1ADF0A30
S1131920EF0AFF0AA989BA895496CD92DD92ED9205
S1131930FC925797D901C8010196A11DB11DE989EF
S1131940FA89808F918FA28FB38F448E558E668EC5
S1131950778E2D853E854F85588920A331A342A3D8
S113196053A327C0C81AD90AEA0AFB0A91CF90E008
S1131970A0E0B0E0C816D906EA06FB069CF7B3CF90
S1131980FEE6CF16F1E0DF06E104F1040CF036CFF9
S1131990D701C601332433945BCF3DE6C31631E04F
S11319A0D306E104F1040CF032CFD701C601312C87
S11319B04FCF62960FB6F894DEBF0FBECDBFDF9156
S11319C0CF911F910F91FF90EF90DF90CF90BF9038
S11319D0AF909F908F907F906F905F904F903F90CB
S11319E02F900895CF92DF92EF92FF920F931F935F
S11319F0CF93DF93EA01CC80DD80EE80FF806C0D15
S1131A007D1D8E1D9F1D28EE33E040E050E00E94B6
S1131A10401CC880D980EA80FB8089019A010C0DA2
S1131A201D1D2E1D3F1D088319832A833B836C8350
S1131A307D838E839F83CE013CDEDF91CF911F9106
S1131A400F91FF90EF90DF90CF900895FC011482E6
S1131A5015821682178210821182128213820895CF
S1131A60FC01848195810895FC012481358186815E
S1131A709781820F931F08951F93CF93DF93EC01F7
S1131A80162F86E70E94360588810E94280586E77E
S1131A9009D880933109803471F4612F70E040E0FB
S1131AA0CE013CD8887F883541F433D891E0811148
S1131AB005C090E003C090E001C090E0892FDF9161
S1131AC0CF911F9108950F931F93CF93DF931F928C
S1131AD01F92CDB7DEB78B01898362E0CE010196F8
S1131AE0CBDF882359F08A8190E0982F88272981B9
S1131AF0822BF8019183808381E003C0F801118275
S1131B0010820F900F90DF91CF911F910F91089544
S1131B10CF93DF931F921F92CDB7DEB788E88983F6
S1131B2062E0CE010196A8DF882391F08A8190E0DB
S1131B30982F88272981822B90934109809340090B
S1131B406AE579E08AE8BFDF882309F426C105C085
S1131B50109241091092400920C168E579E08CE8AF
S1131B60B2DF882309F419C18EE8898362E0CE01CB
S1131B70019682DF882391F08A8190E0982F88274C
S1131B802981822B90933F0980933E0966E579E091
S1131B9080E999DF882309F400C105C010923F0948
S1131BA010923E09FAC064E579E082E98CDF88236B
S1131BB009F4F3C062E579E084E985DF882309F458
S1131BC0ECC060E579E086E97EDF882309F4E5C0AE
S1131BD06EE479E088E977DF882309F4DEC06CE4F9
S1131BE079E08AE970DF882309F4D7C06AE479E0F0
S1131BF08CE969DF882309F4D0C068E479E08EE9D0
S1131C0062DF882309F4C9C081EA898361E0CE01D7
S1131C10019632DF882371F0898190E090933E0928
S1131C2080933D0966E479E081EE4DDF882309F471
S1131C30B4C005C010923E0910923D09AEC083EEB7
S1131C40898361E0CE01019617DF882371F08981D1
S1131C5090E090933D0980933C0964E479E084EE3C
S1131C6032DF882309F499C005C010923D0910920F
S1131C703C0993C062E479E085EE25DF882309F40A
S1131C808CC087EE898361E0CE010196F5DE88235E
S1131C9009F47FC0898190E090933C0980933B09CB
S1131CA0282F082E000C330B3F938F938091430908
S1131CB08F93809142098F93809145098F938091EE
S1131CC044098F9380913C091F928F938091470917
S1131CD08F93809146098F9380913D091F928F9332
S1131CE0809149098F93809148098F9380914B0982
S1131CF08F9380914A098F9380914D098F9380919E
S1131D004C098F9380914F098F9380914E098F9343
S1131D10809151098F93809150098F938091530939
S1131D208F93809152098F93809155098F9380915D
S1131D3054098F93809157098F93809156098F93FB
S1131D4080913F098F9380913E098F938091590927
S1131D508F93809158098F9380915B098F93809121
S1131D605A098F93809141098F93809140098F93F1
S1131D7088EB94E09F938F930E94CE1E9093450925
S1131D80809344090FB6F894DEBF0FBECDBF81E047
S1131D9004C010923C0910923B090F900F90DF9100
S1131DA0CF91089590933A098093390981E0089579
S1131DB01F93CF93DF931F921F92CDB7DEB784EFAB
S1131DC089838091390990913A098230910501F112
S1131DD02CF4009749F0019789F038C083309105BD
S1131DE009F1049749F132C085E28A8381E090E0E9
S1131DF0909338098093370918E02BC089E28A83CD
S1131E0081E090E090933809809337091AE021C06B
S1131E108DE28A8381E090E09093380980933709BA
S1131E201FE017C081E38A8381E090E09093380932
S1131E308093370918E10DC08DE58A8381E090E035
S1131E4090933809809337091DE203C085E28A83A1
S1131E5019E086E70E94360562E070E0CE01019643
S1131E600E94C805883231F40E948905882321F034
S1131E70812F03C08FEF01C08FEF0F900F90DF9180
S1131E80CF911F9108954F925F926F927F92AF927C
S1131E90BF92CF92DF92EF92FF921F93CF93DF9383
S1131EA0CDB7DEB729970FB6F894DEBF0FBECDBF0E
S1131EB05C016B017A0187EF898368E0CE010196AA
S1131EC0DBDD182F882309F491C0698170E080E07C
S1131ED090E00E947F1720E030E040E853E40E9445
S1131EE033182B013C018A81682F70E080E090E078
S1131EF00E947F179B01AC01C301B201FDD62B01E7
S1131F003C018B81682F70E080E090E0F8D720E0FE
S1131F1030E040E85BE30E9433189B01AC01C3014D
S1131F20B201EAD620E030E040E851E40E943318E0
S1131F30F50160837183828393836C8170E080E018
S1131F4090E0DDD720E030E040E853E40E9433180D
S1131F502B013C018D81682F70E080E090E0CFD7A9
S1131F609B01AC01C301B201C7D62B013C018E8198
S1131F70682F70E080E090E0C2D720E030E040E8D5
S1131F805BE30E9433189B01AC01C301B201B4D6D8
S1131F9020E030E040E851E40E943318F601608309
S1131FA07183828393836F8170E080E090E0A7D790
S1131FB020E030E040E853E40E9433182B013C0158
S1131FC08885682F70E080E090E099D79B01AC0190
S1131FD0C301B20191D620E030E040E851E40E9410
S1131FE03318F7016083718382839383812F299649
S1131FF00FB6F894DEBF0FBECDBFDF91CF911F9116
S1132000FF90EF90DF90CF90BF90AF907F906F9054
S11320105F904F9008954F925F926F927F928F924C
S11320209F92AF92BF92CF92DF92EF92FF92CF93A3
S1132030DF93EC01FB01C080D180E280F3808091CA
S1132040400990914109BC0180E090E056D72B01F2
S11320503C0120E030E040E057E3C701B6010E94B4
S113206033184B015C0120E030E040E059E3C30148
S1132070B201F9D79B01AC01C501B4013CD64B01B7
S11320805C0120E030E040E858E3C701B601EBD73B
S11320906B017C0120E030E040E85AE3C301B20167
S11320A0E2D79B01AC01C701B60125D66B017C01C7
S11320B080915A0990915B09BC01990F880B990B87
S11320C01ED79B01AC01C701B601CDD76B017C01C2
S11320D0A5019401C501B401C6D74B015C0140912F
S11320E0580950915909BA01550F880B990B07D714
S11320F09B01AC01C501B401B6D79B01AC01C7017A
S1132100B601FAD56B017C01C7D66093330970938D
S11321103409809335099093360920E030E040EA91
S113212055E4C701B60150D66B017C0168837983FD
S11321308A839B8320E030E048EC52E490D7181661
S11321406CF020E030E048EC52ECC701B60138D620
S1132150881F8827881F91E0892701C080E0DF91CC
S1132160CF91FF90EF90DF90CF90BF90AF909F9072
S11321708F907F906F905F904F9008954F925F92F1
S11321806F927F928F929F92AF92BF92CF92DF9283
S1132190EF92FF920F931F93CF93DF938C01EB0188
S11321A06091330970913409809135099091360911
S11321B0A6D620E030E040E05FE355D720E030E0F1
S11321C04AE757E498D56B017C0160914E09709100
S11321D04F09072E000C880B990B91D6A701960185
S11321E042D720E030E040E058E33DD7A701960114
S11321F03AD74B015C016091500970915109072E47
S1132200000C880B990B7BD6A70196012CD79B0158
S1132210AC0172D5A50194016FD520E030E040E80F
S11322205EE321D74B015C0160915409709155091B
S1132230072E000C880B990B62D6A701960113D7C1
S1132240A701960110D720E030E040E056E30BD719
S11322502B013C016091560970915709072E000C1F
S1132260880B990B4CD6A7019601FDD69B01AC01B6
S1132270C301B20141D520E030E040E056E3F3D69B
S113228020E030E040E057E437D520E030E040E0A3
S113229058E3E9D66B017C01288139814A815B814D
S11322A060E070E080E899E426D52B013C01609160
S11322B0520970915309072E000C880B990B1FD6F5
S11322C020E030E040E857E4CED69B01AC01C501E4
S11322D0B40112D520E030E040E859E3C4D69B01B4
S11322E0AC01C301B20107D520E030E543EC55E46D
S11322F0BAD64B015C0180913E0990913F09BC0123
S113230080E090E0FAD59B01AC01C701B601ABD6E1
S11323109B01AC01C501B40157D56B017C016091EF
S1132320480970914909072E000C880B990BE7D5D1
S1132330A701960198D6A701960195D620E030E032
S113234040E050E390D64B015C0180914A099091A2
S11323504B09BC01990F880B990BD1D5A7019601A4
S113236082D620E030E040E058E37DD69B01AC010A
S1132370C501B401C1D44B015C0180914C09909119
S11323804D09BC01990F880B990BB9D59B01AC0180
S1132390C501B401B1D420E030E040E85DE363D688
S11323A0A7019601A9D420E030E048EC52E40CD512
S11323B06B017C01F801608371838283938320E045
S11323C030E046E954E44BD618166CF020E030E0D7
S11323D048E454E4C701B601F3D4881F8827881F52
S11323E091E0892701C080E0DF91CF911F910F9187
S11323F0FF90EF90DF90CF90BF90AF909F908F9021
S11324007F906F905F904F9008954F925F926F927C
S11324107F928F929F92AF92BF92CF92DF92EF9270
S1132420FF92CF93DF93EC01FB01C080D180E28067
S1132430F3808091330990913409A0913509B091CA
S11324403609BC01CD017C528140910958D54B011C
S11324505C0120E030E0A901B3D4882309F4DCC096
S113246020E030E040E856E4C701B601FCD56B013A
S11324707C018091440990914509BC01990F880B16
S1132480990B3DD520E030E040E859E4ECD59B01C0
S1132490AC01C701B6012FD46B017C0180914209C4
S11324A090914309BC01990F880B990B28D5A5017C
S11324B09401D9D59B01AC01C701B6011CD420E01D
S11324C030E040E856E418D420E030E040E058E33F
S11324D0CAD56B017C0160913B09062E000C770B79
S11324E0880B990B0CD5A5019401BDD520E030E0F3
S11324F040E85AE3B8D52B013C0160913C0970E0F7
S113250080E090E0FCD4A5019401ADD520E030E05A
S113251040E05AE3A8D520E030E040E057E4ECD3B3
S11325209B01AC01C301B2019ED520E030E040E83C
S11325305AE399D520E030E040E05AE4DDD34B0182
S11325405C018091460990914709905EBC01990F06
S1132550880B990BD4D49B01AC01C501B40183D57C
S113256020E030E040E651E42FD49B01AC01C701E8
S1132570B60179D56B017C01688379838A839B8357
S113258020E030E040E058E36ED59B01AC016BD510
S113259020E030E040E05CE366D54B015C018091D3
S11325A03D09682F70E080E090E0A9D49B01AC0164
S11325B0C501B40158D520E030E040E85DE353D5CF
S11325C09B01AC01C701B60196D36B017C0120E0ED
S11325D030E048EC52E443D5181654F480E090E01F
S11325E0A8ECB2E488839983AA83BB8381E015C0F5
S11325F020E030E0A901C701B601E2D3882334F01A
S1132600C882D982EA82FB8281E007C018821982DB
S11326101A821B8281E001C080E0DF91CF91FF909C
S1132620EF90DF90CF90BF90AF909F908F907F906E
S11326306F905F904F900895CF92DF92EF92FF9248
S11326400F931F93CF93DF93CDB7DEB72C970FB6BD
S1132650F894DEBF0FBECDBF8C017B016A01AE01D1
S1132660475F5F4FBE016B5F7F4FCE0101960BDC6E
S1132670882321F1BE016B5F7F4FC801CCDC882326
S1132680C1F0BE016F5F7F4FC70178DD882361F021
S1132690BE01675F7F4FC601B8DE811114C084E0BC
S11326A08093320980E010C083E08093320980E097
S11326B00BC082E08093320980E006C081E0809301
S11326C0320980E001C081E02C960FB6F894DEBF99
S11326D00FBECDBFDF91CF911F910F91FF90EF906F
S11326E0DF90CF9008952EE632E0FC013183208301
S11326F0089580E090E0089580E090E0089584E0FB
S113270090E0089526E632E0FC01338322830895A5
S113271080E090E008950F931F93CF93DF93EC0133
S11327200E811F811F930F938FEE94E09F938F93DD
S11327300E94CE1E8E819F8101969F838E8328E303
S1132740209FC001219F900D1124288539850F9069
S11327500F900F900F90820F931FDF91CF911F91D5
S11327600F9108953F924F925F926F927F928F9252
S11327709F92AF92BF92CF92DF92EF92FF920F930C
S11327801F93CF93DF93CDB7DEB7E8970FB6F894D6
S1132790DEBF0FBECDBF3C018FE095E00E94E61E78
S11327A0F30186819781181619060CF08BC0812CD1
S11327B0912CA12CB12C0F2EF8E33F2EF02D0F2ECF
S11327C0F7E24F2EF5E05F2EF02D6E01F1E1CF0E12
S11327D0D11C0F2EFCE4EF2EF5E0FF2EF02DF301BB
S11327E080859185880D991DFC01DE011196232DAC
S11327F001900D922A95E1F7FC01238D2F93228DF0
S11328002F93218D2F93208D2F93278D2F93268DFA
S11328102F93258D2F93248D2F9323A12F9322A1C2
S11328202F9321A12F9320A12F9327A12F9326A18A
S11328302F9325A12F9324A12F9323A52F9322A572
S11328402F9321A52F9320A52F9327A52F9326A55A
S11328502F9325A52F9384A58F935F924F920E9467
S1132860CE1E8E010F5F1F4F0FB6F894DEBF0FBE52
S1132870CDBFF80180819181228133810C5F1F4F8C
S11328803F932F939F938F93FF92EF920E94CE1EBC
S11328900F900F900F900F900F900F900C151D0537
S11328A041F78AE090E00E94E11EFFEFAF1ABF0AF1
S11328B088E3880E911CF30186819781A816B906D6
S11328C00CF48DCFF3011782168280E090E0E89635
S11328D00FB6F894DEBF0FBECDBFDF91CF911F912D
S11328E00F91FF90EF90DF90CF90BF90AF909F90AB
S11328F08F907F906F905F904F903F900895CF920C
S1132900DF92EF92FF92CF93DF937C018AE090E015
S1132910F2D7EC01FD82EC828EE692E09983888303
S113292086E692E09B838A8388E493E0E4D79987E0
S1132930888740E050E070E060E00F2EC12CFCE39B
S1132940DF2EFCE1EF2EF6ECFF2EF02D2AC0E885F9
S1132950F985E40FF51FC901880F991F880F991F86
S1132960E80FF91FC082D182E282F382E885F985FB
S1132970E40FF51F148A158A168A178AE885F985E3
S1132980E40FF51F108A118A128A138A2F5F3F4FB2
S113299024303105E1F6485C5F4F483483E0580742
S11329A019F0272F362FD3CF1F821E82CE01DF913D
S11329B0CF91FF90EF90DF90CF9008952CE732E015
S11329C0FC0131832083089580E090E0089580E045
S11329D090E0089585E090E0089526E732E0FC0158
S11329E033832283089580E090E00895CF93DF93AA
S11329F0EC018E819F81892B21F483E595E00E946F
S1132A00E61E8E819F81DC011296ED91FC91139755
S1132A100680F781E02D199590931B0680931A0682
S1132A20892B09F444C080911C0690911D06A09145
S1132A301E06B0911F06BC01CD01882799274CE5DD
S1132A4059E00E94F20C80911A0690911B06409165
S1132A505C0950915D0960915E0970915F09FC0108
S1132A60408B518B628B738B40960E94590BE09183
S1132A701A06F0911B0683898F9382898F9381892B
S1132A808F9380898F9385E695E09F938F930E941F
S1132A90CE1E10921C0610921D0610921E06109255
S1132AA01F060F900F900F900F900F900F9080E0E3
S1132AB090E0DF91CF9108950F931F93CF93DF930D
S1132AC08C01EB0188E090E016D7FC0115830483A8
S1132AD0D783C6838CE792E09183808386E792E074
S1132AE093838283CF01DF91CF911F910F9108953A
S1132AF02CE832E0FC0135872487089580E090E0DB
S1132B00089524E832E0FC0131832083089580E0B5
S1132B1090E0089583E090E0089586E795E00E94B0
S1132B20E61E80E090E0089583E895E00E94E61EAA
S1132B3080E090E00895CF93DF9386E995E00E94CA
S1132B40E61E36D9C82FD0E01F928F9385EA95E010
S1132B509F938F930E94CE1E0F900F900F900F9013
S1132B60209719F0CE01019602C080E090E0DF9139
S1132B70CF910895EF92FF920F931F93CF93DF931A
S1132B80CDB7DEB72C970FB6F894DEBF0FBECDBF1E
S1132B908C0186EB95E00E94E61EAE01475F5F4F15
S1132BA0BE016B5F7F4FCE01019646DD8C858F930E
S1132BB08B858F938A858F9389858F9388858F934F
S1132BC08F818F938E818F938D818F938C818F933F
S1132BD08B818F938A818F9389818F9385EC95E084
S1132BE09F938F930E94CE1ED8011A96ED91FC916B
S1132BF01B97C8011995F82EE92ED8011896ED9166
S1132C00FC911997C8011995EF92FF929F938F93A6
S1132C108CEF95E09F938F930E94CE1EE0911A064D
S1132C20F0911B0689819A81AB81BC818083918359
S1132C30A283B383E0911A06F0911B068D819E81D5
S1132C40AF81B88584839583A683B7830FB6F89440
S1132C50DEBF0FBECDBF80E090E02C960FB6F89497
S1132C60DEBF0FBECDBFDF91CF911F910F91FF90BB
S1132C70EF900895EF92FF920F931F93CF93DF93FA
S1132C807C018B018EE090E036D6EC0180E39DE080
S1132C909987888784E39DE09B878A8784E892E00C
S1132CA0998388838CE892E09D878C87FB82EA82F3
S1132CB01F830E8380913A0B90913B0B9D838C83F1
S1132CC0B801680F791F70933B0B60933A0B7F93A5
S1132CD06F9382E093E09F938F930E94CE1E0F9098
S1132CE00F900F900F90CE01DF91CF911F910F9114
S1132CF0FF90EF9008955058BB27AA270ED075C1B6
S1132D0066D130F06BD120F031F49F3F11F41EF402
S1132D105BC10EF4E095E7FB51C1E92F77D180F355
S1132D20BA17620773078407950718F071F49EF5C4
S1132D308FC10EF4E0950B2EBA2FA02D0B01B90113
S1132D4090010C01CA01A0011124FF27591B99F01D
S1132D50593F50F4503E68F11A16F040A22F232F29
S1132D60342F4427585FF3CF469537952795A79579
S1132D70F0405395C9F77EF41F16BA0B620B730B20
S1132D80840BBAF09150A1F0FF0FBB1F661F771F91
S1132D90881FC2F70EC0BA0F621F731F841F48F446
S1132DA0879577956795B795F7959E3F08F0B3CFCC
S1132DB09395880F08F09927EE0F979587950895B6
S1132DC0D9D008F481E008950CD00FC107D140F0A8
S1132DD0FED030F021F45F3F19F0F0C0511139C139
S1132DE0F3C014D198F39923C9F35523B1F3951B78
S1132DF0550BBB27AA2762177307840738F09F5F18
S1132E005F4F220F331F441FAA1FA9F333D00E2E86
S1132E103AF0E0E830D091505040E695001CCAF7F3
S1132E2029D0FE2F27D0660F771F881FBB1F2617B8
S1132E3037074807AB07B0E809F0BB0B802DBF018B
S1132E40FF2793585F4F2AF09E3F510568F0B6C0A4
S1132E5000C15F3FECF3983EDCF386957795679568
S1132E60B795F7959F5FC9F7880F911D969587953C
S1132E7097F90895E1E0660F771F881FBB1F62175B
S1132E8073078407BA0720F0621B730B840BBA0B19
S1132E90EE1F88F7E095089504D06894B111D9C065
S1132EA00895BCD088F09F5790F0B92F9927B75157
S1132EB0A0F0D1F0660F771F881F991F1AF0BA95FA
S1132EC0C9F712C0B13081F0C3D0B1E00895C0C0D9
S1132ED0672F782F8827B85F39F0B93FCCF38695F0
S1132EE077956795B395D9F73EF49095809570954D
S1132EF061957F4F8F4F9F4F0895E89409C097FBCA
S1132F003EF490958095709561957F4F8F4F9F4FBC
S1132F109923A9F0F92F96E9BB279395F695879500
S1132F2077956795B795F111F8CFFAF4BB0F11F4C3
S1132F3060FF1BC06F5F7F4F8F4F9F4F16C088236A
S1132F4011F096E911C0772321F09EE8872F762FA0
S1132F5005C0662371F096E8862F70E060E02AF0E1
S1132F609A95660F771F881FDAF7880F96958795CD
S1132F7097F90895990F0008550FAA0BE0E8FEEFA2
S1132F8016161706E807F907C0F012161306E40729
S1132F90F50798F0621B730B840B950B39F40A2622
S1132FA061F0232B242B252B21F408950A2609F400
S1132FB0A140A6958FEF811D811D089597F99F6704
S1132FC080E870E060E008959FEF80EC08950024AD
S1132FD00A941616170618060906089500240A947A
S1132FE012161306140605060895092E0394000C00
S1132FF011F4882352F0BB0F40F4BF2B11F460FF8F
S113300004C06F5F7F4F8F4F9F4F089557FD9058B7
S1133010440F551F59F05F3F71F04795880F97FB98
S1133020991F61F09F3F79F0879508951216130652
S11330301406551FF2CF4695F1DF08C01616170681
S11330401806991FF1CF86957105610508940895B6
S1133050E894BB2766277727CB0197F908958ADF81
S113306008F48FEF08950BD0C0CFB1DF28F0B6DF9E
S113307018F0952309F0A2CFA7CF1124EACFC6DF19
S1133080A0F3959FD1F3950F50E0551F629FF00177
S1133090729FBB27F00DB11D639FAA27F00DB11DD0
S11330A0AA1F649F6627B00DA11D661F829F222759
S11330B0B00DA11D621F739FB00DA11D621F839FE0
S11330C0A00D611D221F749F3327A00D611D231FB6
S11330D0849F600D211D822F762F6A2F11249F5704
S11330E050408AF0E1F088234AF0EE0FFF1FBB1F27
S11330F0661F771F881F91505040A9F79E3F5105C6
S113310070F05CCFA6CF5F3FECF3983EDCF386957E
S113311077956795B795F795E7959F5FC1F7FE2B70
S1133120880F911D9695879597F908952F923F9250
S11331304F925F926F927F928F929F92AF92BF92C3
S1133140CF92DF92EF92FF920F931F93CF93DF936F
S1133150CDB7DEB763970FB6F894DEBF0FBECDBF11
S11331606C014B012A01FC0117821682838181FFC5
S113317029C3AE014F5F5F4F3A01F6019381F40119
S113318093FD859193FF81914F01882309F416C320
S1133190853239F493FD859193FF81914F018532F6
S11331A031F4B60190E0C2D552012501E6CF10E01A
S11331B0F12C20E02032A0F48B3269F030F480321C
S11331C059F0833269F420612CC08D3239F0803398
S11331D039F4216026C02260246023C0286021C005
S11331E027FD27C030ED380F3A3078F426FF06C0AB
S11331F0FAE01F9F300D1124132F13C04AE0F49EF0
S1133200300D1124F32E20620CC08E3221F426FDE1
S1133210D5C2206406C08C3611F4206802C08836FA
S113322041F4F40193FD859193FF81914F01811144
S1133230C1CF9BEB980F933018F42061805E06C0D9
S11332409BE9980F933008F064C12F7E26FF16E0A7
S11332502F73322E853619F42064322E08C0863638
S113326021F4F22FF0683F2E02C01111115037FEE5
S113327007C01C3350F4EE24E394E10E27E00BC0A6
S1133280183038F027E017E005C027E04CE3E42EBF
S113329002C0212FE12C520144E0A40EB11CF20122
S11332A060817181828193810E2DA30151D42C01FF
S11332B0098100FF02C003FF07C031FC08C032FED1
S11332C009C030E2232E07C02DE2222E04C09BE267
S11332D0292E01C0212C802F8C7019F0211051C28D
S11332E08DC237FE0FC0E40C04FF04C08A81813311
S11332F009F4EA941E1474F5F8E0FE1578F588E0F4
S1133300E82E2CC036FC2AC0812F90E08415950548
S11333109CF02CEF42162FEF520674F0432D4068B8
S1133320342E0AC0E2E0F0E0EC0FFD1FE10FF11DC6
S11333308081803319F411501111F4CF37FE0EC07F
S1133340EE24E394E10E812F90E0481659062CF404
S1133350141904C0EE24E39401C010E037FE06C043
S11333601414150434F4C201019605C085E090E0FC
S113337002C081E090E021100196112331F0212F49
S113338030E02F5F3F4F820F931F2F2D30E08217C5
S1133390930714F4F81A01C0F12C832D897041F4B9
S11333A0FF2031F0B60180E290E0C0D4FA94F8CF67
S11333B0222021F0B601822D90E0B8D433FC08C05D
S11333C0FF2031F0B60180E390E0B0D4FA94F8CF56
S11333D037FE58C0942D852D57FE02C090E080E042
S11333E0292E382E20E030E0A2014E1951095D87C4
S11333F04C87A201421953095F874E87612F70E001
S113340044275527461B570B598B488B5FEF2516CE
S1133410350641F4B6018EE290E02A8B3B8B86D4CC
S11334203B892A89421453046CF04C855D8542150E
S1133430530544F4EE85FF85E20FF31FE60DF71DF7
S1133440818101C080E351E0251A31082F5F3F4F8D
S1133450488959892416350644F0B60190E02A8B30
S11334603B8B64D42A893B89D1CF2414350439F4A5
S11334709A81963318F4953311F404FF81E3B6016D
S113348090E045C08A81813309F00F7EB60190E057
S11334904DD4111105C034FC16C085E690E015C06A
S11334A0B6018EE290E042D482E0EE24E394E80E8A
S11334B0F301E80FF11D8081B60190E037D411507B
S11334C08E2D99F7E8CF85E490E0B6012FD457FC10
S11334D005C04114510439F404FF05C051944194CA
S11334E051088DE201C08BE2B60190E01FD480E365
S11334F09AE0491651042CF08F5F5AE0451A51089E
S1133500F7CFB60190E012D4B601C201C0960ED432
S11335104CC1833631F0833779F0833509F054C0D8
S113352020C05201E2E0AE0EB11CF2018081898319
S113353001E010E0230113C05201F2E0AF0EB11C10
S1133540F2014080518026FF03C0612F70E002C069
S11335506FEF7FEFC2012A8BDED38C012A892F778C
S113356014C05201F2E0AF0EB11CF2014080518050
S113357026FF03C0612F70E002C06FEF7FEFC2012E
S11335802A8BBED38C012A892068322E23FD18C0D1
S11335908F2D90E00817190798F4B60180E290E0A7
S11335A0C5D3FA94F5CFF20137FC859137FE8191AA
S11335B02F01B60190E0BAD3F110FA940150110929
S11335C00115110581F7F1C0843611F0893651F5E2
S11335D0520127FF09C0F4E0AF0EB11CF201608173
S11335E07181828193810AC0F2E0AF0EB11CF201B5
S11335F060817181072E000C880B990B2F76322E77
S113360097FF09C090958095709561957F4F8F4F76
S11336109F4F2068322E2AE030E0A30107D4E82E21
S1133620E6183EC0022F853721F40F7E2AE030E0F1
S11336301DC0097F8F3691F018F4883559F0BEC04B
S1133640803719F0883711F0B9C0006104FF09C050
S1133650046007C024FF08C0066006C028E030E00C
S113366005C020E130E002C020E132E0520107FF52
S113367009C0F4E0AF0EB11CF20160817181828156
S1133680938108C0F2E0AF0EB11CF2016081718138
S113369080E090E0A301CAD3E82EE6180F77302E1D
S11336A036FE0BC0332D3E7FE11650F434FE0AC0C3
S11336B032FC08C0332D3E7E05C00E2D332D03C0D1
S11336C00E2D01C0012F34FF0CC0FE01EE0DF11DC3
S11336D08081803311F4397E08C032FF05C00E5F4B
S11336E004C0832F867809F00F5F33FD12C030FFCA
S11336F006C01E2D0F1518F41F0D101B0F2D0F15CE
S113370060F4B60180E290E03B8B10D30F5F3B89FD
S1133710F6CF0F1510F4F01A01C0F12C34FF11C0CC
S1133720B60180E390E03B8B01D33B8932FF16C0A6
S113373031FD03C088E790E002C088E590E0B6015F
S11337400CC0832F867851F031FF02C08BE201C098
S113375080E237FD8DE2B60190E0E8D2E11630F464
S1133760B60180E390E0E2D21150F8CFEA94F3017D
S1133770EE0DF11D8081B60190E0D8D2E110F6CFB4
S113378014C0F4E0FF1548F584E0F81A33FE1DC0B8
S1133790211024C003FF27C004E311E0F32DF071CE
S11337A03F2EF8018491811121C0FF2009F4FDCC42
S11337B0B60180E290E0BAD2FA94F7CFF60186819E
S11337C0978123C08FEF9FEF20C0B60180E290E085
S11337D0ADD2FA94F110F9CFDBCFF12CB601822DE2
S11337E090E0A4D2D7CF08E311E0D8CF31108052B3
S11337F0B60190E09BD20F5F1F4FD3CF23E02F156C
S113380010F483E0C2CFF12CC5CF63960FB6F894C1
S1133810DEBF0FBECDBFDF91CF911F910F91FF90FF
S1133820EF90DF90CF90BF90AF909F908F907F905C
S11338306F905F904F903F902F900895A1E21A2EC1
S1133840AA1BBB1BFD010DC0AA1FBB1FEE1FFF1F40
S1133850A217B307E407F50720F0A21BB30BE40B90
S1133860F50B661F771F881F991F1A9469F76095D7
S11338707095809590959B01AC01BD01CF01089591
S1133880052E97FB16F400940FD057FD05D0D6DF14
S113389007FC02D046F408C0509540953095219518
S11338A03F4F4F4F5F4F0895909580957095619568
S11338B07F4F8F4F9F4F0895B7FF04C003D0821BE3
S11338C0930B089509D0A59F900DB49F900DA49FCC
S11338D0800D911D11240895A29FB001B39FC001D2
S11338E0A39F700D811D1124911DB29F700D811D28
S11338F01124911D0895CF93DF938230910510F424
S113390082E090E0E091BD0BF091BE0B20E030E04E
S1133910C0E0D0E0309711F1408151814817590738
S1133920C0F04817590761F482819381209719F0F8
S11339309B838A832BC09093BE0B8093BD0B26C0C0
S11339402115310519F04217530718F49A01BE01E5
S1133950DF01EF010280F381E02DDCCF2115310579
S113396009F1281B390B2430310590F412968D91FE
S11339709C9113976115710521F0FB019383828358
S113398004C09093BE0B8093BD0BFD01329644C0DE
S1133990FD01E20FF31F81939193225031092D937E
S11339A03C933AC02091BB0B3091BC0B232B41F4C8
S11339B020910202309103023093BC0B2093BB0B85
S11339C020910002309101022115310541F42DB7F7
S11339D03EB74091040250910502241B350BE0913F
S11339E0BB0BF091BC0BE217F307A0F42E1B3F0BAB
S11339F02817390778F0AC014E5F5F4F241735075D
S1133A0048F04E0F5F1F5093BC0B4093BB0B819348
S1133A10919302C0E0E0F0E0CF01DF91CF910895EF
S1133A200F931F93CF93DF93009709F48CC0FC018D
S1133A303297138212820091BD0B1091BE0B0115B7
S1133A40110581F420813181820F931F2091BB0BDA
S1133A503091BC0B2817390779F5F093BC0BE09330
S1133A60BB0B71C0D80140E050E0AE17BF0750F463
S1133A7012962D913C911397AD012115310509F151
S1133A80D901F3CF9D01DA013383228360817181EF
S1133A90860F971F8217930769F4EC0128813981F7
S1133AA0260F371F2E5F3F4F318320838A819B81EE
S1133AB093838283452B29F4F093BE0BE093BD0BD3
S1133AC042C01396FC93EE931297ED0149915991DC
S1133AD09E01240F351FE217F30771F48081918151
S1133AE0840F951F029611969C938E9382819381E5
S1133AF013969C938E931297E0E0F0E0D80112960F
S1133B008D919C911397009719F0F8018C01F6CFD1
S1133B108D919C9198012E5F3F4F820F931F2091AE
S1133B20BB0B3091BC0B2817390769F4309729F483
S1133B301092BE0B1092BD0B02C01382128210931E
S1133B40BC0B0093BB0BDF91CF911F910F91089594
S1133B50283008F027E03327DA01990F311D87FD5B
S1133B60916000966105710539F432602E5F3D93D2
S1133B7030E32A95E1F708959F3F30F080387105CE
S1133B80610509F03C5F3C5F3D93913008F080682B
S1133B90911DDF93CF931F930F93FF92EF92192FF1
S1133BA0987F9695E92F96959695E90FFF27EA5603
S1133BB0FE4F99273327EE24FF24A701E701059040
S1133BC00894079428F4360FE71EF81E491F511D68
S1133BD0660F771F881F991F0694A1F70590079415
S1133BE028F4E70EF81E491F561FC11D770F881FC2
S1133BF0991F661F0694A1F70590079428F4F80E00
S1133C00491F561FC71FD11D880F991F661F771F95
S1133C100694A1F70590079420F4490F561FC71F77
S1133C20D81F990F661F771F881F0694A9F78491E0
S1133C301095177041F0D695C79557954795F79409
S1133C40E7941A95C1F7ECE3F1E0689415901591A7
S1133C5035916591959105907FE27395E118F10A8C
S1133C60430B560BC90BD009C0F7E10CF11E431FDF
S1133C70561FC91FD01D7EF4703311F48A95E6CF08
S1133C80E894015030F0080F0AF40027021708F4F2
S1133C90202F2395022F7A3328F079E37D932A95F8
S1133CA0E9F710C07D932A9589F606949795679550
S1133CB0379517951794E118F10A430B560BC90B66
S1133CC0D00998F023957E9173957A3308F070E3C8
S1133CD07C932013B8F77E9170617D9330F08395C7
S1133CE071E37D9370E32A95E1F71124EF90FF903F
S1133CF00F911F91CF91DF91992787FD909508959A
S1133D00FC010590615070400110D8F780959095A2
S1133D108E0F9F1F0895FC016150704001900110A7
S1133D20D8F7809590958E0F9F1F08950F931F933A
S1133D30CF93DF93FB01238121FD03C08FEF9FEF1E
S1133D4028C022FF16C0468157812481358142173D
S1133D50530744F4A081B1819D012F5F3F4F31830C
S1133D6020838C93268137812F5F3F4F37832683AF
S1133D7010C0EB01092F182F0084F185E02D19954F
S1133D80892BE1F68E819F8101969F838E83812FFB
S1133D90902FDF91CF911F910F910895CF93DF93CF
S1133DA0CDB7DEB7AE014A5F5F4FFA016191719101
S1133DB0AF018091C10B9091C20BB8D9DF91CF9123
S1133DC008956091C10B7091C20BB0CF0F931F93F4
S1133DD0CF93DF93E091C10BF091C20B238121FFBC
S1133DE01BC08C01D0E0C0E0F80181918F0160918B
S1133DF0C10B7091C20BDB011896ED91FC911997E0
S1133E00882331F01995892B79F3DFEFCFEFECCFCD
S1133E108AE01995892B19F08FEF9FEF02C08D2F3F
S1133E209C2FDF91CF911F910F910895FA01AA273A
S1133E30283051F1203181F1E8946F936E7F6E5FE9
S1133E407F4F8F4F9F4FAF4FB1E03ED0B4E03CD097
S1133E50670F781F891F9A1FA11D680F791F8A1F7A
S1133E60911DA11D6A0F711D811D911DA11D20D0E1
S1133E7009F468943F912AE0269F11243019305D9B
S1133E803193DEF6CF010895462F4770405D41938C
S1133E90B3E00FD0C9F7F6CF462F4F70405D4A33D9
S1133EA018F0495D31FD4052419302D0A9F7EACFA1
S1133EB0B4E0A6959795879577956795BA95C9F7D0
S1133EC000976105710508959B01AC010A2E0694C3
S1133ED05795479537952795BA95C9F7620F731F7C
S10F3EE0841F951FA01D0895F894FFCFC7
S1133EEC0000C50B200091050000FF0300006400D6
S1133EFC0000E40C0000E02E0000A08CFFFF020088
S1133F0C0000020000000100000091050000FF0306
S1133F1C000057040000E8030000B80B0000A00FD9
S1133F2C00002200082A0E033403140317030203AF
S1133F3C08031A031C030B0300000002000000001A
S1133F4C1606000000008213B21388138B1373132C
S1133F5C79137C137F13ED14F614F314DE14E414A8
S1133F6CE714EA148115941587158A1578157E15AE
S1133F7C9B15BA158D15424D50323830205374614F
S1133F8C7475732025690A00696E697420737563EE
S1133F9C6365737300696E697420646F6E652100C8
S1133FAC25640925640A004B33302D44454255479A
S1133FBC203A2025752C25752C25752C25750A0081
S1133FCC094B3330206461746120697320256C665D
S1133FDC0A004B33302053656E736F7220496E693F
S1133FEC740053656E736F7244617461436F756EC4
S1133FFC742025640A0054696D657374616D7020B6
S113400C3A20256C640A0054696D657220657863E6
S113401C65656473206D6178007365742074696DD3
S113402C657220676170203D20256C640A0A004E7D
S113403C756C6C204576656E74204572726F7220B7
S113404C21212100536F6D657468696E6720726558
S113405C616C6C792077726F6E6720686170706523
S113406C6E73004C6F616420446576696365004C23
S113407C6F6164204465766963652046696E697373
S113408C68007765206D61792067657420736F6DA6
S113409C65206D656D6F7279206C65616B61676508
S11340AC2069737375652C206F7220736F6D657442
S11340BC68696E67207265616C6C7920626164203A
S11340CC6F636375727300736F207765206172651B
S11340DC20676F696E6720746F2074616B65207341
S11340EC6F6D65207265616C6C7920736C6565709D
S11340FC2C2073696E6365206E6F206576656E7413
S113410C20696E207363686564756C6572006572F2
S113411C72000A0A0A3D3D3D3D3D3D3D3D3D3D3D60
S113412C3D3D3D3D3D3D0A656E7465722066756E80
S113413C6374696F6E0A3D3D3D3D3D3D3D3D3D3DE6
S113414C3D3D3D3D3D3D0074696D656F75742025A5
S113415C640A004E554C4C21003D3D3D3D3D3D3DDA
S113416C3D3D3D3D3D3D3D3D3D3D0A6578697420F9
S113417C66756E6374696F6E0A3D3D3D3D3D3D3D14
S113418C3D3D3D3D3D3D3D3D3D0A0A001F1C1F1E6E
S113419C1F1E1F1F1E1F1E1F0A543A202569202C88
S11341AC2569202C256920503A202569202C256965
S11341BC202C2569202C2569202C2569202C256987
S11341CC202C2569202C2531202C2569200A00451A
S11341DC78656375747265206765742073746F7287
S11341EC6520446576696365203A2025640A004598
S11341FC786563757472652053746F72616765209A
S113420C446576696365002530346C64202530324E
S113421C6C64202530326C64202530326C6420258B
S113422C30326C64202530326C64090025332E3313
S113423C6620004E554C4C2073746F726520646577
S113424C766963650074696D6520646562756733AE
S113425C20256C640A00424D503238305F4572722E
S113426C6F7200424D503238302053656E736F724A
S113427C20496E697400424D5032383020526571B9
S113428C7565737400095761697420666F72202513
S113429C64206D730A00424D5032383020436F6CE9
S11342AC6C656374000954656D7065726174757224
S11342BC65203D20252E33660A095072657373758B
S11342CC7265203D20252E33660A0948756D696494
S11342DC697479203D20252E33660A0009676574BC
S11342EC5374617274203D2025640A096765744512
S10D42FC6E64203D2025640A0000D2
S9030000FC
