S00D000041544D4F532E7372656393
S11300000C941B010C9438010C9438010C943801A5
S11300100C9438010C9438010C9438010C94380178
S11300200C9438010C9438010C9438010C94380168
S11300300C9438010C9427070C9438010C94380163
S11300400C9438010C9438010C9438010C94380148
S11300500C9438010C9438010C9438010C94380138
S11300600C9438010C9438010C9438010C94380128
S11300700C9438010C9438010C9438010C94380118
S11300800C9438010C9438010C9438010C94380108
S11300900C9438010C9438010C9438010C943801F8
S11300A00C9438010C9438010C947A0A0C9438019D
S11300B00C9438010C9438010C9438010C943801D8
S11300C00C9438010C9438010C9438010C943801C8
S11300D00C9438010C9438010C9438010C943801B8
S11300E00C9438010C9438010C9438010C943801A8
S11300F00C9438010C9438010C9438010C94380198
S11301000C9438010C9438010C9438010C94380187
S11301100C9438010C9438010C9438010C94380177
S11301200C9438010C9438010C9438010C94380167
S11301300C9438016E616E00696E660000407A109E
S1130140F35A00A0724E18090010A5D4E80000E884
S11301507648170000E40B54020000CA9A3B0000E2
S113016000E1F505000080969800000040420F0071
S11301700000A08601000000102700000000E80332
S1130180000000006400000000000A0000000000FD
S11301900100000000002C76D888DC674F0823DFBC
S11301A0C1DFAE59E1B1B796E5E3E453C63AE6518F
S11301B0997696E8E6C28426EB898C9B62ED407CB6
S11301C06FFCEFBC9C9F40F2BAA56FA5F490055A52
S11301D02AF75C936B6CF9676DC11BFCE0E40D4777
S11301E0FEF520E6B500D0ED902E0300943577059A
S11301F00080841E080000204E0A000000C80C3352
S11302003333330F986E12831141EF8D2114893BE0
S1130210E65516CFFEE6DB18D1844B381BF77C1D60
S1130220901DA4BBE424203284725E228100C9F1B3
S113023024ECA1E53D2711241FBECFEFD1E2DEBFA0
S1130240CDBF14E0A0E0B2E0E8E7FEE202C0059012
S11302500D92A838B107D9F729E0A8E8B4E001C0A5
S11302601D92AA30B207E1F70E943A010C943A17A2
S11302700C9400000E94180C0E949F070E94A30780
S113028060E875E280E090E00E948508249A6B9A09
S1130290739A60E177E280E090E00E94A9070E94EF
S11302A0FA060E94F6060E9450060E94E2019F93FD
S11302B08F9388E392E09F938F930E949B1684E030
S11302C090E00E94C2020E94A5070E94C80880E034
S11302D090E00E94090E0E949B0D80E090E00E9435
S11302E0580E0E941C0E80E090E00E948E0DEC01DE
S11302F00E94290D0E9460078AE492E00E94AF16D2
S113030020E030E0AE0164E070E081E090E00E9423
S113031047090E94F8080E946C0778940F900F9088
S11303200F900F90FFCF1F93CF93DF93EC01162F05
S113033086E70E94D50788810E94C70786E70E9446
S1130340F20780938804803481F4612F70E040E0E8
S1130350CE010E942F08887F883549F40E942A081C
S113036091E0811105C090E003C090E001C090E0ED
S1130370892FDF91CF911F9108950F931F93CF93EE
S1130380DF9300D0CDB7DEB78B01898362E0CE0165
S113039001960E949301882359F08A8190E0982F56
S11303A088272981822BF8019183808381E003C00F
S11303B0F801118210820F900F90DF91CF911F915D
S11303C00F910895CF93DF9300D0CDB7DEB788E8BF
S11303D0898362E0CE0101960E949301882399F0FB
S11303E08A8190E0982F88272981822B9093930407
S11303F08093920468EA74E08AE80E94BD0188232D
S113040009F4BBC005C01092930410929204B5C0C5
S113041066EA74E08CE80E94BD01882309F4ADC04B
S11304208EE8898362E0CE0101960E9493018823BD
S113043099F08A8190E0982F88272981822B9093C4
S113044095048093940464EA74E080E90E94BD01F9
S1130450882309F492C005C0109295041092940464
S11304608CC062EA74E082E90E94BD01882309F429
S113047084C060EA74E084E90E94BD01882309F421
S11304807CC06EE974E086E90E94BD01882309F40A
S113049074C06CE974E088E90E94BD01882309F402
S11304A06CC06AE974E08AE90E94BD01882309F4FA
S11304B064C068E974E08CE90E94BD01882309F4F2
S11304C05CC066E974E08EE90E94BD01882309F4EA
S11304D054C0809197048F93809196048F93809158
S11304E099048F93809198048F9380919B048F93A8
S11304F080919A048F9380919D048F9380919C04A2
S11305008F9380919F048F9380919E048F93809109
S1130510A1048F938091A0048F938091A3048F935F
S11305208091A2048F938091A5048F938091A40459
S11305308F93809195048F93809194048F938091ED
S1130540A7048F938091A6048F938091A9048F931D
S11305508091A8048F93809193048F938091920447
S11305608F9385E592E09F938F930E949B160FB61D
S1130570F894DEBF0FBECDBF81E00F900F90DF91E6
S1130580CF910895909391048093900481E008950D
S11305901F93CF93DF9300D0CDB7DEB784EF898369
S11305A080919004909191048230910501F12CF492
S11305B0009749F0019789F038C08330910509F11B
S11305C0049749F132C085E28A8381E090E09093F8
S11305D08F0480938E0418E02BC089E28A8381E023
S11305E090E090938F0480938E041AE021C08DE2F2
S11305F08A8381E090E090938F0480938E041FE0BF
S113060017C081E38A8381E090E090938F04809304
S11306108E0418E10DC08DE58A8381E090E090930B
S11306208F0480938E041DE203C085E28A8319E05F
S113063086E70E94D50762E070E0CE0101960E9431
S11306406B08883229F40E942A08811103C003C070
S113065080E001C0812F0F900F90DF91CF911F9107
S113066008958F929F92BF92CF92DF92EF92FF9262
S11306700F931F93CF93DF9300D000D000D0CDB75A
S1130680DEB74C018B0187EF898366E0CE010196CA
S11306900E949301B82E882309F472C0698170E026
S11306A080E090E00E94690F20E030E040E853E4ED
S11306B00E941D106B017C016A8170E080E090E073
S11306C00E94690F9B01AC01C701B6010E94660E2E
S11306D06B017C016B8170E080E090E00E94690F07
S11306E020E030E040E85BE30E941D109B01AC0178
S11306F0C701B6010E94660E20E030E040E851E4F4
S11307000E941D10F40160837183828393836C8142
S113071070E080E090E00E94690F20E030E040E863
S113072053E40E941D106B017C016D8170E080E038
S113073090E00E94690F9B01AC01C701B6010E94C1
S1130740660E6B017C016E8170E080E090E00E9497
S1130750690F20E030E040E85BE30E941D109B013C
S1130760AC01C701B6010E94660E20E030E040E80B
S113077051E40E941D10F801608371838283938386
S11307808B2D26960FB6F894DEBF0FBECDBFDF913A
S1130790CF911F910F91FF90EF90DF90CF90BF907A
S11307A09F908F9008954F925F926F927F928F9255
S11307B09F92AF92BF92CF92DF92EF92FF92CF932C
S11307C0DF93EC01FB014080518062807380609173
S11307D092047091930480E090E00E94670F4B01B3
S11307E05C0120E030E040E057E3C301B2010E9425
S11307F01D106B017C0120E030E040E059E3C501AD
S1130800B4010E941D109B01AC01C701B6010E94F6
S1130810650E6B017C0120E030E040E858E3C30141
S1130820B2010E941D102B013C0120E030E040E8A1
S11308305AE3C501B4010E941D109B01AC01C30120
S1130840B2010E94650E4B015C016091A804709195
S1130850A904882777FD8095982F0E94690F9B0132
S1130860AC01C501B4010E941D104B015C01A7013C
S11308709601C701B6010E941D106B017C016091B5
S1130880A6047091A704882777FD8095982F0E946D
S1130890690F9B01AC01C701B6010E941D109B01A9
S11308A0AC01C501B4010E94660E6B017C010E947B
S11308B0360F60938A0470938B0480938C04909316
S11308C08D0420E030E040EA55E4C701B6010E94FF
S11308D0CE0E6B017C01688379838A839B8320E03D
S11308E030E048EC52E40E941910181674F020E02D
S11308F030E048EC52ECC701B6010E94CA0E881FD2
S11309008827881F91E0892701C080E0DF91CF917B
S1130910FF90EF90DF90CF90BF90AF909F908F901B
S11309207F906F905F904F9008954F925F926F9277
S11309307F928F929F92AF92BF92CF92DF92EF926B
S1130940FF920F931F93CF93DF938C01EB01609180
S11309508A0470918B0480918C0490918D040E9480
S1130960690F20E030E040E05FE30E941D1020E0CA
S113097030E04AE757E40E94650E6B017C01609108
S11309809C0470919D04882777FD8095982F0E9480
S1130990690FA70196010E941D1020E030E040E09D
S11309A058E30E941D10A70196010E941D104B01DF
S11309B05C0160919E0470919F04882777FD809567
S11309C0982F0E94690FA70196010E941D109B0198
S11309D0AC010E94660EA50194010E94660E20E0FF
S11309E030E040E85EE30E941D104B015C01609121
S11309F0A2047091A304882777FD8095982F0E9404
S1130A00690FA70196010E941D10A70196010E947B
S1130A101D1020E030E040E056E30E941D102B0141
S1130A203C016091A4047091A504882777FD80950A
S1130A30982F0E94690FA70196010E941D109B0127
S1130A40AC01C301B2010E94660E20E030E040E038
S1130A5056E30E941D1020E030E040E057E40E947D
S1130A60660E20E030E040E058E30E941D106B0168
S1130A707C01288139814A815B8160E070E080E8F3
S1130A8099E40E94650E2B013C016091A0047091D1
S1130A90A104882777FD8095982F0E94690F20E094
S1130AA030E040E857E40E941D109B01AC01C501F1
S1130AB0B4010E94660E20E030E040E859E30E9451
S1130AC01D109B01AC01C301B2010E94650E20E020
S1130AD030E543EC55E40E941D104B015C0160912C
S1130AE094047091950480E090E00E94670F9B014C
S1130AF0AC01C701B6010E941D109B01AC01C501E8
S1130B00B4010E94CE0E6B017C0160919604709139
S1130B109704882777FD8095982F0E94690FA70175
S1130B2096010E941D10A70196010E941D1020E04D
S1130B3030E040E050E30E941D104B015C016091E5
S1130B40980470919904882777FD8095982F0E94C6
S1130B50690FA70196010E941D1020E030E040E0DB
S1130B6058E30E941D109B01AC01C501B4010E9411
S1130B70660E4B015C0160919A0470919B04882776
S1130B8077FD8095982F0E94690F9B01AC01C501E8
S1130B90B4010E94660E20E030E040E85DE30E946C
S1130BA01D10A70196010E94660E20E030E048EC7B
S1130BB052E40E94CE0E6B017C01F80160837183C4
S1130BC08283938320E030E046E954E40E941910C4
S1130BD0181674F020E030E048E454E4C701B6018C
S1130BE00E94CA0E881F8827881F91E0892701C0A8
S1130BF080E0DF91CF911F910F91FF90EF90DF90F4
S1130C00CF90BF90AF909F908F907F906F905F90A8
S1130C104F900895EF92FF920F931F93CF93DF931A
S1130C20CDB7DEB728970FB6F894DEBF0FBECDBFA1
S1130C308C017B01BE016B5F7F4FCE0101960E9448
S1130C4031038823D1F0BE016B5F7F4FC8010E943E
S1130C50D303882369F0BE016F5F7F4FC7010E94F1
S1130C60950481110FC083E08093890480E00BC058
S1130C7082E08093890480E006C081E08093890447
S1130C8080E001C081E028960FB6F894DEBF0FBE65
S1130C90CDBFDF91CF911F910F91FF90EF900895F9
S1130CA080E00895CF93DF93EC0180E40E94D507A0
S1130CB085EE0E94C7078832E9F480E40E94F207B7
S1130CC08034D1F440E063E070E0CE010E942F084C
S1130CD08035A1F46A8170E0888190E0982F88279C
S1130CE02981822B0E94B10C892B51F40E942A087D
S1130CF081E007C080E005C080E003C080E001C05F
S1130D0080E0DF91CF910895FC01808190E0982FDD
S1130D1088272181BC01622B80E090E00E94670F4C
S1130D2020E030E040E857E30E941D1020E030E06E
S1130D304AEF52E40E941D1020E030E040EC50E401
S1130D400E94650E0895CF93DF93EC0180E40E9426
S1130D50D50783EE0E94C7078832E9F480E40E9435
S1130D60F2078034D1F440E063E070E0CE010E94E9
S1130D702F088035A1F46A8170E0888190E0982F73
S1130D8088272981822B0E94B10C892B51F40E945F
S1130D902A0881E007C080E005C080E003C080E04D
S1130DA001C080E0DF91CF910895FC01808190E043
S1130DB0982F88272181BC01622B80E090E00E945B
S1130DC0670F20E030E040E857E30E941D1022E561
S1130DD038EB4FE253E40E941D1026E636E64BE35F
S1130DE052E40E94650E08952D9A0895259A0E9452
S1130DF0F406089584E880937A0085EC8093770064
S1130E00EBE7F0E080818823ECF708958AE0809393
S1130E10770088E080937B0089EC80937C0084ECED
S1130E2080937A00609178007091790080E090E07E
S1130E300E94670F27ED33EA40E95FE30E941D102B
S1130E4026E636E648E853E40E94650E08951F92AC
S1130E500F920FB60F9211242F933F934F935F93EA
S1130E606F937F938F939F93AF93BF93EF93FF936E
S1130E708091AA049091AB0401969093AB04809363
S1130E80AA049F938F938CE892E09F938F930E9480
S1130E909B160E94000A0F900F900F900F90FF91E5
S1130EA0EF91BF91AF919F918F917F916F915F91DE
S1130EB04F913F912F910F900FBE0F901F90189557
S1130EC0E6EBF0E080818062808382E48093B0006E
S1130ED087E08093B1000895880F880F880F80936E
S1130EE0B300E6EBF0E080818F71E9F787E087BB20
S1130EF082E0809370000895CF93DF93C82FD92F99
S1130F009F938F9329E932E03F932F930E949B167E
S1130F100F900F900F900F902091AA043091AB0482
S1130F20232B29F48C2F9D2F0E946C0705C0CC0F16
S1130F30CC0FCC0FC093B300DF91CF9108958AB149
S1130F40806C8AB908955F9A0895239A80E48CBDD1
S1130F5008959B01AC011092B90060E074E284EF43
S1130F6090E00E94FB13DA01C9014097A109B1097D
S1130F70689412F8B695A795979587951694D1F726
S1130F808093B80084E08093BC0081E0089580934E
S1130F90BB0084E88093BC00ECEBF0E08081882304
S1130FA0ECF78091B900887F089594EE9093BC008B
S1130FB0ECEBF0E090819923ECF7EFE9FFE0319757
S1130FC0F1F700C000009091B900987F983031F09B
S1130FD0903121F08091B900887F0895880F0E9494
S1130FE0C707089594EE9093BC00ECEBF0E0908179
S1130FF09923ECF79091B900987F983031F09031B3
S113100021F08091B900887F0895880F81600E9443
S1131010C707089524EC2093BC00ECEBF0E020819A
S11310202223ECF72091BB00FC0120838091B900BE
S1131030887F089524E82093BC00ECEBF0E0208145
S11310402223ECF72091BB00FC0120838091B9009E
S1131050887F089584E98093BC0081E008959F927D
S1131060AF92BF92CF92DF92EF92FF920F931F93B2
S1131070CF93DF937C018B01942E16161706F4F49C
S1131080C0E0D0E06B0181E0C81AD1085701AC0C74
S1131090BD1C911007C0CC16DD0621F4C5010E94C9
S11310A01A0805C0C7018C0F9D1F0E940A088035CD
S11310B031F42196C017D10761F701C080E0DF91B8
S11310C0CF911F910F91FF90EF90DF90CF90BF9041
S11310D0AF909F9008950F931F93CF93DF931616AD
S11310E017066CF4EC018C01060F171F89910E94FE
S11310F0C707883229F4C017D107C1F701C080E0BF
S1131100DF91CF911F910F91089526E032E0309343
S1131110070920930609DC01CB01880F991FAA1F38
S1131120BB1F880F991FAA1FBB1F9C01AD01220F73
S1131130331F441F551F220F331F441F551F60E0E8
S113114074E284EF90E00E94FB1321503109309344
S1131150C5002093C40086E08093C20088E1809398
S1131160C1000895E0ECF0E0908195FFFDCF8093FD
S1131170C6000895CF93C82F8A3019F48DE00E94D9
S1131180B2088C2F0E94B20880E090E0CF910895BD
S11311900F931F93CF93DF93EBECF8E0F093D00819
S11311A0E093CF08F093CE08E093CD08F183E08379
S11311B0E1EDF8E0F093D608E093D508F093D40875
S11311C0E093D308F183E083CBEBD7E00BEC18E09A
S11311D0BE018091D5089091D6080E94E70C6196D3
S11311E0C017D107A9F7DF91CF911F910F910895EF
S11311F08091CF089091D0080E94DB0C009759F0A1
S1131200FC01248135812530310514F024E030E0DF
S1131210822F932F089584E090E00895CF93DF9375
S1131220DC01C091CF08D091D008EA81FB81CE17B0
S1131230DF0709F13097C9F04481558114962D9147
S11312403C9115972417350754F4421B530B5583CF
S11312504483BD01808191810E94E70C15C0241B49
S1131260350B15963C932E9314970280F381E02D51
S1131270CE17DF07F9F6E091CF08F091D008BD0151
S1131280808191810E94E70CDF91CF910895CF92E4
S1131290DF92EF92FF920F931F93CF93DF936C0132
S11312A07B018A01E9018091D5089091D6080E94BA
S11312B01D0DFC010097B1F0D582C482F782E6824D
S11312C01186108613870287D587C48781E08687B5
S11312D08DE799E0908B8787CF010E940E0980E00B
S11312E090E002C08FEF9FEFDF91CF911F910F919C
S11312F0FF90EF90DF90CF900895CF93DF93EC01B0
S1131300009759F48EEA92E09F938F930E949B1664
S11313100F900F9080E090E070C08E851F928F93A5
S113132083EC92E09F938F930E949B160F900F90F3
S11313300F900F908E85813051F020F0823009F4A7
S11313404AC059C081E08E8780E090E056C08A850B
S11313509B85DC011296ED91FC9113970680F78131
S1131360E02D09958F3FBFEF9B0729F484E08E871A
S113137080E090E042C00097E1F481E08E878A85A6
S11313809B85DC011296ED91FC9113970084F18505
S1131390E02D09959F938F9383ED92E09F938F9314
S11313A00E949B160F900F900F900F9080E090E09A
S11313B024C022E02E879D838C839987888780911F
S11313C0CF089091D0080E941D0DCE010E940E09F5
S11313D081E090E012C081E08E878A859B85DC01E4
S11313E01296ED91FC9113970084F185E02D0995F7
S11313F080E090E002C080E090E0DF91CF9108951A
S1131400CF93DF938091CF089091D0080E94DB0C9A
S1131410EC01009709F43FC08A859B85892BF1F183
S1131420EF85F889CE010995019739F40E94F808EF
S11314300E947C0780E090E033C08091CF089091B7
S1131440D0080E941D0D8E819F810097B1F02885E0
S11314503985AC01421B530B9A015D834C835523A0
S113146034F4280F391F3323E4F33D832C83198686
S11314701886CE010E940E0907C0BE018091D508CE
S11314809091D6080E94E70C0E94F8080E947C07FD
S113149080E090E005C08FEF9FEF02C08FEF9FEFD9
S11314A0DF91CF91089514BE88E10FB6F89480932C
S11314B06000109260000FBEE1E6F0E080E88083F7
S11314C0108278940E94650A08951092D70880E2E9
S11314D09EE49093A9008093A800E1EAF0E088E0FC
S11314E08083808182608083E2E7F0E08081826093
S11314F0808308951F920F920FB60F9211248F9339
S11315008091D7088F5F8093D7088F910F900FBE7B
S11315100F901F9018951092DC081092DD0810921D
S1131520D9081092D8081092FF081092FE08EEED28
S1131530F8E08EEF98E011921192E817F907D9F7C5
S11315400E949C0B0E940F0B0E94B70A0E94B20AD1
S11315500895E82FF0E0EE0FFF1FE252F74F71837A
S1131560608308951092AD041092AC040895109213
S1131570AE04109237051092C005109249061092DD
S1131580D2060895009741F0FC01E757FF4F87E02A
S1131590EB35F80718F012C0EEEAF4E080818823F6
S11315A021F00FC0808181110FC0E757FF4F87E002
S11315B0EB35F807B8F380E090E0089580E090E020
S11315C008958E2F9F2F08958E2F9F2F0895DC014D
S11315D019962C911997222351F01796ED91FC91AD
S11315E018972081211105C00E94C90B089580E03D
S11315F0089580E00895ECE6F7E02EE937E050E046
S113160061E04081442319F041504083562F3596C0
S1131610E217F307B1F751110E94A40C0895ECE608
S1131620F7E08EE997E010823596E817F907D9F7C5
S113163084E690E0A0E0B0E08093610790936207B5
S1131640A0936307B0936407109265078BEF9AE049
S1131650909367078093660767EE7AE080E00E94C4
S1131660A90A0895FF920F931F93CF93DF93EC0180
S113167010E080E090E001E00F2EF3E1FF2EF02D6A
S113168013C0FC012081213179F4EC57FF4F2081F4
S113169031812150310931832083232B21F4FC0132
S11316A0F082102F01C0102F0E94C20A009749F740
S11316B0112319F0CE010E94A40CDF91CF911F9148
S11316C00F91FF900895EF92FF920F931F93CF9382
S11316D0DF93EC0110E080E090E001E00F2EF7E1F1
S11316E0EF2EF02D6894FF24F4F816C0FC0120813D
S11316F0263191F4EC57FF4F20813181215031097B
S113170031832083232B39F4FC01E082ED57FF4F12
S1131710F082102F01C0102F0E94C20A009731F7E7
S1131720112319F0CE010E94A40CDF91CF911F91D7
S11317300F91FF90EF9008951092B5071092B4079F
S113174082E390E0A0E0B0E08093AD079093AE0711
S1131750A093AF07B093B0071092B10783E69BE064
S11317609093B3078093B2078AE090E0A0E0B0E0E2
S11317708093A0079093A107A093A207B093A30717
S11317801092A40782E39BE09093A6078093A50799
S11317900895CF93DF93FC01C781D0858185833081
S11317A0C9F410C0FC012081263171F434852981EB
S11317B032130AC027E120832A81EA57FF4F20838E
S11317C081E009C080E090E00E94C20A009751F7CE
S11317D080E001C080E0DF91CF91089593E0909381
S11317E04201E1E4F1E090819F719830E1F7809348
S11317F04201E1E4F1E090819F719813FCCF0895D8
S1131800E9E3F1E08081816080831092B707109250
S1131810B60781E08093B80788E00E94EE0B8BEE58
S113182080935601ECE4F1E0808180688083089520
S11318300E94530A0E94850C0E94000C0E948B0A8D
S113184008950F931F93CF93DF93EC018091B90711
S11318509091BA07009709F445C04E815F8168856D
S11318607985FC0102811381248135814017510758
S113187062077307C0F40BC0028113812481358190
S1131880401751076207730728F0DF010DC0FC0100
S1131890A0E0B0E0041B150B260B370B0283138367
S11318A0248335830AC0DC01401B510B620B730B8C
S11318B0ED91FC9111973097F9F64A835B836C8321
S11318C07D83109741F08D919C9111979983888322
S11318D0CD93DC9315C099838883D093BA07C093C2
S11318E0B9070EC0198218828E819F81A885B98597
S11318F08A839B83AC83BD83D093BA07C093B90713
S1131900DF91CF911F910F9108951092BA07109211
S1131910B9070895E091B907F091BA07309771F0CB
S1131920E817F90721F40CC08E179F0759F00190AE
S1131930F081E02D3097C1F780E0089580E00895AC
S113194081E0089581E00895CF93DF93EC010E9434
S11319508A0C811103C0CE010E94210CDF91CF912A
S113196008950F931F93A0E0B0E0BA2FA92F982FEA
S11319708827862BE7E1F0E040E050E868E970E072
S11319808C019D010E2E04C0369527951795079559
S11319900A94D2F700FF04C084279527A627B72707
S11319A076956795579547953197E730F10541F757
S11319B01F910F910895FC01228133812817390763
S11319C019F480E090E00895822F932F0895DC01AC
S11319D01296ED91FC91139771836083DB0113964A
S11319E0FC93EE931297FC01738362838D939C9313
S11319F0CB010895FB01DC0112962D913C911397C4
S1131A0028173907A1F086179707A1F0A081B181A3
S1131A108281938113969C938E931297A281B381B2
S1131A20808191818D939C93862F9F2F089580E0D0
S1131A3090E0089580E090E00895FC016281738154
S1131A406817790719F00E94FA0C089580E090E075
S1131A50089524E132E0FC013383228308952AE0CF
S1131A6030E0FC013183208380E090E0089586E635
S1131A7093E00E94AF1680E090E0089587E793E03A
S1131A800E94AF1680E090E0089584E893E00E94FD
S1131A90AF160E94C802811103C080E090E008954F
S1131AA082E090E00895CF93DF93CDB7DEB7289717
S1131AB00FB6F894DEBF0FBECDBF89E993E00E9454
S1131AC0AF16BE016B5F7F4FCE0101960E940A06DE
S1131AD088858F938F818F938E818F938D818F9340
S1131AE08C818F938B818F938A818F9389818F933C
S1131AF088EA93E09F938F930E949B160FB6F89405
S1131B00DEBF0FBECDBF80E090E028960FB6F894FC
S1131B10DEBF0FBECDBFDF91CF910895CF93DF938A
S1131B20EC0184E090E00E945414FC01D183C08352
S1131B30DF91CF91089520E232E0FC0133832283C8
S1131B4008952AE030E0FC013183208380E090E0B6
S1131B5008958CEC93E00E94AF1680E090E0089525
S1131B608DED93E00E94AF1680E090E00895CF934E
S1131B70DF93EC018AEE93E00E94AF1663E0CE019E
S1131B8006960E94A30690E09D838C8363E0CE01B9
S1131B9009960E94520690E09D838C8380E090E039
S1131BA0DF91CF910895EF92FF920F931F93CF93FC
S1131BB0DF93EC018FEF93E00E94AF16CE010696FF
S1131BC00E94D506162F072FF82EE92ECE0109966E
S1131BD00E9484069F938F937F936F93EF92FF925B
S1131BE00F931F9388EA93E09F938F930E949B1611
S1131BF08DB79EB70A960FB6F8949EBF0FBE8DBFE1
S1131C0080E090E0DF91CF911F910F91FF90EF90D2
S1131C100895CF93DF93EC018CE090E00E9454147C
S1131C20FC01D183C0831682118617821286108626
S1131C301386DF91CF9108952CE232E0FC013383C7
S1131C40228308952AE030E0FC013183208380E080
S1131C5090E008958EE094E00E94AF1680E090E05A
S1131C60089588E294E00E94AF1680E090E0089521
S1131C7086E494E00E94AF1680E090E008958CE53D
S1131C8094E00E94AF160E9406079F938F937F9360
S1131C906F9384E794E09F938F930E949B160F9019
S1131CA00F900F900F900F900F9080E090E00895A8
S1131CB0CF93DF93EC0184E090E00E945414FC0184
S1131CC0D183C083DF91CF9108955058BB27AA27B1
S1131CD00ED075C166D130F06BD120F031F49F3F46
S1131CE011F41EF45BC10EF4E095E7FB51C1E92F3A
S1131CF077D180F3BA17620773078407950718F042
S1131D0071F49EF58FC10EF4E0950B2EBA2FA02D21
S1131D100B01B90190010C01CA01A0011124FF2794
S1131D20591B99F0593F50F4503E68F11A16F0408F
S1131D30A22F232F342F4427585FF3CF469537958E
S1131D402795A795F0405395C9F77EF41F16BA0B53
S1131D50620B730B840BBAF09150A1F0FF0FBB1F01
S1131D60661F771F881FC2F70EC0BA0F621F731F4A
S1131D70841F48F4879577956795B795F7959E3FA7
S1131D8008F0B3CF9395880F08F09927EE0F979535
S1131D9087950895D9D008F481E008950CD00FC137
S1131DA007D140F0FED030F021F45F3F19F0F0C0CD
S1131DB0511139C1F3C014D198F39923C9F35523B0
S1131DC0B1F3951B550BBB27AA276217730784072A
S1131DD038F09F5F5F4F220F331F441FAA1FA9F3E0
S1131DE033D00E2E3AF0E0E830D091505040E695D2
S1131DF0001CCAF729D0FE2F27D0660F771F881F33
S1131E00BB1F261737074807AB07B0E809F0BB0B21
S1131E10802DBF01FF2793585F4F2AF09E3F510545
S1131E2068F0B6C000C15F3FECF3983EDCF38695E2
S1131E3077956795B795F7959F5FC9F7880F911DBB
S1131E409695879597F90895E1E0660F771F881FA7
S1131E50BB1F621773078407BA0720F0621B730B5A
S1131E60840BBA0BEE1F88F7E095089504D06894AC
S1131E70B111D9C00895BCD088F09F5790F0B92F04
S1131E809927B751A0F0D1F0660F771F881F991FCB
S1131E901AF0BA95C9F712C0B13081F0C3D0B1E0DD
S1131EA00895C0C0672F782F8827B85F39F0B93FED
S1131EB0CCF3869577956795B395D9F73EF49095CD
S1131EC08095709561957F4F8F4F9F4F0895E8944B
S1131ED009C097FB3EF490958095709561957F4F6E
S1131EE08F4F9F4F9923A9F0F92F96E9BB2793951C
S1131EF0F695879577956795B795F111F8CFFAF42C
S1131F00BB0F11F460FF1BC06F5F7F4F8F4F9F4F5C
S1131F1016C0882311F096E911C0772321F09EE8BA
S1131F20872F762F05C0662371F096E8862F70E020
S1131F3060E02AF09A95660F771F881FDAF7880FFA
S1131F409695879597F90895990F0008550FAA0B50
S1131F50E0E8FEEF16161706E807F907C0F01216B8
S1131F601306E407F50798F0621B730B840B950BBB
S1131F7039F40A2661F0232B242B252B21F4089510
S1131F800A2609F4A140A6958FEF811D811D0895AD
S1131F9097F99F6780E870E060E008959FEF80EC18
S1131FA0089500240A9416161706180609060895BB
S1131FB000240A9412161306140605060895092E21
S1131FC00394000C11F4882352F0BB0F40F4BF2B90
S1131FD011F460FF04C06F5F7F4F8F4F9F4F0895D0
S1131FE057FD9058440F551F59F05F3F71F04795C6
S1131FF0880F97FB991F61F09F3F79F087950895AB
S1132000121613061406551FF2CF4695F1DF08C0C9
S1132010161617061806991FF1CF869571056105E6
S113202008940895E894BB2766277727CB0197F98E
S113203008958ADF08F48FEF08950BD0C0CFB1DF85
S113204028F0B6DF18F0952309F0A2CFA7CF11240A
S1132050EACFC6DFA0F3959FD1F3950F50E0551F4B
S1132060629FF001729FBB27F00DB11D639FAA27E9
S1132070F00DB11DAA1F649F6627B00DA11D661F38
S1132080829F2227B00DA11D621F739FB00DA11D59
S1132090621F839FA00D611D221F749F3327A00D13
S11320A0611D231F849F600D211D822F762F6A2FAF
S11320B011249F5750408AF0E1F088234AF0EE0F34
S11320C0FF1FBB1F661F771F881F91505040A9F741
S11320D09E3F510570F05CCFA6CF5F3FECF3983E76
S11320E0DCF3869577956795B795F795E7959F5FA8
S11320F0C1F7FE2B880F911D9695879597F9089542
S1132100A3E1B0E0E6E8F0E10C941D147C011B01AE
S11321106A01FC0117821682838181FF66C3BE01B6
S11321206F5F7F4F4B01F7019381F10193FD85911F
S113213093FF81911F01882309F453C3853239F435
S113214093FD859193FF81911F01853239F4B70185
S113215090E00E94691656016501E5CF10E0512C0C
S113216020E02032A0F48B3269F030F4803259F050
S1132170833269F420612CC08D3239F0803339F414
S1132180216026C02260246023C0286021C027FD6E
S113219027C030ED380F3A3078F426FF06C0FAE055
S11321A01F9F300D1124132F13C06AE0569E300D6B
S11321B01124532E20620CC08E3221F426FD11C34B
S11321C0206406C08C3611F4206802C0883641F4BD
S11321D0F10193FD859193FF81911F018111C1CF7D
S11321E09BEB980F933018F42061805E06C09BE946
S11321F0980F933008F0AAC12F7E26FF16E02F73A4
S1132200722E853621F4F22FF0647F2E08C08636B4
S113221021F4622F6068762E02C01111115077FEEE
S113222007C01C3348F444244394410E27E00BC0F8
S1132230183030F4212F06C027E04CE3442E03C0AD
S113224027E017E0412C560174E0A70EB11CF601FB
S11322506081718182819381042DA4010E947B1588
S11322606C01098100FF02C003FF06C071FC07C0B6
S113227072FC08C0612C08C03DE2632E05C02BE24D
S1132280622E02C090E2692E802F8C7099F1662034
S113229011F084E001C083E0851510F0512C0BC0CF
S11322A0581A73FC08C0B70180E290E00E946916D6
S11322B05A94C9F7F3CF662029F0B701862D90E030
S11322C00E94691603FD03C008E311E002C004E3A1
S11322D011E0F72DF0717F2EF8018491882309F421
S11322E076C271108052B70190E00E9469160F5FA8
S11322F01F4FF2CF77FE0FC04C0C04FF04C08A813D
S1132300813309F44A94141474F5F8E0F41578F55B
S113231088E0482E2CC076FC2AC0812F90E08C15D2
S11323209D059CF06CEFC6166FEFD60674F0772D02
S11323307068772E0AC0E2E0F0E0EC0FFD1FE10FB9
S1132340F11D8081803319F411501111F4CF77FEFF
S11323500EC044244394410E812F90E0C816D90640
S11323602CF41C1904C04424439401C010E077FEEB
S113237007C01C141D043CF496012F5F3F4F05C099
S113238025E030E002C021E030E0662011F02F5F4C
S11323903F4F112331F0412F50E04F5F5F4F240F27
S11323A0351F452D50E02417350714F4521A01C087
S11323B0512C872D897049F4552039F0B70180E2FA
S11323C090E00E9469165A94F7CF662029F0B7016D
S11323D0862D90E00E94691673FC09C0552039F0DF
S11323E0B70180E390E00E9469165A94F7CF77FE14
S11323F05FC09C2D8D2DD7FE02C090E080E0692E39
S1132400782E40E050E0C601841991099D878C879D
S1132410960126193709280D391D812F90E0EE27E2
S1132420FF27E81BF90BFF87EE87FFEF6F167F0688
S113243069F4B7018EE290E02B8B3A8B488B598B71
S11324400E946916598948893A892B89C614D70488
S113245054F06C857D85661577052CF4F901E40F3D
S1132460F51F818101C080E371E0671A71084F5F35
S11324705F4FEE85FF856E167F066CF0B70190E026
S11324802B8B3A8B488B598B0E9469162B893A897E
S113249048895989CACF6C147D0439F49A819633DA
S11324A018F4953311F404FF81E3B70190E04BC0B5
S11324B08A81813309F00F7EB70190E00E9469168A
S11324C0111105C074FE18C085E490E017C0B7016F
S11324D08EE290E00E94691682E066246394680E9E
S11324E0F401E80FF11D8081B70190E00E946916A4
S11324F0115041F3862DF1CF85E690E0B7010E949B
S11325006916D7FC05C0C114D10439F404FF05C011
S1132510D194C194D1088DE201C08BE2B70190E05F
S11325200E94691680E36AE0C616D1042CF08F5F1E
S1132530FAE0CF1AD108F7CFB70190E00E946916EC
S1132540B701C601C0960E94691641C1833631F0B5
S1132550833779F0833509F058C021C0560172E001
S1132560A70EB11CF6018081898301E010E06401AB
S113257014C05601F2E0AF0EB11CF601C080D18048
S113258026FF03C0612F70E002C06FEF7FEFC6012A
S11325902B8B0E945E168C012B892F7715C0560158
S11325A0F2E0AF0EB11CF601C080D18026FF03C05B
S11325B0612F70E002C06FEF7FEFC6012B8B0E948A
S11325C053168C012B892068722E23FD1AC0852D89
S11325D090E008171907A8F4B70180E290E00E9480
S11325E069165A94F4CFF60177FC859177FE8191B0
S11325F06F01B70190E00E94691651105A9401507E
S113260011090115110579F7E2C0843611F08936F4
S113261051F5560127FF09C0F4E0AF0EB11CF601D5
S113262060817181828193810AC0F2E0AF0EB11C96
S1132630F60160817181882777FD8095982F022F9C
S11326400F7697FF08C090958095709561957F4FA0
S11326508F4F9F4F00682AE030E0A4010E94DC16EF
S1132660C82EC8183EC0022F853721F40F7E2AE0F9
S113267030E01DC0097F8F3691F018F4883559F089
S1132680B0C0803719F0883711F0ABC0006104FF87
S113269009C0046007C024FF08C0066006C028E023
S11326A030E005C020E130E002C020E132E0560114
S11326B007FF09C0F4E0AF0EB11CF601608171811F
S11326C08281938108C0F2E0AF0EB11CF6016081F3
S11326D0718180E090E0A4010E94DC16C82EC81825
S11326E00F7706FF0BC0202F2E7FC11650F404FF76
S11326F00AC002FD08C0202F2E7E05C0DC2C202F2E
S113270003C0DC2C01C0D12E24FF0DC0FE01EC0D52
S1132710F11D8081803311F4297E09C022FF06C097
S1132720D394D39404C0822F867809F0D39423FDE4
S113273013C020FF06C01C2DD51418F4150D1D1947
S1132740D52CD51468F4B70180E290E02B8B0E945D
S11327506916D3942B89F5CFD51410F45D1801C0F4
S1132760512C24FF12C0B70180E390E02B8B0E9410
S113277069162B8922FF17C021FF03C088E590E06A
S113278002C088E790E0B7010CC0822F867859F028
S113279021FD02C080E201C08BE227FD8DE2B7017A
S11327A090E00E946916C11638F4B70180E390E006
S11327B00E9469161150F7CFCA94F401EC0DF11D73
S11327C08081B70190E00E946916C110F5CF5520B1
S11327D009F4C2CCB70180E290E00E9469165A94D1
S11327E0F6CFF7018681978102C08FEF9FEF639642
S11327F0E2E10C943914A1E21A2EAA1BBB1BFD01C1
S11328000DC0AA1FBB1FEE1FFF1FA217B307E407CB
S1132810F50720F0A21BB30BE40BF50B661F771F23
S1132820881F991F1A9469F7609570958095909503
S11328309B01AC01BD01CF0108952F923F924F92AD
S11328405F926F927F928F929F92AF92BF92CF923C
S1132850DF92EF92FF920F931F93CF93DF93CDB745
S1132860DEB7CA1BDB0B0FB6F894DEBF0FBECDBFBD
S113287009942A88398848885F846E847D848C848E
S11328809B84AA84B984C884DF80EE80FD800C8197
S11328901B81AA81B981CE0FD11D0FB6F894DEBF7A
S11328A00FBECDBFED010895CF93DF938230910524
S11328B010F482E090E0E0910209F091030920E035
S11328C030E0A0E0B0E0309739F140815181481701
S11328D05907B8F04817590771F48281938110970A
S11328E029F013969C938E9312972CC0909303090E
S11328F08093020927C02115310531F0421753078F
S113290018F0A901DB0101C0EF019A01BD01DF014B
S11329100280F381E02DD7CF21153105F9F0281B72
S1132920390B2430310580F48A819B81611571054E
S113293021F0FB019383828304C090930309809365
S11329400209FE01329644C0FE01E20FF31F819397
S1132950919322503109398328833AC02091000988
S113296030910109232B41F420910202309103029A
S11329703093010920930009209100023091010253
S11329802115310541F42DB73EB740910402509111
S11329900502241B350BE0910009F0910109E217AF
S11329A0F307A0F42E1B3F0B2817390778F0AC016E
S11329B04E5F5F4F2417350748F04E0F5F1F50934B
S11329C00109409300098193919302C0E0E0F0E093
S11329D0CF01DF91CF910895CF93DF93009709F44E
S11329E087C0FC01329713821282C0910209D091F0
S11329F00309209781F420813181280F391F8091A8
S1132A000009909101098217930779F5F093010960
S1132A10E09300096DC0DE0120E030E0AE17BF078F
S1132A2050F412964D915C9113979D0141155105F7
S1132A3009F1DA01F3CFB383A28340815181840F7A
S1132A40951F8A179B0771F48D919C911197840FA0
S1132A50951F02969183808312968D919C91139772
S1132A60938382832115310529F4F0930309E093BC
S1132A7002093EC0D9011396FC93EE9312974D912F
S1132A805D91A40FB51FEA17FB0779F4808191814A
S1132A90840F951F0296D90111969C938E9382817F
S1132AA0938113969C938E931297E0E0F0E08A81D1
S1132AB09B81009719F0FE01EC01F9CFCE0102963B
S1132AC028813981820F931F2091000930910109D7
S1132AD02817390769F4309729F4109203091092E2
S1132AE0020902C013821282D0930109C093000923
S1132AF0DF91CF910895283008F027E03327DA01D9
S1132B00990F311D87FD916000966105710539F4B7
S1132B1032602E5F3D9330E32A95E1F708959F3F9D
S1132B2030F080387105610509F03C5F3C5F3D93EE
S1132B30913008F08068911DDF93CF931F930F931A
S1132B40FF92EF92192F987F9695E92F9695969577
S1132B50E90FFF27EA56FE4F99273327EE24FF2477
S1132B60A701E70105900894079428F4360FE71E9F
S1132B70F81E491F511D660F771F881F991F069461
S1132B80A1F70590079428F4E70EF81E491F561F75
S1132B90C11D770F881F991F661F0694A1F7059022
S1132BA0079428F4F80E491F561FC71FD11D880F1C
S1132BB0991F661F771F0694A1F70590079420F4C8
S1132BC0490F561FC71FD81F990F661F771F881FED
S1132BD00694A9F784911095177041F0D695C7957E
S1132BE057954795F794E7941A95C1F7ECE3F1E00C
S1132BF068941590159135916591959105907FE2B2
S1132C007395E118F10A430B560BC90BD009C0F7B1
S1132C10E10CF11E431F561FC91FD01D7EF47033F3
S1132C2011F48A95E6CFE894015030F0080F0AF4C5
S1132C300027021708F4202F2395022F7A3328F057
S1132C4079E37D932A95E9F710C07D932A9589F657
S1132C50069497956795379517951794E118F10A97
S1132C60430B560BC90BD00998F023957E917395AD
S1132C707A3308F070E37C932013B8F77E91706187
S1132C807D9330F0839571E37D9370E32A95E1F7AA
S1132C901124EF90FF900F911F91CF91DF9199270D
S1132CA087FD90950895FC010590615070400110D6
S1132CB0D8F7809590958E0F9F1F0895FC01615061
S1132CC0704001900110D8F7809590958E0F9F1F4A
S1132CD008950F931F93CF93DF93182F092FEB01C0
S1132CE08B8181FD03C08FEF9FEF20C082FF10C056
S1132CF04E815F812C813D81421753077CF4E8812A
S1132D00F9819F012F5F3F4F39832883108306C0C9
S1132D10E885F985812F0995892B29F72E813F8133
S1132D202F5F3F4F3F832E83812F902FDF91CF91D1
S1132D301F910F910895A0E0B0E0E1EAF6E10C9450
S1132D402D14FE01359661917191AF0180910609B0
S1132D50909107090E948010E2E00C9449140F93AB
S1132D601F93CF93DF93E0910609F0910709238124
S1132D7021FF1BC0EC0100E010E08991609106097D
S1132D8070910709DB011896ED91FC91199788233E
S1132D9031F00995892B89F30FEF1FEFEECF8AE00D
S1132DA00995892B11F4C80102C08FEF9FEFDF91C1
S1132DB0CF911F910F910895FA01AA27283051F15C
S1132DC0203181F1E8946F936E7F6E5F7F4F8F4F58
S1132DD09F4FAF4FB1E03ED0B4E03CD0670F781FB7
S1132DE0891F9A1FA11D680F791F8A1F911DA11D9C
S1132DF06A0F711D811D911DA11D20D009F46894D5
S1132E003F912AE0269F11243019305D3193DEF67C
S1132E10CF010895462F4770405D4193B3E00FD032
S1132E20C9F7F6CF462F4F70405D4A3318F0495D1D
S1132E3031FD4052419302D0A9F7EACFB4E0A69500
S1132E409795879577956795BA95C9F70097610522
S1132E50710508959B01AC010A2E06945795479578
S1132E6037952795BA95C9F7620F731F841F951F6D
S10B2E70A01D0895F894FFCFA2
S1132E7800000A0920000000000200000000BA084F
S1132E8800000000290D2F0D370D450D530D3E0D83
S1132E989B0DA10DA90DB70DD30DB00D1C0E220E5F
S1132EA82A0E310E3F0E380E424D50323830205320
S1132EB874617475732025690A00696E69742064E5
S1132EC86F6E6521000A543A202569202C25692053
S1132ED82C256920503A202569202C2569202C2589
S1132EE869202C2569202C2569202C2569202C256E
S1132EF869202C2531202C2569200A00636F756E02
S1132F087431203D2025640A007365742074696D4A
S1132F18657220676170203D2025640A0A004E7599
S1132F286C6C204576656E74204572726F72202130
S1132F382121006375725F7374617465203D2025D7
S1132F48640A0064617461203A2025640A000A0A4C
S1132F580A3D3D3D3D3D3D3D3D3D3D3D3D3D3D3DC8
S1132F683D3D0A656E7465722066756E6374696F9B
S1132F786E0A3D3D3D3D3D3D3D3D3D3D3D3D3D3D77
S1132F883D3D0074696D656F75742025640A004EB3
S1132F98554C4C21003D3D3D3D3D3D3D3D3D3D3D78
S1132FA83D3D3D3D3D3D0A657869742066756E6317
S1132FB874696F6E0A3D3D3D3D3D3D3D3D3D3D3DA2
S1132FC83D3D3D3D3D0A0A00546F70206F66206CFC
S1132FD86F6F70202100424D503238305F436F6E5E
S1132FE866696775726500424D503238305F4572C4
S1132FF8726F7200424D503238305F5072655072B1
S11330086F63657373696E6700424D503238305F81
S1133018436F6C6C6563740054656D70657261749C
S1133028757265203D20252E33660A48756D696CD6
S1133038697479203D20252E33660A005369373098
S113304832305F436F6E666967757265005369371E
S11330583032305F4572726F7200536937303230E4
S11330685F50726550726F63657373696E6700535E
S113307869373032305F436F6C6C65637400546534
S11330886D70657261747572655F4144435F436F27
S11330986E6669677572650054656D7065726174F2
S11330A87572655F4144435F50726550726F636522
S11330B87373696E670054656D70657261747572B7
S11330C8655F4144435F4572726F720054656D7069
S11330D8657261747572655F4144435F436F6C6CDC
S11330E86563740054656D706572617475726520EA
S10B30F83D20252E33660A0079
S9030000FC
