S00D000041544D4F532E7372656393
S11300000C941B010C9438010C9438010C943801A5
S11300100C9438010C9438010C9438010C94380178
S11300200C9438010C9438010C9438010C94380168
S11300300C9438010C94A40A0C9438010C943801E3
S11300400C9438010C9438010C9438010C94380148
S11300500C9438010C9438010C9438010C94380138
S11300600C9438010C94DC0A0C94C40A0C943801E6
S11300700C9438010C9438010C9438010C94380118
S11300800C9438010C9438010C9438010C94380108
S11300900C9438010C9438010C9438010C943801F8
S11300A00C9438010C9438010C94B30A0C94380164
S11300B00C9438010C9438010C9438010C943801D8
S11300C00C9438010C9438010C9438010C943801C8
S11300D00C9438010C9438010C9438010C943801B8
S11300E00C9438010C9438010C9438010C943801A8
S11300F00C9438010C9438010C9438010C94380198
S11301000C9438010C9438010C9438010C94380187
S11301100C9438010C9438010C9438010C94380177
S11301200C9438010C9438010C9438010C94380167
S11301300C9438016E616E00696E660000407A109E
S1130140F35A00A0724E18090010A5D4E80000E884
S11301507648170000E40B54020000CA9A3B0000E2
S113016000E1F505000080969800000040420F0071
S11301700000A08601000000102700000000E80332
S1130180000000006400000000000A0000000000FD
S11301900100000000002C76D888DC674F0823DFBC
S11301A0C1DFAE59E1B1B796E5E3E453C63AE6518F
S11301B0997696E8E6C28426EB898C9B62ED407CB6
S11301C06FFCEFBC9C9F40F2BAA56FA5F490055A52
S11301D02AF75C936B6CF9676DC11BFCE0E40D4777
S11301E0FEF520E6B500D0ED902E0300943577059A
S11301F00080841E080000204E0A000000C80C3352
S11302003333330F986E12831141EF8D2114893BE0
S1130210E65516CFFEE6DB18D1844B381BF77C1D60
S1130220901DA4BBE424203284725E228100C9F1B3
S113023024ECA1E53D2711241FBECFEFD1E2DEBFA0
S1130240CDBF12E0A0E0B2E0E2E6F6E202C0059023
S11302500D92AE3AB107D9F723E0AEEAB2E001C09D
S11302601D92A936B207E1F70E9461010C942F1385
S11302700C940000009741F0EFE9FFE03197F1F7AB
S113028000C000000197C1F70895FC0120812617E2
S113029071F0222391F0319620E030E02F5F3F4F40
S11302A09191961731F09111F9CF84E6089520E0E9
S11302B030E0662321F0822F089584E6089584E6D1
S11302C008950E946F090E94730960E07CE281E056
S11302D090E00E94610A249A6B9A739A60E177E233
S11302E080E090E00E9485090E9422090E94EF08A4
S11302F00E944B080E947F031F928F9387E192E034
S11303009F938F930E94681284E090E00E945F04A0
S11303100E94750989E292E00E947E120F900F906C
S11303200F900F90412C312C0EEA12E00F2EFDE4B9
S1130330AF2EF2E0BF2EF02D0F2EFAEFEF2EF2E0EB
S1130340FF2EF02D0F2EFDE05F2EF02D0F2EFAE57F
S11303508F2EF2E09F2EF02D0F2EF4E6CF2EF2E03A
S1130360DF2EF02D0F2EFBEF6F2EF2E07F2EF02DFF
S113037081E492E00E947E12C42DD32DC130D105B8
S113038051F4D8016C9180E092E00E9445018436DA
S113039009F02CC131C10E947909FE01E255FD4FDB
S11303A080832196C230D1054CF32C9A1F930F936E
S11303B0BF92AF920E9468120F900F900F900F900F
S11303C0F8018081883409F4A0C020F4833409F44E
S11303D0C1C0F1C0803509F46AC0843509F0EBC0AE
S11303E08181823371F1833309F449C0813309F087
S11303F05BC00E946504882349F090E00E943A01A2
S11304006EE573E086EE92E00E94AC078091E9020B
S11304108F938091E8028F938091E7028F9380916C
S1130420E6028F939F928F92FF92EF920E94AE12F8
S1130430EDB7FEB738960FB6F894FEBF0FBEEDBF0A
S1130440BAC063E08EEE92E00E949D088093F502AC
S11304508EEE92E00E94CF089F938F937F936F93C9
S11304609F928F92FF92EF920E94AE128DB79EB729
S113047008960FB6F8949EBF0FBE8DBF9CC00E9415
S11304804E099F938F937F936F939F928F92FF92C6
S1130490EF920E94AE12ADB7BEB718960FB6F8949D
S11304A0BEBF0FBEADBF87C0F701508284C081813B
S11304B0813341F50E946504882349F090E00E944D
S11304C03A016EE573E086EE92E00E94AC078091FB
S11304D061038F93809160038F9380915F038F9367
S11304E080915E038F939F928F92FF92EF920E946E
S11304F0AE12EDB7FEB738960FB6F894FEBF0FBE36
S1130500EDBF59C0D7015C9256C0F8018181813397
S1130510F1F463E08EEE92E00E944D088093F502C0
S11305208EEE92E00E947F089F938F937F936F9348
S11305309F928F92FF92EF920E94AE128DB79EB758
S113054008960FB6F8949EBF0FBE8DBF34C0D70176
S11305505C9231C0F8018181823319F08433A1F0B7
S113056028C00E94F2079F938F93A0E6B2E0BF9346
S1130570AF93FF92EF920E94AE120F900F900F90E4
S11305800F900F900F9017C00E94F3089F938F93C2
S11305907F936F939F928F92FF92EF920E94AE127D
S11305A08DB79EB708960FB6F8949EBF0FBE8DBF49
S11305B002C0D7015C92FF92EF92DF92CF920E9429
S11305C068127398F70180810F900F900F900F902D
S11305D08D3031F0E3010E947E0989918D30D9F785
S11305E0852D0E947E09739A2C98C2CE0E947909A7
S11305F0D80111968C93D9CE0E947909F801808391
S1130600BDCECF92DF92EF92FF92A0E0B0E0BA2F7E
S1130610A92F982F8827862B27E130E040E050E867
S113062068E970E06C017D01022E04C0F694E79441
S1130630D794C7940A94D2F7C0FE04C084279527A0
S1130640A627B72776956795579547952150310981
S11306502730310539F7FF90EF90DF90CF90089560
S11306601F93CF93DF93EC01162F86E70E94B10905
S113067088810E94A30986E70E94CE098093B10273
S1130680803481F4612F70E040E0CE010E940B0AB7
S1130690887F883549F40E94060A91E0811105C0DB
S11306A090E003C090E001C090E0892FDF91CF91EA
S11306B01F9108950F931F93CF93DF9300D0CDB76D
S11306C0DEB78B01898362E0CE0101960E9430037C
S11306D0882359F08A8190E0982F88272981822BDA
S11306E0F8019183808381E003C0F80111821082B4
S11306F00F900F90DF91CF911F910F910895CF9399
S1130700DF9300D0CDB7DEB788E8898362E0CE01FD
S113071001960E943003882399F08A8190E0982FF3
S113072088272981822B9093BC028093BB0261EDC0
S113073072E08AE80E945A03882309F4BBC005C00A
S11307401092BC021092BB02B5C06FEC72E08CE850
S11307500E945A03882309F4ADC08EE8898362E0BD
S1130760CE0101960E943003882399F08A8190E09B
S1130770982F88272981822B9093BE028093BD02F3
S11307806DEC72E080E90E945A03882309F492C058
S113079005C01092BE021092BD028CC06BEC72E0D8
S11307A082E90E945A03882309F484C069EC72E048
S11307B084E90E945A03882309F47CC067EC72E040
S11307C086E90E945A03882309F474C065EC72E038
S11307D088E90E945A03882309F46CC063EC72E030
S11307E08AE90E945A03882309F464C061EC72E028
S11307F08CE90E945A03882309F45CC06FEB72E011
S11308008EE90E945A03882309F454C08091C002DF
S11308108F938091BF028F938091C2028F938091B6
S1130820C1028F938091C4028F938091C3028F93EE
S11308308091C6028F938091C5028F938091C802E4
S11308408F938091C7028F938091CA028F93809176
S1130850C9028F938091CC028F938091CB028F93A6
S11308608091CE028F938091CD028F938091BE02AE
S11308708F938091BD028F938091D0028F9380914A
S1130880CF028F938091D2028F938091D1028F9364
S11308908091BC028F938091BB028F9386E792E094
S11308A09F938F930E9468120FB6F894DEBF0FBE19
S11308B0CDBF81E00F900F90DF91CF910895909379
S11308C0BA028093B90281E008951F93CF93DF9316
S11308D000D0CDB7DEB784EF89838091B9029091BF
S11308E0BA028230910501F12CF4009749F0019786
S11308F089F038C08330910509F1049749F132C079
S113090085E28A8381E090E09093B8028093B702F5
S113091018E02BC089E28A8381E090E09093B802CA
S11309208093B7021AE021C08DE28A8381E090E0CF
S11309309093B8028093B7021FE017C081E38A83C3
S113094081E090E09093B8028093B70218E10DC063
S11309508DE58A8381E090E09093B8028093B7029A
S11309601DE203C085E28A8319E086E70E94B1098B
S113097062E070E0CE0101960E94470A883231F4A9
S11309800E94060A882319F0812F01C080E00F908D
S11309900F90DF91CF911F9108958F929F92AF9204
S11309A0BF92CF92DF92EF92FF921F93CF93DF9388
S11309B000D000D000D0CDB7DEB76C017B0187EF4B
S11309C0898366E0CE0101960E943003182F8823A4
S11309D009F476C0698170E080E090E00E944B0CDD
S11309E020E030E040E853E40E94000D4B015C013C
S11309F08A81682F70E080E090E00E944B0C9B019C
S1130A00AC01C501B4010E94300B4B015C014B8168
S1130A10642F70E080E090E00E944B0C20E030E016
S1130A2040E85BE30E94000D9B01AC01C501B401E9
S1130A300E94300B20E030E040E851E40E94000DB9
S1130A40F60160837183828393836C8170E080E01C
S1130A5090E00E944B0C20E030E040E853E40E9418
S1130A60000D4B015C018D81682F70E080E090E007
S1130A700E944B0C9B01AC01C501B4010E94300BD8
S1130A804B015C018E81682F70E080E090E00E9451
S1130A904B0C20E030E040E85BE30E94000D9B013A
S1130AA0AC01C501B4010E94300B20E030E040E805
S1130AB051E40E94000DF701608371838283938364
S1130AC0812F26960FB6F894DEBF0FBECDBFDF91FF
S1130AD0CF911F91FF90EF90DF90CF90BF90AF9098
S1130AE09F908F9008954F925F926F927F928F9212
S1130AF09F92AF92BF92CF92DF92EF92FF92CF93E9
S1130B00DF93EC01FB01C080D180E280F38080910F
S1130B10BB029091BC02BC0180E090E00E94490CB1
S1130B202B013C0120E030E040E057E3C701B6016F
S1130B300E94000D4B015C0120E030E040E059E3ED
S1130B40C301B2010E94000D9B01AC01C501B401B7
S1130B500E942F0B4B015C0120E030E040E858E399
S1130B60C701B6010E94000D6B017C0120E030E05A
S1130B7040E85AE3C301B2010E94000D9B01AC019D
S1130B80C701B6010E942F0B6B017C018091D10239
S1130B909091D202BC01990F880B990B0E944B0CC7
S1130BA09B01AC01C701B6010E94000D6B017C01E1
S1130BB0A5019401C501B4010E94000D4B015C0123
S1130BC04091CF025091D002BA01550F880B990B76
S1130BD00E944B0C9B01AC01C501B4010E94000DA5
S1130BE09B01AC01C701B6010E94300B6B017C0173
S1130BF00E94130C6093B3027093B4028093B50205
S1130C009093B60220E030E040EA55E4C701B60113
S1130C100E94A10B6B017C01688379838A839B8387
S1130C2020E030E048EC52E40E94FB0C181674F00B
S1130C3020E030E048EC52ECC701B6010E949C0B66
S1130C40881F8827881F91E0892701C080E0DF91F1
S1130C50CF91FF90EF90DF90CF90BF90AF909F9097
S1130C608F907F906F905F904F9008954F925F9216
S1130C706F927F928F929F92AF92BF92CF92DF92A8
S1130C80EF92FF920F931F93CF93DF938C01EB01AD
S1130C906091B3027091B4028091B5029091B60252
S1130CA00E944B0C20E030E040E05FE30E94000D26
S1130CB020E030E04AE757E40E942F0B6B017C01EF
S1130CC06091C5027091C602072E000C880B990B27
S1130CD00E944B0CA70196010E94000D20E030E019
S1130CE040E058E30E94000DA70196010E94000D08
S1130CF04B015C016091C7027091C802072E000C81
S1130D00880B990B0E944B0CA70196010E94000DC1
S1130D109B01AC010E94300BA50194010E94300B91
S1130D2020E030E040E85EE30E94000D4B015C01EE
S1130D306091CB027091CC02072E000C880B990BAA
S1130D400E944B0CA70196010E94000DA701960179
S1130D500E94000D20E030E040E056E30E94000DC8
S1130D602B013C016091CD027091CE02072E000C44
S1130D70880B990B0E944B0CA70196010E94000D51
S1130D809B01AC01C301B2010E94300B20E030E0B2
S1130D9040E056E30E94000D20E030E040E057E4DC
S1130DA00E94300B20E030E040E058E30E94000D48
S1130DB06B017C01288139814A815B8160E070E0AC
S1130DC080E899E40E942F0B2B013C016091C90239
S1130DD07091CA02072E000C880B990B0E944B0CD1
S1130DE020E030E040E857E40E94000D9B01AC0194
S1130DF0C501B4010E94300B20E030E040E859E323
S1130E000E94000D9B01AC01C301B2010E942F0B93
S1130E1020E030E543EC55E40E94000D4B015C01F9
S1130E208091BD029091BE02BC0180E090E00E94DE
S1130E30490C9B01AC01C701B6010E94000D9B0146
S1130E40AC01C501B4010E94A10B6B017C0160914E
S1130E50BF027091C002072E000C880B990B0E94F0
S1130E604B0CA70196010E94000DA70196010E9458
S1130E70000D20E030E040E050E30E94000D4B0103
S1130E805C018091C1029091C202BC01990F880B50
S1130E90990B0E944B0CA70196010E94000D20E0C3
S1130EA030E040E058E30E94000D9B01AC01C50115
S1130EB0B4010E94300B4B015C018091C3029091FC
S1130EC0C402BC01990F880B990B0E944B0C9B0127
S1130ED0AC01C501B4010E94300B20E030E040E8D1
S1130EE05DE30E94000DA70196010E94300B20E0F3
S1130EF030E048EC52E40E94A10B6B017C01F80144
S1130F00608371838283938320E030E046E954E474
S1130F100E94FB0C181674F020E030E048E454E41E
S1130F20C701B6010E949C0B881F8827881F91E087
S1130F30892701C080E0DF91CF911F910F91FF902D
S1130F40EF90DF90CF90BF90AF909F908F907F9065
S1130F506F905F904F900895EF92FF920F931F93BD
S1130F60CF93DF93CDB7DEB728970FB6F894DEBFE3
S1130F700FBECDBF8C017B01BE016B5F7F4FCE01E5
S1130F8001960E94CD048823D1F0BE016B5F7F4F90
S1130F90C8010E947305882369F0BE016F5F7F4F0B
S1130FA0C7010E94360681110FC083E08093B2020C
S1130FB080E00BC082E08093B20280E006C081E052
S1130FC08093B20280E001C081E028960FB6F894C5
S1130FD0DEBF0FBECDBFDF91CF911F910F91FF9068
S1130FE0EF900895CF93DF9300D000D0CDB7DEB754
S1130FF019821A821B821C8288E60E94B1098831F8
S1131000A9F564E070E085E092E00E94470A883226
S113101081F50E94060A8FE39CE90197F1F700C06D
S1131020000088E60E94CE09803431F541E064E096
S113103070E0CE0101960E940B0A803501F50E94F2
S1131040060A2A8130E08B8190E06C8170E049814E
S1131050F901E40FF11DAF01480F591F641775071B
S113106089F4322F2227822B932B0EC080E090E04C
S11310700BC080E090E008C080E090E005C080E014
S113108090E002C080E090E00F900F900F900F90DE
S1131090DF91CF91089580E00895CF93DF93EC0121
S11310A080E40E94B10985EE0E94A3098832E9F424
S11310B080E40E94CE098034D1F440E063E070E023
S11310C0CE010E940B0A8035A1F46A8170E0888108
S11310D090E0982F88272981822B0E940103892B75
S11310E051F40E94060A81E007C080E005C080E058
S11310F003C080E001C080E0DF91CF910895FC013E
S1131100608170E0762F66278181682B80E090E013
S11311100E94490C20E030E040E857E30E94000DB3
S113112020E030E04AEF52E40E94000D20E030E07D
S113113040EC50E40E942F0B0895CF93DF93EC0111
S113114080E40E94B10983EE0E94A3098832E9F485
S113115080E40E94CE098034D1F440E063E070E082
S1131160CE010E940B0A8035A1F46A8170E0888167
S113117090E0982F88272981822B0E940103892BD4
S113118051F40E94060A81E007C080E005C080E0B7
S113119003C080E001C080E0DF91CF910895FC019D
S11311A0608170E0762F66278181682B80E090E073
S11311B00E94490C20E030E040E857E30E94000D13
S11311C022E538EB4FE253E40E94000D26E636E6B2
S11311D04BE352E40E942F0B08952D9A0895259A0B
S11311E00E94ED080895CF92DF92EF92FF9280E083
S11311F00E942E0981E00E943709BC01990F880BD7
S1131200990B0E944B0C26E636E646EE5AE30E9402
S1131210000D6B017C0120E030E44CE156E40E94B7
S1131220000D9B01AC0160E070EA8CE896E40E943A
S11312302F0BA70196010E94A10BFF90EF90DF9066
S1131240CF90089584E880937A0085EC80937700AA
S1131250EBE7F0E080818823ECF70895ECE7F0E019
S113126090819F7390839081892B80830895ECE70C
S1131270F0E09081907C90839081892B8083EAE7D1
S1131280F0E0808180648083808186FDFDCF809141
S113129078002091790090E0922B08958AE0809361
S11312A0770088E080937B0089EC80937C0084EC59
S11312B080937A00609178007091790080E090E0EA
S11312C00E94490C27ED33EA40E95FE30E94000DD8
S11312D026E636E648E853E40E942F0B08958AB1C7
S11312E0806C8AB908955F9A0895239A80E48CBD2E
S11312F008950DB407FEFDCF8EB508958EBD0DB4CF
S113130007FEFDCF8EB58EBD08959B01AC011092F2
S1131310B90060E074E284EF90E00E94E910DA0121
S1131320C9014097A109B109689412F8B695A79527
S1131330979587951694D1F78093B80084E08093AD
S1131340BC0081E008958093BB0084E88093BC00D6
S1131350ECEBF0E080818823ECF78091B900887F82
S1131360089594EE9093BC00ECEBF0E09081992307
S1131370ECF7EFE9FFE03197F1F700C0000090913E
S1131380B900987F983031F0903121F08091B90004
S1131390887F0895880F0E94A309089594EE90937E
S11313A0BC00ECEBF0E090819923ECF79091B9004C
S11313B0987F983031F0903121F08091B900887F86
S11313C00895880F81600E94A3090895DC0184ECCC
S11313D08093BC00ECEBF0E090819923ECF78091D2
S11313E0BB008C938091B900887F0895DC0184E868
S11313F08093BC00ECEBF0E090819923ECF78091B2
S1131400BB008C938091B900887F089584E9809310
S1131410BC0081E008959F92AF92BF92CF92DF9279
S1131420EF92FF920F931F93CF93DF931616170635
S11314300CF5942E8B017C01C0E0D0E06B0181E0BF
S1131440C81AD1085701AC0CBD1C911007C0CC16AA
S1131450DD0621F4C5010E94F60905C0C7018C0F01
S11314609D1F0E94E609803531F42196C017D107EB
S113147061F701C080E0DF91CF911F910F91FF9040
S1131480EF90DF90CF90BF90AF909F9008950F930F
S11314901F93CF93DF93161617066CF48C01EC019F
S11314A0060F171F89910E94A309883229F4C017D7
S11314B0D107C1F701C080E0DF91CF911F910F9157
S11314C0089529E032E03093660320936503DC013C
S11314D0CB01880F991FAA1FBB1F880F991FAA1F32
S11314E0BB1F9C01AD01220F331F441F551F220F48
S11314F0331F441F551F60E074E284EF90E00E94A4
S1131500E910215031093093C5002093C40086E0CE
S11315108093C20088E18093C1000895E0ECF0E07C
S1131520908195FFFDCF8093C6000895CF93C82F77
S11315308A3019F48DE00E948E0A8C2F0E948E0A44
S113154080E090E0CF9108951F920F920FB60F9212
S113155011248F9381E08093D3028F910F900FBE5B
S11315600F901F9018951F920F920FB60F9211248F
S11315708F93809162038F5F809362038F910F90AA
S11315800FBE0F901F9018951F920F920FB60F92D7
S113159011248F93EF93FF9381E08093D502E1ECC4
S11315A0F0E080818F7D8083FF91EF918F910F9088
S11315B00FBE0F901F9018951F920F920FB60F92A7
S11315C011242F933F934F935F936F937F938F9344
S11315D09F93AF93BF93EF93FF938091C0002091AB
S11315E0C6008C7159F5E6EDF2E04681578184819D
S11315F095814817590711F140855185828193815E
S1131600BC016F5F7F4F73836283DA01A80FB91F38
S11316102C9322813381848195812817390721F401
S11316201092D9021092D802E6EDF2E086819781F9
S113163001969783868381E08093D402FF91EF9192
S1131640BF91AF919F918F917F916F915F914F91D6
S11316503F912F910F900FBE0F901F9018955058E7
S1131660BB27AA270E94470B0C94C10C0E94B30C01
S113167038F00E94BA0C20F039F49F3F19F426F494
S11316800C94B00C0EF4E095E7FB0C94AA0CE92F33
S11316900E94D20C58F3BA176207730784079507A0
S11316A020F079F4A6F50C94F40C0EF4E0950B2ECE
S11316B0BA2FA02D0B01B90190010C01CA01A001A0
S11316C01124FF27591B99F0593F50F4503E68F1FB
S11316D01A16F040A22F232F342F4427585FF3CF3C
S11316E0469537952795A795F0405395C9F77EF40D
S11316F01F16BA0B620B730B840BBAF09150A1F056
S1131700FF0FBB1F661F771F881FC2F70EC0BA0FDB
S1131710621F731F841F48F4879577956795B79563
S1131720F7959E3F08F0B0CF9395880F08F099275E
S1131730EE0F9795879508950E94860C08F481E032
S113174008950E94B50B0C94C10C0E94BA0C58F079
S11317500E94B30C40F029F45F3F29F00C94AA0CCA
S113176051110C94F50C0C94B00C0E94D20C68F33B
S11317709923B1F3552391F3951B550BBB27AA2746
S113178062177307840738F09F5F5F4F220F331F80
S1131790441FAA1FA9F335D00E2E3AF0E0E832D048
S11317A091505040E695001CCAF72BD0FE2F29D04B
S11317B0660F771F881FBB1F261737074807AB071D
S11317C0B0E809F0BB0B802DBF01FF2793585F4F92
S11317D03AF09E3F510578F00C94AA0C0C94F50C49
S11317E05F3FE4F3983ED4F3869577956795B79574
S11317F0F7959F5FC9F7880F911D9695879597F97F
S11318000895E1E0660F771F881FBB1F62177307F7
S11318108407BA0720F0621B730B840BBA0BEE1F0C
S113182088F7E09508950E941A0C6894B1110C94FD
S1131830F50C08950E94DA0C88F09F5798F0B92FA0
S11318409927B751B0F0E1F0660F771F881F991FF1
S11318501AF0BA95C9F714C0B13091F00E94F40C93
S1131860B1E008950C94F40C672F782F8827B85FA3
S113187039F0B93FCCF3869577956795B395D9F749
S11318803EF490958095709561957F4F8F4F9F4F53
S11318900895E89409C097FB3EF49095809570955F
S11318A061957F4F8F4F9F4F9923A9F0F92F96E9A8
S11318B0BB279395F695879577956795B795F1111D
S11318C0F8CFFAF4BB0F11F460FF1BC06F5F7F4FBA
S11318D08F4F9F4F16C0882311F096E911C07723CC
S11318E021F09EE8872F762F05C0662371F096E8D5
S11318F0862F70E060E02AF09A95660F771F881FA4
S1131900DAF7880F9695879597F90895990F000847
S1131910550FAA0BE0E8FEEF16161706E807F907BD
S1131920C0F012161306E407F50798F0621B730B58
S1131930840B950B39F40A2661F0232B242B252BD9
S113194021F408950A2609F4A140A6958FEF811D7C
S1131950811D089597F99F6780E870E060E008951D
S11319609FEF80EC089500240A94161617061806B3
S11319700906089500240A9412161306140605068F
S11319800895092E0394000C11F4882352F0BB0F20
S113199040F4BF2B11F460FF04C06F5F7F4F8F4F83
S11319A09F4F089557FD9058440F551F59F05F3FBE
S11319B071F04795880F97FB991F61F09F3F79F06D
S11319C087950895121613061406551FF2CF4695EF
S11319D0F1DF08C0161617061806991FF1CF869571
S11319E07105610508940895E894BB276627772755
S11319F0CB0197F908950E94860C08F48FEF08959F
S1131A000E94130D0C94C10C0E94B30C38F00E9478
S1131A10BA0C20F0952311F00C94AA0C0C94B00C81
S1131A2011240C94F50C0E94D20C70F3959FC1F311
S1131A30950F50E0551F629FF001729FBB27F00D78
S1131A40B11D639FAA27F00DB11DAA1F649F6627CD
S1131A50B00DA11D661F829F2227B00DA11D621F1C
S1131A60739FB00DA11D621F839FA00D611D221FD6
S1131A70749F3327A00D611D231F849F600D211DBA
S1131A80822F762F6A2F11249F5750409AF0F1F03D
S1131A9088234AF0EE0FFF1FBB1F661F771F881FA6
S1131AA091505040A9F79E3F510580F00C94AA0C28
S1131AB00C94F50C5F3FE4F3983ED4F38695779548
S1131AC06795B795F795E7959F5FC1F7FE2B880F4C
S1131AD0911D9695879597F90895A3E1B0E0E3E702
S1131AE0FDE00C940B116C014B012A01FC011782DF
S1131AF01682838181FF43C3AE014F5F5F4F3A017A
S1131B00F6019381F40193FD859193FF81914F0137
S1131B10882309F430C3853239F493FD859193FF0A
S1131B2081914F01853239F4B60190E00E94301260
S1131B3052012501E5CF10E0F12C20E02032A0F481
S1131B408B3269F030F4803259F0833269F42061C9
S1131B502CC08D3239F0803339F4216026C02260E4
S1131B60246023C0286021C027FD27C030ED380F32
S1131B703A3078F426FF06C0FAE01F9F300D112496
S1131B80132F13C04AE0F49E300D1124F32E20626B
S1131B900CC08E3221F426FDEEC2206406C08C36C1
S1131BA011F4206802C0883641F4F40193FD859154
S1131BB093FF81914F018111C1CF9BEB980F93301B
S1131BC018F42061805E06C09BE9980F933008F0FA
S1131BD071C12F7E26FF16E02F73322E853619F43D
S1131BE02064322E08C0863621F4F22FF0683F2E8E
S1131BF002C01111115037FE07C01C3350F4EE24FB
S1131C00E394E10E27E00BC0183038F027E017E02A
S1131C1005C027E04CE3E42E02C0212FE12C520141
S1131C2044E0A40EB11CF201608171818281938130
S1131C300E2DA3010E9442112C01098100FF02C054
S1131C4003FF07C031FC08C032FE09C030E2232E76
S1131C5007C02DE2222E04C09BE2292E01C0212CB4
S1131C60802F8C7019F0211068C2A8C237FE0FC0F3
S1131C70E40C04FF04C08A81813309F4EA941E143D
S1131C8074F5F8E0FE1578F588E0E82E2CC036FCF3
S1131C902AC0812F90E0841595059CF02CEF421604
S1131CA02FEF520674F0432D4068342E0AC0E2E050
S1131CB0F0E0EC0FFD1FE10FF11D8081803319F47A
S1131CC011501111F4CF37FE0EC0EE24E394E10E4F
S1131CD0812F90E0481659062CF4141904C0EE2400
S1131CE0E39401C010E037FE06C01414150434F464
S1131CF0C201019605C085E090E002C081E090E059
S1131D0021100196112331F0212F30E02F5F3F4F36
S1131D10820F931F2F2D30E08217930714F4F81AC3
S1131D2001C0F12C832D897049F4FF2039F0B601EC
S1131D3080E290E00E943012FA94F7CF222029F03A
S1131D40B601822D90E00E94301233FC09C0FF20BE
S1131D5039F0B60180E390E00E943012FA94F7CF94
S1131D6037FE5AC0942D852D57FE02C090E080E0C6
S1131D70292E382E20E030E0A2014E1951095D874A
S1131D804C87A201421953095F874E87612F70E087
S1131D9044275527461B570B598B488B5FEF251655
S1131DA0350649F4B6018EE290E02A8B3B8B0E9403
S1131DB030123B892A89421453046CF04C855D85AA
S1131DC04215530544F4EE85FF85E20FF31FE60D3B
S1131DD0F71D818101C080E351E0251A31082F5F8E
S1131DE03F4F48895989241635064CF0B60190E0D6
S1131DF02A8B3B8B0E9430122A893B89CFCF241433
S1131E00350439F49A81963318F4953311F404FFA8
S1131E1081E3B60190E04BC08A81813309F00F7EE3
S1131E20B60190E00E943012111105C034FC18C0B4
S1131E3085E690E017C0B6018EE290E00E94301271
S1131E4082E0EE24E394E80EF301E80FF11D8081B3
S1131E50B60190E00E94301211508E2D91F7E6CF1A
S1131E6085E490E0B6010E94301257FC05C041148D
S1131E70510439F404FF05C05194419451088DE292
S1131E8001C08BE2B60190E00E94301280E39AE038
S1131E90491651042CF08F5F5AE0451A5108F7CFC8
S1131EA0B60190E00E943012B601C201C0960E94B1
S1131EB0301257C1833631F0833779F0833509F016
S1131EC058C021C05201E2E0AE0EB11CF201808183
S1131ED0898301E010E0230114C05201F2E0AF0E47
S1131EE0B11CF2014080518026FF03C0612F70E0D5
S1131EF002C06FEF7FEFC2012A8B0E9425128C0172
S1131F002A892F7715C05201F2E0AF0EB11CF201FD
S1131F104080518026FF03C0612F70E002C06FEF44
S1131F207FEFC2012A8B0E941A128C012A89206831
S1131F30322E23FD1AC08F2D90E008171907A8F43C
S1131F40B60180E290E00E943012FA94F4CFF201DC
S1131F5037FC859137FE81912F01B60190E00E94F4
S1131F603012F110FA94015011090115110579F795
S1131F70F8C0843611F0893659F5520127FF09C09B
S1131F80F4E0AF0EB11CF201608171818281938112
S1131F900AC0F2E0AF0EB11CF20160817181072E1C
S1131FA0000C880B990B2F76322E97FF09C0909561
S1131FB08095709561957F4F8F4F9F4F2068322E8B
S1131FC02AE030E0A3010E94D112E82EE6183FC0B7
S1131FD0022F853721F40F7E2AE030E01DC0097FEF
S1131FE08F3691F018F4883559F0C5C0803719F050
S1131FF0883711F0C0C0006104FF09C0046007C045
S113200024FF08C0066006C028E030E005C020E1D7
S113201030E002C020E132E0520107FF09C0F4E0E1
S1132020AF0EB11CF201608171818281938108C07D
S1132030F2E0AF0EB11CF2016081718180E090E0AA
S1132040A3010E94D112E82EE6180F77302E36FE37
S11320500BC0332D3E7FE11650F434FE0AC032FC2F
S113206008C0332D3E7E05C00E2D332D03C00E2D2A
S113207001C0012F34FF0CC0FE01EE0DF11D808163
S1132080803311F4397E08C032FF05C00E5F04C0EE
S1132090832F867809F00F5F33FD13C030FF06C02D
S11320A01E2D0F1518F41F0D101B0F2D0F1568F49E
S11320B0B60180E290E03B8B0E9430120F5F3B89B7
S11320C0F5CF0F1510F4F01A01C0F12C34FF12C033
S11320D0B60180E390E03B8B0E9430123B8932FFD3
S11320E017C031FD03C088E790E002C088E590E0A6
S11320F0B6010CC0832F867859F031FF02C08BE201
S113210001C080E237FD8DE2B60190E00E943012FA
S1132110E11638F4B60180E390E00E9430121150C9
S1132120F7CFEA94F301EE0DF11D8081B60190E042
S11321300E943012E110F5CF14C0F4E0FF1558F5F9
S113214084E0F81A33FE1EC0211026C003FF2AC003
S113215004E311E0F32DF0713F2EF8018491811115
S113216024C0FF2009F4E5CCB60180E290E00E948F
S11321703012FA94F6CFF6018681978126C08FEF4C
S11321809FEF23C0B60180E290E00E943012FA94DF
S1132190F110F8CFD9CFF12CB601822D90E00E9436
S11321A03012D4CF08E311E0D5CF31108052B601FC
S11321B090E00E9430120F5F1F4FCFCF23E02F1506
S11321C010F483E0BECFF12CC1CF6396E2E10C940E
S11321D02711A1E21A2EAA1BBB1BFD010DC0AA1FC9
S11321E0BB1FEE1FFF1FA217B307E407F50720F07C
S11321F0A21BB30BE40BF50B661F771F881F991FF7
S11322001A9469F760957095809590959B01AC013F
S1132210BD01CF0108952F923F924F925F926F922A
S11322207F928F929F92AF92BF92CF92DF92EF9262
S1132230FF920F931F93CF93DF93CDB7DEB7CA1BE3
S1132240DB0B0FB6F894DEBF0FBECDBF09942A880E
S1132250398848885F846E847D848C849B84AA84B6
S1132260B984C884DF80EE80FD800C811B81AA8143
S1132270B981CE0FD11D0FB6F894DEBF0FBECDBF0E
S1132280ED010895283008F027E03327DA01990F8B
S1132290311D87FD916000966105710539F4326046
S11322A02E5F3D9330E32A95E1F708959F3F30F088
S11322B080387105610509F03C5F3C5F3D939130C6
S11322C008F08068911DDF93CF931F930F93FF92C3
S11322D0EF92192F987F9695E92F96959695E90F89
S11322E0FF27EA56FE4F99273327EE24FF24A70140
S11322F0E70105900894079428F4360FE71EF81EAA
S1132300491F511D660F771F881F991F0694A1F757
S11323100590079428F4E70EF81E491F561FC11DA7
S1132320770F881F991F661F0694A1F705900794DD
S113233028F4F80E491F561FC71FD11D880F991F77
S1132340661F771F0694A1F70590079420F4490FA0
S1132350561FC71FD81F990F661F771F881F069423
S1132360A9F784911095177041F0D695C7955795A4
S11323704795F794E7941A95C1F7ECE3F1E0689474
S11323801590159135916591959105907FE273951E
S1132390E118F10A430B560BC90BD009C0F7E10C45
S11323A0F11E431F561FC91FD01D7EF4703311F454
S11323B08A95E6CFE894015030F0080F0AF400271C
S11323C0021708F4202F2395022F7A3328F079E39B
S11323D07D932A95E9F710C07D932A9589F6069492
S11323E097956795379517951794E118F10A430B5C
S11323F0560BC90BD00998F023957E9173957A33C7
S113240008F070E37C932013B8F77E9170617D939C
S113241030F0839571E37D9370E32A95E1F71124FD
S1132420EF90FF900F911F91CF91DF91992787FD36
S113243090950895FC010590615070400110D8F703
S1132440809590958E0F9F1F0895FC0161507040F8
S113245001900110D8F7809590958E0F9F1F0895D5
S11324600F931F93CF93DF93FB01238121FD03C0BF
S11324708FEF9FEF28C022FF16C046815781248129
S113248035814217530744F4A081B1819D012F5F28
S11324903F4F318320838C93268137812F5F3F4FB9
S11324A03783268310C0EB01092F182F0084F18590
S11324B0E02D0995892BE1F68E819F8101969F83FA
S11324C08E83812F902FDF91CF911F910F910895CB
S11324D0A0E0B0E0EEE6F2E10C941B11AE014B5F1C
S11324E05F4FFA0161917191AF0180916503909101
S11324F066030E946D0DE2E00C9437110F931F9355
S1132500CF93DF93E0916503F0916603238121FF6C
S11325101BC08C01D0E0C0E0F80181918F01609173
S1132520650370916603DB011896ED91FC91199790
S1132530882331F00995892B79F3DFEFCFEFECCFC6
S11325408AE00995892B19F08FEF9FEF02C08D2F38
S11325509C2FDF91CF911F910F910895AEE0B0E0D1
S1132560E4EBF2E10C9419110D891E8986E08C8349
S11325701A8309838FEF9FE79E838D83AE01475EA5
S11325805F4F6F89788DCE0101960E946D0D2F816A
S11325903885F801E20FF31F10822E96E4E00C94C4
S11325A03511FA01AA27283051F1203181F1E8943C
S11325B06F936E7F6E5F7F4F8F4F9F4FAF4FB1E032
S11325C03ED0B4E03CD0670F781F891F9A1FA11D2D
S11325D0680F791F8A1F911DA11D6A0F711D811D2E
S11325E0911DA11D20D009F468943F912AE0269FF3
S11325F011243019305D3193DEF6CF010895462F52
S11326004770405D4193B3E00FD0C9F7F6CF462F32
S11326104F70405D4A3318F0495D31FD405241939B
S113262002D0A9F7EACFB4E0A69597958795779558
S11326306795BA95C9F700976105710508959B01DF
S1132640AC010A2E06945795479537952795BA9568
S1132650C9F7620F731F841F951FA01D0895F89476
S1052660FFCFA6
S113266254504843002200082A00000002000000DF
S113267200960A00000000424D5032383020537454
S1132682617475732025690A000A3D3D3D3D3D3D57
S11326923D3D3D3D3D3D3D3D3D3D3D3D3D3D3D3D64
S11326A200546F70206F66206C6F6F700052656308
S11326B265697665642025730A00252E33460D006C
S11326C225690D0053656E64696E67205350493A5B
S11326D2200A25730A000A543A202569202C256908
S11326E2202C256920503A202569202C2569202C8C
S11326F22569202C2569202C2569202C2569202C6C
S11127022569202C2531202C2569200A000091
S9030000FC
