S00D000041544D4F532E7372656393
S11300000C941B010C9438010C9438010C943801A5
S11300100C9438010C9438010C9438010C94380178
S11300200C9438010C9438010C9438010C94380168
S11300300C9438010C9438010C9438010C94280762
S11300400C9438010C9438010C9438010C94380148
S11300500C9438010C9438010C9438010C94380138
S11300600C9438010C9438010C9438010C94380128
S11300700C9438010C9438010C9438010C94380118
S11300800C9438010C9438010C9438010C94380108
S11300900C9438010C9438010C9438010C943801F8
S11300A00C9438010C9438010C94E3090C94380135
S11300B00C9438010C9438010C9438010C943801D8
S11300C00C9438010C9438010C9438010C943801C8
S11300D00C9438010C9438010C9438010C943801B8
S11300E00C9438010C9438010C9438010C943801A8
S11300F00C9438010C9438010C9438010C94380198
S11301000C9438010C9438010C9438010C94380187
S11301100C9438010C9438010C9438010C94380177
S11301200C9438010C9438010C9438010C94380167
S11301300C9438016E616E00696E660000407A109E
S1130140F35A00A0724E18090010A5D4E80000E884
S11301507648170000E40B54020000CA9A3B0000E2
S113016000E1F505000080969800000040420F0071
S11301700000A08601000000102700000000E80332
S1130180000000006400000000000A0000000000FD
S11301900100000000002C76D888DC674F0823DFBC
S11301A0C1DFAE59E1B1B796E5E3E453C63AE6518F
S11301B0997696E8E6C28426EB898C9B62ED407CB6
S11301C06FFCEFBC9C9F40F2BAA56FA5F490055A52
S11301D02AF75C936B6CF9676DC11BFCE0E40D4777
S11301E0FEF520E6B500D0ED902E0300943577059A
S11301F00080841E080000204E0A000000C80C3352
S11302003333330F986E12831141EF8D2114893BE0
S1130210E65516CFFEE6DB18D1844B381BF77C1D60
S1130220901DA4BBE424203284725E228100C9F1B3
S113023024ECA1E53D2711241FBECFEFD1E2DEBFA0
S1130240CDBF15E0A0E0B2E0E2E0FBE302C0059020
S11302500D92A23BB107D9F72AE0A2EBB5E001C0A9
S11302601D92A43AB207E1F70E943A010C947F1D53
S11302700C9400000E94930D0E9490080E94940820
S113028060E875E280E090E00E947609249A6B9A17
S1130290739A60E177E280E090E00E949A080E94FD
S11302A01C070E9407029F938F9386E592E09F9319
S11302B08F930E94D41C84E090E00E94E7020E9485
S11302C0960810926A0A1092690A0E94330C8BEE07
S11302D098E00E94841062E070E080E090E00E9468
S11302E02C136C0162E070E080E090E00E94ED135A
S11302F07C0180E090E00E949A118C01BC0180E0B6
S113030090E00E947912EC010E946D0788E692E069
S11303100E94F11C20E030E0A60160EA7FE088EE54
S113032093E00E94BA0C20E030E0A70160EA7FE08D
S113033088EB9BE00E94BA0C20E030E0A80160EE5C
S11303407EE284EE9CE00E94F00C20E030E0AE01FE
S113035060EA7FE084E690E00E94F00C0E945F0C6B
S11303600E94670878940F900F900F900F90FFCF22
S11303701F93CF93DF93EC01162F86E70E94C608E4
S113038088810E94B80886E70E94E3088093B40538
S1130390803481F4612F70E040E0CE010E94200996
S11303A0887F883549F40E941B0991E0811105C0BA
S11303B090E003C090E001C090E0892FDF91CF91DD
S11303C01F9108950F931F93CF93DF9300D0CDB760
S11303D0DEB78B01898362E0CE0101960E94B801E9
S11303E0882359F08A8190E0982F88272981822BCD
S11303F0F8019183808381E003C0F80111821082A7
S11304000F900F90DF91CF911F910F910895CF938B
S1130410DF9300D0CDB7DEB788E8898362E0CE01F0
S113042001960E94B801882399F08A8190E0982F60
S113043088272981822B9093BF058093BE0564EDA4
S113044075E08AE80E94E201882309F4BBC005C074
S11304501092BF051092BE05B5C062ED75E08CE840
S11304600E94E201882309F4ADC08EE8898362E02A
S1130470CE0101960E94B801882399F08A8190E008
S1130480982F88272981822B9093C1058093C005DA
S113049060ED75E080E90E94E201882309F492C0CE
S11304A005C01092C1051092C0058CC06EEC75E0B9
S11304B082E90E94E201882309F484C06CEC75E0AF
S11304C084E90E94E201882309F47CC06AEC75E0A7
S11304D086E90E94E201882309F474C068EC75E09F
S11304E088E90E94E201882309F46CC066EC75E097
S11304F08AE90E94E201882309F464C064EC75E08F
S11305008CE90E94E201882309F45CC062EC75E086
S11305108EE90E94E201882309F454C08091C30546
S11305208F938091C2058F938091C5058F9380919D
S1130530C4058F938091C7058F938091C6058F93CF
S11305408091C9058F938091C8058F938091CB05C5
S11305508F938091CA058F938091CD058F9380915D
S1130560CC058F938091CF058F938091CE058F9387
S11305708091D1058F938091D0058F938091C1058F
S11305808F938091C0058F938091D3058F93809131
S1130590D2058F938091D5058F938091D4058F9345
S11305A08091BF058F938091BE058F9383E792E07E
S11305B09F938F930E94D41C0FB6F894DEBF0FBE96
S11305C0CDBF81E00F900F90DF91CF91089590936C
S11305D0BD058093BC0581E008951F93CF93DF93FD
S11305E000D0CDB7DEB784EF89838091BC059091AC
S11305F0BD058230910501F12CF4009749F0019773
S113060089F038C08330910509F1049749F132C06B
S113061085E28A8381E090E09093BB058093BA05DC
S113062018E02BC089E28A8381E090E09093BB05B7
S11306308093BA051AE021C08DE28A8381E090E0BC
S11306409093BB058093BA051FE017C081E38A83AA
S113065081E090E09093BB058093BA0518E10DC04A
S11306608DE58A8381E090E09093BB058093BA0581
S11306701DE203C085E28A8319E086E70E94C6086A
S113068062E070E0CE0101960E945C09883231F488
S11306900E941B09882321F0812F03C08FEF01C022
S11306A08FEF0F900F90DF91CF911F9108958F924C
S11306B09F92AF92BF92CF92DF92EF92FF921F93DD
S11306C0CF93DF9300D000D000D0CDB7DEB76C015C
S11306D07B0187EF898366E0CE0101960E94B80111
S11306E0182F882309F476C0698170E080E090E0D7
S11306F00E94491520E030E040E853E40E94FE15D2
S11307004B015C018A81682F70E080E090E00E94D8
S113071049159B01AC01C501B4010E942E144B0183
S11307205C014B81642F70E080E090E00E944915E9
S113073020E030E040E85BE30E94FE159B01AC0141
S1130740C501B4010E942E1420E030E040E851E4D9
S11307500E94FE15F60160837183828393836C810A
S113076070E080E090E00E94491520E030E040E82D
S113077053E40E94FE154B015C018D81682F70E0EB
S113078080E090E00E9449159B01AC01C501B401D1
S11307900E942E144B015C018E81682F70E080E072
S11307A090E00E94491520E030E040E85BE30E94BD
S11307B0FE159B01AC01C501B4010E942E1420E07A
S11307C030E040E851E40E94FE15F7016083718334
S11307D082839383812F26960FB6F894DEBF0FBED3
S11307E0CDBFDF91CF911F91FF90EF90DF90CF901D
S11307F0BF90AF909F908F9008954F925F926F92A9
S11308007F928F929F92AF92BF92CF92DF92EF929C
S1130810FF92CF93DF93EC01FB01C080D180E28093
S1130820F3808091BE059091BF05BC0180E090E00B
S11308300E9447152B013C0120E030E040E057E3E3
S1130840C701B6010E94FE154B015C0120E030E0B7
S113085040E059E3C301B2010E94FE159B01AC01C3
S1130860C501B4010E942D144B015C0120E030E06D
S113087040E858E3C701B6010E94FE156B017C01F4
S113088020E030E040E85AE3C301B2010E94FE15C3
S11308909B01AC01C701B6010E942D146B017C01C0
S11308A08091D4059091D505BC01990F880B990BC3
S11308B00E9449159B01AC01C701B6010E94FE15B7
S11308C06B017C01A5019401C501B4010E94FE15D0
S11308D04B015C014091D2055091D305BA01550FEB
S11308E0880B990B0E9449159B01AC01C501B40109
S11308F00E94FE159B01AC01C701B6010E942E1493
S11309006B017C010E9411156093B6057093B705C5
S11309108093B8059093B90520E030E040EA55E4AF
S1130920C701B6010E949F146B017C01688379831F
S11309308A839B8320E030E048EC52E40E94F9155E
S1130940181674F020E030E048EC52ECC701B60110
S11309500E949A14881F8827881F91E0892701C064
S113096080E0DF91CF91FF90EF90DF90CF90BF9028
S1130970AF909F908F907F906F905F904F9008956D
S11309804F925F926F927F928F929F92AF92BF929B
S1130990CF92DF92EF92FF920F931F93CF93DF9347
S11309A08C01EB016091B6057091B7058091B80593
S11309B09091B9050E94491520E030E040E05FE3E2
S11309C00E94FE1520E030E04AE757E40E942D140F
S11309D06B017C016091C8057091C905072E000C5C
S11309E0880B990B0E944915A70196010E94FE15D8
S11309F020E030E040E058E30E94FE15A701960194
S1130A000E94FE154B015C016091CA057091CB05F3
S1130A10072E000C880B990B0E944915A70196011B
S1130A200E94FE159B01AC010E942E14A5019401A5
S1130A300E942E1420E030E040E85EE30E94FE15A0
S1130A404B015C016091CE057091CF05072E000C1F
S1130A50880B990B0E944915A70196010E94FE1567
S1130A60A70196010E94FE1520E030E040E056E325
S1130A700E94FE152B013C016091D0057091D105B7
S1130A80072E000C880B990B0E944915A7019601AB
S1130A900E94FE159B01AC01C301B2010E942E14F9
S1130AA020E030E040E056E30E94FE1520E030E014
S1130AB040E057E40E942E1420E030E040E058E388
S1130AC00E94FE156B017C01288139814A815B817A
S1130AD060E070E080E899E40E942D142B013C0151
S1130AE06091CC057091CD05072E000C880B990BF5
S1130AF00E94491520E030E040E857E40E94FE15CA
S1130B009B01AC01C501B4010E942E1420E030E029
S1130B1040E859E30E94FE159B01AC01C301B201F8
S1130B200E942D1420E030E543EC55E40E94FE15AC
S1130B304B015C018091C0059091C105BC0180E02E
S1130B4090E00E9447159B01AC01C701B6010E94C9
S1130B50FE159B01AC01C501B4010E949F146B01F9
S1130B607C016091C2057091C305072E000C880BAF
S1130B70990B0E944915A70196010E94FE15A70131
S1130B8096010E94FE1520E030E040E050E30E9410
S1130B90FE154B015C018091C4059091C505BC0113
S1130BA0990F880B990B0E944915A70196010E9481
S1130BB0FE1520E030E040E058E30E94FE159B0162
S1130BC0AC01C501B4010E942E144B015C0180915B
S1130BD0C6059091C705BC01990F880B990B0E941B
S1130BE049159B01AC01C501B4010E942E1420E0FB
S1130BF030E040E85DE30E94FE15A70196010E94E3
S1130C002E1420E030E048EC52E40E949F146B0163
S1130C107C01F801608371838283938320E030E058
S1130C2046E954E40E94F915181674F020E030E007
S1130C3048E454E4C701B6010E949A14881F882727
S1130C40881F91E0892701C080E0DF91CF911F9137
S1130C500F91FF90EF90DF90CF90BF90AF909F9057
S1130C608F907F906F905F904F900895EF92FF92D6
S1130C700F931F93CF93DF93CDB7DEB728970FB6AB
S1130C80F894DEBF0FBECDBF8C017B01BE016B5F4C
S1130C907F4FCE0101960E9457038823D1F0BE01F5
S1130CA06B5F7F4FC8010E94FD03882369F0BE017A
S1130CB06F5F7F4FC7010E94C00481110FC083E0A2
S1130CC08093B50580E00BC082E08093B50580E099
S1130CD006C081E08093B50580E001C081E02896DC
S1130CE00FB6F894DEBF0FBECDBFDF91CF911F9139
S1130CF00F91FF90EF900895CF93DF93EC0180E480
S1130D000E94C60885EE0E94B8088832E9F480E49F
S1130D100E94E3088034D1F440E063E070E0CE0147
S1130D200E9420098035A1F46A8170E0888190E0F6
S1130D30982F88272981822B0E942C0E892B51F40D
S1130D400E941B0981E007C080E005C080E003C069
S1130D5080E001C080E0DF91CF910895FC016081C3
S1130D6070E0762F66278181682B80E090E00E94F6
S1130D70471520E030E040E857E30E94FE1520E0EC
S1130D8030E04AEF52E40E94FE1520E030E040ECEF
S1130D9050E40E942D140895CF93DF93EC0180E476
S1130DA00E94C60883EE0E94B8088832E9F480E401
S1130DB00E94E3088034D1F440E063E070E0CE01A7
S1130DC00E9420098035A1F46A8170E0888190E056
S1130DD0982F88272981822B0E942C0E892B51F46D
S1130DE00E941B0981E007C080E005C080E003C0C9
S1130DF080E001C080E0DF91CF910895FC01608123
S1130E0070E0762F66278181682B80E090E00E9455
S1130E10471520E030E040E857E30E94FE1522E544
S1130E2038EB4FE253E40E94FE1526E636E64BE328
S1130E3052E40E942D14089584E880937A0085EC8E
S1130E4080937700EBE7F0E080818823ECF7089546
S1130E501F920F920FB60F9211242F933F934F932B
S1130E605F936F937F938F939F93AF93BF93EF930E
S1130E70FF938091DA059091DB0501969093DB0551
S1130E808093DA058091D9058F938091D8058F934B
S1130E908091D7058F938091D6058F938AEA92E04B
S1130EA09F938F930E94D41C0E94280D0F900F9043
S1130EB00F900F900F900F90FF91EF91BF91AF9112
S1130EC09F918F917F916F915F914F913F912F915E
S1130ED00F900FBE0F901F9018951092D605109288
S1130EE0D7051092D8051092D9051092DB051092FF
S1130EF0DA05E6EBF0E080818062808380818F7187
S1130F00E9F71092B1000895CF93DF93EC01E6EB7B
S1130F10F0E090819F71E9F71092B100E6EBF0E008
S1130F2090819F71E9F7CB3FD10504F5BE010D2EE9
S1130F30000C880B990B0E9449152FE632E143E817
S1130F405FE30E94FE150E94111520E031E0C90103
S1130F50861B970B8F3F910519F014F08FEF90E0EB
S1130F608093B20083E08093B10094C0C53F81E0D8
S1130F70D80704F5BE010D2E000C880B990B0E94B6
S1130F8049152FE632E143E05FE30E94FE150E941B
S1130F90111520E031E0C901861B970B8F3F9105A5
S1130FA019F014F08FEF90E08093B20084E0809306
S1130FB0B10070C0C93E83E0D80704F5BE010D2E10
S1130FC0000C880B990B0E9449152FE632E143E887
S1130FD05EE30E94FE150E94111520E031E0C90174
S1130FE0861B970B8F3F910519F014F08FEF90E05B
S1130FF08093B20085E08093B1004CC0C13D87E08E
S1131000D80704F5BE010D2E000C880B990B0E9425
S113101049152FE632E143E05EE30E94FE150E948B
S1131020111520E031E0C901861B970B8F3F910514
S113103019F014F08FEF90E08093B20086E0809373
S1131040B10028C0C1348FE1D80704F5BE010D2ECC
S1131050000C880B990B0E9449152FE632E143E0FE
S11310605DE30E94FE150E94111520E031E0C901E4
S1131070861B970B8F3F910519F014F08FEF90E0CA
S11310808093B20087E08093B10004C08BEB92E0C0
S11310900E94F11C1092B000CE01DD0FAA0BBB0B15
S11310A04091D6055091D7056091D8057091D90526
S11310B0840F951FA61FB71F8093D6059093D7055D
S11310C0A093D805B093D905DF91CF9108950E94DC
S11310D0840787E087BB81E0809370000895CF93F5
S11310E0DF93EC01DF93CF938DEC92E09F938F938A
S11310F00E94D41C0F900F900F900F90209769F0CE
S11311008091DA059091DB05892B21F4CE010E94B0
S1131110670803C0CE010E948407DF91CF91089530
S11311208AB1806C8AB908955F9A0895239A80E4FD
S11311308CBD08959B01AC011092B90060E074E28B
S113114084EF90E00E94E719DA01C9014097A109F0
S1131150B109689412F8B695A79597958795169452
S1131160D1F78093B80084E08093BC0081E00895B7
S11311708093BB0084E88093BC00ECEBF0E08081BA
S11311808823ECF78091B900887F089594EE9093BA
S1131190BC00ECEBF0E090819923ECF7EFE9FFE081
S11311A03197F1F700C000009091B900987F983012
S11311B031F0903121F08091B900887F0895880F33
S11311C00E94B808089594EE9093BC00ECEBF0E014
S11311D090819923ECF79091B900987F983031F081
S11311E0903121F08091B900887F0895880F816043
S11311F00E94B8080895DC0184EC8093BC00ECEBF9
S1131200F0E090819923ECF78091BB008C9380915E
S1131210B900887F0895DC0184E88093BC00ECEB7E
S1131220F0E090819923ECF78091BB008C9380913E
S1131230B900887F089584E98093BC0081E0089513
S11312409F92AF92BF92CF92DF92EF92FF920F9351
S11312501F93CF93DF93161617060CF5942E8B016C
S11312607C01C0E0D0E06B0181E0C81AD1085701CD
S1131270AC0CBD1C911007C0CC16DD0621F4C501D1
S11312800E940B0905C0C7018C0F9D1F0E94FB081B
S1131290803531F42196C017D10761F701C080E091
S11312A0DF91CF911F910F91FF90EF90DF90CF903E
S11312B0BF90AF909F9008950F931F93CF93DF93A8
S11312C0161617066CF48C01EC01060F171F899192
S11312D00E94B808883229F4C017D107C1F701C0A9
S11312E080E0DF91CF911F910F91089526E032E0C5
S11312F03093A10A2093A00ADC01CB01880F991F27
S1131300AA1FBB1F880F991FAA1FBB1F9C01AD01F9
S1131310220F331F441F551F220F331F441F551F15
S113132060E074E284EF90E00E94E71921503109F3
S11313303093C5002093C40086E08093C20088E106
S11313408093C1000895E0ECF0E0908195FFFDCF1B
S11313508093C6000895CF93C82F8A3019F48DE086
S11313600E94A3098C2F0E94A30980E090E0CF91F2
S1131370089514BE0FB6F894A89580916000886112
S113138080936000109260000FBEE1E6F0E080E818
S11313908083108278940E94CE0908951092710A75
S11313A080E29EE49093A9008093A800E1EAF0E033
S11313B088E08083808182608083E2E7F0E080813E
S11313C08260808308951F920F920FB60F921124AA
S11313D08F938091710A8F5F8093710A8F910F9020
S11313E00FBE0F901F901895E2E7FAE01482158261
S11313F01182108217A216A2E8E7FAE088E99AE0BF
S113140011921192E817F907D9F70E94F40A0E9481
S1131410740A0E941C0A0E94170A0895E82FF0E03B
S1131420EE0FFF1FE858F54F718360830895109203
S1131430DD051092DC0508951092DE051092670612
S11314401092F006109279071092020808950097FE
S113145041F0FC01E757FF4F88E0EB38F80718F03C
S113146015C0EEEDF5E08081882339F003C080815A
S1131470882319F08E2F9F2F0895E757FF4F88E098
S1131480EB38F807A0F380E090E0089580E090E066
S11314900895DC0119962C911997222351F017967F
S11314A0ED91FC9118972081211105C00E94170B22
S11314B0089580E0089580E00895BC01ECE9F8E027
S11314C02EEC38E040E051E09081992319F09150DE
S11314D09083452F3596E217F307B1F7442319F0AB
S11314E0CB010E941F0E0895ECE9F8E08EEC98E021
S11314F010823596E817F907D9F7EBE8F8E084E6A7
S113150090E0A0E0B0E086839783A087B18712863D
S11315108DE59AE09487838769E47AE080E00E940D
S11315200E0A0895EF92FF920F931F93CF937C01BD
S113153010E080E090E001E0C3E113C0FC012081F1
S1131540213179F4EC57FF4F208131812150310949
S113155031832083232B21F4FC01C083102F01C08D
S1131560102F0E94270A009749F7112319F0C70189
S11315700E941F0ECF911F910F91FF90EF9008953D
S1131580EF92FF920F931F93CF93DF937C0110E0B0
S113159080E090E001E0D7E1C0E116C0FC012081C9
S11315A0263191F4EC57FF4F2081318121503109CC
S11315B031832083232B39F4FC01D083ED57FF4F73
S11315C0C083102F01C0102F0E94270A009731F703
S11315D0112319F0C7010E941F0EDF91CF911F91B3
S11315E00F91FF90EF9008951092E5081092E4088F
S11315F0E7EDF8E082E390E0A0E0B0E08683978333
S1131600A087B187128680EC9AE094878387EAECFE
S1131610F8E08AE090E0A0E0B0E086839783A087BA
S1131620B187128682E99AE0948783870895CF93DD
S1131630DF93FC01C781D08581858330C9F480E0C4
S113164090E010C0FC012081263161F434852981A9
S1131650321308C027E120832A81EA57FF4F2083F1
S113166081E007C00E94270A009761F780E001C06B
S113167080E0DF91CF91089593E090934201E1E4FB
S1131680F1E090819F719830E1F780934201E1E4A9
S1131690F1E090819F719813FCCF0895E9E3F1E0A4
S11316A08081816080831092E7081092E60881E0CF
S11316B08093E80888E00E943C0B8BEE80935601EF
S11316C0ECE4F1E080818068808308950F931F9398
S11316D0CF93DF93EC01892B59F482EE92E09F9330
S11316E08F930E94D41C0F900F9080E090E06AC00A
S11316F00A851B859A899130A9F038F0923009F453
S113170048C0943009F454C05BC0D801ED91FC91F9
S11317100280F381E02DC801099581E08A8B80E085
S113172090E050C0D8011C96ED91FC911D97048067
S1131730F581E02DC80109958F3FBFEF9B0729F480
S113174084E08A8B80E090E03DC0009781F481E0E2
S11317508A8BD8011C96ED91FC911D970680F78128
S1131760E02D8A859B85099580E090E02BC022E0DE
S11317702A8B9D838C83998788878091670A9091AF
S1131780680A0E94870ECE010E94810C81E090E0DD
S113179019C081E08A8BD8011C96ED91FC911D97AC
S11317A00680F781E02DC801099580E090E00AC029
S11317B087EF92E00E94F11C1A8A80E090E002C058
S11317C080E090E0DF91CF911F910F9108950F93E6
S11317D01F93CF93DF93FC01C485D58506851785B8
S11317E0892B29F482EE92E00E94F11C35C0928983
S11317F0992319F0913021F02FC081E0828B2CC005
S1131800E881F9810680F781E02DCE0109950597DD
S113181081F486E193E00E94F11CEA81FB8102805D
S1131820F381E02DCE01099582E293E00E94F11C40
S113183013C0E881F9810680F781E02DCE01099576
S1131840049751F4D8011296ED91FC9113970280FC
S1131850F381E02DC801099580E090E0DF91CF91FC
S11318601F910F9108950F931F93CF93DF93E3E696
S1131870FAE0F093680AE093670AF383E283F18362
S1131880E083EBE6FAE0F093700AE0936F0AF383E7
S1131890E283F183E083C3E1D9E003E61AE0BE0109
S11318A080916F0A9091700A0E94510E6596C0173C
S11318B0D107A9F7DF91CF911F910F9108958091DE
S11318C0670A9091680A0E94480EFC01892B59F41A
S11318D085E393E00E94F11C8AE793E00E94F11CE7
S11318E080E49FE108958481958180342FE19207FB
S11318F03CF09C0120543F413583248380E49FE1E4
S11319000895CF93DF93DC01C091670AD091680AF0
S1131910EA81FB81CE17DF0709F13097C9F04481D2
S1131920558114962D913C9115972417350754F43D
S1131930421B530B55834483BD01808191810E94D6
S1131940510E15C0241B350B15963C932E931497FA
S11319500280F381E02DCE17DF07F9F6E091670AE4
S1131960F091680ABD01808191810E94510EDF913E
S1131970CF910895CF92DF92EF92FF920F931F932E
S1131980CF93DF936C017B018A01E90180916F0A97
S11319909091700A0E94870EFC01892BB1F0D582C8
S11319A0C482F782E6821186108613870287D18B60
S11319B0C08B81E0828B86E69BE0948B838BCF0186
S11319C00E94810C80E090E002C08FEF9FEFDF91D6
S11319D0CF911F910F91FF90EF90DF90CF900895DA
S11319E0CF92DF92EF92FF920F931F93CF93DF93E7
S11319F06C017B01EA01890180916F0A9091700A60
S1131A000E94870EFC01892BC1F0D582C482F78223
S1131A10E68211861086D587C487D787C687118B3F
S1131A20008B81E0828B87EE9BE0948B838BCF01CC
S1131A300E94810C80E090E002C08FEF9FEFDF9165
S1131A40CF911F910F91FF90EF90DF90CF90089569
S1131A50CF93DF938091670A9091680A0E94480EA1
S1131A60EC01892B39F481EC93E00E94F11C8FEF97
S1131A709FEF56C08A859B85892B49F48C859D856B
S1131A80892B29F48E859F85892B09F447C0EB891E
S1131A90FC89CE010995019769F40E945F0C892B9A
S1131AA011F40E94280D0E945F0C0E946F0880E0D0
S1131AB090E036C08091670A9091680A0E94870E70
S1131AC08E819F810097B1F028853985AC01421B36
S1131AD0530B9A015D834C83552334F4280F391F2B
S1131AE03323E4F33D832C8319861886CE010E94A8
S1131AF0810C07C0BE0180916F0A9091700A0E9408
S1131B00510E0E945F0C892B11F40E94280D0E9433
S1131B105F0C0E946F0880E090E002C08FEF9FEF9F
S1131B20DF91CF9108950E94B9090E94000E0E948E
S1131B304E0B0E94F40908950F931F93CF93DF93E4
S1131B40EC018091E9089091EA08009709F445C0F6
S1131B504E815F8168857985FC010281138124812E
S1131B603581401751076207730760F0DC0117C025
S1131B70028113812481358140175107620773075D
S1131B8068F403C0FC01A0E0B0E0041B150B260BB5
S1131B90370B02831383248335830AC0DF01401B80
S1131BA0510B620B730BED91FC911197309701F778
S1131BB04A835B836C837D83109741F08D919C9164
S1131BC0119799838883CD93DC9315C09983888377
S1131BD0D093EA08C093E9080EC0198218828E8156
S1131BE09F81A885B9858A839B83AC83BD83D09369
S1131BF0EA08C093E908DF91CF911F910F910895EE
S1131C001092EA081092E9080895E091E908F09129
S1131C10EA08309771F0E817F90721F40CC08E1721
S1131C209F0759F00190F081E02D3097C1F780E0D3
S1131C30089580E0089581E0089581E00895CF93A8
S1131C40DF93EC010E94050E811103C0CE010E94B6
S1131C509C0DDF91CF91089520E030E0382FC90129
S1131C60862B27E130E040E050E8BC01022E02C0A0
S1131C70769567950A94E2F760FF02C0842795275A
S1131C8056954795215031092730310571F708954C
S1131C90FC01828193818E179F0711F480E090E00C
S1131CA00895DC011296ED91FC9113977183608382
S1131CB0DB011396FC93EE931297FC01738362830A
S1131CC08D939C93CB010895FB01DC0112962D9119
S1131CD03C91139728173907A1F086179707A1F0AD
S1131CE0A081B1818281938113969C938E931297E4
S1131CF0A281B381808191818D939C93862F9F2FA4
S1131D00089580E090E0089580E090E00895FC015B
S1131D10628173816817790719F00E94640E08952F
S1131D2080E090E00895CF92DF92EF92FF920F93BC
S1131D301F93CF93DF936B017C01EA018B818F9317
S1131D408A818F9389818F9388818F930FE314E025
S1131D501F930F930E94D41C8C819D81AE81BF81FF
S1131D60BC01CD016C0D7D1D8E1D9F1D28EE33E041
S1131D7040E050E00E94091AC880D980EA80FB80C4
S1131D80C20ED31EE41EF51EC882D982EA82FB82EB
S1131D906C837D838E839F83FF92EF92DF92CF9239
S1131DA01F930F930E94D41C8DB79EB70C960FB649
S1131DB0F8949EBF0FBE8DBFDF91CF911F910F91FD
S1131DC0FF90EF90DF90CF9008952F923F924F9223
S1131DD05F926F927F928F929F92AF92BF92CF92B7
S1131DE0DF92EF92FF920F931F93CF93DF93CDB7C0
S1131DF0DEB761970FB6F894DEBF0FBECDBF8C017E
S1131E00DC014D905D906D907C900F2EFCE38F2E45
S1131E10912CA12CB12CF02DC301B201A501940188
S1131E200E94091A69017A01A4ECBFEF0E942B1ADF
S1131E309B01AC01240D351D461D571D29833A8392
S1131E404B835C83C701B601A50194010E94091A62
S1131E5049015A01A4ECBFEF0E942B1A9B01AC016B
S1131E602C0D3D1D4E1D5F1D2D833E834F835887D2
S1131E70C501B40128E130E040E050E00E94091AB5
S1131E80C22ED32EE42EF52EA8EEBFEF0E942B1AFD
S1131E909B01AC01280D391D4A1D5B1D29873A871A
S1131EA04B875C87812C912C5401689482F80F2E07
S1131EB0F2EB4F2EF7E05F2E612C712CF02D212CCC
S1131EC0312CD301C20183709927AA27BB27892B00
S1131ED08A2B8B2B09F0F3C0C301B20124E630E056
S1131EE040E050E00E94091A672B682B692B09F027
S1131EF0D9C0C301B20120E931E040E050E00E94C2
S1131F00091A672B682B692B09F4CCC0D8C08EE65C
S1131F1091E0A0E0B0E042E050E060E070E008C092
S1131F208DE691E0A22DB0E041E050E060E0732D39
S1131F30840E951EA61EB71EC81AD90AEA0AFB0A01
S1131F4037E083169104A104B1042CF047E0841A0D
S1131F509108A108B1085FEF451A550A650A750A88
S1131F60B0CFF80184A395A3A6A3B7A3BC01CD0168
S1131F70680D791D8A1D9B1D27E030E040E050E08C
S1131F800E94091A6D877E878F87988B2FE434E02F
S1131F9041E050E060E070E080E090E0DC01F901B5
S1131FA0480107C00196A11DB11D4F5F5F4F6F4FE0
S1131FB07F4FB82EA92E2A2EB98B0191813091051D
S1131FC0A105B10529F4332009F461C00F5F5FC096
S1131FD010E020E030E0C016D106E206F3067CF003
S1131FE0C01AD10AE20AF30AB42EA52E262E4C30CA
S1131FF0510561057105B4F28401272F02C08401E3
S1132000298989819A81AB81BC81F8018087918774
S1132010A287B3878D819E81AF81B8858487958798
S1132020A687B78789859A85AB85BC85808B918B7C
S1132030A28BB38BFFEFCF1ADF0AEF0AFF0AD80196
S11320405496CD92DD92ED92FC9257975896BC929D
S113205058975996AC9259975A962C925A975B96E0
S11320602C935B97F801448E558E668E778E2D8562
S11320703E854F85588990962D933D934D935C935F
S1132080939729C0C01AD10AE20AF30A8BCF10E051
S113209020E030E0C016D106E206F3069CF7840186
S11320A02989AFCFBEE6CB16B1E0DB06E104F1042B
S11320B00CF02DCFD701C6013324339452CFEDE673
S11320C0CE16E1E0DE06E104F1040CF029CFD701DD
S11320D0C601312C46CF61960FB6F894DEBF0FBE11
S11320E0CDBFDF91CF911F910F91FF90EF90DF90C3
S11320F0CF90BF90AF909F908F907F906F905F90A4
S11321004F903F902F900895FC01148215821682FF
S11321101782108211821282138208952CE132E018
S1132120FC0131832083089580E090E0089580E0ED
S113213090E0089584E090E0089524E132E0FC0109
S113214033832283089580E090E008950F931F93D2
S1132150CF93DF93EC010E811F811F930F938BE5C7
S113216094E09F938F930E94D41C8E819F8101964B
S11321709F838E8328E3209FC001219F900D11240B
S1132180288539850F900F900F900F90820F931F21
S1132190DF91CF911F910F9108953F924F925F92DB
S11321A06F927F928F929F92AF92BF92CF92DF9263
S11321B0EF92FF920F931F93CF93DF93CDB7DEB7C8
S11321C0E8970FB6F894DEBF0FBECDBF3C018BE796
S11321D094E00E94F11CF301868197811816190678
S11321E00CF08BC0812C912CA12CB12C0F2EF8E378
S11321F03F2EF02D0F2EF3E94F2EF4E05F2EF02D3D
S11322006E01F1E1CF0ED11C0F2EF8EAEF2EF4E0AF
S1132210FF2EF02DF30180859185880D991DFC0119
S1132220DE011196232D01900D922A95E1F7FC0110
S1132230238D2F93228D2F93218D2F93208D2F93D8
S1132240278D2F93268D2F93258D2F93248D2F93B8
S113225023A12F9322A12F9321A12F9320A12F9368
S113226027A12F9326A12F9325A12F9324A12F9348
S113227023A52F9322A52F9321A52F9320A52F9338
S113228027A52F9326A52F9325A52F9384A58F9358
S11322905F924F920E94D41C8E010F5F1F4F0FB6A6
S11322A0F894DEBF0FBECDBFF801808191812281F9
S11322B033810C5F1F4F3F932F939F938F93FF9214
S11322C0EF920E94D41C0F900F900F900F900F90DC
S11322D00F900C151D0541F78AE090E00E94EA1C5E
S11322E0FFEFAF1ABF0A88E3880E911CF3018681C1
S11322F09781A816B9060CF48DCFF30117821682C4
S113230080E090E0E8960FB6F894DEBF0FBECDBF34
S1132310DF91CF911F910F91FF90EF90DF90CF90BD
S1132320BF90AF909F908F907F906F905F904F90F1
S11323303F900895CF92DF92EF92FF92CF93DF9375
S11323407C018AE090E00E94811AEC01FD82EC821B
S11323508CE192E09983888384E192E09B838A8371
S113236088E493E00E94811A9987888740E050E0CE
S113237070E060E00F2EC12CFCE3DF2EFCE1EF2EB9
S1132380F6ECFF2EF02D2AC0E885F985E40FF51F41
S1132390C901880F991F880F991FE80FF91FC08280
S11323A0D182E282F382E885F985E40FF51F148A6D
S11323B0158A168A178AE885F985E40FF51F108AAD
S11323C0118A128A138A2F5F3F4F24303105E1F6B8
S11323D0485C5F4F483483E0580719F0272F362FA5
S11323E0D3CF1F821E82CE01DF91CF91FF90EF9059
S11323F0DF90CF9008952AE232E0FC0131832083FC
S1132400089580E090E0089580E090E0089585E0EC
S113241090E0089524E232E0FC013383228308959E
S113242080E090E00895CF93DF93EC018E819F814B
S1132430892B21F48FEA94E00E94F11C8E819F8104
S1132440DC011296ED91FC9113970680F781E02D43
S113245009959093B3058093B205892B09F444C080
S11324608091D6059091D705A091D805B091D90552
S1132470BC01CD01882799274BEE58E00E94930EAA
S11324808091B2059091B3054091EB085091EC080E
S11324906091ED087091EE08FC01408B518B628BCA
S11324A0738B40960E94E50EE091B205F091B3055E
S11324B083898F9382898F9381898F9380898F9366
S11324C081EC94E09F938F930E94D41C1092D605C4
S11324D01092D7051092D8051092D9050F900F903D
S11324E00F900F900F900F9080E090E0DF91CF91CC
S11324F008950F931F93CF93DF938C01EB0188E032
S113250090E00E94811AFC0115830483D783C6835B
S11325108AE292E09183808384E292E093838283CF
S1132520CF01DF91CF911F910F9108952AE332E0FB
S1132530FC0135872487089580E090E0089522E324
S113254032E0FC0131832083089580E090E0089517
S113255083E090E0089582ED94E00E94F11C80E015
S113256090E008958FED94E00E94F11C80E090E0EB
S11325700895CF93DF9382EF94E00E94F11C0E94B0
S1132580ED02C82FD0E01F928F9381E095E09F93D6
S11325908F930E94D41C0F900F900F900F90209750
S11325A019F0CE01019602C080E090E0DF91CF9156
S11325B00895CF93DF93CDB7DEB728970FB6F8947D
S11325C0DEBF0FBECDBF82E195E00E94F11CBE01CB
S11325D06B5F7F4FCE0101960E94360688858F93EC
S11325E08F818F938E818F938D818F938C818F9325
S11325F08B818F938A818F9389818F9381E295E078
S11326009F938F930E94D41CE091B205F091B3057F
S113261089819A81AB81BC8180839183A283B383B6
S1132620E091B205F091B3058D819E81AF81B885AB
S113263084839583A683B7830FB6F894DEBF0FBE59
S1132640CDBF80E090E028960FB6F894DEBF0FBEB1
S1132650CDBFDF91CF910895EF92FF920F931F9317
S1132660CF93DF937C018B018EE090E00E94811A6E
S1132670EC0182E392E0998388838AE392E09D8768
S11326808C87FB82EA821F830E838091690A909172
S11326906A0A9D838C83B801680F791F70936A0A54
S11326A06093690A7F936F9387E495E09F938F9378
S11326B00E94D41C0F900F900F900F90CE01DF91C9
S11326C0CF911F910F91FF90EF9008952CE432E089
S11326D0FC0135872487089580E090E0089580E028
S11326E090E0089524E432E0FC01318320830895CE
S11326F080E090E0089583E090E008958BE595E014
S11327000E94F11C80E090E00895CF93DF93EC01E8
S11327108EE695E00E94F11C63E0CE010E960E94C5
S1132720CC0663E0CE0141960E947C0680E090E0F6
S1132730DF91CF910895CF92DF92EF92FF920F93A2
S11327401F93CF93DF93EC018DE795E00E94F11C7A
S1132750CE010E960E94FE06C62ED72EE82EF92E26
S1132760CE0141960E94AE06062F172FD82FC92FEF
S11327709F938F937F936F93FF92EF92DF92CF9209
S11327808CE895E09F938F930E94D41CE091B2054E
S1132790F091B3054C2D5D2D6E2D7F2D4087518713
S11327A062877387802F912FAD2FBC2F84879587E5
S11327B0A687B7878DB79EB70A960FB6F8949EBFC3
S11327C00FBE8DBF80E090E0DF91CF911F910F91FC
S11327D0FF90EF90DF90CF900895EF92FF920F93C8
S11327E01F93CF93DF937C018B0184E190E00E94DF
S11327F0811AEC0184E492E0998388838CE492E06A
S11328009D878C87FB82EA821F830E838091690AED
S113281090916A0A9D838C83B801680F791F709325
S11328206A0A6093690A7F936F9387E495E09F93A4
S11328308F930E94D41C1E86198A1F861A8A188AAE
S11328401B8A0F900F900F900F90CE01DF91CF91C4
S11328501F910F91FF90EF9008955058BB27AA271E
S11328600E9445140C94BF150E94B11538F00E94C3
S1132870B81520F039F49F3F19F426F40C94AE15E2
S11328800EF4E095E7FB0C94A815E92F0E94D015EF
S113289058F3BA17620773078407950720F079F491
S11328A0A6F50C94F2150EF4E0950B2EBA2FA02D7C
S11328B00B01B90190010C01CA01A0011124FF27E9
S11328C0591B99F0593F50F4503E68F11A16F040E4
S11328D0A22F232F342F4427585FF3CF46953795E3
S11328E02795A795F0405395C9F77EF41F16BA0BA8
S11328F0620B730B840BBAF09150A1F0FF0FBB1F56
S1132900661F771F881FC2F70EC0BA0F621F731F9E
S1132910841F48F4879577956795B795F7959E3FFB
S113292008F0B0CF9395880F08F09927EE0F97958C
S1132930879508950E94841508F481E008950E9403
S1132940B3140C94BF150E94B81558F00E94B11529
S113295040F029F45F3F29F00C94A81551110C9410
S1132960F3150C94AE150E94D01568F39923B1F3B6
S1132970552391F3951B550BBB27AA2762177307A1
S1132980840738F09F5F5F4F220F331F441FAA1F35
S1132990A9F335D00E2E3AF0E0E832D091505040F1
S11329A0E695001CCAF72BD0FE2F29D0660F771F9F
S11329B0881FBB1F261737074807AB07B0E809F085
S11329C0BB0B802DBF01FF2793585F4F3AF09E3F0A
S11329D0510578F00C94A8150C94F3155F3FE4F3BB
S11329E0983ED4F3869577956795B795F7959F5F4D
S11329F0C9F7880F911D9695879597F90895E1E099
S1132A00660F771F881FBB1F621773078407BA07F7
S1132A1020F0621B730B840BBA0BEE1F88F7E09552
S1132A2008950E9418156894B1110C94F315089533
S1132A300E94D81588F09F5798F0B92F9927B7515D
S1132A40B0F0E1F0660F771F881F991F1AF0BA954E
S1132A50C9F714C0B13091F00E94F215B1E00895A5
S1132A600C94F215672F782F8827B85F39F0B93F97
S1132A70CCF3869577956795B395D9F73EF4909501
S1132A808095709561957F4F8F4F9F4F0895E8947F
S1132A9009C097FB3EF490958095709561957F4FA2
S1132AA08F4F9F4F9923A9F0F92F96E9BB27939550
S1132AB0F695879577956795B795F111F8CFFAF460
S1132AC0BB0F11F460FF1BC06F5F7F4F8F4F9F4F91
S1132AD016C0882311F096E911C0772321F09EE8EF
S1132AE0872F762F05C0662371F096E8862F70E055
S1132AF060E02AF09A95660F771F881FDAF7880F2F
S1132B009695879597F90895990F0008550FAA0B84
S1132B10E0E8FEEF16161706E807F907C0F01216EC
S1132B201306E407F50798F0621B730B840B950BEF
S1132B3039F40A2661F0232B242B252B21F4089544
S1132B400A2609F4A140A6958FEF811D811D0895E1
S1132B5097F99F6780E870E060E008959FEF80EC4C
S1132B60089500240A9416161706180609060895EF
S1132B7000240A9412161306140605060895092E55
S1132B800394000C11F4882352F0BB0F40F4BF2BC4
S1132B9011F460FF04C06F5F7F4F8F4F9F4F089504
S1132BA057FD9058440F551F59F05F3F71F04795FA
S1132BB0880F97FB991F61F09F3F79F087950895DF
S1132BC0121613061406551FF2CF4695F1DF08C0FE
S1132BD0161617061806991FF1CF8695710561051B
S1132BE008940895E894BB2766277727CB0197F9C3
S1132BF008950E94841508F48FEF08950E94111619
S1132C000C94BF150E94B11538F00E94B81520F03D
S1132C10952311F00C94A8150C94AE1511240C9462
S1132C20F3150E94D01570F3959FC1F3950F50E0F2
S1132C30551F629FF001729FBB27F00DB11D639F6A
S1132C40AA27F00DB11DAA1F649F6627B00DA11D10
S1132C50661F829F2227B00DA11D621F739FB00DB6
S1132C60A11D621F839FA00D611D221F749F332726
S1132C70A00D611D231F849F600D211D822F762FBF
S1132C806A2F11249F5750409AF0F1F088234AF09C
S1132C90EE0FFF1FBB1F661F771F881F9150504008
S1132CA0A9F79E3F510580F00C94A8150C94F315D8
S1132CB05F3FE4F3983ED4F3869577956795B7958F
S1132CC0F795E7959F5FC1F7FE2B880F911D9695A9
S1132CD0879597F90895A3E1B0E0E1E7F6E10C9454
S1132CE0301A6C014B012A01FC0117821682838180
S1132CF081FF43C3AE014F5F5F4F3A01F6019381F9
S1132D00F40193FD859193FF81914F01882309F488
S1132D1030C3853239F493FD859193FF81914F013E
S1132D20853239F4B60190E00E949C1C52012501C1
S1132D30E5CF10E0F12C20E02032A0F48B3269F0D2
S1132D4030F4803259F0833269F420612CC08D3222
S1132D5039F0803339F4216026C02260246023C016
S1132D60286021C027FD27C030ED380F3A3078F4B1
S1132D7026FF06C0FAE01F9F300D1124132F13C045
S1132D804AE0F49E300D1124F32E20620CC08E32E2
S1132D9021F426FDEEC2206406C08C3611F42068AE
S1132DA002C0883641F4F40193FD859193FF81912B
S1132DB04F018111C1CF9BEB980F933018F4206120
S1132DC0805E06C09BE9980F933008F071C12F7E96
S1132DD026FF16E02F73322E853619F42064322E26
S1132DE008C0863621F4F22FF0683F2E02C011117C
S1132DF0115037FE07C01C3350F4EE24E394E10E67
S1132E0027E00BC0183038F027E017E005C027E0B2
S1132E104CE3E42E02C0212FE12C520144E0A40E25
S1132E20B11CF20160817181828193810E2DA30115
S1132E300E94AE1B2C01098100FF02C003FF07C0E2
S1132E4031FC08C032FE09C030E2232E07C02DE257
S1132E50222E04C09BE2292E01C0212C802F8C70CD
S1132E6019F0211068C2A8C237FE0FC0E40C04FF99
S1132E7004C08A81813309F4EA941E1474F5F8E0DD
S1132E80FE1578F588E0E82E2CC036FC2AC0812F88
S1132E9090E0841595059CF02CEF42162FEF520616
S1132EA074F0432D4068342E0AC0E2E0F0E0EC0FE9
S1132EB0FD1FE10FF11D8081803319F411501111B0
S1132EC0F4CF37FE0EC0EE24E394E10E812F90E0A0
S1132ED0481659062CF4141904C0EE24E39401C0D6
S1132EE010E037FE06C01414150434F4C201019630
S1132EF005C085E090E002C081E090E021100196D9
S1132F00112331F0212F30E02F5F3F4F820F931FA9
S1132F102F2D30E08217930714F4F81A01C0F12C16
S1132F20832D897049F4FF2039F0B60180E290E0E6
S1132F300E949C1CFA94F7CF222029F0B601822D1E
S1132F4090E00E949C1C33FC09C0FF2039F0B601BC
S1132F5080E390E00E949C1CFA94F7CF37FE5AC09D
S1132F60942D852D57FE02C090E080E0292E382E46
S1132F7020E030E0A2014E1951095D874C87A2017F
S1132F80421953095F874E87612F70E04427552704
S1132F90461B570B598B488B5FEF2516350649F4B2
S1132FA0B6018EE290E02A8B3B8B0E949C1C3B89ED
S1132FB02A89421453046CF04C855D8542155305EF
S1132FC044F4EE85FF85E20FF31FE60DF71D8181C2
S1132FD001C080E351E0251A31082F5F3F4F488933
S1132FE05989241635064CF0B60190E02A8B3B8BA8
S1132FF00E949C1C2A893B89CFCF2414350439F4C0
S11330009A81963318F4953311F404FF81E3B601E1
S113301090E04BC08A81813309F00F7EB60190E0C5
S11330200E949C1C111105C034FC18C085E690E078
S113303017C0B6018EE290E00E949C1C82E0EE2450
S1133040E394E80EF301E80FF11D8081B60190E0EE
S11330500E949C1C11508E2D91F7E6CF85E490E0E0
S1133060B6010E949C1C57FC05C04114510439F45C
S113307004FF05C05194419451088DE201C08BE2D4
S1133080B60190E00E949C1C80E39AE0491651042A
S11330902CF08F5F5AE0451A5108F7CFB60190E043
S11330A00E949C1CB601C201C0960E949C1C57C180
S11330B0833631F0833779F0833509F058C021C065
S11330C05201E2E0AE0EB11CF2018081898301E07D
S11330D010E0230114C05201F2E0AF0EB11CF20162
S11330E04080518026FF03C0612F70E002C06FEF63
S11330F07FEFC2012A8B0E94911C8C012A892F77B1
S113310015C05201F2E0AF0EB11CF20140805180B3
S113311026FF03C0612F70E002C06FEF7FEFC20192
S11331202A8B0E94861C8C012A892068322E23FD5A
S11331301AC08F2D90E008171907A8F4B60180E291
S113314090E00E949C1CFA94F4CFF20137FC859124
S113315037FE81912F01B60190E00E949C1CF11072
S1133160FA94015011090115110579F7F8C0843654
S113317011F0893659F5520127FF09C0F4E0AF0E6A
S1133180B11CF20160817181828193810AC0F2E0F5
S1133190AF0EB11CF20160817181072E000C880B07
S11331A0990B2F76322E97FF09C0909580957095D4
S11331B061957F4F8F4F9F4F2068322E2AE030E079
S11331C0A3010E94211DE82EE6183FC0022F853777
S11331D021F40F7E2AE030E01DC0097F8F3691F084
S11331E018F4883559F0C5C0803719F0883711F0C4
S11331F0C0C0006104FF09C0046007C024FF08C008
S1133200066006C028E030E005C020E130E002C0DE
S113321020E132E0520107FF09C0F4E0AF0EB11C17
S1133220F201608171818281938108C0F2E0AF0E66
S1133230B11CF2016081718180E090E0A3010E94E1
S1133240211DE82EE6180F77302E36FE0BC0332DE5
S11332503E7FE11650F434FE0AC032FC08C0332D20
S11332603E7E05C00E2D332D03C00E2D01C0012F4F
S113327034FF0CC0FE01EE0DF11D8081803311F48A
S1133280397E08C032FF05C00E5F04C0832F8678E4
S113329009F00F5F33FD13C030FF06C01E2D0F155C
S11332A018F41F0D101B0F2D0F1568F4B60180E2E2
S11332B090E03B8B0E949C1C0F5F3B89F5CF0F1560
S11332C010F4F01A01C0F12C34FF12C0B60180E3EF
S11332D090E03B8B0E949C1C3B8932FF17C031FD60
S11332E003C088E790E002C088E590E0B6010CC016
S11332F0832F867859F031FF02C08BE201C080E24F
S113330037FD8DE2B60190E00E949C1CE11638F472
S1133310B60180E390E00E949C1C1150F7CFEA9420
S1133320F301EE0DF11D8081B60190E00E949C1C1A
S1133330E110F5CF14C0F4E0FF1558F584E0F81A55
S113334033FE1EC0211026C003FF2AC004E311E08F
S1133350F32DF0713F2EF8018491811124C0FF20D8
S113336009F4E5CCB60180E290E00E949C1CFA943A
S1133370F6CFF6018681978126C08FEF9FEF23C099
S1133380B60180E290E00E949C1CFA94F110F8CF00
S1133390D9CFF12CB601822D90E00E949C1CD4CF91
S11333A008E311E0D5CF31108052B60190E00E94BD
S11333B09C1C0F5F1F4FCFCF23E02F1510F483E029
S11333C0BECFF12CC1CF6396E2E10C944C1AA1E27A
S11333D01A2EAA1BBB1BFD010DC0AA1FBB1FEE1F8B
S11333E0FF1FA217B307E407F50720F0A21BB30BD6
S11333F0E40BF50B661F771F881F991F1A9469F752
S113340060957095809590959B01AC01BD01CF01AD
S11334100895052E97FB1EF400940E94201A57FD70
S113342007D00E94E71907FC03D04EF40C94201A2D
S113343050954095309521953F4F4F4F5F4F0895DC
S113344090958095709561957F4F8F4F9F4F08950C
S1133450B7FF0C94671A0E94671A821B930B089596
S11334602F923F924F925F926F927F928F929F9290
S1133470AF92BF92CF92DF92EF92FF920F931F937E
S1133480CF93DF93CDB7DEB7CA1BDB0B0FB6F8942F
S1133490DEBF0FBECDBF09942A88398848885F846F
S11334A06E847D848C849B84AA84B984C884DF80E0
S11334B0EE80FD800C811B81AA81B981CE0FD11DC4
S11334C00FB6F894DEBF0FBECDBFED0108950E9484
S11334D0721AA59F900DB49F900DA49F800D911D0D
S11334E011240895A29FB001B39FC001A39F700D42
S11334F0811D1124911DB29F700D811D1124911DF8
S11335000895CF93DF938230910510F482E090E028
S1133510E0919C0AF0919D0A20E030E0C0E0D0E008
S1133520309711F14081518148175907C0F048176D
S1133530590761F482819381209719F09B838A83D0
S11335402BC090939D0A80939C0A26C021153105B7
S113355019F04217530718F49A01BE01DF01EF0175
S11335600280F381E02DDCCF2115310509F1281B00
S1133570390B2430310590F412968D919C91139758
S11335806115710521F0FB019383828304C090933C
S11335909D0A80939C0AFD01329644C0FD01E20F0E
S11335A0F31F81939193225031092D933C933AC098
S11335B020919A0A30919B0A232B41F42091020214
S11335C03091030230939B0A20939A0A20910002BF
S11335D0309101022115310541F42DB73EB74091D8
S11335E0040250910502241B350BE0919A0AF091D4
S11335F09B0AE217F307A0F42E1B3F0B2817390789
S113360078F0AC014E5F5F4F2417350748F04E0F3A
S11336105F1F50939B0A40939A0A8193919302C02F
S1133620E0E0F0E0CF01DF91CF9108950F931F9375
S1133630CF93DF93009709F48CC0FC013297138277
S1133640128200919C0A10919D0A0115110581F4C2
S113365020813181820F931F20919A0A30919B0A15
S11336602817390779F5F0939B0AE0939A0A71C0F9
S1133670D80140E050E0AE17BF0750F412962D91E8
S11336803C911397AD012115310509F1D901F3CF0F
S11336909D01DA013383228360817181860F971F34
S11336A08217930769F4EC0128813981260F371FAB
S11336B02E5F3F4F318320838A819B819383828352
S11336C0452B29F4F0939D0AE0939C0A42C013967B
S11336D0FC93EE931297ED01499159919E01240FA9
S11336E0351FE217F30771F480819181840F951FD0
S11336F0029611969C938E938281938113969C9348
S11337008E931297E0E0F0E0D80112968D919C918F
S11337101397009719F0F8018C01F6CF8D919C91C5
S113372098012E5F3F4F820F931F20919A0A309188
S11337309B0A2817390769F4309729F410929D0AD7
S113374010929C0A02C01382128210939B0A009367
S11337509A0ADF91CF911F910F910895283008F0B4
S113376027E03327DA01990F311D87FD9160009618
S11337706105710539F432602E5F3D9330E32A957B
S1133780E1F708959F3F30F080387105610509F035
S11337903C5F3C5F3D93913008F08068911DDF935E
S11337A0CF931F930F93FF92EF92192F987F9695C3
S11337B0E92F96959695E90FFF27EA56FE4F99272C
S11337C03327EE24FF24A701E7010590089407940A
S11337D028F4360FE71EF81E491F511D660F771F88
S11337E0881F991F0694A1F70590079428F4E70E03
S11337F0F81E491F561FC11D770F881F991F661F8A
S11338000694A1F70590079428F4F80E491F561F53
S1133810C71FD11D880F991F661F771F0694A1F734
S11338200590079420F4490F561FC71FD81F990FFE
S1133830661F771F881F0694A9F784911095177047
S113384041F0D695C79557954795F794E7941A95FF
S1133850C1F7ECE3F1E06894159015913591659109
S1133860959105907FE27395E118F10A430B560B8D
S1133870C90BD009C0F7E10CF11E431F561FC91F25
S1133880D01D7EF4703311F48A95E6CFE89401508C
S113389030F0080F0AF40027021708F4202F2395AC
S11338A0022F7A3328F079E37D932A95E9F710C043
S11338B07D932A9589F6069497956795379517957C
S11338C01794E118F10A430B560BC90BD00998F071
S11338D023957E9173957A3308F070E37C932013DB
S11338E0B8F77E9170617D9330F0839571E37D9399
S11338F070E32A95E1F71124EF90FF900F911F9147
S1133900CF91DF91992787FD90950895FC0105904B
S1133910615070400110D8F7809590958E0F9F1FCD
S11339200895FC016150704001900110D8F7809512
S113393090958E0F9F1F08950F931F93CF93DF933E
S1133940FB01238121FD03C08FEF9FEF28C022FFDD
S113395016C046815781248135814217530744F4A8
S1133960A081B1819D012F5F3F4F318320838C93D0
S1133970268137812F5F3F4F3783268310C0EB01A9
S1133980092F182F0084F185E02D0995892BE1F684
S11339908E819F8101969F838E83812F902FDF914B
S11339A0CF911F910F910895A0E0B0E0EAEDFCE102
S11339B00C94401AAE014B5F5F4FFA016191719113
S11339C0AF018091A00A9091A10A0E946B16E2E0D7
S11339D00C945C1A6091A00A7091A10A0E949C1C2C
S11339E008950F931F93CF93DF93E091A00AF09172
S11339F0A10A238121FF1BC08C01D0E0C0E0F801A3
S1133A0081918F016091A00A7091A10ADB0118963F
S1133A10ED91FC911997882331F00995892B79F35D
S1133A20DFEFCFEFECCF8AE00995892B19F08FEF08
S1133A309FEF02C08D2F9C2FDF91CF911F910F918B
S1133A400895FA01AA27283051F1203181F1E89430
S1133A506F936E7F6E5F7F4F8F4F9F4FAF4FB1E07D
S1133A603ED0B4E03CD0670F781F891F9A1FA11D78
S1133A70680F791F8A1F911DA11D6A0F711D811D79
S1133A80911DA11D20D009F468943F912AE0269F3E
S1133A9011243019305D3193DEF6CF010895462F9D
S1133AA04770405D4193B3E00FD0C9F7F6CF462F7E
S1133AB04F70405D4A3318F0495D31FD40524193E7
S1133AC002D0A9F7EACFB4E0A695979587957795A4
S1133AD06795BA95C9F700976105710508959B012B
S1133AE0AC010A2E06945795479537952795BA95B4
S1133AF0C9F7620F731F841F951FA01D0895F894C2
S1053B00FFCFF1
S1133B020000A40A20000000000200000000AB092B
S1133B12000000009D10CD10A310A6108E1094106A
S1133B2297109A100A1213121012FB1101120412A6
S1133B3207129F12B212A512A81296129C12B9125F
S1133B42D912AB1272137E1378137B1366136C13A0
S1133B5285139B136F13424D5032383020537461D6
S1133B627475732025690A00696E697420646F6E26
S1133B726521000A543A202569202C2569202C2528
S1133B826920503A202569202C2569202C2569209A
S1133B922C2569202C2569202C2569202C256920B7
S1133BA22C2531202C2569200A0054696D65737413
S1133BB2616D70203A20256C640A0054696D657247
S1133BC22065786365656473206D6178007365743C
S1133BD22074696D657220676170203D2025640A36
S1133BE20A004E756C6C204576656E7420457272BF
S1133BF26F722021212100536F6D657468696E67AD
S1133C02207265616C6C792077726F6E67206861CF
S1133C127070656E73004C6F6164204465766963ED
S1133C2265004C6F6164204465766963652046696A
S1133C326E697368007765206D6179206765742009
S1133C42736F6D65206D656D6F7279206C65616B44
S1133C526167652069737375652C206F7220736FB9
S1133C626D657468696E67207265616C6C79206237
S1133C726164206F636375727300736F20776520CC
S1133C8261726520676F696E6720746F2074616B5F
S1133C926520736F6D65207265616C6C7920736C3D
S1133CA26565702C2073696E6365206E6F2065767E
S1133CB2656E7420696E207363686564756C6572E1
S1133CC200657272000A0A0A3D3D3D3D3D3D3D3D9F
S1133CD23D3D3D3D3D3D3D3D3D0A656E7465722071
S1133CE266756E6374696F6E0A3D3D3D3D3D3D3DB3
S1133CF23D3D3D3D3D3D3D3D3D0074696D656F7506
S1133D02742025640A004E554C4C21003D3D3D3D36
S1133D123D3D3D3D3D3D3D3D3D3D3D3D3D0A65789D
S1133D2269742066756E6374696F6E0A3D3D3D3D2C
S1133D323D3D3D3D3D3D3D3D3D3D3D3D0A0A007419
S1133D42696D6520646562756720256C640A001FCD
S1133D521C1F1E1F1E1F1F1E1F1E1F457865637515
S1133D62747265206765742073746F72652044658C
S1133D7276696365203A2025640A0045786563758F
S1133D827472652053746F72616765204465766945
S1133D926365002532642532642532642025326449
S1133DA2253264253264090025332E336620004E01
S1133DB2554C4C2073746F72652064657669636533
S1133DC20074696D652064656275673320256C64CF
S1133DD20A00424D503238305F4572726F720042AF
S1133DE24D503238302053656E736F7220496E69BC
S1133DF27400424D503238302052657175657374C7
S1133E0200095761697420666F72202564206D73FE
S1133E120A00424D5032383020436F6C6C65637433
S1133E22000954656D7065726174757265203D2078
S1133E32252E33660A095072657373757265203DC7
S1133E4220252E33660A0053656E736F72446174C3
S1133E5261436F756E742025640A005369373032EA
S1133E62302053656E736F7220496E697400536912
S1133E72373032305F526571756573740053693738
S1133E823032305F436F6C6C656374000954656D46
S1133E927065726174757265203D20252E33660A41
S1133EA20948756D696C697479203D20252E336645
S1053EB20A0000
S9030000FC
