S00D000041544D4F532E7372656393
S11300000C941B010C9438010C9438010C943801A5
S11300100C9438010C9438010C9438010C94380178
S11300200C9438010C9438010C9438010C94380168
S11300300C9438010C94DF030C9438010C943801AF
S11300400C9438010C9438010C9438010C94380148
S11300500C9438010C9438010C9438010C94380138
S11300600C9438010C9438010C9438010C94380128
S11300700C9438010C9438010C9438010C94380118
S11300800C9438010C9438010C9438010C94380108
S11300900C9438010C9438010C9438010C943801F8
S11300A00C9438010C9438010C94DC050C94380140
S11300B00C9438010C9438010C9438010C943801D8
S11300C00C9438010C9438010C9438010C943801C8
S11300D00C9438010C9438010C9438010C943801B8
S11300E00C9438010C9438010C9438010C943801A8
S11300F00C9438010C9438010C9438010C94380198
S11301000C9438010C9438010C9438010C94380187
S11301100C9438010C9438010C9438010C94380177
S11301200C9438010C9438010C9438010C94380167
S11301300C9438016E616E00696E660000407A109E
S1130140F35A00A0724E18090010A5D4E80000E884
S11301507648170000E40B54020000CA9A3B0000E2
S113016000E1F505000080969800000040420F0071
S11301700000A08601000000102700000000E80332
S1130180000000006400000000000A0000000000FD
S11301900100000000002C76D888DC674F0823DFBC
S11301A0C1DFAE59E1B1B796E5E3E453C63AE6518F
S11301B0997696E8E6C28426EB898C9B62ED407CB6
S11301C06FFCEFBC9C9F40F2BAA56FA5F490055A52
S11301D02AF75C936B6CF9676DC11BFCE0E40D4777
S11301E0FEF520E6B500D0ED902E0300943577059A
S11301F00080841E080000204E0A000000C80C3352
S11302003333330F986E12831141EF8D2114893BE0
S1130210E65516CFFEE6DB18D1844B381BF77C1D60
S1130220901DA4BBE424203284725E228100C9F1B3
S113023024ECA1E53D2711241FBECFEFD1E2DEBFA0
S1130240CDBF13E0A0E0B2E0E8E8FEE102C0059013
S11302500D92AE34B107D9F728E0AEE4B3E001C0A3
S11302601D92AB34B207E1F70E943A010C94420F9D
S11302700C9400000E94A1070E94D0020E94D402A4
S113028060E875E280E090E00E949C03249A6B9AF7
S1130290739A60E177E280E090E00E94DA020E94C3
S11302A0C4020E94C0020E94BC020E94D6011F9296
S11302B08F9380E292E09F938F930E94A30E84E039
S11302C090E00E94B6020E94D6020E9457048FEF6B
S11302D093E00E949407EC010E947A070E9418049C
S11302E082E392E00E94B70E20E030E0AE0164E0C9
S11302F070E081E090E00E94D6040E9487040E948E
S1130300240478940F900F900F900F90FFCF1F93B9
S1130310CF93DF93EC01162F86E70E9406038881B2
S11303200E94F80286E70E94230380934E038034E0
S113033081F4612F70E040E0CE010E946003887F69
S1130340883549F40E945B0391E0811105C090E077
S113035003C090E001C090E0892FDF91CF911F91FD
S113036008950F931F93CF93DF9300D0CDB7DEB7DB
S11303708B01898362E0CE0101960E948701882364
S113038059F08A8190E0982F88272981822BF801DF
S11303909183808381E003C0F801118210820F9061
S11303A00F90DF91CF911F910F910895CF93DF9319
S11303B000D0CDB7DEB788E8898362E0CE0101962C
S11303C00E948701882399F08A8190E0982F8827DA
S11303D02981822B909352038093510367E673E043
S11303E08AE80E94B101882309F4BBC005C01092B9
S11303F0520310925103B5C065E673E08CE80E9485
S1130400B101882309F4ADC08EE8898362E0CE018E
S113041001960E948701882399F08A8190E0982FA1
S113042088272981822B909354038093530363E696
S113043073E080E90E94B101882309F492C005C0E9
S113044010925403109253038CC061E673E082E966
S11304500E94B101882309F484C06FE573E084E944
S11304600E94B101882309F47CC06DE573E086E93C
S11304700E94B101882309F474C06BE573E088E934
S11304800E94B101882309F46CC069E573E08AE92C
S11304900E94B101882309F464C067E573E08CE924
S11304A00E94B101882309F45CC065E573E08EE91C
S11304B00E94B101882309F454C0809156038F939C
S11304C0809155038F93809158038F9380915703A4
S11304D08F9380915A038F93809159038F938091C6
S11304E05C038F9380915B038F9380915E038F9362
S11304F080915D038F93809160038F9380915F035C
S11305008F93809162038F93809161038F93809185
S113051064038F93809163038F93809154038F932B
S1130520809153038F93809166038F938091650329
S11305308F93809168038F93809167038F93809149
S113054052038F93809151038F938DE392E09F9395
S11305508F930E94A30E0FB6F894DEBF0FBECDBFDB
S113056081E00F900F90DF91CF9108959093500305
S113057080934F0381E0089580E008952D9A0895B3
S1130580259A0E94BE02089584E880937A0085EC3F
S113059080937700EBE7F0E080818823ECF70895FF
S11305A08AB1806C8AB908955F9A0895239A80E489
S11305B08CBD08959B01AC011092B90060E074E217
S11305C084EF90E00E94030CDA01C9014097A1096D
S11305D0B109689412F8B695A795979587951694DE
S11305E0D1F78093B80084E08093BC0081E0089543
S11305F08093BB0084E88093BC00ECEBF0E0808146
S11306008823ECF78091B900887F089594EE909345
S1130610BC00ECEBF0E090819923ECF7EFE9FFE00C
S11306203197F1F700C000009091B900987F98309D
S113063031F0903121F08091B900887F0895880FBE
S11306400E94F802089594EE9093BC00ECEBF0E065
S113065090819923ECF79091B900987F983031F00C
S1130660903121F08091B900887F0895880F8160CE
S11306700E94F802089524EC2093BC00ECEBF0E017
S113068020812223ECF72091BB00FC012083809180
S1130690B900887F089524E82093BC00ECEBF0E0D7
S11306A020812223ECF72091BB00FC012083809160
S11306B0B900887F089584E98093BC0081E008959F
S11306C09F92AF92BF92CF92DF92EF92FF920F93DD
S11306D01F93CF93DF937C018B01942E161617067C
S11306E0F4F4C0E0D0E06B0181E0C81AD1085701EE
S11306F0AC0CBD1C911007C0CC16DD0621F4C5015D
S11307000E944B0305C0C7018C0F9D1F0E943B0331
S1130710803531F42196C017D10761F701C080E01C
S1130720DF91CF911F910F91FF90EF90DF90CF90C9
S1130730BF90AF909F90089526E032E03093480830
S113074020934708DC01CB01880F991FAA1FBB1F08
S1130750880F991FAA1FBB1F9C01AD01220F331FD5
S1130760441F551F220F331F441F551F60E074E2BE
S113077084EF90E00E94030C215031093093C500AE
S11307802093C40086E08093C20088E18093C10076
S11307900895E0ECF0E0908195FFFDCF8093C600D2
S11307A00895CF93C82F8A3019F48DE00E94C903AD
S11307B08C2F0E94C90380E090E0CF9108951F928E
S11307C00F920FB60F9211242F933F934F935F9381
S11307D06F937F938F939F93AF93BF93EF93FF9305
S11307E08091690390916A03019690936A038093C0
S11307F069039F938F9384E792E09F938F930E9462
S1130800A30E0E946E050F900F900F900F90FF9112
S1130810EF91BF91AF919F918F917F916F915F9174
S11308204F913F912F910F900FBE0F901F901895ED
S1130830E6EBF0E080818062808382E48093B00004
S113084087E08093B1000895880F880F880F809304
S1130850B300E6EBF0E080818F71E9F787E087BBB6
S113086082E0809370000895CF93DF93C82FD92F2F
S11308709F938F9321E832E03F932F930E94A30E1E
S11308800F900F900F900F902091690330916A039D
S1130890232B29F48C2F9D2F0E94240405C0CC0FF8
S11308A0CC0FCC0FC093B300DF91CF9108950F9379
S11308B01F93CF93DF93E8E9F7E0F093A007E09369
S11308C09F07F0939B07E0939A07F183E083E2E1AB
S11308D0F8E0F0931708E0931608F0931508E093F6
S11308E01408F183E083CEE7D6E00EE817E0BE01FA
S11308F080911608909117080E9446086196C017C7
S1130900D107A9F7DF91CF911F910F91089580919D
S11309109F079091A0070E943A08009759F0FC01A4
S1130920248135812530310514F024E030E0822F14
S1130930932F089584E090E00895CF93DF93DC0132
S1130940C0919F07D091A007EA81FB81CE17DF07F2
S113095009F13097C9F04481558114962D913C9149
S113096015972417350754F4421B530B55834483BE
S1130970BD01808191810E94460815C0241B350B5E
S113098015963C932E9314970280F381E02DCE1795
S1130990DF07F9F6E0919F07F091A007BD01808180
S11309A091810E944608DF91CF910895CF92DF9202
S11309B0EF92FF920F931F93CF93DF936C017B0110
S11309C08A01E90180911608909117080E947C0819
S11309D0FC010097B1F0D582C482F782E6821186C9
S11309E0108613870287D587C48781E086878CE0C9
S11309F095E0908B8787CF010E949D0480E090E072
S1130A0002C08FEF9FEFDF91CF911F910F91FF9065
S1130A10EF90DF90CF900895CF93DF93EC01009790
S1130A2049F486E992E09F938F930E94A30E0F905E
S1130A300F9051C08E851F928F938BEA92E09F9303
S1130A408F930E94A30E0F900F900F900F908E859E
S1130A50813039F018F08230E1F13DC081E08E87B9
S1130A603AC08A859B85DC011296ED91FC9113971F
S1130A700680F781E02D09958F3FBFEF9B0719F49E
S1130A8084E08E8728C00097D1F481E08E878A8520
S1130A909B85DC011296ED91FC9113970084F185FE
S1130AA0E02D09959F938F938BEB92E09F938F9307
S1130AB00E94A30E0F900F900F900F900CC022E095
S1130AC02E879D838C8399878887CE010E949D04FD
S1130AD002C081E08E87DF91CF910895CF93DF9399
S1130AE080919F079091A0070E943A08EC0100971B
S1130AF0A1F18A859B85892B99F1EF85F889CE012F
S1130B00099580919F079091A0070E947C084E81CF
S1130B105F814115510599F0888599859A01281BB3
S1130B20390B3D832C83332334F4240F351F3323B3
S1130B30E4F33D832C83CE010E949D0407C0BE01D3
S1130B4080911608909117080E9446080E94870415
S1130B500E94340480E090E005C08FEF9FEF02C054
S1130B608FEF9FEFDF91CF91089514BE88E10FB608
S1130B70F89480936000109260000FBEE1E6F0E00C
S1130B8080E88083108278940E94C70508951092AB
S1130B90180880E29EE49093A9008093A800E1EAFB
S1130BA0F0E088E08083808182608083E2E7F0E087
S1130BB080818260808308951F920F920FB60F92F6
S1130BC011248F93809118088F5F809318088F9158
S1130BD00F900FBE0F901F90189510921D08109241
S1130BE01E0810921A0810921908109240081092C8
S1130BF03F08EFE1F8E08FE398E011921192E817D3
S1130C00F907D9F70E94FE060E9471060E94190690
S1130C100E9414060895E82FF0E0EE0FFF1FE15E36
S1130C20F74F71836083089510926C0310926B03E5
S1130C30089510926D031092F60310927F0410929F
S1130C400805109291050895009741F0FC01E757BB
S1130C50FF4F86E0EA31F80718F012C0EDE6F3E042
S1130C608081882321F00FC0808181110FC0E75754
S1130C70FF4F86E0EA31F807B8F380E090E008958A
S1130C8080E090E008958E2F9F2F08958E2F9F2F40
S1130C900895DC0119962C911997222351F0179687
S1130CA0ED91FC9118972081211105C00E942B071A
S1130CB0089580E0089580E00895EBE2F6E02DE5E4
S1130CC036E050E061E04081442319F04150408314
S1130CD0562F3596E217F307B1F751110E942D08EC
S1130CE00895EBE2F6E08DE596E010823596E8177C
S1130CF0F907D9F784E690E0A0E0B0E080932006FD
S1130D0090932106A0932206B09323061092240602
S1130D108DE596E0909326068093250669E476E0B7
S1130D2080E00E940B060895FF920F931F93CF93C8
S1130D30DF93EC0110E080E090E001E00F2EF3E19E
S1130D40FF2EF02D13C0FC012081213179F4EC57E2
S1130D50FF4F208131812150310931832083232B9E
S1130D6021F4FC01F082102F01C0102F0E942406F0
S1130D70009749F7112319F0CE010E942D08DF9145
S1130D80CF911F910F91FF900895EF92FF920F93CF
S1130D901F93CF93DF93EC0110E080E090E001E03B
S1130DA00F2EF7E1EF2EF02D6894FF24F4F816C00F
S1130DB0FC012081263191F4EC57FF4F20813181D1
S1130DC02150310931832083232B39F4FC01E08243
S1130DD0ED57FF4FF082102F01C0102F0E94240600
S1130DE0009731F7112319F0CE010E942D08DF91ED
S1130DF0CF911F910F91FF90EF9008951092740678
S1130E001092730682E390E0A0E0B0E080936C0659
S1130E1090936D06A0936E06B0936F0610927006C1
S1130E2085EC96E090937206809371068AE090E0D8
S1130E30A0E0B0E080935F0690936006A093610603
S1130E40B09362061092630684E996E09093650677
S1130E50809364060895CF93DF93FC01C781D08506
S1130E6081858330C9F410C0FC012081263171F4DE
S1130E703485298132130AC027E120832A81EA5765
S1130E80FF4F208381E009C080E090E00E942406A7
S1130E90009751F780E001C080E0DF91CF91089581
S1130EA093E090934201E1E4F1E090819F719830E6
S1130EB0E1F780934201E1E4F1E090819F7198139E
S1130EC0FCCF0895E9E3F1E0808181608083109292
S1130ED076061092750681E08093770688E00E947A
S1130EE050078BEE80935601ECE4F1E0808180683A
S1130EF08083089524E132E0FC0133832283089542
S1130F002AE030E0FC013183208380E090E0089502
S1130F1080E090E0089580E090E0089580E090E023
S1130F20089580E090E00895CF93DF93EC0184E08E
S1130F3090E00E945C0CFC01D183C083DF91CF91CF
S1130F4008950E94B5050E940E080E9462070E943F
S1130F50ED0508950F931F93CF93DF93EC018091D8
S1130F60780690917906009709F445C04E815F8117
S1130F7068857985FC0102811381248135814017BC
S1130F80510762077307C0F40BC0028113812481E7
S1130F903581401751076207730728F0DF010DC040
S1130FA0FC01A0E0B0E0041B150B260B370B0283F9
S1130FB01383248335830AC0DC01401B510B620B6D
S1130FC0730BED91FC9111973097F9F64A835B838B
S1130FD06C837D83109741F08D919C911197998337
S1130FE08883CD93DC9315C099838883D093790645
S1130FF0C09378060EC0198218828E819F81A885BD
S1131000B9858A839B83AC83BD83D0937906C093CF
S11310107806DF91CF911F910F9108951092790670
S1131020109278060895E0917806F0917906309749
S113103071F0E817F90721F40CC08E179F0759F0D7
S11310400190F081E02D3097C1F780E0089580E0B1
S1131050089581E0089581E00895CF93DF93EC0132
S11310600E941308811103C0CE010E94AA07DF91D8
S1131070CF910895FC01228133812817390719F48F
S113108080E090E00895822F932F0895DC0112965A
S1131090ED91FC91139771836083DB011396FC93AC
S11310A0EE931297FC01738362838D939C93CB011F
S11310B00895FB01DC0112962D913C91139728179A
S11310C03907A1F086179707A1F0A081B181828129
S11310D0938113969C938E931297A281B3818081FE
S11310E091818D939C93862F9F2F089580E090E0AB
S11310F0089580E090E00895FC016281738168178F
S1131100790719F00E945908089580E090E0089545
S1131110A3E1B0E0EEE8F8E00C94250C7C011B019F
S11311206A01FC0117821682838181FF66C3BE01B6
S11311306F5F7F4F4B01F7019381F10193FD85911F
S113114093FF81911F01882309F453C3853239F435
S113115093FD859193FF81911F01853239F4B70185
S113116090E00E94710E56016501E5CF10E0512C0C
S113117020E02032A0F48B3269F030F4803259F050
S1131180833269F420612CC08D3239F0803339F414
S1131190216026C02260246023C0286021C027FD6E
S11311A027C030ED380F3A3078F426FF06C0FAE055
S11311B01F9F300D1124132F13C06AE0569E300D6B
S11311C01124532E20620CC08E3221F426FD11C34B
S11311D0206406C08C3611F4206802C0883641F4BD
S11311E0F10193FD859193FF81911F018111C1CF7D
S11311F09BEB980F933018F42061805E06C09BE946
S1131200980F933008F0AAC12F7E26FF16E02F73A3
S1131210722E853621F4F22FF0647F2E08C08636B4
S113122021F4622F6068762E02C01111115077FEEE
S113123007C01C3348F444244394410E27E00BC0F8
S1131240183030F4212F06C027E04CE3442E03C0AD
S113125027E017E0412C560174E0A70EB11CF601FB
S11312606081718182819381042DA4010E94830D88
S11312706C01098100FF02C003FF06C071FC07C0B6
S113128072FC08C0612C08C03DE2632E05C02BE24D
S1131290622E02C090E2692E802F8C7099F1662034
S11312A011F084E001C083E0851510F0512C0BC0CF
S11312B0581A73FC08C0B70180E290E00E94710ED6
S11312C05A94C9F7F3CF662029F0B701862D90E030
S11312D00E94710E03FD03C008E311E002C004E3A1
S11312E011E0F72DF0717F2EF8018491882309F421
S11312F076C271108052B70190E00E94710E0F5FA8
S11313001F4FF2CF77FE0FC04C0C04FF04C08A813C
S1131310813309F44A94141474F5F8E0F41578F55B
S113132088E0482E2CC076FC2AC0812F90E08C15D2
S11313309D059CF06CEFC6166FEFD60674F0772D02
S11313407068772E0AC0E2E0F0E0EC0FFD1FE10FB9
S1131350F11D8081803319F411501111F4CF77FEFF
S11313600EC044244394410E812F90E0C816D90640
S11313702CF41C1904C04424439401C010E077FEEB
S113138007C01C141D043CF496012F5F3F4F05C099
S113139025E030E002C021E030E0662011F02F5F4C
S11313A03F4F112331F0412F50E04F5F5F4F240F27
S11313B0351F452D50E02417350714F4521A01C087
S11313C0512C872D897049F4552039F0B70180E2FA
S11313D090E00E94710E5A94F7CF662029F0B7016D
S11313E0862D90E00E94710E73FC09C0552039F0DF
S11313F0B70180E390E00E94710E5A94F7CF77FE14
S11314005FC09C2D8D2DD7FE02C090E080E0692E38
S1131410782E40E050E0C601841991099D878C879D
S1131420960126193709280D391D812F90E0EE27E2
S1131430FF27E81BF90BFF87EE87FFEF6F167F0688
S113144069F4B7018EE290E02B8B3A8B488B598B71
S11314500E94710E598948893A892B89C614D70488
S113146054F06C857D85661577052CF4F901E40F3D
S1131470F51F818101C080E371E0671A71084F5F35
S11314805F4FEE85FF856E167F066CF0B70190E026
S11314902B8B3A8B488B598B0E94710E2B893A897E
S11314A048895989CACF6C147D0439F49A819633DA
S11314B018F4953311F404FF81E3B70190E04BC0B5
S11314C08A81813309F00F7EB70190E00E94710E8A
S11314D0111105C074FE18C085E490E017C0B7016F
S11314E08EE290E00E94710E82E066246394680E9E
S11314F0F401E80FF11D8081B70190E00E94710EA4
S1131500115041F3862DF1CF85E690E0B7010E949A
S1131510710ED7FC05C0C114D10439F404FF05C011
S1131520D194C194D1088DE201C08BE2B70190E05F
S11315300E94710E80E36AE0C616D1042CF08F5F1E
S1131540FAE0CF1AD108F7CFB70190E00E94710EEC
S1131550B701C601C0960E94710E41C1833631F0B5
S1131560833779F0833509F058C021C0560172E001
S1131570A70EB11CF6018081898301E010E06401AB
S113158014C05601F2E0AF0EB11CF601C080D18048
S113159026FF03C0612F70E002C06FEF7FEFC6012A
S11315A02B8B0E94660E8C012B892F7715C0560158
S11315B0F2E0AF0EB11CF601C080D18026FF03C05B
S11315C0612F70E002C06FEF7FEFC6012B8B0E948A
S11315D05B0E8C012B892068722E23FD1AC0852D89
S11315E090E008171907A8F4B70180E290E00E9480
S11315F0710E5A94F4CFF60177FC859177FE8191B0
S11316006F01B70190E00E94710E51105A9401507D
S113161011090115110579F7E2C0843611F08936F4
S113162051F5560127FF09C0F4E0AF0EB11CF601D5
S113163060817181828193810AC0F2E0AF0EB11C96
S1131640F60160817181882777FD8095982F022F9C
S11316500F7697FF08C090958095709561957F4FA0
S11316608F4F9F4F00682AE030E0A4010E94E40EEF
S1131670C82EC8183EC0022F853721F40F7E2AE0F9
S113168030E01DC0097F8F3691F018F4883559F089
S1131690B0C0803719F0883711F0ABC0006104FF87
S11316A009C0046007C024FF08C0066006C028E023
S11316B030E005C020E130E002C020E132E0560114
S11316C007FF09C0F4E0AF0EB11CF601608171811F
S11316D08281938108C0F2E0AF0EB11CF6016081F3
S11316E0718180E090E0A4010E94E40EC82EC81825
S11316F00F7706FF0BC0202F2E7FC11650F404FF76
S11317000AC002FD08C0202F2E7E05C0DC2C202F2D
S113171003C0DC2C01C0D12E24FF0DC0FE01EC0D52
S1131720F11D8081803311F4297E09C022FF06C097
S1131730D394D39404C0822F867809F0D39423FDE4
S113174013C020FF06C01C2DD51418F4150D1D1947
S1131750D52CD51468F4B70180E290E02B8B0E945D
S1131760710ED3942B89F5CFD51410F45D1801C0F4
S1131770512C24FF12C0B70180E390E02B8B0E9410
S1131780710E2B8922FF17C021FF03C088E590E06A
S113179002C088E790E0B7010CC0822F867859F028
S11317A021FD02C080E201C08BE227FD8DE2B7017A
S11317B090E00E94710EC11638F4B70180E390E006
S11317C00E94710E1150F7CFCA94F401EC0DF11D73
S11317D08081B70190E00E94710EC110F5CF5520B1
S11317E009F4C2CCB70180E290E00E94710E5A94D1
S11317F0F6CFF7018681978102C08FEF9FEF639642
S1131800E2E10C94410CA1E21A2EAA1BBB1BFD01C0
S11318100DC0AA1FBB1FEE1FFF1FA217B307E407CB
S1131820F50720F0A21BB30BE40BF50B661F771F23
S1131830881F991F1A9469F7609570958095909503
S11318409B01AC01BD01CF0108952F923F924F92AD
S11318505F926F927F928F929F92AF92BF92CF923C
S1131860DF92EF92FF920F931F93CF93DF93CDB745
S1131870DEB7CA1BDB0B0FB6F894DEBF0FBECDBFBD
S113188009942A88398848885F846E847D848C848E
S11318909B84AA84B984C884DF80EE80FD800C8197
S11318A01B81AA81B981CE0FD11D0FB6F894DEBF7A
S11318B00FBECDBFED010895CF93DF938230910524
S11318C010F482E090E0E0914308F091440820E0B5
S11318D030E0A0E0B0E0309739F140815181481701
S11318E05907B8F04817590771F48281938110970A
S11318F029F013969C938E9312972CC090934408CE
S11319008093430827C02115310531F0421753074E
S113191018F0A901DB0101C0EF019A01BD01DF014B
S11319200280F381E02DD7CF21153105F9F0281B72
S1131930390B2430310580F48A819B81611571054E
S113194021F0FB019383828304C090934408809325
S11319504308FE01329644C0FE01E20FF31F819357
S1131960919322503109398328833AC02091410848
S113197030914208232B41F420910202309103025A
S113198030934208209341082091000230910102D3
S11319902115310541F42DB73EB740910402509111
S11319A00502241B350BE0914108F0914208E2172F
S11319B0F307A0F42E1B3F0B2817390778F0AC016E
S11319C04E5F5F4F2417350748F04E0F5F1F50934B
S11319D04208409341088193919302C0E0E0F0E013
S11319E0CF01DF91CF910895CF93DF93009709F44E
S11319F087C0FC01329713821282C0914308D091B0
S1131A004408209781F420813181280F391F809167
S1131A104108909142088217930779F5F0934208A0
S1131A20E09341086DC0DE0120E030E0AE17BF074F
S1131A3050F412964D915C9113979D0141155105F7
S1131A4009F1DA01F3CFB383A28340815181840F7A
S1131A50951F8A179B0771F48D919C911197840FA0
S1131A60951F02969183808312968D919C91139772
S1131A70938382832115310529F4F0934408E0937C
S1131A8043083EC0D9011396FC93EE9312974D91EF
S1131A905D91A40FB51FEA17FB0779F4808191814A
S1131AA0840F951F0296D90111969C938E9382817F
S1131AB0938113969C938E931297E0E0F0E08A81D1
S1131AC09B81009719F0FE01EC01F9CFCE0102963B
S1131AD028813981820F931F209141083091420857
S1131AE02817390769F4309729F4109244081092A2
S1131AF0430802C013821282D0934208C093410863
S1131B00DF91CF910895283008F027E03327DA01D8
S1131B10990F311D87FD916000966105710539F4B7
S1131B2032602E5F3D9330E32A95E1F708959F3F9D
S1131B3030F080387105610509F03C5F3C5F3D93EE
S1131B40913008F08068911DDF93CF931F930F931A
S1131B50FF92EF92192F987F9695E92F9695969577
S1131B60E90FFF27EA56FE4F99273327EE24FF2477
S1131B70A701E70105900894079428F4360FE71E9F
S1131B80F81E491F511D660F771F881F991F069461
S1131B90A1F70590079428F4E70EF81E491F561F75
S1131BA0C11D770F881F991F661F0694A1F7059022
S1131BB0079428F4F80E491F561FC71FD11D880F1C
S1131BC0991F661F771F0694A1F70590079420F4C8
S1131BD0490F561FC71FD81F990F661F771F881FED
S1131BE00694A9F784911095177041F0D695C7957E
S1131BF057954795F794E7941A95C1F7ECE3F1E00C
S1131C0068941590159135916591959105907FE2B1
S1131C107395E118F10A430B560BC90BD009C0F7B1
S1131C20E10CF11E431F561FC91FD01D7EF47033F3
S1131C3011F48A95E6CFE894015030F0080F0AF4C5
S1131C400027021708F4202F2395022F7A3328F057
S1131C5079E37D932A95E9F710C07D932A9589F657
S1131C60069497956795379517951794E118F10A97
S1131C70430B560BC90BD00998F023957E917395AD
S1131C807A3308F070E37C932013B8F77E91706187
S1131C907D9330F0839571E37D9370E32A95E1F7AA
S1131CA01124EF90FF900F911F91CF91DF9199270D
S1131CB087FD90950895FC010590615070400110D6
S1131CC0D8F7809590958E0F9F1F0895FC01615061
S1131CD0704001900110D8F7809590958E0F9F1F4A
S1131CE008950F931F93CF93DF93182F092FEB01C0
S1131CF08B8181FD03C08FEF9FEF20C082FF10C056
S1131D004E815F812C813D81421753077CF4E88129
S1131D10F9819F012F5F3F4F39832883108306C0C9
S1131D20E885F985812F0995892B29F72E813F8133
S1131D302F5F3F4F3F832E83812F902FDF91CF91D1
S1131D401F910F910895A0E0B0E0E9EAFEE00C9441
S1131D50350CFE01359661917191AF018091470870
S1131D60909148080E948808E2E00C94510C0F936B
S1131D701F93CF93DF93E0914708F09148082381A4
S1131D8021FF1BC0EC0100E010E08991609147083D
S1131D9070914808DB011896ED91FC9119978823FE
S1131DA031F00995892B89F30FEF1FEFEECF8AE00D
S1131DB00995892B11F4C80102C08FEF9FEFDF91C1
S1131DC0CF911F910F910895FA01AA27283051F15C
S1131DD0203181F1E8946F936E7F6E5F7F4F8F4F58
S1131DE09F4FAF4FB1E03ED0B4E03CD0670F781FB7
S1131DF0891F9A1FA11D680F791F8A1F911DA11D9C
S1131E006A0F711D811D911DA11D20D009F46894D4
S1131E103F912AE0269F11243019305D3193DEF67C
S1131E20CF010895462F4770405D4193B3E00FD032
S1131E30C9F7F6CF462F4F70405D4A3318F0495D1D
S1131E4031FD4052419302D0A9F7EACFB4E0A69500
S1131E509795879577956795BA95C9F70097610522
S1131E60710508959B01AC010A2E06945795479578
S1131E7037952795BA95C9F7620F731F841F951F6D
S10B1E80A01D0895F894FFCFA2
S1131E8800004B0820000000000200000000D103FD
S1131E98000000007A07800788078B078E079107E0
S1131EA8424D50323830205374617475732025695B
S1131EB80A00696E697420646F6E6521000A543AD9
S1131EC8202569202C2569202C256920503A2025B5
S1131ED869202C2569202C2569202C2569202C258E
S1131EE869202C2569202C2569202C2531202C25B6
S1131EF869200A00636F756E7431203D2025640AD9
S1131F08007365742074696D657220676170203D83
S1131F182025640A0A004E756C6C204576656E743B
S1131F28204572726F7220212121006375725F73DC
S1131F3874617465203D2025640A0064617461201D
S1131F483A2025640A000A0A0A3D3D3D3D3D3D3DCF
S1131F583D3D3D3D3D3D3D3D3D3D0A656E746572EB
S1131F682066756E6374696F6E0A3D3D3D3D3D3D67
S1131F783D3D3D3D3D3D3D3D3D3D0074696D656FD5
S1131F8875742025640A004E554C4C21003D3D3D96
S1131F983D3D3D3D3D3D3D3D3D3D3D3D3D3D0A6570
S1131FA87869742066756E6374696F6E0A3D3D3D89
S1131FB83D3D3D3D3D3D3D3D3D3D3D3D3D0A0A00E8
S1111FC8546F70206F66206C6F6F70202100C4
S9030000FC
