S00D000041544D4F532E7372656393
S113000021C100003FC100003DC100003BC1000010
S113001039C1000037C1000035C1000033C1000000
S113002031C100002FC100002DC100002BC1000010
S113003029C1000027C1000025C100000C949916B5
S113004021C100001FC100001DC100001BC1000030
S113005019C1000017C1000015C1000013C1000040
S113006011C100000FC100000DC100000BC1000050
S113007009C1000007C1000005C1000003C1000060
S113008001C10000FFC00000FDC00000FBC0000073
S1130090F9C00000F7C00000F5C00000F3C0000084
S11300A0F1C00000EFC000000C94391AEBC000004E
S11300B0E9C00000E7C00000E5C00000E3C00000A4
S11300C0E1C00000DFC00000DDC00000DBC00000B4
S11300D0D9C00000D7C00000D5C00000D3C00000C4
S11300E0D1C00000CFC00000CDC00000CBC00000D4
S11300F0C9C00000C7C00000C5C00000C3C00000E4
S1130100C1C00000BFC00000BDC00000BBC00000F3
S1130110B9C00000B7C00000B5C00000B3C0000003
S1130120B1C00000AFC00000ADC00000ABC0000013
S1130130A9C000000110ED0FF20FED0FF70FED0F46
S1130140FC0F6E616E00696E660000407A10F35A0F
S113015000A0724E18090010A5D4E80000E8764803
S1130160170000E40B54020000CA9A3B000000E1AF
S1130170F505000080969800000040420F00000042
S1130180A08601000000102700000000E803000022
S113019000006400000000000A00000000000100EC
S11301A0000000002C76D888DC674F0823DFC1DF0D
S11301B0AE59E1B1B796E5E3E453C63AE651997610
S11301C096E8E6C28426EB898C9B62ED407C6FFC4A
S11301D0EFBC9C9F40F2BAA56FA5F490055A2AF78C
S11301E05C936B6CF9676DC11BFCE0E40D47FEF595
S11301F020E6B500D0ED902E0300943577050080FD
S1130200841E080000204E0A000000C80C3333335B
S1130210330F986E12831141EF8D2114893BE655FB
S113022016CFFEE6DB18D1844B381BF77C1D901DDE
S1130230A4BBE424203284725E228100C9F124EC40
S1130240A1E53D2711241FBECFEFD1E8DEBFCDBF0E
S113025000E00CBF18E0A0E0B2E0EAE7FBE600E053
S11302600BBF02C007900D92A635B107D9F72EE057
S1130270A6E5B8E001C01D92A730B207E1F794D01B
S11302800C94BB35BDCEAF92BF92CF92DF92EF926A
S1130290FF920F931F93CF93DF935C01A6E3B2E029
S11302A0FC01B0962AE232E08EE192E002E412E030
S11302B00F2EF0EECF2EFEE2DF2EE12CF12CF02DEE
S11302C04D915D916D917D914083518362837383E0
S11302D0C482D582E682F782E901499159916991F4
S11302E079919E014487558766877787EC01499108
S11302F0599169917991CE014087518762877387BB
S11303007096A017B107E1F68EE092E0FC014081FF
S1130310518162817381E501488359836A837B83B8
S1130320A6E1B2E04D915D916D917C9113974C8360
S11303305D836E837F83E6E0F2E0408151816281D8
S113034073814C875D876E877F87188619861A8626
S11303501B86EC014C815D816E817F81E501488BB8
S1130360598B6A8B7B8B14968D919D910D90BC91CA
S1130370A02D8C8B9D8BAE8BBF8B84819581A681A8
S1130380B7818C8F9D8FAE8FBF8F188E198E1A8E6A
S11303901B8EDF91CF911F910F91FF90EF90DF9013
S11303A0CF90BF90AF9008956F927F928F929F925B
S11303B0AF92BF92CF92DF92EF92FF920F931F936F
S11303C0CF93DF93CDB7DEB7C85AD1090FB6F894EF
S11303D0DEBF0FBECDBF0E946A1E0E9410180E948D
S11303E0141860E875E280E090E00E94CF19249A26
S11303F06B9A739A60E177E280E090E00E94F818CB
S11304000E948D160E94A3229F938F9386EA92E006
S11304109F938F930E94153584E090E00E94D2242C
S113042010927B0D10927A0D8CE79DE02CDF8FE803
S113043091E00197F1F700C000000E94821CEFE8F0
S1130440F1E03197F1F700C000008CE99BE00E94D5
S113045014218FE891E00197F1F700C0000062E0F9
S113046070E080E090E00E946A2C8C0188EB92E0BE
S11304709F938F930E941535EFE8F1E03197F1F7E0
S113048000C0000061E070E080E090E00E944B1644
S11304903C0180E090E00E94AE2A5C01BC0180E057
S11304A090E00E948C2B4C010E94E11685EC92E0B6
S11304B00E942D350F2EFCE7CF2EFDE0DF2EF02D10
S11304C0F60124A135A146A157A160A171A182A181
S11304D093A1E12CF12C0E94391D2091C00D309183
S11304E0C10D4091C20D5091C30D6091BC0D70912E
S11304F0BD0D8091BE0D9091BF0D83010E94391DE9
S1130500F60187898F9386898F9385898F93848950
S11305108F9383898F9382898F9381898F93808925
S11305208F9380ED92E09F938F930E941535F6018F
S113053024813581468157816081718182819381D3
S113054084010E947B1DF6012489358946895789D7
S1130550608971898289938985010E947B1D80E16C
S1130560E6E9F2E0DE01A756BF4F01900D928A95AD
S1130570E1F70E941618CE0101966FD30FB6F894D6
S1130580DEBF0FBECDBF833109F46DC082EF92E0B0
S11305909F938F930E9415356596EEADFFAD6597D9
S11305A080E090E01995C158DF4F188219821A82B1
S11305B01B82CF57D040CE0187569F4FC957DF4F7C
S11305C099838883C758D040812C912C5401689416
S11305D084F8CD57DF4F88829982AA82BB82C358A0
S11305E0D0406196EEADFFAD6197BE0161587F4F7B
S11305F08DE01995C158DF4F188219821A821B8227
S1130600CF57D0406E0139E8C30ED11CC957DF4F14
S1130610D982C882C758D040CD57DF4F888299828B
S1130620AA82BB82C358D0406396EEADFFAD6397F8
S1130630BE0161587F4F86E01995F60180811F92B3
S11306408F9380E193E09F938F930E9415350E94CE
S1130650CC1C0E94DC1778940F900F900F900F9091
S11306600F900F90FFCF87ED92E00E942D358FEF12
S11306709FEFC855DF4F0FB6F894DEBF0FBECDBF56
S1130680DF91CF911F910F91FF90EF90DF90CF906A
S1130690BF90AF909F908F907F906F90089588E661
S11306A00E942419883169F464E070E082E492E0E5
S11306B00E94B619883241F40E9477198AE090E0CA
S11306C008958FEF9FEF08958FEF9FEF0895AF92F6
S11306D0BF92CF92DF92EF92FF920F931F93CF932B
S11306E0DF9300D01F92CDB7DEB719821A821B8226
S11306F01C8288E60E9440198034C1F541E064E020
S113070070E0CE0101960E947C19803591F50E941B
S113071077199A81A92EB12CFA2CEE242B81C22EA2
S1130720D12CEC28FD288981082F10E03C811F92F0
S11307303F931F922F931F929F931F928F9380E357
S113074093E09F938F930E9415358C8190E00A0D5E
S11307501B1D0C0D1D1D0FB6F894DEBF0FBECDBFC3
S11307608017910749F48E2D9F2D08C082EF98EDD4
S113077005C083EF98ED02C081EF98ED0F900F90C4
S11307800F900F90DF91CF911F910F91FF90EF90F9
S1130790DF90CF90BF90AF900895E091D20DF0918B
S11307A0D30D05A002C0880F991F0A94E2F7BC017B
S11307B080E090E008950F931F93CF93DF93CDB71C
S11307C0DEB760970FB6F894DEBF0FBECDBF8C01C5
S11307D08FE98D8781E090E0A0E0B0E08B839C837B
S11307E0AD83BE83CE010D969A83898383E090E026
S11307F0A0E0B0E089879A87AB87BC87CE010E96CC
S113080098878F8323E041E0BE01695F7F4F0D9796
S11308100E942518EF81F88580811F928F9389E4C7
S113082093E09F938F930E941535EF81F885818122
S11308301F928F938DE593E09F938F930E941535BC
S1130840EF81F88582811F928F9381E793E09F93D4
S11308508F930E941535EF81F885408150E060E068
S113086070E0762F652F542F4427D8014D935D9364
S11308706D937C9313978181482B762F652F542F8A
S113088044274D935D936D937C9313978281482BFA
S1130890F80140835183628373830FB6F894DEBFFB
S11308A00FBECDBF80E060960FB6F894DEBF0FBEDA
S11308B0CDBFDF91CF911F910F910895CF93DF9317
S11308C0CDB7DEB72D970FB6F894DEBF0FBECDBF00
S11308D025E02D8741E050E060E070E04B835C83CD
S11308E06D837E839E01235F3F4F3A83298349872B
S11308F05A876B877C8798878F8323E0BE01695F63
S11309007F4FCE0101960E94251880E02D960FB6E8
S1130910F894DEBF0FBECDBFDF91CF910895CF9382
S1130920DF93CDB7DEB728970FB6F894DEBF0FBEBE
S1130930CDBF86E08F8381E090E0A0E0B0E08B83C0
S11309409C83AD83BE83CE0107969A83898323E07B
S113095041E060E070E006970E942518CE010896F9
S1130960ADDF888581FFFACF80E028960FB6F89432
S1130970DEBF0FBECDBFDF91CF910895CF93DF933C
S1130980CDB7DEB728970FB6F894DEBF0FBECDBF44
S113099084E08F8381E090E0A0E0B0E08B839C83CF
S11309A0AD83BE83CE0107969A83898323E041E019
S11309B060E070E006970E942518CE0108967EDF5D
S11309C0888581FDFACF80E028960FB6F894DEBFC3
S11309D00FBECDBFDF91CF910895CF93DF93CDB7F5
S11309E0DEB727970FB6F894DEBF0FBECDBF80E504
S11309F08F8381E090E0A0E0B0E08B839C83AD83A3
S1130A00BE83CE0107969A83898323E041E060E0A8
S1130A1070E006970E94251880E027960FB6F89498
S1130A20DEBF0FBECDBFDF91CF910895CF93DF938B
S1130A30CDB7DEB72D970FB6F894DEBF0FBECDBF8E
S1130A4025EB2D8741E050E060E070E04B835C8350
S1130A506D837E839E01235F3F4F3A83298342E067
S1130A6050E060E070E049875A876B877C879887FD
S1130A708F8323E041E0BE01695F7F4FCE01019681
S1130A800E94251880E02D960FB6F894DEBF0FBEA5
S1130A90CDBFDF91CF910895CF93DF93CDB7DEB76C
S1130AA02D970FB6F894DEBF0FBECDBF25E82D8776
S1130AB041E050E060E070E04B835C836D837E83B3
S1130AC09E01235F3F4F3A83298349875A876B8767
S1130AD07C8798878F8323E0BE01695F7F4FCE01B7
S1130AE001960E94251880E02D960FB6F894DEBF7B
S1130AF00FBECDBFDF91CF910895CF93DF93CDB7D4
S1130B00DEB72D970FB6F894DEBF0FBECDBF25E636
S1130B102D8741E050E060E070E04B835C836D839F
S1130B207E839E01235F3F4F3A83298349875A87F7
S1130B306B877C8798878F8323E0BE01695F7F4F33
S1130B40CE0101960E94251880E02D960FB6F894E8
S1130B50DEBF0FBECDBFDF91CF910895CF93DF935A
S1130B60CDB7DEB72D970FB6F894DEBF0FBECDBF5D
S1130B7020E72D8741E050E060E070E04B835C8328
S1130B806D837E839E01235F3F4F3A832983498788
S1130B905A876B877C8798878F8323E0BE01695FC0
S1130BA07F4FCE0101960E94251880E02D960FB646
S1130BB0F894DEBF0FBECDBFDF91CF910895CF93E0
S1130BC0DF93CDB7DEB728970FB6F894DEBF0FBE1C
S1130BD0CDBF87EB8F83A3DE81E090E0A0E0B0E09F
S1130BE08B839C83AD83BE83CE0107969A838983CE
S1130BF023E041E060E070E006970E94251885E854
S1130C0093E00E942D35E091D20DF091D30DE65979
S1130C10FF4F0190F081E02DCE010896199588854B
S1130C2080FF09C0E091D20DF091D30DE95BFF4F35
S1130C3084E0808308C0E091D20DF091D30DE95B8C
S1130C40FF4F83E0808380E028960FB6F894DEBFE0
S1130C500FBECDBFDF91CF9108950F931F93CF9314
S1130C60DF9300D01F921F92CDB7DEB719821A828C
S1130C701B821C821D829093D30D8093D20DCE01D2
S1130C80029699DD81110CC0E091D20DF091D30D43
S1130C908A819B81AC81BD8180839183A283B3834C
S1130CA08A819B81AC81BD8184312BEB920720E248
S1130CB0A207B10509F0F0C08CE993E00E942D353C
S1130CC0E091D20DF091D30D80E090E0A0E1B0E08E
S1130CD085A796A7A7A7B0AB80E190E0A0E0B0E01D
S1130CE085879687A787B08B40E050E061E070E08D
S1130CF041A352A363A374A385A396A3A7A3B0A7F8
S1130D0080E091E0A0E0B0E0818B928BA38BB48B68
S1130D1040E050E160E070E041A752A763A774A7E8
S1130D200CE010E020E030E0058B168B278B308F31
S1130D30458F568F678F70A3818F928FA38FB48F47
S1130D4080E490E0A0E0B0E081AB92ABA3ABB4ABA5
S1130D508FEF90E0A0E0B0E081879287A387B4870B
S1130D60DF01A95BBF4F83E08C9313968BED93E077
S1130D7011969C938E9312968EE594E011969C9313
S1130D808E93129687EC92E111969C938E93129611
S1130D908EED9FE011969C938E93129688EE92E1CD
S1130DA011969C938E93129684E693E111969C93EC
S1130DB08E93129611961C921E92129611961C9264
S1130DC01E9250978DEC93E011969C938E935296BD
S1130DD08FE894E011969C938E9312968EEB94E098
S1130DE011969C938E93129611961C921E921296B3
S1130DF011961C921E9212968DEE94E011969C937D
S1130E008E93129686E195E011969C938E9312969A
S1130E108CE495E011969C938E9312968DE795E061
S1130E2011969C938E9312968EEA95E011969C935C
S1130E308E9312968BEA94E111969C938E9312965C
S1130E4089E494E111969C938E9312968AE794E137
S1130E5011969C938E93129611961C921E92129642
S1130E6011961C921E9212968EEB90E111969C9311
S1130E708E93129686E891E111969C938E93129626
S1130E8084E395E18D939C93E458FF4F87E190E1CF
S1130E909183808380E0A6C785312BEB920720E203
S1130EA0A207B10509F0FCC08BEA93E00E942D353E
S1130EB0E091D20DF091D30D80E090E0A0E2B0E09B
S1130EC085A796A7A7A7B0AB80E290E0A0E0B0E02A
S1130ED085879687A787B08B80E090E0A1E0B0E09B
S1130EE081A392A3A3A3B4A380E190E0A0E0B0E027
S1130EF085A396A3A7A3B0A780E092E0A0E0B0E00A
S1130F00818B928BA38BB48B80E090E1A0E0B0E066
S1130F1081A792A7A3A7B4A78CE090E0A0E0B0E0DB
S1130F20858B968BA78BB08F80E090E2A0E0B0E039
S1130F30858F968FA78FB0A380E091E0A0E0B0E00A
S1130F40818F928FA38FB48F80E490E0A0E0B0E013
S1130F5081AB92ABA3ABB4AB8FEF90E0A0E0B0E079
S1130F6081879287A387B487DF01A95BBF4F83E0A2
S1130F708C9313968BED93E011969C938E9312961B
S1130F808EE594E011969C938E93129687EC92E1F1
S1130F9011969C938E9312968EED9FE011969C93DE
S1130FA08E93129688EE92E111969C938E931296EC
S1130FB084E693E111969C938E93129611961C925B
S1130FC01E92129611961C921E9250978DEC93E0ED
S1130FD011969C938E9352968FE894E011969C936D
S1130FE08E9312968EEB94E011969C938E931296A8
S1130FF011961C921E92129611961C921E92129693
S11310008DEE94E011969C938E93129686E195E072
S113101011969C938E9312968CE495E011969C9372
S11310208E9312968DE795E011969C938E9312966B
S11310308EEA95E011969C938E9312968BEA94E136
S113104011969C938E93129689E494E111969C9345
S11310508E9312968AE794E111969C938E9312963E
S113106011961C921E92129611961C921E92129622
S11310708EEB90E111969C938E93129686E891E103
S113108011969C938E93129684E395E18D939C9391
S1131090E458FF4F87E190E19183808380E0A2C60A
S11310A086312AEB920720E2A207B10509F0F8C0C5
S11310B08BEB93E00E942D35E091D20DF091D30D8E
S11310C080E090E0A0E4B0E085A796A7A7A7B0AB26
S11310D080E490E0A0E0B0E085879687A787B08B96
S11310E040E050E061E070E041A352A363A374A325
S11310F040E150E060E070E045A356A367A370A709
S113110040E054E060E070E0418B528B638B748B61
S113111040E050E160E070E041A752A763A774A7E4
S11311204CE050E060E070E0458B568B678B708F2D
S113113040E050E460E070E0458F568F678F70A305
S113114040E051E060E070E0418F528F638F748F14
S113115081AB92ABA3ABB4AB8FEF90E0A0E0B0E077
S113116081879287A387B487DF01A95BBF4F83E0A0
S11311708C9313968BED93E011969C938E93129619
S11311808EE594E011969C938E93129687EC92E1EF
S113119011969C938E9312968EED9FE011969C93DC
S11311A08E93129688EE92E111969C938E931296EA
S11311B084E693E111969C938E93129611961C9259
S11311C01E92129611961C921E9250978DEC93E0EB
S11311D011969C938E9352968FE894E011969C936B
S11311E08E9312968EEB94E011969C938E931296A6
S11311F011961C921E92129611961C921E92129691
S11312008DEE94E011969C938E93129686E195E070
S113121011969C938E9312968CE495E011969C9370
S11312208E9312968DE795E011969C938E93129669
S11312308EEA95E011969C938E9312968BEA94E134
S113124011969C938E93129689E494E111969C9343
S11312508E9312968AE794E111969C938E9312963C
S113126011961C921E92129611961C921E92129620
S11312708EEB90E111969C938E93129686E891E101
S113128011969C938E93129684E395E18D939C938F
S1131290E458FF4F87E190E19183808380E0A2C509
S11312A087312AEB920720E2A207B10509F0FCC0BE
S11312B08BEC93E00E942D35E091D20DF091D30D8B
S11312C080E090E0A0E8B0E085A796A7A7A7B0AB20
S11312D080E890E0A0E0B0E085879687A787B08B90
S11312E080E090E0A1E0B0E081A392A3A3A3B4A323
S11312F080E190E0A0E0B0E085A396A3A7A3B0A707
S113130080E098E0A0E0B0E0818B928BA38BB48B5B
S113131080E090E1A0E0B0E081A792A7A3A7B4A7E2
S11313208CE090E0A0E0B0E0858B968BA78BB08F2B
S113133080E090E8A0E0B0E0858F968FA78FB0A3FF
S113134080E091E0A0E0B0E0818F928FA38FB48F12
S113135080E490E0A0E0B0E081AB92ABA3ABB4AB8F
S11313608FEF90E0A0E0B0E081879287A387B487F5
S1131370DF01A95BBF4F83E08C9313968BED93E061
S113138011969C938E9312968EE594E011969C93FD
S11313908E93129687EC92E111969C938E931296FB
S11313A08EED9FE011969C938E93129688EE92E1B7
S11313B011969C938E93129684E693E111969C93D6
S11313C08E93129611961C921E92129611961C924E
S11313D01E9250978DEC93E011969C938E935296A7
S11313E08FE894E011969C938E9312968EEB94E082
S11313F011969C938E93129611961C921E9212969D
S113140011961C921E9212968DEE94E011969C9366
S11314108E93129686E195E011969C938E93129684
S11314208CE495E011969C938E9312968DE795E04B
S113143011969C938E9312968EEA95E011969C9346
S11314408E9312968BEA94E111969C938E93129646
S113145089E494E111969C938E9312968AE794E121
S113146011969C938E93129611961C921E9212962C
S113147011961C921E9212968EEB90E111969C93FB
S11314808E93129686E891E111969C938E93129610
S113149084E395E18D939C93E458FF4F87E190E1B9
S11314A09183808380E09EC488312AEB920720E2F6
S11314B0A207B10509F0F0C08BED93E00E942D3531
S11314C0E091D20DF091D30D80E090E0A0E0B1E086
S11314D085A796A7A7A7B0AB80E091E0A0E0B0E015
S11314E085879687A787B08B40E050E061E070E085
S11314F041A352A363A374A300E110E020E030E011
S113150005A316A327A330A700E010E120E030E0F4
S1131510018B128B238B348B01A712A723A734A72B
S11315200CE010E020E030E0058B168B278B308F29
S1131530458F568F678F70A3818F928FA38FB48F3F
S113154080E490E0A0E0B0E081AB92ABA3ABB4AB9D
S11315508FEF90E0A0E0B0E081879287A387B48703
S1131560DF01A95BBF4F83E08C9313968BED93E06F
S113157011969C938E9312968EE594E011969C930B
S11315808E93129687EC92E111969C938E93129609
S11315908EED9FE011969C938E93129688EE92E1C5
S11315A011969C938E93129684E693E111969C93E4
S11315B08E93129611961C921E92129611961C925C
S11315C01E9250978DEC93E011969C938E935296B5
S11315D08FE894E011969C938E9312968EEB94E090
S11315E011969C938E93129611961C921E921296AB
S11315F011961C921E9212968DEE94E011969C9375
S11316008E93129686E195E011969C938E93129692
S11316108CE495E011969C938E9312968DE795E059
S113162011969C938E9312968EEA95E011969C9354
S11316308E9312968BEA94E111969C938E93129654
S113164089E494E111969C938E9312968AE794E12F
S113165011969C938E93129611961C921E9212963A
S113166011961C921E9212968EEB90E111969C9309
S11316708E93129686E891E111969C938E9312961E
S113168084E395E18D939C93E458FF4F87E190E1C7
S11316909183808380E0A6C389312AEB920720E2FC
S11316A0A207B10509F018C18CEE93E00E942D3514
S11316B0E091D20DF091D30D80E090E0A0E0B2E093
S11316C085A796A7A7A7B0AB80E092E0A0E0B0E022
S11316D085879687A787B08B80E090E0A1E0B0E093
S11316E081A392A3A3A3B4A380E190E0A0E0B0E01F
S11316F085A396A3A7A3B0A780E090E2A0E0B0E002
S1131700818B928BA38BB48B80E090E1A0E0B0E05E
S113171081A792A7A3A7B4A78CE090E0A0E0B0E0D3
S1131720858B968BA78BB08F80E090E0A2E0B0E031
S1131730858F968FA78FB0A380E091E0A0E0B0E002
S1131740818F928FA38FB48F80E490E0A0E0B0E00B
S113175081AB92ABA3ABB4AB8FEF90E0A0E0B0E071
S113176081879287A387B487DF01A95BBF4F83E09A
S11317708C9313968BED93E011969C938E93129613
S11317808EE594E011969C938E93129687EC92E1E9
S113179011969C938E9312968EED9FE011969C93D6
S11317A08E93129688EE92E111969C938E931296E4
S11317B084E693E111969C938E93129611961C9253
S11317C01E92129611961C921E9250978DEC93E0E5
S11317D011969C938E9352968FE894E011969C9365
S11317E08E9312968EEB94E011969C938E931296A0
S11317F011961C921E92129611961C921E9212968B
S11318008DEE94E011969C938E93129686E195E06A
S113181011969C938E9312968CE495E011969C936A
S11318208E9312968DE795E011969C938E93129663
S11318308EEA95E011969C938E9312968BEA94E12E
S113184011969C938E93129689E494E111969C933D
S11318508E9312968AE794E111969C938E93129636
S11318608FED95E011969C938E93129680EE94E101
S113187011969C938E9312968EEB90E111969C9305
S11318808E93129686E891E111969C938E9312960C
S113189084E395E18D939C93E458FF4F87E190E1B5
S11318A0918380838CD9E091D20DF091D30DE659C8
S11318B0FF4F0190F081E02DCE01019619958981A9
S11318C080FF8BC2E091D20DF091D30DE95BFF4F05
S11318D084E0808380E086C2AC01BD015E7F40323B
S11318E05A4B6042710509F029C18DEF93E00E94C3
S11318F02D35E091D20DF091D30D80E090E0A0E081
S1131900B4E085A796A7A7A7B0AB80E094E0A0E0D9
S1131910B0E085879687A787B08B80E090E0A1E050
S1131920B0E081A392A3A3A3B4A380E190E0A0E0DC
S1131930B0E085A396A3A7A3B0A780E197E2A0E0B7
S1131940B0E0818B928BA38BB48B80E090E1A0E01C
S1131950B0E081A792A7A3A7B4A78CE090E0A0E091
S1131960B0E0858B968BA78BB08F80E090E0A4E0ED
S1131970B0E0858F968FA78FB0A380E091E0A0E0C0
S1131980B0E0818F928FA38FB48F80E490E0A0E0C9
S1131990B0E081AB92ABA3ABB4AB82E085AB80E0AB
S11319A090E0A0E0B2E086AB97ABA0AFB1AF89E125
S11319B090E0A0E0B0E082AF93AFA4AFB5AF8FEFFB
S11319C090E0A0E0B0E081879287A387B487DF012D
S11319D0A65BBF4F8BED93E011969C938E9312966A
S11319E08EE594E011969C938E93129687EC92E187
S11319F011969C938E9312968EED9FE011969C9374
S1131A008E93129688EE92E111969C938E93129681
S1131A1084E693E111969C938E9312968AED93E15A
S1131A2011969C938E93129611961C921E92509727
S1131A308DEC93E011969C938E9352968FE894E0EC
S1131A4011969C938E9312968EEB94E011969C9330
S1131A508E93129611961C921E92129611961C92B7
S1131A601E9212968DEE94E011969C938E9312968C
S1131A7086E195E011969C938E9312968CE495E002
S1131A8011969C938E9312968DE795E011969C93F4
S1131A908E9312968EEA95E011969C938E931296ED
S1131AA08BEA94E111969C938E93129689E494E1C7
S1131AB011969C938E9312968AE794E111969C93C7
S1131AC08E9312968FED95E011969C938E931296B9
S1131AD080EE94E111969C938E9312968EEB90E196
S1131AE011969C938E93129686E891E111969C939D
S1131AF08E93129684E395E18D939C93E458FF4F63
S1131B0087E190E1918380835AD8E091D20DF091DE
S1131B10D30DE659FF4F0190F081E02DCE010196DF
S1131B201995898180FF5BC1E091D20DF091D30DAD
S1131B30E95BFF4F84E0808380E054C181322AEB6B
S1131B40920720E2A207B10509F035C18EE094E0C6
S1131B500E942D35E091D20DF091D30D80E090E0FC
S1131B60A0E0B8E085A796A7A7A7B0AB80E098E06F
S1131B70A0E0B0E085879687A787B08B80E090E0EF
S1131B80A1E0B0E081A392A3A3A3B4A380E190E079
S1131B90A0E0B0E085A396A3A7A3B0A780E090E857
S1131BA0A0E0B0E0818B928BA38BB48B80E090E1BA
S1131BB0A0E0B0E081A792A7A3A7B4A78CE090E02F
S1131BC0A0E0B0E0858B968BA78BB08F80E090E08F
S1131BD0A8E0B0E0858F968FA78FB0A380E091E056
S1131BE0A0E0B0E0818F928FA38FB48F80E490E067
S1131BF0A0E0B0E081AB92ABA3ABB4AB8FEF90E0CD
S1131C00A0E0B0E081879287A387B48784E085ABA6
S1131C1080E090E0A0E0B2E086AB97ABA0AFB1AFBC
S1131C2089E190E0A0E0B0E082AF93AFA4AFB5AF9C
S1131C30DF01A95BBF4F83E08C9313968BED93E098
S1131C4011969C938E9312968EE594E011969C9334
S1131C508E93129687EC92E111969C938E93129632
S1131C608EED9FE011969C938E93129688EE92E1EE
S1131C7011969C938E93129684E693E111969C930D
S1131C808E9312968AED93E111969C938E931296FD
S1131C9011961C921E9250978DEC93E011969C9392
S1131CA08E9352968FE894E011969C938E9312969D
S1131CB08EEB94E011969C938E93129611961C923F
S1131CC01E92129611961C921E9212968DEE94E01C
S1131CD011969C938E93129686E195E011969C93AF
S1131CE08E9312968CE495E011969C938E931296A3
S1131CF08DE795E011969C938E9312968EEA95E06B
S1131D0011969C938E9312968BEA94E111969C9370
S1131D108E93129689E494E111969C938E93129675
S1131D208AE794E111969C938E9312968FED95E039
S1131D3011969C938E93129680EE94E111969C9347
S1131D408E9312968EEB90E111969C938E9312963D
S1131D5086E891E111969C938E93129684E395E123
S1131D608D939C93E458FF4F87E190E191838083A6
S1131D700E94DF058EE194E09F938F930E941535B6
S1131D80E091D20DF091D30DE659FF4F0190F0810F
S1131D90E02DCE010196199589810F900F9080FF57
S1131DA020C0E091D20DF091D30DE95BFF4F84E0A8
S1131DB0808380E017C0BF93AF939F938F9385E296
S1131DC094E09F938F930E9415350F900F900F907E
S1131DD00F900F900F9083E105C080E003C080E076
S1131DE001C080E00F900F900F900F900F90DF9143
S1131DF0CF911F910F910895CF93DF931F92CDB789
S1131E00DEB7E091D20DF091D30D80819181A28152
S1131E10B381AC01BD0140525A4B6042710942305A
S1131E2051056105710528F080329B4BA042B10534
S1131E3051F4CE0101960E94AE0589818095881FD8
S1131E408827881F06C0CE0101960E945E048981FE
S1131E5081700F90DF91CF910895CF92DF92EF922E
S1131E60FF926115710581059105A9F0C09058088C
S1131E70D0905908E0905A08F0905B089B01AC019F
S1131E806FEF7FEF8FEF90E00E944E32C616D706B9
S1131E90E806F90650F0109258081092590810926A
S1131EA05A0810925B088AE00EC08FEFC81AD80A4D
S1131EB0E80AF80AC0925808D0925908E0925A08E1
S1131EC0F0925B0889E0FF90EF90DF90CF90089547
S1131ED0FA01233021F481837283638308952430CB
S1131EE021F4918382837383648308954F925F9274
S1131EF06F927F928F929F92AF92BF92CF92DF9216
S1131F00EF92FF920F931F93CF93DF93CDB7DEB77A
S1131F1061970FB6F894DEBF0FBECDBFAE2DE09132
S1131F20D20DF091D30DC5A4D6A4E7A4F0A86C15E6
S1131F307D058E059F0550F5480159016A01E95B4D
S1131F40FF4F2081422F50E04F5F5F4F2A01550F12
S1131F50660877084B825C826D827E82AE01435FA5
S1131F605F4F5A834983AD87B3DF89869A86AB86F0
S1131F70BC86D886CF8223E041E0BE01695F7F4FF3
S1131F80CE0101960E94251880E001C081E061968F
S1131F900FB6F894DEBF0FBECDBFDF91CF911F9176
S1131FA00F91FF90EF90DF90CF90BF90AF909F90F4
S1131FB08F907F906F905F904F900895EF920F9362
S1131FC01F9390E0FC013697E730F10558F5882718
S1131FD0E656FF4F8F4F0C949B320F2EFBE0EF2EF3
S1131FE0F02D13C00F2EFBE3EF2EF02D0EC00F2E9D
S1131FF0FBE6EF2EF02D09C00F2EFAE5EF2EF02DA3
S113200004C00F2EF3E0EF2EF02DFB0104811581A7
S113201026813781408551856081718182819381D8
S113202065DF01C087E01F910F91EF9008958F92B3
S11320309F92AF92BF92EF92FF920F931F93CF9311
S1132040DF93CDB7DEB761970FB6F894DEBF0FBE4E
S1132050CDBF7C014A015B01E091D20DF091D30D1B
S1132060E95BFF4F008110E00F5F1F4F012E000C52
S1132070220B330B0B831C832D833E83AE01435F02
S11320805F4F5A8349838BE48D8723E060E070E0DF
S1132090CB011EDF89869A86AB86BC86F886EF82E2
S11320A023E041E0BE01695F7F4FCE010196CDD7A9
S11320B080E061960FB6F894DEBF0FBECDBFDF910E
S11320C0CF911F910F91FF90EF90BF90AF909F9091
S11320D08F900895CF92DF92EF92FF926C0160E0AF
S11320E070E0CB01BADE0D2C000CEE08FF0805C031
S11320F0C701B601B2DE8A3019F07EDE8111F8CF55
S1132100FF90EF90DF90CF9008951F93CF93DF93CC
S1132110CDB7DEB728970FB6F894DEBF0FBECDBF9C
S1132120182FE091D20DF091D30DE65AFF4F019094
S1132130F081E02D199582E090E0A0E0B0E08B837F
S11321409C83AD83BE83CE0107969A83898381E005
S11321508F83188723E041E060E070E0CE010196B0
S113216074D781E090E0B6DF28960FB6F894DEBF0E
S11321700FBECDBFDF91CF911F9108952F923F9253
S11321804F925F926F927F928F929F92AF92BF9283
S1132190CF92DF92EF92FF920F931F93CF93DF932F
S11321A000D000D0CDB7DEB769837A838B839C835C
S11321B029013A01E091D20DF091D30DC1A0D2A032
S11321C085849684A784B0880E948F040D2C000C0B
S11321D0EE08FF08C301B201A70196010E945D3217
S11321E029013A013E832D832115310509F46EC07E
S11321F08401821693060CF46BC069817A818B8109
S11322009C81A70196010E945D3229833A834B8306
S11322105C832115310531F0240D351D2815390550
S113222009F058C0C201019748225922452809F0F3
S113223053C0640111231CF43FEFC31AD30AD5948D
S1132240C7940D2C000CEE08FF0881E029813A8127
S11322504B815C812C153D054E055F0508F080E03F
S113226010161106ACF44D815E814130510591F098
S113227021E030E091E005C0ED81FE81E217F30733
S113228051F09F5F220F331F02171307ACF703C0EF
S113229091E001C091E0392F3770330F330F8295ED
S11322A0880F807E282F232B93FB222420F8312CA7
S11322B0C101002496958795079496958795079470
S11322C0982F802D822B21DF80E007C081E005C09C
S11322D081E003C081E001C081E026960FB6F89446
S11322E0DEBF0FBECDBFDF91CF911F910F91FF9045
S11322F0EF90DF90CF90BF90AF909F908F907F90A2
S11323006F905F904F903F902F90089580E0FDDE96
S113231080E008954F925F926F927F928F929F9286
S1132320AF92BF92CF92DF92EF92FF920F931F93DF
S1132330CF93DF93CDB7DEB72C970FB6F894DEBFFB
S11323400FBECDBFAE2DE091D20DF091D30DC5A43B
S1132350D6A4E7A4F0A86C157D058E059F0508F0AA
S113236052C0EA2E480159016A012B013C0144DDA7
S113237081114BC0E091D20DF091D30DE65AFF4F7D
S11323800190F081E02D1995E091D20DF091D30DDB
S1132390E95BFF4F2081822F90E00196092E000C0B
S11323A0AA0BBB0B8B839C83AD83BE83AE01495FB9
S11323B05F4F5A834983EF82C301B20189DD22E072
S11323C041E060E070E0CE0101963FD68B829C82B2
S11323D0AD82BE82DA82C98223E041E060E070E02F
S11323E0CE01019632D681E090E074DE182FCE0142
S11323F00C960E94AE050E94ED048C858271823198
S113240031F0812F05C081E003C089E001C08CE078
S11324102C960FB6F894DEBF0FBECDBFDF91CF91DF
S11324201F910F91FF90EF90DF90CF90BF90AF90EE
S11324309F908F907F906F905F904F9008952F9210
S11324403F924F925F926F927F928F929F92AF9240
S1132450BF92CF92DF92EF92FF920F931F93CF938D
S1132460DF934B015C016A011901F02EE091D20D5A
S1132470F091D30DE65AFF4F0190F081E02D1995AC
S1132480E091D20DF091D30D41855285CA01882186
S11324909921C18DD28DC81BD90BC423D5232C16E9
S11324A03D0608F4E1012097D1F4CE01A0E0B0E0AC
S11324B0E091D20DF091D30D018D128D238D348DC9
S11324C02101612C712CAC01BD01400F511F621F11
S11324D0731F441555056605770560F030C08E01FD
S11324E020E030E0EF2CA601C501B40113DF8823FE
S11324F0E1F23AC0BC01CD01680D791D8A1D9B1D16
S1132500EF2CA6014C0F5D1F05DF81112DC0E0915A
S1132510D20DF091D30D018D128D238D348DC00F0A
S1132520D11FCE01A0E0B0E0AC01BD01400F511FAE
S1132530621F731F4415550566057705D8F2C21549
S1132540D30588F481010C1B1D0B20E030E0A601AB
S11325504C0F5D1FBC01CD01680D791D8A1D9B1DAB
S1132560EF2CD8DE01C080E0DF91CF911F910F9155
S1132570FF90EF90DF90CF90BF90AF909F908F909F
S11325807F906F905F904F903F902F9008950F939E
S11325908F3079F028F48D3061F08E3031F015C031
S11325A0803129F0813189F404C002EA03C002E3D6
S11325B001C002E0FB0124813581408551856081A1
S11325C07181828193813BDF01C087E00F9108957F
S11325D0CF92DF92EF92FF920F931F93CF93DF93EB
S11325E0CDB7DEB72C970FB6F894DEBF0FBECDBFC4
S11325F0E091D20DF091D30D8C0120E030E04585BF
S1132600568567857089041715072607370708F06C
S113261047C0E85BFF4F0190F081E02D19956B01F5
S11326207C01EADB81113EC0E091D20DF091D30D23
S1132630E65AFF4F0190F081E02D1995E091D20DFB
S1132640F091D30DE95BFF4F2081822F90E001963A
S1132650092E000CAA0BBB0B8B839C83AD83BE831A
S1132660AE01495F5F4F5A83498388ED8F83C70169
S1132670B6012EDC23E041E060E070E0CE0101967B
S1132680E4D483E090E026DDCE010C960E94AE05F2
S11326900E94ED048C858272823231F080E005C0A4
S11326A086E003C089E001C08CE02C960FB6F89454
S11326B0DEBF0FBECDBFDF91CF911F910F91FF9071
S11326C0EF90DF90CF900895FF920F931F93CF93D5
S11326D0DF93CDB7DEB72C970FB6F894DEBF0FBEED
S11326E0CDBFE091D20DF091D30D8C0120E030E00C
S11326F041895289638974890417150726073707A6
S113270008F047C08C01F58877DB811144C0E09163
S1132710D20DF091D30DE65AFF4F0190F081E02DD8
S11327201995E091D20DF091D30DE95BFF4F208113
S1132730822F90E00196092E000CAA0BBB0B8B8311
S11327409C83AD83BE83AE01495F5F4F5A83498347
S113275080E28F83B80102C0660F771FFA94E2F714
S113276080E090E0B5DB23E041E060E070E0CE0182
S113277001966BD483E090E0ADDCCE010C960E9410
S1132780AE050E94ED048C858272823231F080E0C5
S113279005C086E003C089E001C08CE02C960FB62A
S11327A0F894DEBF0FBECDBFDF91CF911F910F9183
S11327B0FF900895FF920F931F93CF93DF93CDB7AC
S11327C0DEB72C970FB6F894DEBF0FBECDBFE091F5
S11327D0D20DF091D30D25A930E08217930708F0AC
S11327E047C08C01F2AC08DB811144C0E091D20DEA
S11327F0F091D30DE65AFF4F0190F081E02D199529
S1132800E091D20DF091D30DE95BFF4F2081822F2F
S113281090E00196092E000CAA0BBB0B8B839C83C2
S1132820AD83BE83AE01495F5F4F5A83498384EC15
S11328308F83B80102C0660F771FFA94E2F780E035
S113284090E046DB23E041E060E070E0CE010196D9
S1132850FCD380EE91E03EDCCE010C960E94AE05E6
S11328600E94ED048C858272823231F080E005C0D2
S113287086E003C089E001C08CE02C960FB6F89482
S1132880DEBF0FBECDBFDF91CF911F910F91FF909F
S113289008951F93CF93DF93CDB7DEB728970FB674
S11328A0F894DEBF0FBECDBF182F0E948F0482E0C4
S11328B090E0A0E0B0E08B839C83AD83BE83CE0127
S11328C007969A83898381E88F83188723E041E000
S11328D060E070E0CE010196B8D381E090E0FADBCD
S11328E028960FB6F894DEBF0FBECDBFDF91CF910F
S11328F01F9108951F93CF93DF93CDB7DEB7289729
S11329000FB6F894DEBF0FBECDBF182F0E948F0400
S113291082E090E0A0E0B0E08B839C83AD83BE8333
S1132920CE0107969A83898381E68F83188723E0F3
S113293041E060E070E0CE01019687D381E090E051
S1132940C9DB28960FB6F894DEBF0FBECDBFDF916A
S1132950CF911F9108950F931F93CF93DF93CDB71A
S1132960DEB729970FB6F894DEBF0FBECDBF182F80
S1132970092F0E948F0483E090E0A0E0B0E08B83F5
S11329809C83AD83BE83CE0107969A83898381EBB2
S11329908F830887198723E041E060E070E0CE016F
S11329A0019653D381E090E095DB29960FB6F89415
S11329B0DEBF0FBECDBFDF91CF911F910F91089560
S11329C01F93CF93DF93CDB7DEB728970FB6F89454
S11329D0DEBF0FBECDBF89EE8F830E948F0481E0DE
S11329E090E0A0E0B0E08B839C83AD83BE83CE01F6
S11329F007969A83898323E041E060E070E00697BC
S1132A0024D38CE394E00E942D3581E090E062DBD6
S1132A10182FE091D20DF091D30DE659FF4F01909C
S1132A20F081E02DCE0108961995888580FF09C0B4
S1132A30E091D20DF091D30DE95BFF4F84E08083E8
S1132A4008C0E091D20DF091D30DE95BFF4F83E014
S1132A508083812F28960FB6F894DEBF0FBECDBFBA
S1132A60DF91CF911F9108952F923F924F925F92E1
S1132A706F927F928F929F92AF92BF92CF92DF928A
S1132A80EF92FF920F931F93CF93DF93CDB7DEB7EF
S1132A902D970FB6F894DEBF0FBECDBF8C014A014F
S1132AA05B012DB73EB73D872C87E091D20DF091A5
S1132AB0D30D41A852A863A874A8D301C2010196FA
S1132AC0A11DB11D281B390B0FB6F8943EBF0FBED4
S1132AD02DBF8DB79EB701961C01BC014814590443
S1132AE06A047B0408F479C081149104A104B1043C
S1132AF0A9F090E0292F30E0FB01E20FF31FD80189
S1132B00A20FB31F8C9180839F5FC92ED12CE12C1F
S1132B10F12CC814D904EA04FB0460F3982DA50130
S1132B2094013327442755272415350546055705B1
S1132B3070F4FB01E90FF11D10829F5FC92ED12CA7
S1132B40E12CF12CC414D504E604F70490F3F1014C
S1132B50E40DF51D108250D9811141C0E091D20DD0
S1132B60F091D30DE65AFF4F0190F081E02D1995B5
S1132B70E091D20DF091D30DE95BFF4F808190E09D
S1132B800196092E000CAA0BBB0B8B839C83AD838F
S1132B90BE83AE01495F5F4F5A83498382E48F83CA
S1132BA023E060E070E0CB0193D922E041E060E0F3
S1132BB070E0CE01019649D28B829C82AD82BE82A6
S1132BC01A83098323E041E060E070E0CE010196BE
S1132BD03CD281E090E07EDA03C081E001C089E06C
S1132BE02C853D850FB6F8943EBF0FBE2DBF2D96A4
S1132BF00FB6F894DEBF0FBECDBFDF91CF911F910A
S1132C000F91FF90EF90DF90CF90BF90AF909F9087
S1132C108F907F906F905F904F903F902F9008958A
S1132C202EE432E0FC0135872487089580E090E0AB
S1132C30089580E090E0089526E432E0FC013183B9
S1132C402083089580E090E0089583E090E0089563
S1132C500C944F0308950E946703BC01990F880BDD
S1132C60990B0E94AF2D9F938F937F936F9382E56F
S1132C7094E09F938F930E9415350F900F900F90BF
S1132C800F900F900F90089584E694E00E942D35E4
S1132C9080E090E00895EF92FF920F931F93CF93FB
S1132CA0DF937C018B018EE090E00E94C232EC0144
S1132CB086E492E0998388838EE492E09D878C87F2
S1132CC08EE191E29987888782E291E29B878A87E5
S1132CD0FB82EA821F830E8380917A0D90917B0D93
S1132CE09D838C83B801680F791F70937B0D60936B
S1132CF07A0D7F936F9384E794E09F938F930E9460
S1132D0015350F900F900F900F90CE01DF91CF915A
S1132D101F910F91FF90EF90089584E880937A00BB
S1132D2085EC80937700EBE7F0E080818823ECF773
S1132D3008951F920F920FB60F9211240BB60F92A3
S1132D402F933F934F935F936F937F938F939F93AF
S1132D50AF93BF93EF93FF938091600890916108C4
S1132D600196909361088093600880915F088F9327
S1132D7080915E088F9380915D088F9380915C08A9
S1132D808F9388E894E09F938F930E941535F7D62C
S1132D900F900F900F900F900F900F90FF91EF9165
S1132DA0BF91AF919F918F917F916F915F914F915F
S1132DB03F912F910F900BBE0F900FBE0F901F905D
S1132DC0189510925C0810925D0810925E0810929B
S1132DD05F081092610810926008E6EBF0E08081D1
S1132DE08062808380818F71E9F71092B100089529
S1132DF0CF92DF92EF92FF926B017C01E6EBF0E061
S1132E0080818F71E9F71092B100E6EBF0E08081E8
S1132E108F71E9F78BEFC816D104E104F104ECF4E7
S1132E20C701B6010E94AF2D2FE632E143E85FE30C
S1132E300E94632E0E947C2D20E031E0C901861B94
S1132E40970B8F3F910519F014F08FEF90E080936A
S1132E50B20083E08093B10094C085EFC81681E08E
S1132E60D806E104F104ECF4C701B6010E94AF2DC9
S1132E702FE632E143E05FE30E94632E0E947C2D43
S1132E8020E031E0C901861B970B8F3F910519F0B3
S1132E9014F08FEF90E08093B20084E08093B1004F
S1132EA070C089EEC81683E0D806E104F104ECF49E
S1132EB0C701B6010E94AF2D2FE632E143E85EE37D
S1132EC00E94632E0E947C2D20E031E0C901861B04
S1132ED0970B8F3F910519F014F08FEF90E08093DA
S1132EE0B20085E08093B1004CC081EDC81687E044
S1132EF0D806E104F104ECF4C701B6010E94AF2D39
S1132F002FE632E143E05EE30E94632E0E947C2DB3
S1132F1020E031E0C901861B970B8F3F910519F022
S1132F2014F08FEF90E08093B20086E08093B100BC
S1132F3028C081E4C8168FE1D806E104F104ECF45A
S1132F40C701B6010E94AF2D2FE632E143E05DE3F5
S1132F500E94632E0E947C2D20E031E0C901861B73
S1132F60970B8F3F910519F014F08FEF90E0809349
S1132F70B20087E08093B10004C089E994E00E9424
S1132F802D351092B00080915C0890915D08A0915D
S1132F905E08B0915F08C80ED91EEA1EFB1EC092DF
S1132FA05C08D0925D08E0925E08F0925F08FF90A2
S1132FB0EF90DF90CF9008951BDF87E087BB81E01F
S1132FC0809370000895CF92DF92EF92FF926B018D
S1132FD07C01FF92EF92DF926F938BEA94E09F93D0
S1132FE08F930E9415350F900F900F900F900F90B4
S1132FF00F90C114D104E104F10469F080916008D8
S113300090916108892B21F4C701B601D5DF03C073
S1133010C701B601EDDEFF90EF90DF90CF900895E9
S11330208AB1806C8AB908955F9A089584B1807FCB
S113303084B984B1876084B981E58CBD08958EBD5F
S11330400DB407FEFDCF8EB508958F929F92AF9277
S1133050BF92CF92DF92EF92FF920F931F93CF9381
S1133060DF937C018B0181EC94E09F938F930E940A
S113307015350F900F90F70182819381A481B5815A
S1133080892B8A2B8B2B09F49CC0C0E0D0E00F2E37
S1133090F8ECCF2EF4E0DF2EF02DD701ED91FC916A
S11330A0EC0FFD1F80811F928F93DF92CF920E94BD
S11330B015352196F70182819381A481B581AE01F2
S11330C00D2E000C660B770B0F900F900F900F9046
S11330D0481759076A077B0700F39C014081518117
S11330E00115110509F45EC0F80182809380B08057
S11330F0A180EC012197892B19F40CC0812C912C0F
S1133100C42ED52ED6018D916D0199DFCE01219764
S1133110892BC1F78114910451F0EB2CFA2CE401B2
S11331208FEF8DDFF70181937F012197C9F780ED40
S113313094E09F938F930E9415350F900F90F801A0
S113314082819381A481B581892B8A2B8B2B09F4ED
S113315041C0C0E0D0E00F2EF8ECEF2EF4E0FF2EDB
S1133160F02DD801ED91FC91EC0FFD1F80811F9291
S11331708F93FF92EF920E9415352196AE010D2E8A
S1133180000C660B770B0F900F900F900F90F801C7
S113319082819381A481B581481759076A077B0707
S11331A000F318C0E9012197232B09F0A7CFBFCF63
S11331B0D80112968D909C901397BC901196AC9068
S11331C0A9CFF701408151810115110589F720E04C
S11331D030E0E8CF81E0DF91CF911F910F91FF9014
S11331E0EF90DF90CF90BF90AF909F908F90089515
S11331F09B01AC011092B90060E074E284EF90E0AE
S11332000E945D32DA01C9014097A109B1096894AD
S113321012F8B695A795979587951694D1F780934C
S1133220B80084E08093BC0081E008958093BB00E3
S113323084E88093BC00ECEBF0E080818823ECF719
S11332408091B900887F089594EE9093BC00ECEBD4
S1133250F0E090819923ECF7EFE9FFE03197F1F783
S113326000C000009091B900987F983031F09031FF
S113327021F08091B900887F0895880FD7CF0895F1
S113328094EE9093BC00ECEBF0E090819923ECF782
S11332909091B900987F983031F0903121F080916D
S11332A0B900887F0895880F8160C0CF0895DC013C
S11332B084EC8093BC00ECEBF0E090819923ECF774
S11332C08091BB008C938091B900887F0895DC01C4
S11332D084E88093BC00ECEBF0E090819923ECF758
S11332E08091BB008C938091B900887F089584E914
S11332F08093BC0081E008959F92AF92BF92CF92D9
S1133300DF92EF92FF920F931F93CF93DF931616E2
S11333101706FCF4942E8B017C01C0E0D0E06B0115
S113332081E0C81AD1085701AC0CBD1C911006C02D
S1133330CC16DD0619F4C501CADF04C0C7018C0F21
S11333409D1FB5DF803531F42196C017D10771F781
S113335001C080E0DF91CF911F910F91FF90EF901A
S1133360DF90CF90BF90AF909F9008950F931F93DD
S1133370CF93DF931616170664F48C01EC01060F45
S1133380171F899153DF883229F4C017D107C9F771
S113339001C080E0DF91CF911F910F91089528E53E
S11333A032E03093040E2093030EDC01CB01880F2E
S11333B0991FAA1FBB1F880F991FAA1FBB1F9C011F
S11333C0AD01220F331F441F551F220F331F441F0B
S11333D0551F60E074E284EF90E00E945D3221505A
S11333E031093093C5002093C40086E08093C20065
S11333F088E18093C1000895E0ECF0E0908195FFAE
S1133400FDCF8093C6000895CF93C82F8A3011F45E
S11334108DE0F2DF8C2FF0DF80E090E0CF91089513
S113342014BE0FB6F894A8958091600088618093CB
S11334306000109260000FBEE1E6F0E080E8808357
S11334401082789401C008951092D40D80E29EE415
S11334509093A9008093A800E1EAF0E088E08083DB
S1133460808182608083E2E7F0E0808182608083F3
S113347008951F920F920FB60F9211248F9380918B
S1133480D40D8F5F8093D40D8F910F900FBE0F904A
S11334901F901895E5EDFDE01482158211821082CB
S11334A017A216A2EBEDFDE08BEF9DE011921192B5
S11334B0E817F907D9F7E3D067D010D00AC0089508
S11334C0E82FF0E0EE0FFF1FE552F24F71836083A7
S11334D00895109263081092620808951092640887
S11334E01092ED08109276091092FF091092880A42
S11334F00895009741F0FC01E757FF4F8BE0E1315D
S1133500F80718F015C0E4E6F8E08081882339F064
S113351003C08081882319F08E2F9F2F0895E757C9
S1133520FF4F8BE0E131F807A0F380E090E00895CD
S113353080E090E00895DC0119962C9119972223DC
S113354049F01796ED91FC9118972081211104C040
S1133550B9C0089580E0089580E00895BC01E2E2D6
S1133560FBE024E53BE040E051E09081992319F031
S113357091509083452F3596E217F307B1F7442312
S113358011F0CB012FC40895E2E2FBE084E59BE057
S113359010823596E817F907D9F7E1E1FBE084E6F4
S11335A090E0A0E0B0E086839783A087B18712867D
S11335B08EEA9AE1948783876BE97AE180E080CF91
S11335C00895EF92FF920F931F93CF937C0110E025
S11335D080E090E001E0C3E113C0FC0120812131CF
S11335E079F4EC57FF4F2081318121503109318327
S11335F02083232B21F4FC01C083102F01C0102F42
S113360078DF009751F7112311F0C701EBD3CF9165
S11336101F910F91FF90EF900895EF92FF920F93F7
S11336201F93CF93DF937C0110E080E090E001E0F2
S1133630D7E1C0E116C0FC012081263191F4EC579A
S1133640FF4F208131812150310931832083232B85
S113365039F4FC01D083ED57FF4FC083102F01C014
S1133660102F47DF009739F7112311F0C701BAD3A0
S1133670DF91CF911F910F91FF90EF9008951092D9
S11336806B0B10926A0BEDE5FBE082E390E0A0E0A7
S1133690B0E086839783A087B18712868DE09BE193
S11336A094878387E0E5FBE08AE090E0A0E0B0E067
S11336B086839783A087B187128681EE9AE19487E7
S11336C083870895CF93DF93FC01C781D0858185DB
S11336D08330C1F480E090E010C0FC0120812631E9
S11336E061F434852981321308C027E120832A81BB
S11336F0EA57FF4F208381E006C0FBDE009769F79D
S113370080E001C080E0DF91CF91089593E0909331
S11337104201E1E4F1E090819F719830E1F78093F8
S11337204201E1E4F1E090819F719813FCCF089588
S1133730E9E3F1E080818160808310926D0B109247
S11337406C0B81E080936E0B88E0E0DF8BEE80935E
S11337505601ECE4F1E080818068808308950F9342
S11337601F93CF93DF93EC01892B59F486ED94E0FA
S11337709F938F930E9415350F900F9080E090E0F7
S113378070C008891989988D9130A9F038F0923069
S113379009F44EC0943009F45AC061C0D801ED91C7
S11337A0FC910280F381E02DC801199581E0888F96
S11337B080E090E056C0D8011C96ED91FC911D97D5
S11337C00480F581E02DC80119958F3FBFEF9B0759
S11337D029F484E0888F80E090E043C0009781F46E
S11337E081E0888FD8011C96ED91FC911D9706808D
S11337F0F781E02D88899989199580E090E031C09E
S113380022E0288F092E000CAA0BBB0B8C839D830E
S1133810AE83BF838C879D87AE87BF878091780DE9
S11338209091790D29D3CE01DBD081E090E019C0CD
S113383081E0888FD8011C96ED91FC911D9706803C
S1133840F781E02DC801199580E090E00AC08BEE65
S113385094E00E942D35188E80E090E002C080E054
S113386090E0DF91CF911F910F9108950F931F93D3
S1133870CF93DF93FC01C289D38904891589892BED
S113388029F486ED94E00E942D3535C0908D99235E
S113389019F0913021F02FC081E0808F2CC0E88195
S11338A0F9810680F781E02DCE011995059781F401
S11338B08AE095E00E942D35EA81FB810280F38144
S11338C0E02DCE01199586E195E00E942D3513C0B7
S11338D0E881F9810680F781E02DCE0119950497DE
S11338E051F4D8011296ED91FC9113970280F38163
S11338F0E02DC801199580E090E0DF91CF911F91F0
S11339000F9108950F931F93CF93DF93E4E7FDE0A6
S1133910F093790DE093780DF383E283F183E083F0
S1133920ECECFDE0F093D10DE093D00DF383E28352
S1133930F183E083C4ECDBE004E71DE0BE01809189
S1133940D00D9091D10D62D26B96C017D107B1F70B
S1133950DF91CF911F910F910895CF92DF92EF9253
S1133960FF926B017C018091780D9091790D45D285
S1133970009769F0FC0144815581668177814C1977
S11339805D096E097F094483558366837783FF90BD
S1133990EF90DF90CF9008958091780D9091790DFC
S11339A02CD2009769F489E295E00E942D358EE6C9
S11339B095E00E942D3560E47FE180E090E0089579
S11339C0FC0164817581868197816034FFE17F0702
S11339D08105910524F060E47FE180E090E00895A2
S11339E00F931F93CF93DF93DC01C091780DD09197
S11339F0790DEA81FB81CE17DF0771F1309731F140
S1133A00048115812681378114964D915D916D91C4
S1133A107C91179740175107620773076CF4041BD6
S1133A20150B260B370B0483158326833783BD01BF
S1133A3080819181EBD118C0401B510B620B730B39
S1133A4014964D935D936D937C9317970280F38145
S1133A50E02DCE17DF0791F6E091780DF091790D06
S1133A60BD0180819181D2D1DF91CF911F910F91BE
S1133A7008954F925F926F927F928F929F92AF922E
S1133A80BF92EF92FF920F931F932B013C014901C8
S1133A905A018091D00D9091D10DEED1FC01892B6A
S1133AA0D9F0448255826682778280869186A28686
S1133AB0B3861486158616861786118B008BF78AB3
S1133AC0E68A81E0808F8FEA9BE1928F818FCF011C
S1133AD087DF80E090E002C08FEF9FEF1F910F918E
S1133AE0FF90EF90BF90AF909F908F907F906F90DA
S1133AF05F904F9008954F925F926F927F928F9252
S1133B009F92AF92BF92EF92FF920F931F932B015C
S1133B103C0149015A018091D00D9091D10DACD155
S1133B20FC01892BE9F04482558266827782808683
S1133B309186A286B3861486158616861786138BFD
S1133B40028B158B048BF78AE68A81E0808F86E3EB
S1133B509CE1928F818FCF0143DF80E090E002C02F
S1133B608FEF9FEF1F910F91FF90EF90BF90AF9059
S1133B709F908F907F906F905F904F900895CF9219
S1133B80DF92EF92FF920F931F93CF93DF93809175
S1133B90780D9091790D31D1EC01892B39F485EBB5
S1133BA095E00E942D358FEF9FEF8BC0888999890E
S1133BB0892B49F48A899B89892B29F48C899D89CD
S1133BC0892B09F47CC08C819D81AE81BF81892BB6
S1133BD08A2B8B2B71F0E0DE6B01770FEE08FF0868
S1133BE0C701B601BADEC701B601EDD980E090E0A5
S1133BF068C0E98DFA8DCE0119950197A9F4CCDE40
S1133C006115710521F4BBDF80E090E05AC06B01BF
S1133C10770FEE08FF08C701B6019FDEC701B601A2
S1133C20D2D980E090E04DC08091780D9091790DCB
S1133C3023D188859985AA85BB850097A105B105FF
S1133C4019F14C855D856E857F858C019D01041B72
S1133C50150B260B370BB901A8010C831D832E838A
S1133C603F83332354F4480F591F6A1F7B1F772364
S1133C70D4F34C835D836E837F831C861D861E86EE
S1133C801F86CE01ADDE06C0BE018091D00D90919D
S1133C90D10DBCD081DE6115710521F470DF80E0A7
S1133CA090E00FC06B01770FEE08FF08C701B60163
S1133CB054DEC701B60187D980E090E002C08FEFDF
S1133CC09FEFDF91CF911F910F91FF90EF90DF90C5
S1133CD0CF900895A5DB67D02BDDDCCB08950F933F
S1133CE01F93CF93DF93EC0180916F0B9091700B36
S1133CF0009709F445C04E815F8168857985FC0190
S1133D0002811381248135814017510762077307AB
S1133D1060F0DC0117C002811381248135814017D2
S1133D2051076207730768F403C0FC01A0E0B0E028
S1133D30041B150B260B370B028313832483358353
S1133D400AC0DF01401B510B620B730BED91FC9118
S1133D501197309701F74A835B836C837D831097B7
S1133D6041F08D919C91119799838883CD93DC9335
S1133D7015C099838883D093700BC0936F0B0EC0CA
S1133D80198218828E819F81A885B9858A839B8335
S1133D90AC83BD83D093700BC0936F0BDF91CF9135
S1133DA01F910F9108951092700B10926F0B08954C
S1133DB0E0916F0BF091700B309771F0E817F907F1
S1133DC021F40CC08E179F0759F00190F081E02D6B
S1133DD03097C1F780E0089580E0089581E0089568
S1133DE081E00895CF93DF93EC01E2DF811102C0FB
S1133DF0CE0175DFDF91CF910895FC01828193811B
S1133E008E179F0711F480E090E00895DC0112966C
S1133E10ED91FC91139771836083DB011396FC93FE
S1133E20EE931297FC01738362838D939C93CB0171
S1133E300895FB01DC0112962D913C9113972817EC
S1133E403907A1F086179707A1F0A081B18182817B
S1133E50938113969C938E931297A281B381808150
S1133E6091818D939C93862F9F2F089580E090E0FD
S1133E70089580E090E00895FC01628173816817E1
S1133E80790711F0D6CF089580E090E008952F923D
S1133E903F924F925F926F927F928F929F92AF92D6
S1133EA0BF92CF92DF92EF92FF920F931F93CF9323
S1133EB0DF93CDB7DEB762970FB6F894DEBF0FBEBF
S1133EC0CDBF9A8B898BDC014D905D906D907C9079
S1133ED00F2EFCE38F2E912CA12CB12CF02DC301BD
S1133EE0B201A50194010E947F3269017A01A4EC18
S1133EF0BFEF0E94AF329B01AC01240D351D461D5E
S1133F00571D29833A834B835C83C701B601A501FE
S1133F1094010E947F3249015A01A4ECBFEF0E9430
S1133F20AF329B01AC012C0D3D1D4E1D5F1D2D8339
S1133F303E834F835887C501B40128E130E040E057
S1133F4050E00E947F32C22ED32EE42EF52EA8EE2E
S1133F50BFEF0E94AF329B01AC01280D391D4A1DF1
S1133F605B1D29873A874B875C87812C912C5401F0
S1133F70689482F80F2EF2EB4F2EF7E05F2E612C3F
S1133F80712CF02D0DE611E0212C312CD301C2014E
S1133F9083709927AA27BB27892B8A2B8B2B09F09F
S1133FA0EAC0C301B20124E630E040E050E00E94E0
S1133FB07F32672B682B692B09F0D0C0C301B20193
S1133FC020E931E040E050E00E947F32672B682B0B
S1133FD0692B09F4C3C0CFC08EE691E0A0E0B0E045
S1133FE042E050E060E070E008C0802F912FA22DE5
S1133FF0B0E041E050E060E0732D840E951EA61EF3
S1134000B71EC81AD90AEA0AFB0A57E085169104B2
S1134010A104B1042CF087E0881A9108A108B10822
S11340209FEF491A590A690A790AB0CFE989FA89CE
S113403084A395A3A6A3B7A3BC01CD01680D791DE4
S11340408A1D9B1D27E030E040E050E00E947F3253
S11340506D877E878F87988BE3E3F6E0812C912C24
S11340605401839440E050E0BA0109C04F5F5F4FB0
S11340706F4F7F4F3FEF831A930AA30AB30A8A0153
S11340809B018191413051056105710529F433206B
S113409009F45BC08F5F59C090E0A0E0B0E0C8169F
S11340A0D906EA06FB066CF0C81AD90AEA0AFB0A22
S11340B0950184018CE088169104A104B104B4F242
S11340C000C089819A81AB81BC81E989FA898087A2
S11340D09187A287B3878D819E81AF81B8858487BC
S11340E09587A687B78789859A85AB85BC85808B9C
S11340F0918BA28BB38BFFEFCF1ADF0AEF0AFF0A73
S1134100A989BA895496CD92DD92ED92FC92579783
S1134110D901C8010196A11DB11DE989FA89808FD1
S1134120918FA28FB38F448E558E668E778E2D8598
S11341303E854F85588920A331A342A353A327C0AA
S1134140C81AD90AEA0AFB0A91CF90E0A0E0B0E0CD
S1134150C816D906EA06FB069CF7B3CFFEE6CF16CF
S1134160F1E0DF06E104F1040CF036CFD701C6011B
S1134170332433945BCF3DE6C31631E0D306E10428
S1134180F1040CF032CFD701C601312C4FCF629627
S11341900FB6F894DEBF0FBECDBFDF91CF911F9154
S11341A00F91FF90EF90DF90CF90BF90AF909F90D2
S11341B08F907F906F905F904F903F902F900895D5
S11341C0CF92DF92EF92FF920F931F93CF93DF93DF
S11341D0EA01CC80DD80EE80FF806C0D7D1D8E1D9C
S11341E09F1D28EE33E040E050E00E947F32C880FB
S11341F0D980EA80FB8089019A010C0D1D1D2E1DBA
S11342003F1D088319832A833B836C837D838E83BC
S11342109F83CE013CDEDF91CF911F910F91FF90E0
S1134220EF90DF90CF900895FC01148215821682DE
S1134230178210821182128213820895FC018481F4
S113424095810895FC012481358186819781820FAF
S1134250931F08951F93CF93DF93EC01162F86E7E6
S11342600E94241988810E94161986E709D8809330
S1134270710B803471F4612F70E040E0CE013CD8C2
S1134280887F883541F433D891E0811105C090E0EE
S113429003C090E001C090E0892FDF91CF911F917E
S11342A008950F931F93CF93DF931F921F92CDB75F
S11342B0DEB78B01898362E0CE010196CBDF8823D0
S11342C059F08A8190E0982F88272981822BF80160
S11342D09183808381E003C0F801118210820F90E2
S11342E00F90DF91CF911F910F9108950F931F931A
S11342F0CF93DF931F921F92CDB7DEB78B018983D3
S113430062E0CE010196A6DF882359F08A8190E00D
S1134310982F88272981822BF8019183808381E05B
S113432003C0F801118210820F900F90DF91CF919A
S11343301F910F9108950F931F93CF93DF931F92B3
S1134340CDB7DEB78B01898361E0CE01019682DFB0
S11343508823A1F089811F928F938FE396E09F9326
S11343608F930E941535898190E0F80191838083B1
S11343700F900F900F900F9081E003C0F80111820D
S113438010820F90DF91CF911F910F910895CF92DA
S1134390DF92EF92FF920F931F93CF93DF931F92BD
S11343A01F92CDB7DEB77B01898300910000109185
S11343B00100B8018C2F8F5FBEDF882351F1C090BC
S11343C00000D0900100B6018C2F8E5FB4DF8823EB
S11343D001F1DF92CF921F930F9385E596E09F93AF
S11343E08F930E94153502951295107F1027007F38
S11343F010278FE0C822DD240C291D29F701118321
S113440000830F900F900F900F900F900F9081E00A
S113441004C0F7011182108280E00F900F90DF91A9
S1134420CF911F910F91FF90EF90DF90CF9008955F
S1134430CF92DF92EF92FF920F931F93CF93DF936C
S11344401F921F92CDB7DEB77B01898300910000D4
S113445010910100B8018C2F8F5F6DDF882309F163
S1134460C0900000D0900100B6018C2F8E5F63DFF6
S11344708823B9F015950795159507951595079512
S113448015950795CC0CDD1CCC0CDD1CCC0CDD1C6F
S1134490CC0CDD1C0C291D29F7011183008381E05C
S11344A004C0F7011182108280E00F900F90DF9119
S11344B0CF911F910F91FF90EF90DF90CF900895CF
S11344C01092810B1092800B10929B0B10929A0BFE
S11344D01092990B1092980B10927F0B10927E0BF6
S11344E01092970B1092960B1092950B1092940BBE
S11344F01092930B1092920B1092910B1092900BBE
S113450010928F0B10928E0B10928D0B10928C0BBD
S113451010928B0B10928A0B1092890B1092880BBD
S113452010927D0B1092870B1092860B10927C0BCD
S11345301092850B1092840B1092830B1092820BB5
S113454010927B0B08950F931F93CF93DF931F92C9
S1134550CDB7DEB7B5DF60E87BE088E8A2DE1F9266
S11345608F930DE616E01F930F930E9415356AE9A9
S11345707BE08AE8BBDE1F928F931F930F930E9408
S1134580153568E97BE08CE8B1DE1F928F931F93A9
S11345900F930E9415356EE77BE08EE882DE1F9252
S11345A08F931F930F930E94153566E97BE080E992
S11345B09DDE1F928F931F930F930E94153564E91C
S11345C07BE082E993DE1F928F931F930F930E94E7
S11345D0153562E97BE084E989DE1F928F931F938E
S11345E00F930E94153560E97BE086E97FDE1F9218
S11345F08F931F930F930E9415350FB6F894DEBF67
S11346000FBECDBF6EE87BE088E970DE1F928F930A
S11346101F930F930E9415356CE87BE08AE966DEF0
S11346201F928F931F930F930E9415356AE87BE0C6
S11346308CE95CDE1F928F931F930F930E941535B4
S113464068E87BE08EE952DE1F928F931F930F93ED
S11346500E9415356DE77BE081EA6DDE1F928F9332
S11346601F930F930E94153580917D0B1F928F939A
S11346708EE796E09F938F930E94153566E87BE062
S113468081EE34DE1F928F931F930F930E94153592
S11346908091870B8F938091860B8F938DE896E0A2
S11346A09F938F930E9415350FB6F894DEBF0FBE0B
S11346B0CDBF6CE77BE083EE3EDE1F928F931F93AA
S11346C00F930E94153580917C0B1F928F938CE978
S11346D096E09F938F930E94153564E87BE084EE07
S11346E056DE1F928F931F930F930E94153580916E
S11346F0850B8F938091840B8F938BEA96E09F9325
S11347008F930E94153562E87BE085EE91DE1F925F
S11347108F931F930F930E9415358091830B8F9372
S11347208091820B8F938AEB96E09F938F930E94E4
S1134730153587EE898361E0CE0101968BDD0FB6D6
S1134740F894DEBF0FBECDBF882341F0898190E08D
S113475090937C0B80937B0B81E004C010927C0BC4
S113476010927B0B1F928F938DE696E09F938F930D
S11347700E94153580917B0B282F082E000C330BDB
S11347803F938F9389EC96E09F938F930E94153506
S113479060E87BE088E885DD0FB6F894DEBF0FBEE5
S11347A0CDBF882309F4F8C06AE97BE08AE89EDD7E
S11347B0882309F4F1C068E97BE08CE897DD88235D
S11347C009F4EAC06EE77BE08EE86BDD882309F428
S11347D0E3C066E97BE080E989DD882309F4DCC075
S11347E064E97BE082E982DD882309F4D5C062E9CB
S11347F07BE084E97BDD882309F4CEC060E97BE0BB
S113480086E974DD882309F4C7C06EE87BE088E993
S11348106DDD882309F4C0C06CE87BE08AE966DDBD
S1134820882309F4B9C06AE87BE08CE95FDD88235A
S113483009F4B2C068E87BE08EE958DD882309F406
S1134840ABC06DE77BE081EA76DD882309F4A4C080
S113485066E87BE081EE4ADD882309F49DC06CE7BD
S11348607BE083EE68DD882309F496C064E87BE08E
S113487084EE8DDD882309F48FC062E87BE085EE49
S1134880D7DD882309F488C087EE898361E0CE01EF
S11348900196E0DC882309F47BC0898190E0909341
S11348A07C0B80937B0B282F082E000C330B3F933B
S11348B08F938091830B8F938091820B8F93809140
S11348C0850B8F938091840B8F9380917C0B1F9227
S11348D08F938091870B8F938091860B8F93809118
S11348E07D0B1F928F938091890B8F938091880BFE
S11348F08F9380918B0B8F9380918A0B8F938091F0
S11349008D0B8F9380918C0B8F9380918F0B8F9352
S113491080918E0B8F938091910B8F938091900B4C
S11349208F938091930B8F938091920B8F938091AF
S1134930950B8F938091940B8F938091970B8F930A
S11349408091960B8F9380917F0B8F9380917E0B38
S11349508F938091990B8F938091980B8F93809173
S11349609B0B8F9380919A0B8F938091810B8F93E4
S11349708091800B8F9388ED96E09F938F930E9494
S113498015350FB6F894DEBF0FBECDBF81E004C06D
S113499010927C0B10927B0B0F90DF91CF911F91A3
S11349A00F91089590937A0B8093790B81E0089589
S11349B01F93CF93DF931F921F92CDB7DEB784EF7F
S11349C089838091790B90917A0B8230910501F162
S11349D02CF4009749F0019789F038C08330910591
S11349E009F1049749F132C085E28A8381E090E0BD
S11349F09093780B8093770B18E02BC089E28A831D
S1134A0081E090E09093780B8093770B1AE021C0BB
S1134A108DE28A8381E090E09093780B8093770B0A
S1134A201FE017C081E38A8381E090E09093780BC4
S1134A308093770B18E10DC08DE58A8381E090E0C7
S1134A409093780B8093770B1DE203C085E28A83F1
S1134A5019E086E70E94241962E070E0CE01019615
S1134A600E94B619883231F40E947719882321F004
S1134A70812F03C08FEF01C08FEF0F900F90DF9154
S1134A80CF911F9108954F925F926F927F92AF9250
S1134A90BF92CF92DF92EF92FF921F93CF93DF9357
S1134AA0CDB7DEB729970FB6F894DEBF0FBECDBFE2
S1134AB05C016B017A0197EF998368E0CE0101965E
S1134AC0C9DB182F882309F4C0C0698170E080E035
S1134AD090E00E94AF2D20E030E040E853E40E94D3
S1134AE0632E2B013C018A81682F70E080E090E006
S1134AF00E94AF2D9B01AC01C301B2012DD72B0144
S1134B003C018B81682F70E080E090E00E94AF2D23
S1134B1020E030E040E85BE30E94632E9B01AC019F
S1134B20C301B20119D720E030E040E851E40E940B
S1134B30632EF50160837183828393836C8170E0BB
S1134B4080E090E00E94AF2D20E030E040E853E4A4
S1134B500E94632E2B013C018D81682F70E080E060
S1134B6090E0FDD79B01AC01C301B201F5D62B0146
S1134B703C018E81682F70E080E090E0F0D720E067
S1134B8030E040E85BE30E94632E9B01AC01C3016B
S1134B90B201E2D620E030E040E851E40E94632E06
S1134BA0F60160837183828393836F8170E080E078
S1134BB090E0D5D720E030E040E853E40E94632E33
S1134BC02B013C018885682F70E080E090E0C7D716
S1134BD09B01AC01C301B201BFD620E030E040E844
S1134BE051E40E94632EF70160837183828393836F
S1134BF080917B0B282F082E000C330B3F938F934F
S1134C008091830B8F938091820B8F938091850B7E
S1134C108F938091840B8F9380917C0B1F928F9341
S1134C208091870B8F938091860B8F9380917D0B5E
S1134C301F928F938FE097E09F938F930E94153577
S1134C400FB6F894DEBF0FBECDBF812F29960FB6E5
S1134C50F894DEBF0FBECDBFDF91CF911F91FF90BF
S1134C60EF90DF90CF90BF90AF907F906F905F9068
S1134C704F9008954F925F926F927F928F929F927E
S1134C80AF92BF92CF92DF92EF92FF92CF93DF93D6
S1134C90EC01FB01C080D180E280F3808091800B25
S1134CA09091810BBC0180E090E057D72B013C012F
S1134CB020E030E040E057E3C701B6010E94632ED4
S1134CC04B015C0120E030E040E059E3C301B20154
S1134CD0FAD79B01AC01C501B4013DD64B015C017F
S1134CE020E030E040E858E3C701B601ECD76B019F
S1134CF07C0120E030E040E85AE3C301B201E3D78D
S1134D009B01AC01C701B60126D66B017C018091E1
S1134D109A0B90919B0BBC01990F880B990B1FD791
S1134D209B01AC01C701B601CED76B017C01A50183
S1134D309401C501B401C7D74B015C014091980BA4
S1134D405091990BBA01550F880B990B08D79B0109
S1134D50AC01C501B401B7D79B01AC01C701B601D1
S1134D60FBD56B017C01C8D66093730B7093740BF5
S1134D708093750B9093760B20E030E040EA55E485
S1134D80C701B60151D66B017C01688379838A839C
S1134D909B8320E030E048EC52E491D718166CF085
S1134DA020E030E048EC52ECC701B60139D6881F48
S1134DB08827881F91E0892701C080E0DF91CF9187
S1134DC0FF90EF90DF90CF90BF90AF909F908F9027
S1134DD07F906F905F904F9008954F925F926F9283
S1134DE07F928F929F92AF92BF92CF92DF92EF9277
S1134DF0FF920F931F93CF93DF938C01EB0160918C
S1134E00730B7091740B8091750B9091760BA7D6F0
S1134E1020E030E040E05FE356D720E030E04AE7AE
S1134E2057E499D56B017C0160918E0B70918F0BC7
S1134E30072E000C880B990B92D6A701960143D735
S1134E4020E030E040E058E33ED7A70196013BD78D
S1134E504B015C016091900B7091910B072E000C3B
S1134E60880B990B7CD6A70196012DD79B01AC0129
S1134E7073D5A501940170D520E030E040E85EE3ED
S1134E8022D74B015C016091940B7091950B072E16
S1134E90000C880B990B63D6A701960114D7A701C0
S1134EA0960111D720E030E040E056E30CD72B0107
S1134EB03C016091960B7091970B072E000C880BA8
S1134EC0990B4DD6A7019601FED69B01AC01C301F7
S1134ED0B20142D520E030E040E056E3F4D620E0D1
S1134EE030E040E057E438D520E030E040E058E3DB
S1134EF0EAD66B017C01288139814A815B8160E0BB
S1134F0070E080E899E427D52B013C016091920B75
S1134F107091930B072E000C880B990B20D620E080
S1134F2030E040E857E4CFD69B01AC01C501B401A1
S1134F3013D520E030E040E859E3C5D69B01AC012D
S1134F40C301B20108D520E030E543EC55E4BBD6FB
S1134F504B015C0180917E0B90917F0BBC0180E042
S1134F6090E0FBD59B01AC01C701B601ACD69B0117
S1134F70AC01C501B40158D56B017C016091880B6B
S1134F807091890B072E000C880B990BE8D5A701AB
S1134F90960199D6A701960196D620E030E040E02C
S1134FA050E391D64B015C0180918A0B90918B0B5D
S1134FB0BC01990F880B990BD2D5A701960183D612
S1134FC020E030E040E058E37ED69B01AC01C5010F
S1134FD0B401C2D44B015C0180918C0B90918D0B78
S1134FE0BC01990F880B990BBAD59B01AC01C50183
S1134FF0B401B2D420E030E040E85DE364D6A70118
S11350009601AAD420E030E048EC52E40DD56B01BF
S11350107C01F801608371838283938320E030E014
S113502046E954E44CD618166CF020E030E048E42D
S113503054E4C701B601F4D4881F8827881F91E07F
S1135040892701C080E0DF91CF911F910F91FF90DC
S1135050EF90DF90CF90BF90AF909F908F907F9014
S11350606F905F904F9008954F925F926F927F92EE
S11350708F929F92AF92BF92CF92DF92EF92FF9264
S1135080CF93DF93EC01FB0180809180A280B380F9
S11350906091730B7091740B8091750B9091760BEA
S11350A05ED520E030E046E957E455D46B017C013D
S11350B020E030E0A901B4D4882309F4DAC020E068
S11350C030E040E856E4C501B401FDD54B015C0174
S11350D08091840B9091850BBC01990F880B990BDF
S11350E03ED520E030E040E859E4EDD59B01AC0129
S11350F0C501B40130D44B015C018091820B9091C5
S1135100830BBC01990F880B990B29D5A701960134
S1135110DAD59B01AC01C501B4011DD420E030E017
S113512040E856E419D420E030E040E058E3CBD521
S11351304B015C0160917B0B062E000C770B880BF6
S1135140990B0DD5A7019601BED520E030E040E8CB
S11351505AE3B9D52B013C0160917C0B70E080E0EF
S113516090E0FBD4A7019601AED520E030E040E00A
S11351705AE3A9D520E030E040E057E4EDD39B01A9
S1135180AC01C301B2019FD520E030E040E85AE30E
S11351909AD520E030E040E05AE4DED36B017C0194
S11351A08091860B9091870BBC01990F880B990B0A
S11351B0D6D420E030E040E056E4CED39B01AC01ED
S11351C0C701B60180D520E030E040E858E37BD544
S11351D09B01AC01C501B40176D56B017C016883E8
S11351E079838A839B8320E030E040E058E36BD5E9
S11351F09B01AC0168D520E030E040E05CE363D57E
S11352004B015C0180917D0B682F70E080E090E0A1
S1135210A4D49B01AC01C501B40155D520E030E014
S113522040E85DE350D59B01AC01C701B60193D3BF
S11352306B017C0120E030E048EC52E440D51816C4
S113524054F480E090E0A8ECB2E488839983AA83C4
S1135250BB8381E011C020E030E0A901C701B601A1
S1135260DFD3882344F4188219821A821B8281E0D6
S113527003C080E001C081E0DF91CF91FF90EF9007
S1135280DF90CF90BF90AF909F908F907F906F9062
S11352905F904F900895CF92DF92EF92FF920F9319
S11352A01F93CF93DF93CDB7DEB72C970FB6F89447
S11352B0DEBF0FBECDBF8C017B016A01AE01475F2B
S11352C05F4FBE016B5F7F4FCE010196DCDB88230D
S11352D021F1BE016B5F7F4FC801CCDC8823C1F094
S11352E0BE016F5F7F4FC70178DD882361F0BE0187
S11352F0675F7F4FC601B8DE811114C084E08093DC
S1135300720B80E010C083E08093720B80E00BC0CE
S113531082E08093720B80E006C081E08093720B80
S113532080E001C081E02C960FB6F894DEBF0FBE7A
S1135330CDBFDF91CF911F910F91FF90EF90DF9040
S1135340CF9008952EE632E0FC0131832083089546
S113535080E090E0089580E090E0089584E090E09B
S1135360089526E632E0FC0133832283089580E029
S113537090E008950F931F93CF93DF93EC010E8178
S11353801F811F930F938CE297E09F938F930E944A
S113539015358E819F8101969F838E8328E3209FFC
S11353A0C001219F900D1124288539850F900F90FD
S11353B00F900F90820F931FDF91CF911F910F9148
S11353C008953F924F925F926F927F928F929F9235
S11353D0AF92BF92CF92DF92EF92FF920F931F93FF
S11353E0CF93DF93CDB7DEB7E8970FB6F894DEBF5F
S11353F00FBECDBF3C018CE497E00E942D35F30134
S113540086819781181619060CF08BC0812C912C7B
S1135410A12CB12C0F2EF8E33F2EF02D0F2EF4E625
S11354204F2EF7E05F2EF02D6E01F1E1CF0ED11C6F
S11354300F2EF9E8EF2EF7E0FF2EF02DF301808513
S11354409185880D991DFC01DE011196232D019093
S11354500D922A95E1F7FC01238D2F93228D2F9332
S1135460218D2F93208D2F93278D2F93268D2F936E
S1135470258D2F93248D2F9323A12F9322A12F9336
S113548021A12F9320A12F9327A12F9326A12F93FE
S113549025A12F9324A12F9323A52F9322A52F93E6
S11354A021A52F9320A52F9327A52F9326A52F93CE
S11354B025A52F9384A58F935F924F920E94153553
S11354C08E010F5F1F4F0FB6F894DEBF0FBECDBF26
S11354D0F80180819181228133810C5F1F4F3F93BA
S11354E02F939F938F93FF92EF920E9415350F9005
S11354F00F900F900F900F900F900C151D0541F712
S11355008AE090E00E942835FFEFAF1ABF0A88E3D3
S1135510880E911CF30186819781A816B9060CF4B4
S11355208DCFF3011782168280E090E0E8960FB6E3
S1135530F894DEBF0FBECDBFDF91CF911F910F91C5
S1135540FF90EF90DF90CF90BF90AF909F908F909F
S11355507F906F905F904F903F900895CF92DF922D
S1135560EF92FF92CF93DF937C018AE090E00E9458
S1135570C232EC01FD82EC828EE692E0998388834C
S113558086E692E09B838A8388E493E0FBD799873D
S1135590888740E050E070E060E00F2EC12CFCE30F
S11355A0DF2EFCE1EF2EF6ECFF2EF02D2AC0E8856D
S11355B0F985E40FF51FC901880F991F880F991FFA
S11355C0E80FF91FC082D182E282F382E885F9856F
S11355D0E40FF51F148A158A168A178AE885F98557
S11355E0E40FF51F108A118A128A138A2F5F3F4F26
S11355F024303105E1F6485C5F4F483483E05807B6
S113560019F0272F362FD3CF1F821E82CE01DF91B0
S1135610CF91FF90EF90DF90CF9008952CE732E088
S1135620FC0131832083089580E090E0089580E0B8
S113563090E0089585E090E0089526E732E0FC01CB
S113564033832283089580E090E00895CF93DF931D
S1135650EC018E819F81892B21F480E997E00E94DF
S11356602D358E819F81DC011296ED91FC9113976B
S11356700680F781E02D199590935708809356087A
S1135680892B09F444C080915C0890915D08A09135
S11356905E08B0915F08BC01CD01882799274CE9C9
S11356A05BE00E94E0208091560890915708409159
S11356B09C0B50919D0B60919E0B70919F0BFC0174
S11356C0408B518B628B738B40960E94471FE091F5
S11356D05608F091570883898F9382898F93818923
S11356E08F9380898F9382EA97E09F938F930E9490
S11356F0153510925C0810925D0810925E081092A5
S11357005F080F900F900F900F900F900F9080E014
S113571090E0DF91CF9108950F931F93CF93DF9380
S11357208C01EB0188E090E02DD7FC011583048304
S1135730D783C6838CE792E09183808386E792E0E7
S113574093838283CF01DF91CF911F910F910895AD
S11357502CE832E0FC0135872487089580E090E04E
S1135760089524E832E0FC0131832083089580E029
S113577090E0089583E090E0089583EB97E00E9421
S11357802D3580E090E0089580EC97E00E942D355F
S113579080E090E00895CF93DF9383ED97E00E943B
S11357A02D3506D9C82FD0E01F928F9382EE97E053
S11357B09F938F930E9415350F900F900F900F9029
S11357C0209719F0CE01019602C080E090E0DF91AD
S11357D0CF910895EF92FF920F931F93CF93DF938E
S11357E0CDB7DEB72C970FB6F894DEBF0FBECDBF92
S11357F08C0183EF97E00E942D35AE01475F5F4F28
S1135800BE016B5F7F4FCE01019645DD8C858F9382
S11358108B858F938A858F9389858F9388858F93C2
S11358208F818F938E818F938D818F938C818F93B2
S11358308B818F938A818F9389818F9382E098E003
S11358409F938F930E941535D8011A96ED91FC9180
S11358501B97C8011995F82EE92ED8011896ED91D9
S1135860FC911997C8011995EF92FF929F938F931A
S113587089E398E09F938F930E941535E091560831
S1135880F091570889819A81AB81BC81808391838F
S1135890A283B383E0915608F09157088D819E81CD
S11358A0AF81B88584839583A683B7830FB6F894B4
S11358B0DEBF0FBECDBF80E090E02C960FB6F8940B
S11358C0DEBF0FBECDBFDF91CF911F910F91FF902F
S11358D0EF900895EF92FF920F931F93CF93DF936E
S11358E07C018B018EE090E04DD6EC018EE191E2DB
S11358F09987888782E291E29B878A8784E892E08D
S1135900998388838CE892E09D878C87FB82EA8266
S11359101F830E8380917A0D90917B0D9D838C83E0
S1135920B801680F791F70937B0D60937A0D7F9394
S11359306F9384E794E09F938F930E9415350F90A3
S11359400F900F900F90CE01DF91CF911F910F9187
S1135950FF90EF9008955058BB27AA270ED075C129
S113596066D130F06BD120F031F49F3F11F41EF476
S11359705BC10EF4E095E7FB51C1E92F77D180F3C9
S1135980BA17620773078407950718F071F49EF538
S11359908FC10EF4E0950B2EBA2FA02D0B01B90187
S11359A090010C01CA01A0011124FF27591B99F091
S11359B0593F50F4503E68F11A16F040A22F232F9D
S11359C0342F4427585FF3CF469537952795A795ED
S11359D0F0405395C9F77EF41F16BA0B620B730B94
S11359E0840BBAF09150A1F0FF0FBB1F661F771F05
S11359F0881FC2F70EC0BA0F621F731F841F48F4BA
S1135A00879577956795B795F7959E3F08F0B3CF3F
S1135A109395880F08F09927EE0F97958795089529
S1135A20D9D008F481E008950CD00FC107D140F01B
S1135A30FED030F021F45F3F19F0F0C0511139C1AC
S1135A40F3C014D198F39923C9F35523B1F3951BEB
S1135A50550BBB27AA2762177307840738F09F5F8B
S1135A605F4F220F331F441FAA1FA9F333D00E2EFA
S1135A703AF0E0E830D091505040E695001CCAF767
S1135A8029D0FE2F27D0660F771F881FBB1F26172C
S1135A9037074807AB07B0E809F0BB0B802DBF01FF
S1135AA0FF2793585F4F2AF09E3F510568F0B6C018
S1135AB000C15F3FECF3983EDCF3869577956795DC
S1135AC0B795F7959F5FC9F7880F911D96958795B0
S1135AD097F90895E1E0660F771F881FBB1F6217CF
S1135AE073078407BA0720F0621B730B840BBA0B8D
S1135AF0EE1F88F7E095089504D06894B111D9C0D9
S1135B000895BCD088F09F5790F0B92F9927B751CA
S1135B10A0F0D1F0660F771F881F991F1AF0BA956D
S1135B20C9F712C0B13081F0C3D0B1E00895C0C04C
S1135B30672F782F8827B85F39F0B93FCCF3869563
S1135B4077956795B395D9F73EF4909580957095C0
S1135B5061957F4F8F4F9F4F0895E89409C097FB3D
S1135B603EF490958095709561957F4F8F4F9F4F30
S1135B709923A9F0F92F96E9BB279395F695879574
S1135B8077956795B795F111F8CFFAF4BB0F11F437
S1135B9060FF1BC06F5F7F4F8F4F9F4F16C08823DE
S1135BA011F096E911C0772321F09EE8872F762F14
S1135BB005C0662371F096E8862F70E060E02AF055
S1135BC09A95660F771F881FDAF7880F9695879541
S1135BD097F90895990F0008550FAA0BE0E8FEEF16
S1135BE016161706E807F907C0F012161306E4079D
S1135BF0F50798F0621B730B840B950B39F40A2696
S1135C0061F0232B242B252B21F408950A2609F473
S1135C10A140A6958FEF811D811D089597F99F6777
S1135C2080E870E060E008959FEF80EC0895002420
S1135C300A941616170618060906089500240A94ED
S1135C4012161306140605060895092E0394000C73
S1135C5011F4882352F0BB0F40F4BF2B11F460FF02
S1135C6004C06F5F7F4F8F4F9F4F089557FD90582B
S1135C70440F551F59F05F3F71F04795880F97FB0C
S1135C80991F61F09F3F79F08795089512161306C6
S1135C901406551FF2CF4695F1DF08C016161706F5
S1135CA01806991FF1CF869571056105089408952A
S1135CB0E894BB2766277727CB0197F908958ADFF5
S1135CC008F48FEF08950BD0C0CFB1DF28F0B6DF12
S1135CD018F0952309F0A2CFA7CF1124EACFC6DF8D
S1135CE0A0F3959FD1F3950F50E0551F629FF001EB
