S00D000041544D4F532E7372656393
S11300000C941B010C9438010C9438010C943801A5
S11300100C9438010C9438010C9438010C94380178
S11300200C9438010C9438010C9438010C94380168
S11300300C9438010C9459060C9438010C94380132
S11300400C9438010C9438010C9438010C94380148
S11300500C9438010C9438010C9438010C94380138
S11300600C9438010C9422070C940A070C94380160
S11300700C9438010C9438010C9438010C94380118
S11300800C9438010C9438010C9438010C94380108
S11300900C9438010C9438010C9438010C943801F8
S11300A00C9438010C9438010C947D060C9438019E
S11300B00C9438010C9438010C9438010C943801D8
S11300C00C9438010C9438010C9438010C943801C8
S11300D00C9438010C9438010C9438010C943801B8
S11300E00C9438010C9438010C9438010C943801A8
S11300F00C9438010C9438010C9438010C94380198
S11301000C9438010C9438010C9438010C94380187
S11301100C9438010C9438010C9438010C94380177
S11301200C9438010C9438010C9438010C94380167
S11301300C9438016E616E00696E660000407A109E
S1130140F35A00A0724E18090010A5D4E80000E884
S11301507648170000E40B54020000CA9A3B0000E2
S113016000E1F505000080969800000040420F0071
S11301700000A08601000000102700000000E80332
S1130180000000006400000000000A0000000000FD
S11301900100000000002C76D888DC674F0823DFBC
S11301A0C1DFAE59E1B1B796E5E3E453C63AE6518F
S11301B0997696E8E6C28426EB898C9B62ED407CB6
S11301C06FFCEFBC9C9F40F2BAA56FA5F490055A52
S11301D02AF75C936B6CF9676DC11BFCE0E40D4777
S11301E0FEF520E6B500D0ED902E0300943577059A
S11301F00080841E080000204E0A000000C80C3352
S11302003333330F986E12831141EF8D2114893BE0
S1130210E65516CFFEE6DB18D1844B381BF77C1D60
S1130220901DA4BBE424203284725E228100C9F1B3
S113023024ECA1E53D2711241FBECFEFD1E2DEBFA0
S1130240CDBF13E0A0E0B2E0E2ECFCE202C0059016
S11302500D92AC38B107D9F728E0ACE8B3E001C09F
S11302601D92AB30B207E1F70E943A010C945F167D
S11302700C9400000E940E0F0E94AF040E94B3046D
S113028060E07CE281E090E00E947B05249A6B9A16
S1130290739A60E177E280E090E00E94B9040E94E2
S11302A0A3040E949F040E949B040E9442021F9286
S11302B08F9382E192E09F938F930E947A1584E05A
S11302C090E00E9422030E94B50484E292E00E941E
S11302D090150E94CF030F900F900F900F9080E025
S11302E090E00895CF92DF92EF92FF920F931F93C5
S11302F0CF93DF9380919D0390919E03892B79F591
S11303000FE913E0C3EAD3E00F2EFCECCF2EF3E0A9
S1130310DF2EF02D0F2EFCE8EF2EF3E0FF2EF02D54
S1130320FE01319790819923A1F010939E030093CD
S11303309D03F80180819181F70196838583D3879A
S1130340C287FE0132978081F7018487C7010E942A
S1130350E507075F1F4F29960C151D0509F7DF9167
S1130360CF911F910F91FF90EF90DF90CF90089560
S11303702091A8033091A90328173907F1F020919F
S1130380B1033091B2032817390789F02091BA03D9
S11303903091BB032817390769F02091C3033091CA
S11303A0C40328173907E9F484E090E008C082E028
S11303B090E005C083E090E002C081E090E0FC01A1
S11303C0EE0FFF1FEE0FFF1FEE0FFF1F8E0F9F1F7D
S11303D0FC01E156FC4F81E083830E94720181E0BD
S11303E0089580E008951F93CF93DF93EC01162FB7
S11303F086E70E94E50488810E94D70486E70E946C
S113040002058093CC03803481F4612F70E040E0D6
S1130410CE010E943F05887F883549F40E943A0541
S113042091E0811105C090E003C090E001C090E02C
S1130430892FDF91CF911F9108950F931F93CF932D
S1130440DF9300D0CDB7DEB78B01898362E0CE01A4
S113045001960E94F301882359F08A8190E0982F35
S113046088272981822BF8019183808381E003C04E
S1130470F801118210820F900F90DF91CF911F919C
S11304800F910895CF93DF9300D0CDB7DEB788E8FE
S1130490898362E0CE0101960E94F301882399F0DA
S11304A08A8190E0982F88272981822B9093D0030A
S11304B08093CF0365EE73E08AE80E941D028823CF
S11304C009F4BBC005C01092D0031092CF03B5C08D
S11304D063EE73E08CE80E941D02882309F4ADC02A
S11304E08EE8898362E0CE0101960E94F30188239D
S11304F099F08A8190E0982F88272981822B909304
S1130500D2038093D10361EE73E080E90E941D025F
S1130510882309F492C005C01092D2031092D1032B
S11305208CC06FED73E082E90E941D02882309F4F8
S113053084C06DED73E084E90E941D02882309F4F0
S11305407CC06BED73E086E90E941D02882309F4E8
S113055074C069ED73E088E90E941D02882309F4E0
S11305606CC067ED73E08AE90E941D02882309F4D8
S113057064C065ED73E08CE90E941D02882309F4D0
S11305805CC063ED73E08EE90E941D02882309F4C8
S113059054C08091D4038F938091D3038F9380911F
S11305A0D6038F938091D5038F938091D8038F9333
S11305B08091D7038F938091DA038F938091D9032D
S11305C08F938091DC038F938091DB038F938091D1
S11305D0DE038F938091DD038F938091E0038F93EB
S11305E08091DF038F938091E2038F938091E103E5
S11305F08F938091D2038F938091D1038F938091B5
S1130600E4038F938091E3038F938091E6038F93A8
S11306108091E5038F938091D0038F938091CF03D2
S11306208F938DE392E09F938F930E947A150FB678
S1130630F894DEBF0FBECDBF81E00F900F90DF9125
S1130640CF9108959093CE038093CD0381E00895D4
S113065080911D04843041F481E080931D0484E77B
S113066092E00E949015089587EE93E00E94A10FF6
S11306708AE892E00E9490150895CF92DF92EF925B
S1130680FF920F931F93CF93DF937C01162F80E18A
S11306900E94E30682E00E94E3061123F9F0E701D9
S11306A01150C12ED12C8FEFC81AD80ACE0CDF1CE2
S11306B0F12C8E019881903129F480E10E94E306A7
S11306C0E0E1FE0EF80180810E94E3062196F80124
S11306D09081F90ECC15DD0561F701C0F12C80E1A4
S11306E00E94E30683E00E94E30685E28F0D0E94E8
S11306F0E306DF91CF911F910F91FF90EF90DF9070
S1130700CF9008950F931F93CF93DF938C0188EAC2
S113071092E00E949015F801C781D0858285888B6C
S11307208385898B6185878190850E943D03F801CB
S1130730808191810E94B801882319F081E00E9490
S1130740A509888D998D2A8D3B8D9F938F933F9317
S11307502F939F938F938EEB92E09F938F930E949E
S11307607A158C899D892E893F899F938F933F9316
S11307702F939F938F9384EE92E09F938F930E9485
S11307807A158DB79EB740960FB6F8949EBF0FBEEC
S11307908DBF81E0DF91CF911F910F91089586E085
S11307A093E00E94901560E07CE281E090E00E947A
S11307B08E0633243394C4EFD3E00F2EFFE02F2EA4
S11307C0F02D0F2EF8E58F2E912CA12CB12CF02DAD
S11307D007EE13E00F2EFFE6CF2ED12CE12CF12CE7
S11307E0F02D0F2EF2E34F2E512C612C712CF02D95
S11307F00E94170F80911D04833009F47CC030F4EB
S1130800882369F0813009F45DC0F2CF873009F4A0
S113081083C0883009F48AC0863051F773C081E2FE
S113082093E00E94901518821A8219821B821C82FE
S11308301D821E821F82188619861A861C861B86B4
S113084084E392E19E878D872F86188A198A3A8AD3
S11308509CE09B8B888E998EAA8EBB8EE0E2EC8FF7
S11308608BE08D8FEAE3F3E0A2E1B4E001900D9216
S11308708A95E1F780E090E00E948F0784E392E19B
S11308800E949607822D0E94220E832D0E941D0E27
S113089062E873E0832D0E949D0788EE93E0A0E058
S11308A0B0E0F80186839783A087B187128688E237
S11308B093E09487838730921D0486E493E00E943A
S11308C0901596CF1C861B86C88ED98EEA8EFB8E19
S11308D04C8A5D8A6E8A7F8A69E2CE010E943D035A
S11308E0C8010E94A10F84E080931D048AE593E06F
S11308F00E9490157DCFC8010E94A10F84E08093CF
S11309001D0476CF0E94A607811172CF0E94AF0703
S113091097E090931D046CCF68EE73E080E090E064
S11309200E94D305E8E0E0931D0462CF0E94B20761
S113093030921D045DCF80E008952D9A0895259A84
S11309400E949D04089584E880937A0085EC809346
S11309507700EBE7F0E080818823ECF708958AB113
S1130960806C8AB908955F9A0895239A80E48CBDB7
S113097008959B01AC011092B90060E074E284EF29
S113098090E00E949613DA01C9014097A109B109C8
S1130990689412F8B695A795979587951694D1F70C
S11309A08093B80084E08093BC0081E00895809334
S11309B0BB0084E88093BC00ECEBF0E080818823EA
S11309C0ECF78091B900887F089594EE9093BC0071
S11309D0ECEBF0E090819923ECF7EFE9FFE031973D
S11309E0F1F700C000009091B900987F983031F081
S11309F0903121F08091B900887F0895880F0E947A
S1130A00D704089594EE9093BC00ECEBF0E0908151
S1130A109923ECF79091B900987F983031F0903198
S1130A2021F08091B900887F0895880F81600E9429
S1130A30D7040895DC0184EC8093BC00ECEBF0E077
S1130A4090819923ECF78091BB008C938091B9003D
S1130A50887F0895DC0184E88093BC00ECEBF0E02F
S1130A6090819923ECF78091BB008C938091B9001D
S1130A70887F089584E98093BC0081E008959F9263
S1130A80AF92BF92CF92DF92EF92FF920F931F9398
S1130A90CF93DF93161617060CF5942E8B017C0169
S1130AA0C0E0D0E06B0181E0C81AD1085701AC0C5A
S1130AB0BD1C911007C0CC16DD0621F4C5010E94AF
S1130AC02A0505C0C7018C0F9D1F0E941A05803599
S1130AD031F42196C017D10761F701C080E0DF919E
S1130AE0CF911F910F91FF90EF90DF90CF90BF9027
S1130AF0AF909F90089524E032E03093080820934B
S1130B000708DC01CB01880F991FAA1FBB1F880FA0
S1130B10991FAA1FBB1F9C01AD01220F331F441F45
S1130B20551F220F331F441F551F60E074E284EFEA
S1130B3090E00E949613215031093093C500209310
S1130B40C40086E08093C20088E18093C1000895C8
S1130B50E0ECF0E0908195FFFDCF8093C60008950E
S1130B60CF93C82F8A3019F48DE00E94A8058C2FEA
S1130B700E94A80580E090E0CF91089514BE0FB6BE
S1130B80F894A89580916000886180936000109229
S1130B9060000FBEE1E6F0E080E880831082789484
S1130BA00E9468060895CF93DF93DC01CB01880F80
S1130BB0991FAA1FBB1F880F991FAA1FBB1F880F4D
S1130BC0991FAA1FBB1F880F991FAA1FBB1FBC0117
S1130BD0CD01660F771F881F991F28EE33E040E090
S1130BE050E00E949613DA01C9012115310541052F
S1130BF0510509F45BC07727652F542F432F282F05
S1130C0010927000E6EBF0E08081806280831092A5
S1130C10B0001092B1001092B20080818F71E9F798
S1130C2087E087BB8093B100C3EBD0E06FEFA0E710
S1130C30B0E0E6EBF0E037E001C020E010921E04E3
S1130C404115510511F068831BC0222311F028833C
S1130C5017C0E6EBF0E080818F71E9F71092700025
S1130C601092B10083B5826083BDE6EBF0E0808131
S1130C708F71E9F7E6EBF0E080818F7D808316C009
S1130C808C9182608C9380818F71E9F733BF889552
S1130C9013BE9FB7F89480911E049FBF882371F2FE
S1130CA04115510551F241505109C8CFDF91CF91FF
S1130CB008951F920F920FB60F9211248F9381E023
S1130CC080931E048F910F900FBE0F901F90189564
S1130CD01092DC0780E29EE49093A9008093A80020
S1130CE0E1EAF0E088E08083808182608083E2E74B
S1130CF0F0E080818260808308951F920F920FB686
S1130D000F9211248F938091DC078F5F8093DC070F
S1130D108F910F900FBE0F901F901895DC01CB019F
S1130D20880F991FAA1FBB1F880F991FAA1FBB1FDB
S1130D309C01AD01220F331F441F551F220F331F87
S1130D40441F551F60E078E488EE91E00E949613FA
S1130D50BA01A9014150510961097109BB27A72FA3
S1130D60962F852F8093C5004093C40082E0809322
S1130D70C00088E98093C10086E08093C200E1E46A
S1130D80F4E086E394E0918780878AE090E095839D
S1130D908483178216821182108213821282ECE2FB
S1130DA0F4E021E234E0318720879583848317823D
S1130DB01682118210821382128281E080932004B1
S1130DC010921F040895CF93DF93E1E4F4E02681A9
S1130DD037816481758126173707C9F0C085D185AD
S1130DE042815381DA011196B383A283FE01E40F99
S1130DF0F51F80836A177B0721F410924404109234
S1130E0043042F5F3F4F3093480420934704DF91FE
S1130E10CF9108951F920F920FB60F9211248F93C2
S1130E20EF93FF9381E080932004E1ECF0E0808174
S1130E308F7D8083FF91EF918F910F900FBE0F9064
S1130E401F9018951F920F920FB60F9211242F9393
S1130E503F934F935F936F937F938F939F93AF933E
S1130E60BF93EF93FF938091C0002091C6008C71D3
S1130E7059F5ECE2F4E04681578184819581481765
S1130E80590711F14085518582819381BC016F5FBF
S1130E907F4F73836283DA01A80FB91F2C932281D9
S1130EA03381848195812817390721F410922F0406
S1130EB010922E04ECE2F4E08681978101969783E8
S1130EC0868381E080931F04FF91EF91BF91AF91DE
S1130ED09F918F917F916F915F914F913F912F914E
S1130EE00F900FBE0F901F901895EDEDF7E0148250
S1130EF015821182108217A216A2E3EEF7E083E0B6
S1130F0098E011921192E817F907D9F70E94290C79
S1130F100E945B090E94AE080E94E0070895909326
S1130F20DE078093DD070E94380E08959093E00752
S1130F308093DF070E94270E0895E82FF0E0EE0F5C
S1130F40FF1FED51F84F71836083089581E0209174
S1130F50030830910408232B09F480E008950E94CB
S1130F604E0E08950E945A0E08950E94A8090E94E8
S1130F70290D0E9409080895E0914B04F0914C0456
S1130F803097D9F0228133812817390789F405C0B5
S1130F90228133812817390759F4DC01AD57BF4F3B
S1130FA02C91278713962C91208B22E0248305C053
S1130FB00190F081E02D309759F70E94F0080895D0
S1130FC010924C0410924B040895FC01148217866D
S1130FD013821282ADEDB7E096968D919C9197970E
S1130FE0019697969C938E93969780914B0490913B
S1130FF04C04009739F411821082F0934C04E0936E
S11310004B04089591838083F0934C04E0934B0444
S113101008950F931F93CF93DF93E0914B04F091C6
S11310204C04309709F495C0EF018C81882321F09A
S1131030823009F468C087C00E94B9088C01009707
S113104021F482E08C838F8784C09B838A8381E030
S11310508C83F801E957FF4F8CEB97E091838083F1
S11310603197898582FB882780F980839985D80107
S11310701B968C911B9790FB80F91B968C931B9766
S1131080998593FB992790F990FB82F91B968C9391
S11310901B97EDEDF7E084818F5F84831C968C931E
S11310A01C97808191811E969C938E931D978D81B0
S11310B09E8150969C938E931F978885982F9F703E
S11310C051968C915197807F892B51968C9351978F
S11310D09F819295907F8F70892B51968C93F80104
S11310E0EF57FF4F4C8550E06A857B858081918165
S11310F00E942E15F80191818C85890F8183C80186
S11311000E944C0C26C0CE17DF0741F488819981D8
S113111090934C0480934B040AC0FC01808191811C
S1131120C817D907D1F78881998191838083EDED20
S1131130F7E086A197A1019797A386A3ED85FE8585
S1131140CE01099506C00990D881C02D209709F0D9
S11311506CCFDF91CF911F910F91089510924D04A0
S11311601092D60410925F051092E8051092710651
S1131170089580914D04882349F0E6EDF4E081E080
S113118090E0AC012081211122C002C040E050E077
S113119069E8649F9001659F300D1124C901835B48
S11311A09B4FFC0111926A95E9F740E1FC014183F0
S11311B0EF57FF4F215A3B4F31832083EDEDF7E08A
S11311C026A137A12F5F3F4F37A326A30895019689
S11311D0E757FF4F85309105A1F680E090E0089530
S11311E0FC011082EDEDF7E086A197A1019797A38A
S11311F086A30895009741F0FC01E757FF4F86E06E
S1131200EA3FF80718F015C0EDE4F4E08081882384
S113121039F003C08081882319F08E2F9F2F089501
S1131220E757FF4F86E0EA3FF807A0F380E090E03D
S1131230089580E090E00895FC01DC01AD57BF4FB4
S11312401C92ADEDB7E014969C9114979F5F149691
S11312509C93149794878D919C9196878587089584
S1131260DC0119962C911997222351F01796ED91D0
S1131270FC9118972081211105C00E94E10C08956A
S113128080E0089580E00895BC01ECE0F7E02EE3EF
S113129037E040E051E09081992319F09150908318
S11312A0452F3596E217F307B1F7442319F0CB0124
S11312B00E94A10F0895ECE0F7E08EE397E010821E
S11312C03596E817F907D9F7EAEFF6E084E690E0F7
S11312D0A0E0B0E086839783A087B187128684E478
S11312E099E09487838760E379E080E00E949D071A
S11312F00895CF93DF93DC01ED91FC911197218147
S1131300283801F520812F7D2134E1F412962C91A7
S11313102031C0F0EC010E94B908009799F020E256
S1131320FC0120832A8121832B81ED57FF4F2083E9
S11313302C81319620834A8150E06881798102961C
S11313400E942E15DF91CF91089580930707089589
S11313502F923F924F925F926F927F928F929F92C1
S1131360AF92BF92CF92DF92EF92FF920F931F93AF
S1131370CF93DF93CDB7DEB72C970FB6F894DEBFCB
S11313800FBECDBF00E010E00F2EF4E2DF2EF02DF3
S11313900F2EFDED8F2EF7E09F2EF02D6894CC24B8
S11313A0C4F80F2EFCE04F2EF7E05F2EF02D0F2E29
S11313B0F8E06F2EF7E07F2EF02D0F2EFAE3EF2EDC
S11313C0F7E0FF2EF02D312C212C5801A8C1D501B6
S11313D08C91823209F4D1C0843209F49DC18032E7
S11313E009F09DC1DC921B968C911B97982F9A70E3
S11313F009F095C115962D913C9116972F3F3F4FBB
S113140081F4F50187859089D4012D913C912817A9
S1131410390719F0019609F082C122E2F50120830F
S11314207EC1D5011F962D913C9150972F3F3F4F80
S113143009F07DC180FF7BC172C18C012C912223F4
S113144009F456C0208131814217530709F051C075
S1131450F5019485F801EE0FFF1FEE0FFF1FE00F5B
S1131460F11FE85FF84F8281891B883038F5F80155
S1131470EE0FFF1FEE0FFF1FE00FF11FE85FF84FA5
S11314809381292F30E0082E02C0359527950A94C0
S1131490E2F720FD44C1F801EE0FFF1FEE0FFF1F1E
S11314A0E00FF11FE85FF84F21E030E002C0220FA7
S11314B0331F8A95E2F7922B938349C1F801EE0F0B
S11314C0FF1FEE0FFF1F0E0F1F1FF801E85FF84FFD
S11314D09283238130E08195A90102C0440F551FF6
S11314E08A95E2F7CA01816083838BE084832FC1EC
S11314F0BF01019615963596EE15FF0509F09DCFAF
S11315006115710509F40BC1DB0111965C934E93CF
S1131510F501848512968C931297F1E01396FC934F
S113152013978BE014968C938AEF96E00E94A10F98
S11315300EC1D5011F968D919C915097F401208185
S1131540318128173907A9F01B962C9122FD0EC072
S1131550C5010E949B0CD5011F968D919C915097BB
S1131560F401208131812817390719F0019609F017
S1131570D6C0E2E2D501EC93D2C010920707D501A0
S113158051962C91519722952F70E22FF0E0EE0F97
S1131590FF1FED51F84F0190F081E02D309709F4D1
S11315A061C01D968D919C911E979A8389831F9685
S11315B04D915C9150975C834B8351963C9151972C
S11315C03F703D832E83AF57BF4F6D917C917987D8
S11315D0688795012E5F3F4F261B370BD501119667
S11315E03C911197230F2A87AD57BF4F2C912B871E
S11315F011962C912C87D5011B963C91632F637017
S113160032FD02C020E001C020E2262B33FD02C0DF
S113161030E001C030E4232B4F3F5F4F11F030E046
S113162001C034E0232BD50119964D915C911A9792
S11316308417950711F090E001C098E0822F892B60
S11316408F83D50115962D913C9116972F3F3F4FCF
S113165011F090E001C09C2D892B8F83CE0101965F
S1131660099501C080E0F501938590FF80E0D501E4
S113167017962D913C9118972F3F3F4F69F4F40131
S113168040815181D5011F962D913C91509742176D
S1131690530711F493FF81E0F501258136812F3F33
S11316A03F4FB9F1D4012D913C912F3F3F4F89F128
S11316B0882379F10E94B9088C01009751F10E94A6
S11316C01C09F80181818D5F8183E957FF4F1182E5
S11316D01082D5011B968C911B9786958170F80119
S11316E0938580FB91F993871D968D919C911E970C
S11316F0908B8787EF57FF4F0190F081E02D108288
S11317008091070782831C968C918183C8010E9473
S11317104C0CD501DC9203C0C5010E94F008C50140
S11317200E94FA085C01892B09F051CE17C0F5011B
S113173045855685D4018D919C918417950779F33D
S1131740D201F301832D922D632D722D76CEF501F6
S113175087819085019609F0FECEEBCE2C960FB6CC
S1131760F894DEBF0FBECDBFDF91CF911F910F91D3
S1131770FF90EF90DF90CF90BF90AF909F908F90AD
S11317807F906F905F904F903F902F900895EF92CD
S1131790FF920F931F93CF937C0110E080E090E0C1
S11317A001E0C3E113C0FC012081213179F4EC573D
S11317B0FF4F208131812150310931832083232B34
S11317C021F4FC01C083102F01C0102F0E94FA08DD
S11317D0009749F7112319F0C7010E94A10FCF9177
S11317E01F910F91FF90EF900895EF92FF920F9346
S11317F01F93CF93DF937C0110E080E090E001E041
S1131800D7E1C0E116C0FC012081263191F4EC57E8
S1131810FF4F208131812150310931832083232BD3
S113182039F4FC01D083ED57FF4FC083102F01C062
S1131830102F0E94FA08009731F7112319F0C701FD
S11318400E94A10FDF91CF911F910F91FF90EF9014
S113185008951092550710925407E7E4F7E082E3E5
S113186090E0A0E0B0E086839783A087B1871286DA
S113187085EF9BE094878387EAE3F7E08AE090E0D2
S1131880A0E0B0E086839783A087B187128687ECB7
S11318909BE0948783870895CF93DF93FC01DC0159
S11318A0AA57BF4F8C9181FF03C092E1908302C07D
S11318B092E19083DF01AD57BF4F1C9280FF05C0BA
S11318C08FEF9FEF9683858306C08091DF07909109
S11318D0E007968385832785308930872783ADED9C
S11318E0B7E08D919C9111979287818715968C9181
S11318F015978F5F15968C9384832F3F3F4F81F408
S1131900EF0181E498E8938382830E943B14FE01F3
S1131910EC57FF4F8770992701969183808308C005
S113192081E698E893838283EC57FF4F11821082FB
S1131930DF91CF9108950F931F93CF93DF938C0181
S11319400E94B908EC01892BB9F182E18883F8017E
S113195081818983FE01ED57FF4F10820E943B1461
S1131960FE01EC57FF4F877099270196918380837E
S1131970339611821082F801418150E0B8016E5F04
S11319807F4FCE0102960E942E1581E498E89B8336
S11319908A838FEF9FEF98878F83F80185819681E3
S11319A09E838D83EDEDF7E0808191819A8789870D
S11319B085818F5F85838C83DF91CF911F910F91F8
S11319C00895CF93DF93FC01C781D085818583304F
S11319D0C9F480E090E010C0FC012081263161F45C
S11319E034852981321308C027E120832A81EA57EC
S11319F0FF4F208381E007C00E94FA08009761F737
S1131A0080E001C080E0DF91CF910895E091540718
S1131A10F0915507813021F048F0823019F004C06C
S1131A2080E205C081E203C081E001C080E0DF0103
S1131A30AD57BF4F8C9385E1808310925507109268
S1131A405407EDEDF7E086A197A1019797A386A32C
S1131A5008959F92AF92BF92CF92DF92EF92FF923E
S1131A600F931F93CF93DF93C0E0D0E00F2EF4E1E8
S1131A70AF2EF02D0DED17E00F2EF7E1DF2EF02D38
S1131A800F2EF6E19F2EF02D0F2EF5E1EF2EF12C07
S1131A90F02D0F2EF3E1CF2EF02D0F2EF1E1BF2EFE
S1131AA0F02D62C088818331C9F018F4823139F095
S1131AB05BC0853159F1873109F448C055C0FE0136
S1131AC0EC57FF4F80819181892B31F0B8828AE3F2
S1131AD097E00E94A10F48C0C88246C08091540775
S1131AE090915507892B09F03FC0D0935507C093B7
S1131AF05407A8826981CE0102960E94650EF801FE
S1131B0086A197A1019697A386A32EC0FE01ED5747
S1131B10FF4F8081811118C02D853E85F801808199
S1131B2091812817390771F48B8580FF0BC0988247
S1131B30FE01EC57FF4FF182E08287E497E00E94B8
S1131B40A10F12C0D88210C0D8820EC0FE01E9577E
S1131B50FF4F0190F081E02D309721F4CE010E94D7
S1131B60F00802C0CE010995CE010E94FA08EC01EA
S1131B70892B09F097CFDF91CF911F910F91FF909F
S1131B80EF90DF90CF90BF90AF909F900895809199
S1131B905607982F9F70E4E5F1E08081807F892BC0
S1131BA0808380915607882329F08091570780937A
S1131BB05301089580915707982F9F71E8E4F1E04D
S1131BC08081807E892B8083089593E090934201E5
S1131BD0E1E4F1E090819F719830E1F78093420154
S1131BE0E1E4F1E090819F719813FCCF089588E0BF
S1131BF00E94E50D8FEF80934F0180915807882351
S1131C0019F086E10E94E50D0895E9E3F1E0808191
S1131C1081608083109258071092560781E0809368
S1131C20D90788E00E94E50D8BEE80935601ECE421
S1131C30F1E08081806880830895809358070E9432
S1131C40F70D0895809357070E94C70D0895CF9309
S1131C50DF9300D0CDB7DEB79A8389838093620186
S1131C608A81809363010F900F90DF91CF91089543
S1131C70CF93DF9300D0CDB7DEB79A838983809367
S1131C8060018A81809361019A818981890F80939F
S1131C906D010F900F90DF91CF91089588E00E941D
S1131CA0E50DE9E3F1E080818260808382E0809346
S1131CB0D9070895E9E3F1E080818D7F80830E9454
S1131CC0F70D81E08093D90708950F931F93CF9365
S1131CD08C01C62F89E10E94E50D8FEF80934F019F
S1131CE082E08C0F80938001CC2381F0F801C150F5
S1131CF02C2F30E02F5F3F4FC801820F931FA1E8C4
S1131D00B1E021912D93E817F907D9F783E0809387
S1131D10D90782E080934201CF911F910F910895DA
S1131D201F93CF93DF9300D000D01F92CDB7DEB7BF
S1131D308091D907823009F468C080914F0183FFF4
S1131D403FC0A0917B016A2F70E0AB014F5F5F4FF2
S1131D5080E090E020E0FC01E058FE4F3081FC017F
S1131D60E75AF84F30832F5F822F90E0841795074E
S1131D7094F389E597E09A838983A250AB83FB01AE
S1131D80E75AF84F80818C83809147018A558D836F
S1131D90CE0101960E947909E1E4F1E080818F711E
S1131DA08631E1F7EFE4F1E0808188608083ECE440
S1131DB0F1E080818F77808380818068808325C073
S1131DC080914F0186FF21C0809141018F7189313B
S1131DD0B9F41091420112951695177049F0133019
S1131DE021F0153021F013E003C011E001C012E02E
S1131DF00E94F70D81E08093D907812F0E94060D80
S1131E00EFE4F1E08081806480830F900F900F9065
S1131E100F900F90DF91CF911F9108950E94BE05FE
S1131E200E94820F0E94050E0E94750708950E9469
S1131E30900E0E94B5070E94AE0F08950F931F9352
S1131E40CF93DF93EC018091DA079091DB07009741
S1131E5009F445C04E815F8168857985FC01028162
S1131E60138124813581401751076207730760F09D
S1131E70DC0117C002811381248135814017510789
S1131E806207730768F403C0FC01A0E0B0E0041B20
S1131E90150B260B370B02831383248335830AC067
S1131EA0DF01401B510B620B730BED91FC911197F9
S1131EB0309701F74A835B836C837D83109741F0ED
S1131EC08D919C91119799838883CD93DC9315C050
S1131ED099838883D093DB07C093DA070EC01982F5
S1131EE018828E819F81A885B9858A839B83AC8360
S1131EF0BD83D093DB07C093DA07DF91CF911F91A5
S1131F000F9108951092DB071092DA070895E0917B
S1131F10DA07F091DB07309771F0E817F90721F43D
S1131F200CC08E179F0759F00190F081E02D309777
S1131F30C1F780E0089580E0089581E0089581E08C
S1131F400895CF93DF93EC010E94870F811103C0A2
S1131F50CE010E941E0FDF91CF910895CF92DF92A0
S1131F60EF92FF92CF93DF938091DC07882309F4EB
S1131F705AC08FB7F894C090DC071092DC078FBF6B
S1131F80D12CE12CF12CCC0CDD1CEE1CFF1CD70158
S1131F90C601880F991FAA1FBB1F880F991FAA1F6C
S1131FA0BB1FC80ED91EEA1EFB1EC091DA07D091D2
S1131FB0DB072097C1F18A819B81AC81BD81C81662
S1131FC0D906EA06FB0618F1C81AD90AEA0AFB0A76
S1131FD0888199819093DB078093DA078A85813021
S1131FE019F4CE010E941E0FEB85FC85CE010995E4
S1131FF0C091DA07D091DB072097A9F08A819B81F1
S1132000AC81BD81C816D906EA06FB06E8F68A81CA
S11320109B81AC81BD818C199D09AE09BF098A835E
S11320209B83AC83BD83DF91CF91FF90EF90DF90D2
S1132030CF900895A3E1B0E0E0E2F0E10C94B8138E
S11320406C014B012A01FC0117821682838181FFF6
S113205043C3AE014F5F5F4F3A01F6019381F40130
S113206093FD859193FF81914F01882309F430C337
S1132070853239F493FD859193FF81914F01853227
S113208039F4B60190E00E94421552012501E5CFD2
S113209010E0F12C20E02032A0F48B3269F030F40F
S11320A0803259F0833269F420612CC08D3239F0CA
S11320B0803339F4216026C02260246023C0286064
S11320C021C027FD27C030ED380F3A3078F426FFC1
S11320D006C0FAE01F9F300D1124132F13C04AE0ED
S11320E0F49E300D1124F32E20620CC08E3221F4A4
S11320F026FDEEC2206406C08C3611F4206802C0AE
S1132100883641F4F40193FD859193FF81914F0149
S11321108111C1CF9BEB980F933018F42061805E3E
S113212006C09BE9980F933008F071C12F7E26FFFB
S113213016E02F73322E853619F42064322E08C02F
S1132140863621F4F22FF0683F2E02C0111111508F
S113215037FE07C01C3350F4EE24E394E10E27E06D
S11321600BC0183038F027E017E005C027E04CE337
S1132170E42E02C0212FE12C520144E0A40EB11C34
S1132180F20160817181828193810E2DA3010E94ED
S11321904B142C01098100FF02C003FF07C031FC6E
S11321A008C032FE09C030E2232E07C02DE2222EE1
S11321B004C09BE2292E01C0212C802F8C7019F0C1
S11321C0211068C2A8C237FE0FC0E40C04FF04C08B
S11321D08A81813309F4EA941E1474F5F8E0FE153B
S11321E078F588E0E82E2CC036FC2AC0812F90E0D8
S11321F0841595059CF02CEF42162FEF520674F0CF
S1132200432D4068342E0AC0E2E0F0E0EC0FFD1FDD
S1132210E10FF11D8081803319F411501111F4CFB5
S113222037FE0EC0EE24E394E10E812F90E04816B1
S113223059062CF4141904C0EE24E39401C010E0F0
S113224037FE06C01414150434F4C201019605C007
S113225085E090E002C081E090E021100196112316
S113226031F0212F30E02F5F3F4F820F931F2F2D2E
S113227030E08217930714F4F81A01C0F12C832D6F
S1132280897049F4FF2039F0B60180E290E00E94A1
S11322904215FA94F7CF222029F0B601822D90E05E
S11322A00E94421533FC09C0FF2039F0B60180E3D7
S11322B090E00E944215FA94F7CF37FE5AC0942D4D
S11322C0852D57FE02C090E080E0292E382E20E0B4
S11322D030E0A2014E1951095D874C87A2014219D1
S11322E053095F874E87612F70E044275527461BAB
S11322F0570B598B488B5FEF2516350649F4B60109
S11323008EE290E02A8B3B8B0E9442153B892A89FE
S1132310421453046CF04C855D854215530544F416
S1132320EE85FF85E20FF31FE60DF71D818101C0E5
S113233080E351E0251A31082F5F3F4F48895989BE
S1132340241635064CF0B60190E02A8B3B8B0E9494
S113235042152A893B89CFCF2414350439F49A8154
S1132360963318F4953311F404FF81E3B60190E039
S11323704BC08A81813309F00F7EB60190E00E9440
S11323804215111105C034FC18C085E690E017C051
S1132390B6018EE290E00E94421582E0EE24E394BE
S11323A0E80EF301E80FF11D8081B60190E00E9470
S11323B0421511508E2D91F7E6CF85E490E0B601D9
S11323C00E94421557FC05C04114510439F404FF1E
S11323D005C05194419451088DE201C08BE2B601CD
S11323E090E00E94421580E39AE0491651042CF0D3
S11323F08F5F5AE0451A5108F7CFB60190E00E946A
S11324004215B601C201C0960E94421557C18336D7
S113241031F0833779F0833509F058C021C0520177
S1132420E2E0AE0EB11CF2018081898301E010E08C
S1132430230114C05201F2E0AF0EB11CF20140803E
S1132440518026FF03C0612F70E002C06FEF7FEF61
S1132450C2012A8B0E9437158C012A892F7715C057
S11324605201F2E0AF0EB11CF2014080518026FF10
S113247003C0612F70E002C06FEF7FEFC2012A8BAF
S11324800E9423158C012A892068322E23FD1AC04C
S11324908F2D90E008171907A8F4B60180E290E0A8
S11324A00E944215FA94F4CFF20137FC859137FE6D
S11324B081912F01B60190E00E944215F110FA9427
S11324C0015011090115110579F7F8C0843611F08E
S11324D0893659F5520127FF09C0F4E0AF0EB11C4B
S11324E0F20160817181828193810AC0F2E0AF0EB2
S11324F0B11CF20160817181072E000C880B990BCD
S11325002F76322E97FF09C090958095709561952E
S11325107F4F8F4F9F4F2068322E2AE030E0A30177
S11325200E94C015E82EE6183FC0022F853721F41B
S11325300F7E2AE030E01DC0097F8F3691F018F439
S1132540883559F0C5C0803719F0883711F0C0C0FC
S1132550006104FF09C0046007C024FF08C00660CE
S113256006C028E030E005C020E130E002C020E1F0
S113257032E0520107FF09C0F4E0AF0EB11CF201D2
S1132580608171818281938108C0F2E0AF0EB11C39
S1132590F2016081718180E090E0A3010E94C01586
S11325A0E82EE6180F77302E36FE0BC0332D3E7F13
S11325B0E11650F434FE0AC032FC08C0332D3E7ECE
S11325C005C00E2D332D03C00E2D01C0012F34FF85
S11325D00CC0FE01EE0DF11D8081803311F4397EB3
S11325E008C032FF05C00E5F04C0832F867809F04F
S11325F00F5F33FD13C030FF06C01E2D0F1518F4F6
S11326001F0D101B0F2D0F1568F4B60180E290E02A
S11326103B8B0E9442150F5F3B89F5CF0F1510F4D9
S1132620F01A01C0F12C34FF12C0B60180E390E02F
S11326303B8B0E9442153B8932FF17C031FD03C01A
S113264088E790E002C088E590E0B6010CC0832FD3
S1132650867859F031FF02C08BE201C080E237FD79
S11326608DE2B60190E00E944215E11638F4B601FD
S113267080E390E00E9442151150F7CFEA94F301F1
S1132680EE0DF11D8081B60190E00E944215E1102B
S1132690F5CF14C0F4E0FF1558F584E0F81A33FEC2
S11326A01EC0211026C003FF2AC004E311E0F32D4D
S11326B0F0713F2EF8018491811124C0FF2009F4A8
S11326C0E5CCB60180E290E00E944215FA94F6CF80
S11326D0F6018681978126C08FEF9FEF23C0B60154
S11326E080E290E00E944215FA94F110F8CFD9CF1D
S11326F0F12CB601822D90E00E944215D4CF08E35C
S113270011E0D5CF31108052B60190E00E944215FD
S11327100F5F1F4FCFCF23E02F1510F483E0BECF00
S1132720F12CC1CF6396E2E10C94D413A1E21A2EEA
S1132730AA1BBB1BFD010DC0AA1FBB1FEE1FFF1F61
S1132740A217B307E407F50720F0A21BB30BE40BB1
S1132750F50B661F771F881F991F1A9469F76095F8
S11327607095809590959B01AC01BD01CF010895B2
S11327702F923F924F925F926F927F928F929F928D
S1132780AF92BF92CF92DF92EF92FF920F931F937B
S1132790CF93DF93CDB7DEB7CA1BDB0B0FB6F8942C
S11327A0DEBF0FBECDBF09942A88398848885F846C
S11327B06E847D848C849B84AA84B984C884DF80DD
S11327C0EE80FD800C811B81AA81B981CE0FD11DC1
S11327D00FB6F894DEBF0FBECDBFED0108958F9202
S11327E09F92AF92BF92CF92DF92EF92FF92CF93DC
S11327F0DF93EC01688179818A819B816115710580
S11328008105910521F464E279ED8BE597E02DE1F2
S113281033EF41E050E00E941E1649015A019B012A
S1132820AC01A7EAB1E40E943D166B017C01ACEE59
S1132830B4EFA50194010E944B16DC01CB018C0D71
S11328409D1DAE1DBF1DB7FF03C00197A109B04870
S113285088839983AA83BB839F77DF91CF91FF906D
S1132860EF90DF90CF90BF90AF909F908F9008959E
S11328700E94EF13089580E092E00E94EF13089500
S1132880A0E0B0E08093000290930102A0930202C2
S1132890B09303020895283008F027E03327DA01C3
S11328A0990F311D87FD916000966105710539F41A
S11328B032602E5F3D9330E32A95E1F708959F3F00
S11328C030F080387105610509F03C5F3C5F3D9351
S11328D0913008F08068911DDF93CF931F930F937D
S11328E0FF92EF92192F987F9695E92F96959695DA
S11328F0E90FFF27EA56FE4F99273327EE24FF24DA
S1132900A701E70105900894079428F4360FE71E01
S1132910F81E491F511D660F771F881F991F0694C3
S1132920A1F70590079428F4E70EF81E491F561FD7
S1132930C11D770F881F991F661F0694A1F7059084
S1132940079428F4F80E491F561FC71FD11D880F7E
S1132950991F661F771F0694A1F70590079420F42A
S1132960490F561FC71FD81F990F661F771F881F4F
S11329700694A9F784911095177041F0D695C795E0
S113298057954795F794E7941A95C1F7ECE3F1E06E
S113299068941590159135916591959105907FE214
S11329A07395E118F10A430B560BC90BD009C0F714
S11329B0E10CF11E431F561FC91FD01D7EF4703356
S11329C011F48A95E6CFE894015030F0080F0AF428
S11329D00027021708F4202F2395022F7A3328F0BA
S11329E079E37D932A95E9F710C07D932A9589F6BA
S11329F0069497956795379517951794E118F10AFA
S1132A00430B560BC90BD00998F023957E9173950F
S1132A107A3308F070E37C932013B8F77E917061E9
S1132A207D9330F0839571E37D9370E32A95E1F70C
S1132A301124EF90FF900F911F91CF91DF9199276F
S1132A4087FD90950895FC01059061507040011038
S1132A50D8F7809590958E0F9F1F0895FB01DC0198
S1132A6002C001900D9241505040D8F70895FC01E6
S1132A706150704001900110D8F7809590958E0FA9
S1132A809F1F08950F931F93CF93DF93FB0123811F
S1132A9021FD03C08FEF9FEF28C022FF16C046819F
S1132AA05781248135814217530744F4A081B181B1
S1132AB09D012F5F3F4F318320838C932681378183
S1132AC02F5F3F4F3783268310C0EB01092F182F48
S1132AD00084F185E02D0995892BE1F68E819F8193
S1132AE001969F838E83812F902FDF91CF911F9129
S1132AF00F910895A0E0B0E0E0E8F5E10C94C8136C
S1132B00AE014B5F5F4FFA0161917191AF0180910A
S1132B100708909108080E941A10E2E00C94E4134C
S1132B200F931F93CF93DF93E0910708F091080868
S1132B30238121FF1BC08C01D0E0C0E0F80181910A
S1132B408F016091070870910808DB011896ED91D8
S1132B50FC911997882331F00995892B79F3DFEFDC
S1132B60CFEFECCF8AE00995892B19F08FEF9FEF17
S1132B7002C08D2F9C2FDF91CF911F910F9108954B
S1132B80FA01AA27283051F1203181F1E8946F939A
S1132B906E7F6E5F7F4F8F4F9F4FAF4FB1E03ED040
S1132BA0B4E03CD0670F781F891F9A1FA11D680FDE
S1132BB0791F8A1F911DA11D6A0F711D811D911D11
S1132BC0A11D20D009F468943F912AE0269F112486
S1132BD03019305D3193DEF6CF010895462F4770EA
S1132BE0405D4193B3E00FD0C9F7F6CF462F4F7045
S1132BF0405D4A3318F0495D31FD4052419302D0A3
S1132C00A9F7EACFB4E0A695979587957795679548
S1132C10BA95C9F700976105710508959B01AC0148
S1132C200A2E06945795479537952795BA95C9F76F
S1132C30620F731F841F951FA01D0895052E97FB17
S1132C401EF400940E94351657FD07D00E94961377
S1132C5007FC03D04EF40C943516509540953095EE
S1132C6021953F4F4F4F5F4F0895909580957095F4
S1132C7061957F4F8F4F9F4F08950E945016A59FD7
S1132C80900DB49F900DA49F800D911D1124089563
S1132C90B7FF0C943D160E943D16821B930B0895BA
S1132CA0A29FB001B39FC001A39F700D811D112489
S1132CB0911DB29F700D811D1124911D0895F894EA
S1052CC0FFCF40
S1132CC2010000000000000200000000B005000046
S1132CD20000424D503238302053746174757320B1
S1132CE225690A000A3D3D3D3D3D3D3D3D3D3D2AB0
S1132CF22A2A3D3D3D3D3D3D3D3D3D3D000A543A80
S1132D02202569202C2569202C256920503A20256C
S1132D1269202C2569202C2569202C2569202C2545
S1132D2269202C2569202C2569202C2531202C256D
S1132D3269200A0053746174653A204150505F530C
S1132D42544154455F53454E440052657374617255
S1132D52742073797374656D2073656E64696E672C
S1132D622074696D65722E006170704461746149EA
S1132D726E642069732063616C6C65642E00526515
S1132D8263656976696E673A2074656D7065726110
S1132D927475726520697320256C64202830782547
S1132DA278290A00526563656976696E673A20621A
S1132DB261747465727920697320256C64202830EB
S1132DC2782578290A004C696768742077656967F1
S1132DD26874206D65736820737461727465642EFF
S1132DE20053746174653A204150505F5354415406
S1132DF2455F494E495449414C00436F6F726469BF
S1132E026E61746F720053746174653A20617070FC
S1132E12496E697420656E642E004150505F434FC1
S1132E224F5244494E41544F522053746174653A8F
S1132E32204150505F53544154455F574149545FB8
S10F2E4253454E445F54494D4552000076
S9030000FC
