S00D000041544D4F532E7372656393
S11300000C941B010C9438010C9438010C943801A5
S11300100C9438010C9438010C9438010C94380178
S11300200C9438010C9438010C9438010C94380168
S11300300C9438010C9438010C9438010C9420076A
S11300400C9438010C9438010C9438010C94380148
S11300500C9438010C9438010C9438010C94380138
S11300600C9438010C9438010C9438010C94380128
S11300700C9438010C9438010C9438010C94380118
S11300800C9438010C9438010C9438010C94380108
S11300900C9438010C9438010C9438010C943801F8
S11300A00C9438010C9438010C94E3090C94380135
S11300B00C9438010C9438010C9438010C943801D8
S11300C00C9438010C9438010C9438010C943801C8
S11300D00C9438010C9438010C9438010C943801B8
S11300E00C9438010C9438010C9438010C943801A8
S11300F00C9438010C9438010C9438010C94380198
S11301000C9438010C9438010C9438010C94380187
S11301100C9438010C9438010C9438010C94380177
S11301200C9438010C9438010C9438010C94380167
S11301300C9438016E616E00696E660000407A109E
S1130140F35A00A0724E18090010A5D4E80000E884
S11301507648170000E40B54020000CA9A3B0000E2
S113016000E1F505000080969800000040420F0071
S11301700000A08601000000102700000000E80332
S1130180000000006400000000000A0000000000FD
S11301900100000000002C76D888DC674F0823DFBC
S11301A0C1DFAE59E1B1B796E5E3E453C63AE6518F
S11301B0997696E8E6C28426EB898C9B62ED407CB6
S11301C06FFCEFBC9C9F40F2BAA56FA5F490055A52
S11301D02AF75C936B6CF9676DC11BFCE0E40D4777
S11301E0FEF520E6B500D0ED902E0300943577059A
S11301F00080841E080000204E0A000000C80C3352
S11302003333330F986E12831141EF8D2114893BE0
S1130210E65516CFFEE6DB18D1844B381BF77C1D60
S1130220901DA4BBE424203284725E228100C9F1B3
S113023024ECA1E53D2711241FBECFEFD1E2DEBFA0
S1130240CDBF15E0A0E0B2E0ECECF1E302C0059014
S11302500D92AA30B107D9F729E0AAE0B5E001C0B0
S11302601D92A439B207E1F70E943A010C94E418F4
S11302700C9400000E94310D0E9493080E9497087C
S113028060E875E280E090E00E947909249A6B9A14
S1130290739A60E177E280E090E00E949D080E94FA
S11302A014070E9403029F938F9388E492E09F9324
S11302B08F930E94451884E090E00E94E3020E941C
S11302C0990810925809109257090E94110C62E083
S11302D070E080E090E00E942C0F6C0162E070E01E
S11302E080E090E00E94D00FEC0180E090E00E945A
S11302F0430E7C01BE0180E090E00E94950E8C01CB
S11303000E946F078AE592E00E94591820E030E0CD
S1130310A60160EA7FE088EE93E00E949B0C20E057
S113032030E0AE0160EA7FE088EB9BE00E949B0C2A
S113033020E030E0A70160EE7EE288EE93E00E94C8
S11303409B0C20E030E0A80160EA7FE084E690E0C6
S11303500E949B0C0E94410C0E946A0878940F90A2
S11303600F900F900F90FFCF1F93CF93DF93EC016B
S1130370162F86E70E94C90888810E94BB0886E779
S11303800E94E60880930A05803481F4612F70E0AE
S113039040E0CE010E942309887F883549F40E94F9
S11303A01E0991E0811105C090E003C090E001C0F6
S11303B090E0892FDF91CF911F9108950F931F93A0
S11303C0CF93DF9300D0CDB7DEB78B01898362E092
S11303D0CE0101960E94B401882359F08A8190E0ED
S11303E0982F88272981822BF8019183808381E0CB
S11303F003C0F801118210820F900F90DF91CF910A
S11304001F910F910895CF93DF9300D0CDB7DEB73E
S113041088E8898362E0CE0101960E94B4018823B2
S113042099F08A8190E0982F88272981822B9093D4
S11304301505809314056AE275E08AE80E94DE01DE
S1130440882309F4BBC005C0109215051092140549
S1130450B5C068E275E08CE80E94DE01882309F4E7
S1130460ADC08EE8898362E0CE0101960E94B4019A
S1130470882399F08A8190E0982F88272981822BFC
S1130480909317058093160566E275E080E90E9453
S1130490DE01882309F492C005C01092170510925A
S11304A016058CC064E275E082E90E94DE018823AF
S11304B009F484C062E275E084E90E94DE018823C5
S11304C009F47CC060E275E086E90E94DE018823BD
S11304D009F474C06EE175E088E90E94DE018823A6
S11304E009F46CC06CE175E08AE90E94DE0188239E
S11304F009F464C06AE175E08CE90E94DE01882396
S113050009F45CC068E175E08EE90E94DE0188238D
S113051009F454C0809119058F93809118058F9325
S113052080911B058F9380911A058F9380911D05EF
S11305308F9380911C058F9380911F058F938091D9
S11305401E058F93809121058F93809120058F93B1
S1130550809123058F93809122058F9380912505A7
S11305608F93809124058F93809127058F93809199
S113057026058F93809117058F93809116058F938D
S1130580809129058F93809128058F9380912B0565
S11305908F9380912A058F93809115058F93809175
S11305A014058F9385E692E09F938F930E944518DC
S11305B00FB6F894DEBF0FBECDBF81E00F900F9051
S11305C0DF91CF910895909313058093120581E0F4
S11305D008951F93CF93DF9300D0CDB7DEB784EF98
S11305E0898380911205909113058230910501F160
S11305F02CF4009749F0019789F038C083309105B5
S113060009F1049749F132C085E28A8381E090E0E0
S1130610909311058093100518E02BC089E28A831A
S113062081E090E090931105809310051AE021C0B9
S11306308DE28A8381E090E0909311058093100508
S11306401FE017C081E38A8381E090E09093110555
S11306508093100518E10DC08DE58A8381E090E058
S113066090931105809310051DE203C085E28A83EF
S113067019E086E70E94C90862E070E0CE010196A5
S11306800E945F09883231F40E941E09811104C05E
S11306908FEF03C08FEF01C0812F0F900F90DF9178
S11306A0CF911F9108958F929F92BF92CF92DF9224
S11306B0EF92FF920F931F93CF93DF9300D000D05C
S11306C000D0CDB7DEB74C018B0187EF898366E09C
S11306D0CE0101960E94B401B82E882309F472C099
S11306E0698170E080E090E00E94131120E030E026
S11306F040E853E40E94C7116B017C016A8170E0F9
S113070080E090E00E9413119B01AC01C701B60187
S11307100E9410106B017C016B8170E080E090E01E
S11307200E94131120E030E040E85BE30E94C7110F
S11307309B01AC01C701B6010E94101020E030E01B
S113074040E851E40E94C711F401608371838283FD
S113075093836C8170E080E090E00E94131120E0AC
S113076030E040E853E40E94C7116B017C016D81C5
S113077070E080E090E00E9413119B01AC01C7017E
S1130780B6010E9410106B017C016E8170E080E064
S113079090E00E94131120E030E040E85BE30E9407
S11307A0C7119B01AC01C701B6010E94101020E0E3
S11307B030E040E851E40E94C711F801608371837E
S11307C0828393838B2D26960FB6F894DEBF0FBEDB
S11307D0CDBFDF91CF911F910F91FF90EF90DF90EC
S11307E0CF90BF909F908F9008954F925F926F9299
S11307F07F928F929F92AF92BF92CF92DF92EF92AD
S1130800FF92CF93DF93EC01FB0140805180628023
S11308107380609114057091150580E090E00E944A
S113082011114B015C0120E030E040E057E3C301CB
S1130830B2010E94C7116B017C0120E030E040E06E
S113084059E3C501B4010E94C7119B01AC01C70162
S1130850B6010E940F106B017C0120E030E040E8FB
S113086058E3C301B2010E94C7112B013C0120E0EF
S113087030E040E85AE3C501B4010E94C7119B016E
S1130880AC01C301B2010E940F104B015C016091E5
S11308902A0570912B05882777FD8095982F0E9453
S11308A013119B01AC01C501B4010E94C7114B0196
S11308B05C01A7019601C701B6010E94C7116B0133
S11308C07C016091280570912905882777FD809522
S11308D0982F0E9413119B01AC01C701B6010E941D
S11308E0C7119B01AC01C501B4010E9410106B013A
S11308F07C010E94E01060930C0570930D058093B9
S11309000E0590930F0520E030E040EA55E4C7015E
S1130910B6010E9478106B017C01688379838A8315
S11309209B8320E030E048EC52E40E94C311181687
S113093074F020E030E048EC52ECC701B6010E94AC
S11309407410881F8827881F91E0892701C080E0E0
S1130950DF91CF91FF90EF90DF90CF90BF90AF9059
S11309609F908F907F906F905F904F9008954F92DB
S11309705F926F927F928F929F92AF92BF92CF922B
S1130980DF92EF92FF920F931F93CF93DF938C012B
S1130990EB0160910C0570910D0580910E0590910D
S11309A00F050E94131120E030E040E05FE30E9455
S11309B0C71120E030E04AE757E40E940F106B01B2
S11309C07C0160911E0570911F05882777FD809535
S11309D0982F0E941311A70196010E94C71120E0CD
S11309E030E040E058E30E94C711A70196010E943D
S11309F0C7114B015C016091200570912105882786
S1130A0077FD8095982F0E941311A70196010E94EB
S1130A10C7119B01AC010E941010A50194010E9412
S1130A20101020E030E040E85EE30E94C7114B0163
S1130A305C016091240570912505882777FD8095D8
S1130A40982F0E941311A70196010E94C711A701B4
S1130A5096010E94C71120E030E040E056E30E9476
S1130A60C7112B013C016091260570912705882749
S1130A7077FD8095982F0E941311A70196010E947B
S1130A80C7119B01AC01C301B2010E94101020E008
S1130A9030E040E056E30E94C71120E030E040E03F
S1130AA057E40E94101020E030E040E058E30E9438
S1130AB0C7116B017C01288139814A815B8160E027
S1130AC070E080E899E40E940F102B013C016091D2
S1130AD0220570912305882777FD8095982F0E9421
S1130AE0131120E030E040E857E40E94C7119B0155
S1130AF0AC01C501B4010E94101020E030E040E8D0
S1130B0059E30E94C7119B01AC01C301B2010E94C9
S1130B100F1020E030E543EC55E40E94C7114B016F
S1130B205C01609116057091170580E090E00E94C9
S1130B3011119B01AC01C701B6010E94C7119B01B1
S1130B40AC01C501B4010E9478106B017C01609175
S1130B50180570911905882777FD8095982F0E94B4
S1130B601311A70196010E94C711A70196010E94C3
S1130B70C71120E030E040E050E30E94C7114B0170
S1130B805C0160911A0570911B05882777FD80959B
S1130B90982F0E941311A70196010E94C71120E00B
S1130BA030E040E058E30E94C7119B01AC01C5014D
S1130BB0B4010E9410104B015C0160911C057091FE
S1130BC01D05882777FD8095982F0E9413119B019E
S1130BD0AC01C501B4010E94101020E030E040E8EF
S1130BE05DE30E94C711A70196010E94101020E046
S1130BF030E048EC52E40E9478106B017C01F8016B
S1130C00608371838283938320E030E046E954E477
S1130C100E94C311181674F020E030E048E454E454
S1130C20C701B6010E947410881F8827881F91E0AD
S1130C30892701C080E0DF91CF911F910F91FF9030
S1130C40EF90DF90CF90BF90AF909F908F907F9068
S1130C506F905F904F900895EF92FF920F931F93C0
S1130C60CF93DF93CDB7DEB728970FB6F894DEBFE6
S1130C700FBECDBF8C017B01BE016B5F7F4FCE01E8
S1130C8001960E9453038823D1F0BE016B5F7F4F0E
S1130C90C8010E94F503882369F0BE016F5F7F4F8E
S1130CA0C7010E94B70481110FC083E080930B0534
S1130CB080E00BC082E080930B0580E006C081E0F9
S1130CC080930B0580E001C081E028960FB6F8946C
S1130CD0DEBF0FBECDBFDF91CF911F910F91FF906B
S1130CE0EF900895CF93DF93EC0180E40E94C9084C
S1130CF085EE0E94BB088832E9F480E40E94E6088D
S1130D008034D1F440E063E070E0CE010E94230916
S1130D108035A1F46A8170E0888190E0982F88275B
S1130D202981822B0E94CA0D892B51F40E941E092D
S1130D3081E007C080E005C080E003C080E001C01E
S1130D4080E0DF91CF910895FC01808190E0982F9D
S1130D5088272181BC01622B80E090E00E94111160
S1130D6020E030E040E857E30E94C71120E030E083
S1130D704AEF52E40E94C71120E030E040EC50E416
S1130D800E940F100895CF93DF93EC0180E40E943A
S1130D90C90883EE0E94BB088832E9F480E40E940B
S1130DA0E6088034D1F440E063E070E0CE010E94B4
S1130DB023098035A1F46A8170E0888190E0982F3E
S1130DC088272981822B0E94CA0D892B51F40E9405
S1130DD01E0981E007C080E005C080E003C080E018
S1130DE001C080E0DF91CF910895FC01808190E003
S1130DF0982F88272181BC01622B80E090E00E941B
S1130E00111120E030E040E857E30E94C71122E5C9
S1130E1038EB4FE253E40E94C71126E636E64BE373
S1130E2052E40E940F10089584E880937A0085ECC0
S1130E3080937700EBE7F0E080818823ECF7089556
S1130E401F920F920FB60F9211242F933F934F933B
S1130E505F936F937F938F939F93AF93BF93EF931E
S1130E60FF9380913005909131050196909331055F
S1130E70809330059F938F938CE992E09F938F9397
S1130E800E94451880912F058F9380912E058F9392
S1130E9080912D058F9380912C058F9389EA92E0A0
S1130EA09F938F930E9445180E94D10C8DB79EB7D3
S1130EB00A960FB6F8949EBF0FBE8DBFFF91EF91B7
S1130EC0BF91AF919F918F917F916F915F914F915E
S1130ED03F912F910F900FBE0F901F901895109275
S1130EE02C0510922D0510922E0510922F051092AC
S1130EF0310510923005E6EBF0E08081806280835A
S1130F0080818F71E9F71092B1000895CF93DF9338
S1130F10EC01E6EBF0E080818F71E9F71092B1000B
S1130F20E6EBF0E080818F71E9F7CB3FD10504F562
S1130F30BE01882777FD8095982F0E9413112FE614
S1130F4032E143E85FE30E94C7110E94E01020E011
S1130F5031E0C901861B970B8F3F910519F014F0FE
S1130F608FEF90E08093B20083E08093B10094C04F
S1130F70C53F81E0D80704F5BE01882777FD809539
S1130F80982F0E9413112FE632E143E05FE30E94A1
S1130F90C7110E94E01020E031E0C901861B970BC5
S1130FA08F3F910519F014F08FEF90E08093B20019
S1130FB084E08093B10070C0C93E83E0D80704F593
S1130FC0BE01882777FD8095982F0E9413112FE684
S1130FD032E143E85EE30E94C7110E94E01020E082
S1130FE031E0C901861B970B8F3F910519F014F06E
S1130FF08FEF90E08093B20085E08093B1004CC005
S1131000C13D87E0D80704F5BE01882777FD8095A8
S1131010982F0E9413112FE632E143E05EE30E9411
S1131020C7110E94E01020E031E0C901861B970B34
S11310308F3F910519F014F08FEF90E08093B20088
S113104086E08093B10028C0C1348FE1D80704F54D
S1131050BE01882777FD8095982F0E9413112FE6F3
S113106032E143E05DE30E94C7110E94E01020E0FA
S113107031E0C901861B970B8F3F910519F014F0DD
S11310808FEF90E08093B20087E08093B10004C0BA
S11310908AEB92E00E9459181092B000CE01AA2760
S11310A097FDA095BA2F40912C0550912D05609184
S11310B02E0570912F05840F951FA61FB71F8093CF
S11310C02C0590932D05A0932E05B0932F05DF9149
S11310D0CF9108950E94860787E087BB81E08093C3
S11310E070000895CF93DF93EC01DF93CF938CECE2
S11310F092E09F938F930E9445180F900F900F904A
S11311000F90209769F08091300590913105892BDB
S113111021F4CE010E946A0803C0CE010E94860712
S1131120DF91CF9108958AB1806C8AB908955F9A4E
S11311300895239A80E48CBD08959B01AC0110921C
S1131140B90060E074E284EF90E00E94A515DA0132
S1131150C9014097A109B109689412F8B695A795F9
S1131160979587951694D1F78093B80084E080937F
S1131170BC0081E008958093BB0084E88093BC00A8
S1131180ECEBF0E080818823ECF78091B900887F54
S1131190089594EE9093BC00ECEBF0E090819923D9
S11311A0ECF7EFE9FFE03197F1F700C00000909110
S11311B0B900987F983031F0903121F08091B900D6
S11311C0887F0895880F0E94BB08089594EE909339
S11311D0BC00ECEBF0E090819923ECF79091B9001E
S11311E0987F983031F0903121F08091B900887F58
S11311F00895880F81600E94BB08089524EC209311
S1131200BC00ECEBF0E020812223ECF72091BB0042
S1131210FC0120838091B900887F089524E82093FD
S1131220BC00ECEBF0E020812223ECF72091BB0022
S1131230FC0120838091B900887F089584E980931C
S1131240BC0081E008959F92AF92BF92CF92DF924B
S1131250EF92FF920F931F93CF93DF937C018B0147
S1131260942E16161706F4F4C0E0D0E06B0181E06A
S1131270C81AD1085701AC0CBD1C911007C0CC167C
S1131280DD0621F4C5010E940E0905C0C7018C0FBB
S11312909D1F0E94FE08803531F42196C017D107A6
S11312A061F701C080E0DF91CF911F910F91FF9012
S11312B0EF90DF90CF90BF90AF909F9008950F93E1
S11312C01F93CF93DF93161617066CF4EC018C0171
S11312D0060F171F89910E94BB08883229F4C01792
S11312E0D107C1F701C080E0DF91CF911F910F9129
S11312F0089526E032E03093910920939009DC01AF
S1131300CB01880F991FAA1FBB1F880F991FAA1F03
S1131310BB1F9C01AD01220F331F441F551F220F19
S1131320331F441F551F60E074E284EF90E00E9475
S1131330A515215031093093C5002093C40086E0DF
S11313408093C20088E18093C1000895E0ECF0E04E
S1131350908195FFFDCF8093C6000895CF93C82F49
S11313608A3019F48DE00E94A6098C2F0E94A609E8
S113137080E090E0CF91089514BE88E10FB6F89410
S113138080936000109260000FBEE1E6F0E080E818
S11313908083108278940E94CE0908951092610986
S11313A080E29EE49093A9008093A800E1EAF0E033
S11313B088E08083808182608083E2E7F0E080813E
S11313C08260808308951F920F920FB60F921124AA
S11313D08F93809161098F5F809361098F910F9042
S11313E00FBE0F901F90189510926609109267090E
S11313F01092630910926209109289091092880967
S1131400E8E6F9E088E899E011921192E817F90703
S1131410D9F70E94050B0E94780A0E94200A0E94B4
S11314201B0A0895E82FF0E0EE0FFF1FE859F64F6E
S113143071836083089510923305109232050895E4
S1131440109234051092BD05109246061092CF06F4
S1131450109258070895009741F0FC01E757FF4F99
S113146087E0E13EF80718F012C0E4E3F5E080817C
S1131470882321F00FC0808181110FC0E757FF4FEF
S113148087E0E13EF807B8F380E090E0089580E05B
S113149090E008958E2F9F2F08958E2F9F2F0895EB
S11314A0DC0119962C911997222351F01796ED918E
S11314B0FC9118972081211105C00E94320B0895D8
S11314C080E0089580E00895E2EFF7E024E238E058
S11314D050E061E04081442319F041504083562F8D
S11314E03596E217F307B1F751110E94BD0D089527
S11314F0E2EFF7E084E298E010823596E817F90706
S1131500D9F784E690E0A0E0B0E08093E7079093F9
S1131510E807A093E907B093EA071092EB0784E683
S11315209AE09093ED078093EC0760E57AE080E021
S11315300E94120A0895FF920F931F93CF93DF9393
S1131540EC0110E080E090E001E00F2EF3E1FF2ECB
S1131550F02D13C0FC012081213179F4EC57FF4FA9
S1131560208131812150310931832083232B21F4BF
S1131570FC01F082102F01C0102F0E942B0A00974B
S113158049F7112319F0CE010E94BD0DDF91CF91CF
S11315901F910F91FF900895EF92FF920F931F9365
S11315A0CF93DF93EC0110E080E090E001E00F2E98
S11315B0F7E1EF2EF02D6894FF24F4F816C0FC0137
S11315C02081263191F4EC57FF4F20813181215045
S11315D0310931832083232B39F4FC01E082ED5758
S11315E0FF4FF082102F01C0102F0E942B0A00978A
S11315F031F7112319F0CE010E94BD0DDF91CF9177
S11316001F910F91FF90EF90089510923B08109254
S11316103A0882E390E0A0E0B0E08093330890932E
S11316203408A0933508B0933608109237088CEC30
S11316309AE090933908809338088AE090E0A0E01B
S1131640B0E08093260890932708A0932808B093CD
S1131650290810922A088BE99AE090932C08809329
S11316602B080895CF93DF93FC01C781D085818532
S11316708330C9F410C0FC012081263171F4348513
S1131680298132130AC027E120832A81EA57FF4FB8
S1131690208381E009C080E090E00E942B0A00973B
S11316A051F780E001C080E0DF91CF91089593E08D
S11316B090934201E1E4F1E090819F719830E1F769
S11316C080934201E1E4F1E090819F719813FCCF93
S11316D00895E9E3F1E080818160808310923D0800
S11316E010923C0881E080933E0888E00E94570BEA
S11316F08BEE80935601ECE4F1E080818068808376
S113170008950F931F93CF93DF93EC01009759F43F
S113171081EE92E09F938F930E9445180F900F9053
S113172080E090E079C00A851B858E851F928F9397
S113173026EF32E03F932F930E9445180F900F90AD
S11317400F900F908E858130A9F038F0823009F423
S113175049C0843009F456C05DC0D801ED91FC91B4
S11317600280F381E02DC801099581E08E8780E035
S113177090E052C0D8011C96ED91FC911D97048015
S1131780F581E02D8A859B8509958F3FBFEF9B07E7
S113179029F484E08E8780E090E03EC0009781F4D5
S11317A081E08E87D8011C96ED91FC911D970680EF
S11317B0F781E02D8A859B85099580E090E02CC017
S11317C022E02E879D838C83998788878091550991
S11317D0909156090E94280ECE010E94620C81E06D
S11317E090E01AC081E08E878A859B85DC011C9677
S11317F0ED91FC911D970680F781E02D099580E01D
S113180090E00AC086E093E00E9459181E8680E0AA
S113181090E002C080E090E0DF91CF911F910F91A2
S113182008950F931F93CF93DF93E1E5F9E0F093CD
S11318305609E0935509F0935409E0935309F18351
S1131840E083EBE5F9E0F0936009E0935F09F0933E
S11318505E09E0935D09F183E083C1E4D8E001E52A
S113186019E0BE0180915F09909160090E94F20D18
S11318706196C017D107A9F7DF91CF911F910F91FE
S1131880089580915509909156090E94E60DFC0136
S1131890009759F485E293E00E9459188AE693E090
S11318A00E94591880E49FE10895848195818034D1
S11318B02FE1920734F080549F419583848380E420
S11318C09FE10895CF93DF93DC01C0915509D09136
S11318D05609EA81FB81CE17DF0709F13097C9F079
S11318E04481558114962D913C9115972417350701
S11318F054F4421B530B55834483BD018081918171
S11319000E94F20D15C0241B350B15963C932E93A3
S113191014970280F381E02DCE17DF07F9F6E091EA
S11319205509F0915609BD01808191810E94F20D03
S1131930DF91CF910895CF92DF92EF92FF920F93B0
S11319401F93CF93DF936C017B018A01E90180919E
S11319505F09909160090E94280EFC010097B1F084
S1131960D582C482F782E6821186108613870287A5
S1131970D587C48781E0868781E89BE0908B878741
S1131980CF010E94620C80E090E002C08FEF9FEFD5
S1131990DF91CF911F910F91FF90EF90DF90CF9047
S11319A00895CF93DF9380915509909156090E9431
S11319B0E60DEC01009709F44CC08A859B85892BC0
S11319C009F44AC0EF85F889CE010995019769F4B5
S11319D00E94410C892B11F40E94D10C0E94410CED
S11319E00E94720880E090E039C08091550990917E
S11319F056090E94280E8E819F810097B1F0288598
S1131A003985AC01421B530B9A015D834C835523EA
S1131A1034F4280F391F3323E4F33D832C831986D0
S1131A201886CE010E94620C07C0BE0180915F0936
S1131A30909160090E94F20D0E94410C892B11F4CF
S1131A400E94D10C0E94410C0E94720880E090E038
S1131A5005C08FEF9FEF02C08FEF9FEFDF91CF9113
S1131A6008950E94BC090E949E0D0E94690B0E9469
S1131A70F40908950F931F93CF93DF93EC018091A2
S1131A803F0890914008009709F445C04E815F815A
S1131A9068857985FC010281138124813581401791
S1131AA0510762077307C0F40BC0028113812481BC
S1131AB03581401751076207730728F0DF010DC015
S1131AC0FC01A0E0B0E0041B150B260B370B0283CE
S1131AD01383248335830AC0DC01401B510B620B42
S1131AE0730BED91FC9111973097F9F64A835B8360
S1131AF06C837D83109741F08D919C91119799830C
S1131B008883CD93DC9315C099838883D093400850
S1131B10C0933F080EC0198218828E819F81A885C8
S1131B20B9858A839B83AC83BD83D0934008C093DB
S1131B303F08DF91CF911F910F91089510924008B3
S1131B4010923F080895E0913F08F09140083097C3
S1131B5071F0E817F90721F40CC08E179F0759F0AC
S1131B600190F081E02D3097C1F780E0089580E086
S1131B70089581E0089581E00895CF93DF93EC0107
S1131B800E94A30D811103C0CE010E943A0DDF9182
S1131B90CF91089520E030E0382FC901862B27E14A
S1131BA030E040E050E8BC01022E02C07695679513
S1131BB00A94E2F760FF02C084279527569547955B
S1131BC0215031092730310571F70895FC01228134
S1131BD033812817390719F480E090E00895822FA3
S1131BE0932F0895DC011296ED91FC911397718364
S1131BF06083DB011396FC93EE931297FC017383CD
S1131C0062838D939C93CB010895FB01DC011296B2
S1131C102D913C91139728173907A1F08617970740
S1131C20A1F0A081B1818281938113969C938E93BC
S1131C301297A281B381808191818D939C93862F89
S1131C409F2F089580E090E0089580E090E008954B
S1131C50FC01628173816817790719F00E94050EEF
S1131C60089580E090E0089524E132E0FC0131839E
S1131C702083089580E090E0089580E090E0089546
S1131C8084E090E008950F931F93CF93DF938C012A
S1131C908CE090E00E94FE15EC011D830C8384E12E
S1131CA092E0998388838CE192E00E94FE159987E3
S1131CB08887A0E0B0E000E010E040E05CE36CE185
S1131CC076EC19C0E885F985EA0FFB1FC901880F76
S1131CD0991F880F991FE80FF91F4083518362836E
S1131CE073832F5F3F4F2430310561F79496AC31F5
S1131CF082E0B80719F0202F312FE4CF1F821E8213
S1131D00CE01DF91CF911F910F9108952CE132E024
S1131D10FC0131832083089580E090E0089580E001
S1131D2090E0089585E090E008950F931F93CF937A
S1131D30DF938C01EB0188E090E00E94FE15FC012A
S1131D4015830483D783C6838CE192E091838083D7
S1131D50CF01DF91CF911F910F9108952CE232E0D2
S1131D60FC0135872487089580E090E0089524E2FB
S1131D7032E0FC0131832083089580E090E00895EF
S1131D8083E090E008958BE294E00E94591880E08B
S1131D9090E0089588E394E00E94591880E090E070
S1131DA00895CF93DF938BE494E00E9459180E9426
S1131DB0E902C82FD0E01F928F932AE534E03F93C5
S1131DC02F930E9445180F900F900F900F9020971B
S1131DD019F0CE01019602C080E090E0DF91CF912E
S1131DE00895CF93DF93CDB7DEB728970FB6F89455
S1131DF0DEBF0FBECDBF8BE694E00E945918BE0132
S1131E006B5F7F4FCE0101960E942C0688858F93CD
S1131E108F818F938E818F938D818F938C818F93FC
S1131E208B818F938A818F9389818F938AE794E042
S1131E309F938F930E9445180FB6F894DEBF0FBE90
S1131E40CDBF80E090E028960FB6F894DEBF0FBEB9
S1131E50CDBFDF91CF910895EF92FF920F931F931F
S1131E60CF93DF937C018B018EE090E00E94FE15FE
S1131E70EC0184E292E0998388838CE292E09D876E
S1131E808C87FB82EA821F830E83609157097091CD
S1131E9058097D836C83600F711F70935809609398
S1131EA057097F936F9380EA94E09F938F930E94E6
S1131EB045180F900F900F900F90CE01DF91CF91A6
S1131EC01F910F91FF90EF9008952EE332E0FC01F3
S1131ED035872487089580E090E0089580E090E0BD
S1131EE0089526E332E0FC0131832083089580E0E5
S1131EF090E0089583E090E0089584EB94E00E94DC
S1131F00591880E090E00895CF93DF93EC0187ECBB
S1131F1094E00E94591863E0CE010E960E94C30615
S1131F2063E0CE0141960E94720680E090E0DF916A
S1131F30CF910895EF92FF920F931F93CF93DF9366
S1131F40EC0186ED94E00E945918CE010E960E9491
S1131F50F506162F072FF82EE92ECE0141960E9482
S1131F60A4069F938F937F936F93EF92FF920F93A7
S1131F701F9385EE94E09F938F930E9445188DB72D
S1131F809EB70A960FB6F8949EBF0FBE8DBF80E031
S1131F9090E0DF91CF911F910F91FF90EF90089502
S1131FA0EF92FF920F931F93CF93DF937C018B01EA
S1131FB084E190E00E94FE15EC0186E392E09983AF
S1131FC088838EE392E09D878C87FB82EA821F835D
S1131FD00E8360915709709158097D836C83600F5B
S1131FE0711F70935809609357097F936F9380EA28
S1131FF094E09F938F930E9445181E86198A1F862A
S11320001A8A188A1B8A0F900F900F900F90CE0196
S1132010DF91CF911F910F91FF90EF900895505849
S1132020BB27AA270ED075C166D130F06BD120F042
S113203031F49F3F11F41EF45BC10EF4E095E7FB0D
S113204051C1E92F77D180F3BA1762077307840768
S1132050950718F071F49EF58FC10EF4E0950B2EE0
S1132060BA2FA02D0B01B90190010C01CA01A001E6
S11320701124FF27591B99F0593F50F4503E68F141
S11320801A16F040A22F232F342F4427585FF3CF82
S1132090469537952795A795F0405395C9F77EF453
S11320A01F16BA0B620B730B840BBAF09150A1F09C
S11320B0FF0FBB1F661F771F881FC2F70EC0BA0F22
S11320C0621F731F841F48F4879577956795B795AA
S11320D0F7959E3F08F0B3CF9395880F08F09927A2
S11320E0EE0F979587950895D9D008F481E0089567
S11320F00CD00FC107D140F0FED030F021F45F3F87
S113210019F0F0C0511139C1F3C014D198F39923D7
S1132110C9F35523B1F3951B550BBB27AA276217A7
S11321207307840738F09F5F5F4F220F331F441FEC
S1132130AA1FA9F333D00E2E3AF0E0E830D0915024
S11321405040E695001CCAF729D0FE2F27D0660F11
S1132150771F881FBB1F261737074807AB07B0E850
S113216009F0BB0B802DBF01FF2793585F4F2AF066
S11321709E3F510568F0B6C000C15F3FECF3983E46
S1132180DCF3869577956795B795F7959F5FC9F7C3
S1132190880F911D9695879597F90895E1E0660F4C
S11321A0771F881FBB1F621773078407BA0720F0C5
S11321B0621B730B840BBA0BEE1F88F7E09508952E
S11321C004D06894B111D9C00895BCD088F09F5749
S11321D090F0B92F9927B751A0F0D1F0660F771F6F
S11321E0881F991F1AF0BA95C9F712C0B13081F04F
S11321F0C3D0B1E00895C0C0672F782F8827B85F97
S113220039F0B93FCCF3869577956795B395D9F7AF
S11322103EF490958095709561957F4F8F4F9F4FB9
S11322200895E89409C097FB3EF4909580957095C5
S113223061957F4F8F4F9F4F9923A9F0F92F96E90E
S1132240BB279395F695879577956795B795F11183
S1132250F8CFFAF4BB0F11F460FF1BC06F5F7F4F20
S11322608F4F9F4F16C0882311F096E911C0772332
S113227021F09EE8872F762F05C0662371F096E83B
S1132280862F70E060E02AF09A95660F771F881F0A
S1132290DAF7880F9695879597F90895990F0008AE
S11322A0550FAA0BE0E8FEEF16161706E807F90724
S11322B0C0F012161306E407F50798F0621B730BBF
S11322C0840B950B39F40A2661F0232B242B252B40
S11322D021F408950A2609F4A140A6958FEF811DE3
S11322E0811D089597F99F6780E870E060E0089584
S11322F09FEF80EC089500240A941616170618061A
S11323000906089500240A941216130614060506F5
S11323100895092E0394000C11F4882352F0BB0F86
S113232040F4BF2B11F460FF04C06F5F7F4F8F4FE9
S11323309F4F089557FD9058440F551F59F05F3F24
S113234071F04795880F97FB991F61F09F3F79F0D3
S113235087950895121613061406551FF2CF469555
S1132360F1DF08C0161617061806991FF1CF8695D7
S11323707105610508940895E894BB2766277727BB
S1132380CB0197F908958ADF08F48FEF08950BD0F5
S1132390C0CFB1DF28F0B6DF18F0952309F0A2CF43
S11323A0A7CF1124EACFC6DFA0F3959FD1F3950FF1
S11323B050E0551F629FF001729FBB27F00DB11DC5
S11323C0639FAA27F00DB11DAA1F649F6627B00D55
S11323D0A11D661F829F2227B00DA11D621F739F3E
S11323E0B00DA11D621F839FA00D611D221F749F4C
S11323F03327A00D611D231F849F600D211D822F93
S1132400762F6A2F11249F5750408AF0E1F08823D9
S11324104AF0EE0FFF1FBB1F661F771F881F9150E6
S11324205040A9F79E3F510570F05CCFA6CF5F3FA7
S1132430ECF3983EDCF3869577956795B795F79519
S1132440E7959F5FC1F7FE2B880F911D96958795A1
S113245097F90895A3E1B0E0E0E3F2E10C94C71525
S11324607C011B016A01FC0117821682838181FFB2
S113247066C3BE016F5F7F4F4B01F7019381F1018A
S113248093FD859193FF81911F01882309F453C320
S1132490853239F493FD859193FF81911F01853233
S11324A039F4B70190E00E94131856016501E5CF95
S11324B010E0512C20E02032A0F48B3269F030F48B
S11324C0803259F0833269F420612CC08D3239F0A6
S11324D0803339F4216026C02260246023C0286040
S11324E021C027FD27C030ED380F3A3078F426FF9D
S11324F006C0FAE01F9F300D1124132F13C06AE0A9
S1132500569E300D1124532E20620CC08E3221F4BD
S113251026FD11C3206406C08C3611F4206802C065
S1132520883641F4F10193FD859193FF81911F0158
S11325308111C1CF9BEB980F933018F42061805E1A
S113254006C09BE9980F933008F0AAC12F7E26FF9E
S113255016E02F73722E853621F4F22FF0647F2E4D
S113256008C0863621F4622F6068762E02C01111ED
S1132570115077FE07C01C3348F444244394410EA1
S113258027E00BC0183030F4212F06C027E04CE3BD
S1132590442E03C027E017E0412C560174E0A70E37
S11325A0B11CF6016081718182819381042DA401A3
S11325B00E9425176C01098100FF02C003FF06C0B9
S11325C071FC07C072FC08C0612C08C03DE2632E98
S11325D005C02BE2622E02C090E2692E802F8C701F
S11325E099F1662011F084E001C083E0851510F0B4
S11325F0512C0BC0581A73FC08C0B70180E290E05C
S11326000E9413185A94C9F7F3CF662029F0B70132
S1132610862D90E00E94131803FD03C008E311E027
S113262002C004E311E0F72DF0717F2EF8018491CC
S1132630882309F476C271108052B70190E00E9499
S113264013180F5F1F4FF2CF77FE0FC04C0C04FF1F
S113265004C08A81813309F44A94141474F5F8E0AF
S1132660F41578F588E0482E2CC076FC2AC0812F1A
S113267090E08C159D059CF06CEFC6166FEFD606A6
S113268074F0772D7068772E0AC0E2E0F0E0EC0F6A
S1132690FD1FE10FF11D8081803319F411501111D8
S11326A0F4CF77FE0EC044244394410E812F90E072
S11326B0C816D9062CF41C1904C04424439401C040
S11326C010E077FE07C01C141D043CF496012F5F34
S11326D03F4F05C025E030E002C021E030E0662035
S11326E011F02F5F3F4F112331F0412F50E04F5F26
S11326F05F4F240F351F452D50E02417350714F480
S1132700521A01C0512C872D897049F4552039F093
S1132710B70180E290E00E9413185A94F7CF662024
S113272029F0B701862D90E00E94131873FC09C0AC
S1132730552039F0B70180E390E00E9413185A94B1
S1132740F7CF77FE5FC09C2D8D2DD7FE02C090E0A1
S113275080E0692E782E40E050E0C601841991098A
S11327609D878C87960126193709280D391D812FDD
S113277090E0EE27FF27E81BF90BFF87EE87FFEFBA
S11327806F167F0669F4B7018EE290E02B8B3A8BCB
S1132790488B598B0E941318598948893A892B8987
S11327A0C614D70454F06C857D85661577052CF422
S11327B0F901E40FF51F818101C080E371E0671A1C
S11327C071084F5F5F4FEE85FF856E167F066CF0D4
S11327D0B70190E02B8B3A8B488B598B0E941318CE
S11327E02B893A8948895989CACF6C147D0439F4F4
S11327F09A81963318F4953311F404FF81E3B701F9
S113280090E04BC08A81813309F00F7EB70190E0DC
S11328100E941318111105C074FE18C085E490E0DD
S113282017C0B7018EE290E00E94131882E066247C
S11328306394680EF401E80FF11D8081B70190E004
S11328400E941318115041F3862DF1CF85E690E0D4
S1132850B7010E941318D7FC05C0C114D10439F480
S113286004FF05C0D194C194D1088DE201C08BE26C
S1132870B70190E00E94131880E36AE0C616D10401
S11328802CF08F5FFAE0CF1AD108F7CFB70190E0B0
S11328900E941318B701C601C0960E94131841C1C3
S11328A0833631F0833779F0833509F058C021C07D
S11328B0560172E0A70EB11CF6018081898301E004
S11328C010E0640114C05601F2E0AF0EB11CF60131
S11328D0C080D18026FF03C0612F70E002C06FEF7B
S11328E07FEFC6012B8B0E9408188C012B892F7750
S11328F015C05601F2E0AF0EB11CF601C080D180C4
S113290026FF03C0612F70E002C06FEF7FEFC601A6
S11329102B8B0E94FD178C012B892068722E23FDBE
S11329201AC0852D90E008171907A8F4B70180E2B2
S113293090E00E9413185A94F4CFF60177FC859125
S113294077FE81916F01B70190E00E941318511036
S11329505A94015011090115110579F7E2C0843622
S113296011F0893651F5560127FF09C0F4E0AF0E86
S1132970B11CF60160817181828193810AC0F2E009
S1132980AF0EB11CF60160817181882777FD8095B7
S1132990982F022F0F7697FF08C090958095709519
S11329A061957F4F8F4F9F4F00682AE030E0A4016C
S11329B00E948618C82EC8183EC0022F853721F4FD
S11329C00F7E2AE030E01DC0097F8F3691F018F4A5
S11329D0883559F0B0C0803719F0883711F0ABC092
S11329E0006104FF09C0046007C024FF08C006603A
S11329F006C028E030E005C020E130E002C020E15C
S1132A0032E0560107FF09C0F4E0AF0EB11CF60135
S1132A10608171818281938108C0F2E0AF0EB11CA4
S1132A20F6016081718180E090E0A4010E94861823
S1132A30C82EC8180F7706FF0BC0202F2E7FC11693
S1132A4050F404FF0AC002FD08C0202F2E7E05C0EA
S1132A50DC2C202F03C0DC2C01C0D12E24FF0DC0A0
S1132A60FE01EC0DF11D8081803311F4297E09C033
S1132A7022FF06C0D394D39404C0822F867809F031
S1132A80D39423FD13C020FF06C01C2DD51418F4C5
S1132A90150D1D19D52CD51468F4B70180E290E00A
S1132AA02B8B0E941318D3942B89F5CFD51410F4D3
S1132AB05D1801C0512C24FF12C0B70180E390E0DF
S1132AC02B8B0E9413182B8922FF17C021FF03C0F0
S1132AD088E590E002C088E790E0B7010CC0822F3F
S1132AE0867859F021FD02C080E201C08BE227FD07
S1132AF08DE2B70190E00E941318C11638F4B701B3
S1132B0080E390E00E9413181150F7CFCA94F401A7
S1132B10EC0DF11D8081B70190E00E941318C110E3
S1132B20F5CF552009F4C2CCB70180E290E00E94B1
S1132B3013185A94F6CFF7018681978102C08FEF5C
S1132B409FEF6396E2E10C94E315A1E21A2EAA1B0F
S1132B50BB1BFD010DC0AA1FBB1FEE1FFF1FA21749
S1132B60B307E407F50720F0A21BB30BE40BF50B46
S1132B70661F771F881F991F1A9469F760957095CF
S1132B80809590959B01AC01BD01CF0108952F92D2
S1132B903F924F925F926F927F928F929F92AF92E9
S1132BA0BF92CF92DF92EF92FF920F931F93CF9336
S1132BB0DF93CDB7DEB7CA1BDB0B0FB6F894DEBFCD
S1132BC00FBECDBF09942A88398848885F846E84F3
S1132BD07D848C849B84AA84B984C884DF80EE803D
S1132BE0FD800C811B81AA81B981CE0FD11D0FB646
S1132BF0F894DEBF0FBECDBFED010895CF93DF93F0
S1132C008230910510F482E090E0E0918C09F0911B
S1132C108D0920E030E0A0E0B0E0309739F1408148
S1132C20518148175907B8F04817590771F4828140
S1132C309381109729F013969C938E9312972CC02E
S1132C4090938D0980938C0927C02115310531F0AB
S1132C504217530718F0A901DB0101C0EF019A01E3
S1132C60BD01DF010280F381E02DD7CF21153105AD
S1132C70F9F0281B390B2430310580F48A819B81BB
S1132C806115710521F0FB019383828304C0909345
S1132C908D0980938C09FE01329644C0FE01E20F37
S1132CA0F31F8193919322503109398328833AC0C9
S1132CB020918A0930918B09232B41F4209102023F
S1132CC03091030230938B0920938A0920910002EA
S1132CD0309101022115310541F42DB73EB74091E1
S1132CE0040250910502241B350BE0918A09F091EE
S1132CF08B09E217F307A0F42E1B3F0B28173907A3
S1132D0078F0AC014E5F5F4F2417350748F04E0F43
S1132D105F1F50938B0940938A098193919302C05A
S1132D20E0E0F0E0CF01DF91CF910895CF93DF93FE
S1132D30009709F487C0FC01329713821282C09174
S1132D408C09D0918D09209781F420813181280F3D
S1132D50391F80918A0990918B098217930779F51D
S1132D60F0938B09E0938A096DC0DE0120E030E026
S1132D70AE17BF0750F412964D915C9113979D01C5
S1132D804115510509F1DA01F3CFB383A2834081E0
S1132D905181840F951F8A179B0771F48D919C9123
S1132DA01197840F951F02969183808312968D91BB
S1132DB09C911397938382832115310529F4F09311
S1132DC08D09E0938C093EC0D9011396FC93EE93D0
S1132DD012974D915D91A40FB51FEA17FB0779F483
S1132DE080819181840F951F0296D90111969C933D
S1132DF08E938281938113969C938E931297E0E035
S1132E00F0E08A819B81009719F0FE01EC01F9CF73
S1132E10CE01029628813981820F931F20918A095D
S1132E2030918B092817390769F4309729F41092E7
S1132E308D0910928C0902C013821282D0938B09DF
S1132E40C0938A09DF91CF910895283008F027E0D4
S1132E503327DA01990F311D87FD916000966105D2
S1132E60710539F432602E5F3D9330E32A95E1F722
S1132E7008959F3F30F080387105610509F03C5F8B
S1132E803C5F3D93913008F08068911DDF93CF93B0
S1132E901F930F93FF92EF92192F987F9695E92F26
S1132EA096959695E90FFF27EA56FE4F9927332703
S1132EB0EE24FF24A701E70105900894079428F461
S1132EC0360FE71EF81E491F511D660F771F881F16
S1132ED0991F0694A1F70590079428F4E70EF81EAD
S1132EE0491F561FC11D770F881F991F661F06941F
S1132EF0A1F70590079428F4F80E491F561FC71F21
S1132F00D11D880F991F661F771F0694A1F705909E
S1132F10079420F4490F561FC71FD81F990F661F27
S1132F20771F881F0694A9F784911095177041F0B4
S1132F30D695C79557954795F794E7941A95C1F791
S1132F40ECE3F1E0689415901591359165919591B4
S1132F5005907FE27395E118F10A430B560BC90BF8
S1132F60D009C0F7E10CF11E431F561FC91FD01D25
S1132F707EF4703311F48A95E6CFE894015030F072
S1132F80080F0AF40027021708F4202F2395022FB4
S1132F907A3328F079E37D932A95E9F710C07D937D
S1132FA02A9589F6069497956795379517951794FA
S1132FB0E118F10A430B560BC90BD00998F023957D
S1132FC07E9173957A3308F070E37C932013B8F7FD
S1132FD07E9170617D9330F0839571E37D9370E30E
S1132FE02A95E1F71124EF90FF900F911F91CF9153
S1132FF0DF91992787FD90950895FC010590615014
S113300070400110D8F7809590958E0F9F1F0895FA
S1133010FC016150704001900110D8F780959095A3
S11330208E0F9F1F08950F931F93CF93DF93182F35
S1133030092FEB018B8181FD03C08FEF9FEF20C02F
S113304082FF10C04E815F812C813D81421753075E
S11330507CF4E881F9819F012F5F3F4F39832883F6
S1133060108306C0E885F985812F0995892B29F7F6
S11330702E813F812F5F3F4F3F832E83812F902FDF
S1133080DF91CF911F910F910895A0E0B0E0EBE4A0
S1133090F8E10C94D715FE01359661917191AF0159
S11330A080919009909191090E942A12E2E00C9477
S11330B0F3150F931F93CF93DF93E0919009F09151
S11330C09109238121FF1BC0EC0100E010E08991EC
S11330D06091900970919109DB011896ED91FC9132
S11330E01997882331F00995892B89F30FEF1FEF86
S11330F0EECF8AE00995892B11F4C80102C08FEF45
S11331009FEFDF91CF911F910F910895FA01AA27A4
S1133110283051F1203181F1E8946F936E7F6E5F16
S11331207F4F8F4F9F4FAF4FB1E03ED0B4E03CD0C4
S1133130670F781F891F9A1FA11D680F791F8A1FA7
S1133140911DA11D6A0F711D811D911DA11D20D00E
S113315009F468943F912AE0269F11243019305DC8
S11331603193DEF6CF010895462F4770405D4193B9
S1133170B3E00FD0C9F7F6CF462F4F70405D4A3306
S113318018F0495D31FD4052419302D0A9F7EACFCE
S1133190B4E0A6959795879577956795BA95C9F7FD
S11331A000976105710508959B01AC010A2E0694F0
S11331B05795479537952795BA95C9F7620F731FA9
S10F31C0841F951FA01D0895F894FFCFF4
S11331CC0000940920000000000200000000AE0979
S11331DC00000000340E3A0E3D0E400E860E8C0E8E
S11331EC8F0E920EB70ECA0EBD0EC00EAE0EB40EDE
S11331FCD10EF10EC30E710F7D0F770F7A0F650F81
S113320C6B0F840F9A0F6E0F424D5032383020538F
S113321C74617475732025690A00696E697420647D
S113322C6F6E6521000A543A202569202C256920EB
S113323C2C256920503A202569202C2569202C2521
S113324C69202C2569202C2569202C2569202C2506
S113325C69202C2531202C2569200A00636F756E9A
S113326C7431203D2025640A0054696D65737461C2
S113327C6D70203A20256C640A0054696D657220C7
S113328C65786365656473206D617800736574207B
S113329C74696D657220676170203D2025640A0A8B
S11332AC004E756C6C204576656E74204572726F99
S11332BC7220212121006375725F7374617465201F
S11332CC3D2025640A00536F6D657468696E672030
S11332DC7265616C6C792077726F6E6720686170AF
S11332EC70656E73007765206D6179206765742055
S11332FC736F6D65206D656D6F7279206C65616B94
S113330C6167652069737375652C206F7220736F08
S113331C6D657468696E67207265616C6C79206286
S113332C6164206F636375727300736F207765201B
S113333C61726520676F696E6720746F2074616BAE
S113334C6520736F6D65207265616C6C7920736C8C
S113335C6565702C2073696E6365206E6F206576CD
S113336C656E7420696E207363686564756C657230
S113337C000A0A0A3D3D3D3D3D3D3D3D3D3D3D3D43
S113338C3D3D3D3D3D0A656E7465722066756E6308
S113339C74696F6E0A3D3D3D3D3D3D3D3D3D3D3DBA
S11333AC3D3D3D3D3D0074696D656F75742025642C
S11333BC0A004E554C4C21003D3D3D3D3D3D3D3DAF
S11333CC3D3D3D3D3D3D3D3D3D0A6578697420667E
S11333DC756E6374696F6E0A3D3D3D3D3D3D3D3DEB
S11333EC3D3D3D3D3D3D3D3D0A0A00424D50323888
S11333FC305F4572726F7200424D50323830205338
S113340C656E736F7220496E697400424D50323888
S113341C30205265717565737400095761697420A5
S113342C666F72202564206D730A00424D50323849
S113343C3020436F6C6C656374000954656D706562
S113344C726174757265203D20252E33660A09500D
S113345C72657373757265203D20252E33660A00E0
S113346C53656E736F7244617461436F756E74202F
S113347C25640A005369373032302053656E736FFC
S113348C7220496E6974005369373032305F52656B
S113349C7175657374005369373032305F436F6CE8
S11334AC6C6563740054656D7065726174757265D6
S11334BC203D20252E33660A48756D696C69747934
S10D34CC203D20252E33660A00007F
S9030000FC
