S00D000041544D4F532E7372656393
S11300000C941B010C9438010C9438010C943801A5
S11300100C9438010C9438010C9438010C94380178
S11300200C9438010C9438010C9438010C94380168
S11300300C9438010C9438010C9438010C94530638
S11300400C9438010C9438010C9438010C94380148
S11300500C9438010C9438010C9438010C94380138
S11300600C9438010C9438010C9438010C94380128
S11300700C9438010C9438010C9438010C94380118
S11300800C9438010C9438010C9438010C94380108
S11300900C9438010C9438010C9438010C943801F8
S11300A00C9438010C9438010C9416090C94380102
S11300B00C9438010C9438010C9438010C943801D8
S11300C00C9438010C9438010C9438010C943801C8
S11300D00C9438010C9438010C9438010C943801B8
S11300E00C9438010C9438010C9438010C943801A8
S11300F00C9438010C9438010C9438010C94380198
S11301000C9438010C9438010C9438010C94380187
S11301100C9438010C9438010C9438010C94380177
S11301200C9438010C9438010C9438010C94380167
S11301300C9438016E616E00696E660000407A109E
S1130140F35A00A0724E18090010A5D4E80000E884
S11301507648170000E40B54020000CA9A3B0000E2
S113016000E1F505000080969800000040420F0071
S11301700000A08601000000102700000000E80332
S1130180000000006400000000000A0000000000FD
S11301900100000000002C76D888DC674F0823DFBC
S11301A0C1DFAE59E1B1B796E5E3E453C63AE6518F
S11301B0997696E8E6C28426EB898C9B62ED407CB6
S11301C06FFCEFBC9C9F40F2BAA56FA5F490055A52
S11301D02AF75C936B6CF9676DC11BFCE0E40D4777
S11301E0FEF520E6B500D0ED902E0300943577059A
S11301F00080841E080000204E0A000000C80C3352
S11302003333330F986E12831141EF8D2114893BE0
S1130210E65516CFFEE6DB18D1844B381BF77C1D60
S1130220901DA4BBE424203284725E228100C9F1B3
S113023024ECA1E53D2711241FBECFEFD1E2DEBFA0
S1130240CDBF14E0A0E0B2E0E2EBFDE202C0059015
S11302500D92A239B107D9F729E0A2E9B4E001C0AF
S11302601D92AA31B207E1F70E943A010C94D71605
S11302700C9400000E94640C0E94C6070E94CA07E6
S113028060E875E280E090E00E94AC08249A6B9AE2
S1130290739A60E177E280E090E00E94D0070E94C8
S11302A047060E94D8019F938F9386E292E09F9322
S11302B08F930E94381684E090E00E94B8020E9456
S11302C0CC071092E0081092DF080E94440B62E011
S11302D070E080E090E00E94C90DEC010E944B0D9B
S11302E00E94A20688E392E00E944C1620E030E0CF
S11302F0AE0160EA7FE088EE93E00E94CE0B0E949C
S1130300740B0E949D0778940F900F900F900F909C
S1130310FFCF1F93CF93DF93EC01162F86E70E9444
S1130320FC0788810E94EE0786E70E9419088093E3
S11303309204803481F4612F70E040E0CE010E9489
S11303405608887F883549F40E94510891E081114C
S113035005C090E003C090E001C090E0892FDF91D8
S1130360CF911F9108950F931F93CF93DF9300D0E4
S1130370CDB7DEB78B01898362E0CE0101960E947E
S11303808901882359F08A8190E0982F8827298150
S1130390822BF8019183808381E003C0F8011182EC
S11303A010820F900F90DF91CF911F910F910895BC
S11303B0CF93DF9300D0CDB7DEB788E8898362E0BE
S11303C0CE0101960E948901882399F08A8190E0E8
S11303D0982F88272981822B90939D0480939C04D5
S11303E062EB74E08AE80E94B301882309F4BBC07D
S11303F005C010929D0410929C04B5C060EB74E09B
S11304008CE80E94B301882309F4ADC08EE8898387
S113041062E0CE0101960E948901882399F08A81C5
S113042090E0982F88272981822B90939F048093B2
S11304309E046EEA74E080E90E94B301882309F403
S113044092C005C010929F0410929E048CC06CEA66
S113045074E082E90E94B301882309F484C06AEA43
S113046074E084E90E94B301882309F47CC068EA3B
S113047074E086E90E94B301882309F474C066EA33
S113048074E088E90E94B301882309F46CC064EA2B
S113049074E08AE90E94B301882309F464C062EA23
S11304A074E08CE90E94B301882309F45CC060EA1B
S11304B074E08EE90E94B301882309F454C080914A
S11304C0A1048F938091A0048F938091A3048F93B0
S11304D08091A2048F938091A5048F938091A404AA
S11304E08F938091A7048F938091A6048F9380911A
S11304F0A9048F938091A8048F938091AB048F9368
S11305008091AA048F938091AD048F938091AC0461
S11305108F938091AF048F938091AE048F938091D9
S11305209F048F9380919E048F938091B1048F9345
S11305308091B0048F938091B3048F938091B2041F
S11305408F9380919D048F9380919C048F9383E477
S113055092E09F938F930E9438160FB6F894DEBFF3
S11305600FBECDBF81E00F900F90DF91CF91089522
S113057090939B0480939A0481E008951F93CF93F2
S1130580DF9300D0CDB7DEB784EF898380919A04DE
S113059090919B048230910501F12CF4009749F06D
S11305A0019789F038C08330910509F1049749F126
S11305B032C085E28A8381E090E09093990480932D
S11305C0980418E02BC089E28A8381E090E090933C
S11305D09904809398041AE021C08DE28A8381E013
S11305E090E090939904809398041FE017C081E3EE
S11305F08A8381E090E0909399048093980418E1B1
S11306000DC08DE58A8381E090E0909399048093F6
S113061098041DE203C085E28A8319E086E70E94FC
S1130620FC0762E070E0CE0101960E9492088832D5
S113063031F40E945108811104C08FEF03C08FEF81
S113064001C0812F0F900F90DF91CF911F910895DA
S11306508F929F92BF92CF92DF92EF92FF920F936D
S11306601F93CF93DF9300D000D000D0CDB7DEB777
S11306704C018B0187EF898366E0CE0101960E94CD
S11306808901B82E882309F472C0698170E080E082
S113069090E00E94060F20E030E040E853E40E941E
S11306A0BA0F6B017C016A8170E080E090E00E94E7
S11306B0060F9B01AC01C701B6010E94030E6B013A
S11306C07C016B8170E080E090E00E94060F20E0E6
S11306D030E040E85BE30E94BA0F9B01AC01C70124
S11306E0B6010E94030E20E030E040E851E40E948D
S11306F0BA0FF40160837183828393836C8170E009
S113070080E090E00E94060F20E030E040E853E4EF
S11307100E94BA0F6B017C016D8170E080E090E073
S11307200E94060F9B01AC01C701B6010E94030E93
S11307306B017C016E8170E080E090E00E94060F06
S113074020E030E040E85BE30E94BA0F9B01AC017B
S1130750C701B6010E94030E20E030E040E851E4F6
S11307600E94BA0FF80160837183828393838B2D77
S113077026960FB6F894DEBF0FBECDBFDF91CF91A2
S11307801F910F91FF90EF90DF90CF90BF909F90BB
S11307908F9008954F925F926F927F928F929F9263
S11307A0AF92BF92CF92DF92EF92FF92CF93DF93FB
S11307B0EC01FB01408051806280738060919C0455
S11307C070919D0480E090E00E94040F4B015C0155
S11307D020E030E040E057E3C301B2010E94BA0FC9
S11307E06B017C0120E030E040E059E3C501B40135
S11307F00E94BA0F9B01AC01C701B6010E94020E10
S11308006B017C0120E030E040E858E3C301B20111
S11308100E94BA0F2B013C0120E030E040E85AE38B
S1130820C501B4010E94BA0F9B01AC01C301B2011E
S11308300E94020E4B015C016091B2047091B304FA
S1130840882777FD8095982F0E94060F9B01AC01A5
S1130850C501B4010E94BA0F4B015C01A7019601C6
S1130860C701B6010E94BA0F6B017C016091B0040C
S11308707091B104882777FD8095982F0E94060F08
S11308809B01AC01C701B6010E94BA0F9B01AC01E8
S1130890C501B4010E94030E6B017C010E94D30EBA
S11308A060939404709395048093960490939704B2
S11308B020E030E040EA55E4C701B6010E946B0E27
S11308C06B017C01688379838A839B8320E030E019
S11308D048EC52E40E94B60F181674F020E030E0A1
S11308E048EC52ECC701B6010E94670E881F8827A6
S11308F0881F91E0892701C080E0DF91CF91FF90AC
S1130900EF90DF90CF90BF90AF909F908F907F90AB
S11309106F905F904F9008954F925F926F927F9285
S11309208F929F92AF92BF92CF92DF92EF92FF92FB
S11309300F931F93CF93DF938C01EB016091940489
S11309407091950480919604909197040E94060FEB
S113095020E030E040E05FE30E94BA0F20E030E0A6
S11309604AE757E40E94020E6B017C016091A604E1
S11309707091A704882777FD8095982F0E94060F11
S1130980A70196010E94BA0F20E030E040E058E34E
S11309900E94BA0FA70196010E94BA0F4B015C0195
S11309A06091A8047091A904882777FD8095982FF9
S11309B00E94060FA70196010E94BA0F9B01AC0189
S11309C00E94030EA50194010E94030E20E030E072
S11309D040E85EE30E94BA0F4B015C016091AC04F5
S11309E07091AD04882777FD8095982F0E94060F9B
S11309F0A70196010E94BA0FA70196010E94BA0F9F
S1130A0020E030E040E056E30E94BA0F2B013C01A5
S1130A106091AE047091AF04882777FD8095982F7C
S1130A200E94060FA70196010E94BA0F9B01AC0118
S1130A30C301B2010E94030E20E030E040E056E31F
S1130A400E94BA0F20E030E040E057E40E94030E19
S1130A5020E030E040E058E30E94BA0F6B017C01D3
S1130A60288139814A815B8160E070E080E899E403
S1130A700E94020E2B013C016091AA047091AB0408
S1130A80882777FD8095982F0E94060F20E030E09C
S1130A9040E857E40E94BA0F9B01AC01C501B401C0
S1130AA00E94030E20E030E040E859E30E94BA0FB0
S1130AB09B01AC01C301B2010E94020E20E030E5AB
S1130AC043EC55E40E94BA0F4B015C0160919E0413
S1130AD070919F0480E090E00E94040F9B01AC01A0
S1130AE0C701B6010E94BA0F9B01AC01C501B40154
S1130AF00E946B0E6B017C016091A0047091A104B3
S1130B00882777FD8095982F0E94060FA7019601EC
S1130B100E94BA0FA70196010E94BA0F20E030E0AC
S1130B2040E050E30E94BA0F4B015C016091A204C3
S1130B307091A304882777FD8095982F0E94060F53
S1130B40A70196010E94BA0F20E030E040E058E38C
S1130B500E94BA0F9B01AC01C501B4010E94030EAF
S1130B604B015C016091A4047091A504882777FD72
S1130B708095982F0E94060F9B01AC01C501B4011A
S1130B800E94030E20E030E040E85DE30E94BA0FCB
S1130B90A70196010E94030E20E030E048EC52E4E5
S1130BA00E946B0E6B017C01F80160837183828368
S1130BB0938320E030E046E954E40E94B60F18160F
S1130BC074F020E030E048E454E4C701B6010E9428
S1130BD0670E881F8827881F91E0892701C080E05D
S1130BE0DF91CF911F910F91FF90EF90DF90CF9005
S1130BF0BF90AF909F908F907F906F905F904F9039
S1130C000895EF92FF920F931F93CF93DF93CDB785
S1130C10DEB728970FB6F894DEBF0FBECDBF8C01A8
S1130C207B01BE016B5F7F4FCE0101960E942803BA
S1130C308823D1F0BE016B5F7F4FC8010E94CA03B5
S1130C40882369F0BE016F5F7F4FC7010E948C0447
S1130C5081110FC083E08093930480E00BC082E095
S1130C608093930480E006C081E08093930480E045
S1130C7001C081E028960FB6F894DEBF0FBECDBF49
S1130C80DF91CF911F910F91FF90EF90089584E829
S1130C9080937A0085EC80937700EBE7F0E0808125
S1130CA08823ECF708951F920F920FB60F92112428
S1130CB02F933F934F935F936F937F938F939F9360
S1130CC0AF93BF93EF93FF938091B8049091B904CD
S1130CD001969093B9048093B8049F938F938AE705
S1130CE092E09F938F930E9438168091B7048F935C
S1130CF08091B6048F938091B5048F938091B4044E
S1130D008F9387E892E09F938F930E9438160E94F6
S1130D10040C8DB79EB70A960FB6F8949EBF0FBE0B
S1130D208DBFFF91EF91BF91AF919F918F917F9173
S1130D306F915F914F913F912F910F900FBE0F9044
S1130D401F9018951092B4041092B5041092B60432
S1130D501092B7041092B9041092B804E6EBF0E0D4
S1130D6080818062808380818F71E9F71092B10065
S1130D700895CF93DF93EC01E6EBF0E080818F716F
S1130D80E9F71092B100E6EBF0E080818F71E9F7AA
S1130D90CB3FD10504F5BE01882777FD8095982FB8
S1130DA00E94060F2FE632E143E85FE30E94BA0F88
S1130DB00E94D30E20E031E0C901861B970B8F3FC0
S1130DC0910519F014F08FEF90E08093B20083E066
S1130DD08093B10094C0C53F81E0D80704F5BE01FB
S1130DE0882777FD8095982F0E94060F2FE632E121
S1130DF043E05FE30E94BA0F0E94D30E20E031E08B
S1130E00C901861B970B8F3F910519F014F08FEFE2
S1130E1090E08093B20084E08093B10070C0C93E3A
S1130E2083E0D80704F5BE01882777FD8095982FC5
S1130E300E94060F2FE632E143E85EE30E94BA0FF8
S1130E400E94D30E20E031E0C901861B970B8F3F2F
S1130E50910519F014F08FEF90E08093B20085E0D3
S1130E608093B1004CC0C13D87E0D80704F5BE01B2
S1130E70882777FD8095982F0E94060F2FE632E190
S1130E8043E05EE30E94BA0F0E94D30E20E031E0FB
S1130E90C901861B970B8F3F910519F014F08FEF52
S1130EA090E08093B20086E08093B10028C0C13402
S1130EB08FE1D80704F5BE01882777FD8095982F28
S1130EC00E94060F2FE632E143E05DE30E94BA0F71
S1130ED00E94D30E20E031E0C901861B970B8F3F9F
S1130EE0910519F014F08FEF90E08093B20087E041
S1130EF08093B10004C088E992E00E944C161092DD
S1130F00B000CE01AA2797FDA095BA2F4091B40452
S1130F105091B5046091B6047091B704840F951F85
S1130F20A61FB71F8093B4049093B504A093B6048E
S1130F30B093B704DF91CF9108950E94B90687E07A
S1130F4087BB81E0809370000895CF93DF93EC0119
S1130F50DF93CF938AEA92E09F938F930E9438168F
S1130F600F900F900F900F90209769F08091B80424
S1130F709091B904892B21F4CE010E949D0703C0EE
S1130F80CE010E94B906DF91CF9108958AB1806C99
S1130F908AB908955F9A0895239A80E48CBD0895D0
S1130FA09B01AC011092B90060E074E284EF90E020
S1130FB00E949813DA01C9014097A109B109689404
S1130FC012F8B695A795979587951694D1F78093BF
S1130FD0B80084E08093BC0081E008958093BB0056
S1130FE084E88093BC00ECEBF0E080818823ECF78C
S1130FF08091B900887F089594EE9093BC00ECEB47
S1131000F0E090819923ECF7EFE9FFE03197F1F7F5
S113101000C000009091B900987F983031F0903171
S113102021F08091B900887F0895880F0E94EE070F
S1131030089594EE9093BC00ECEBF0E0908199233A
S1131040ECF79091B900987F983031F0903121F00D
S11310508091B900887F0895880F81600E94EE070F
S1131060089524EC2093BC00ECEBF0E020812223D3
S1131070ECF72091BB00FC0120838091B900887FAC
S1131080089524E82093BC00ECEBF0E020812223B7
S1131090ECF72091BB00FC0120838091B900887F8C
S11310A0089584E98093BC0081E008959F92AF92F3
S11310B0BF92CF92DF92EF92FF920F931F93CF9341
S11310C0DF937C018B01942E16161706F4F4C0E00E
S11310D0D0E06B0181E0C81AD1085701AC0CBD1CEB
S11310E0911007C0CC16DD0621F4C5010E94410809
S11310F005C0C7018C0F9D1F0E943108803531F453
S11311002196C017D10761F701C080E0DF91CF912C
S11311101F910F91FF90EF90DF90CF90BF90AF9011
S11311209F9008950F931F93CF93DF93161617067E
S11311306CF4EC018C01060F171F89910E94EE07D5
S1131140883229F4C017D107C1F701C080E0DF91CC
S1131150CF911F910F91089526E032E03093170943
S113116020931609DC01CB01880F991FAA1FBB1F0E
S1131170880F991FAA1FBB1F9C01AD01220F331FAB
S1131180441F551F220F331F441F551F60E074E294
S113119084EF90E00E949813215031093093C500E8
S11311A02093C40086E08093C20088E18093C1004C
S11311B00895E0ECF0E0908195FFFDCF8093C600A8
S11311C00895CF93C82F8A3019F48DE00E94D9086E
S11311D08C2F0E94D90880E090E0CF91089514BE2E
S11311E088E10FB6F89480936000109260000FBEFF
S11311F0E1E6F0E080E88083108278940E9401099F
S113120008951092E70880E29EE49093A9008093E9
S1131210A800E1EAF0E088E0808380818260808336
S1131220E2E7F0E080818260808308951F920F924C
S11312300FB60F9211248F938091E7088F5F8093EC
S1131240E7088F910F900FBE0F901F901895109282
S1131250EC081092ED081092E9081092E808109238
S11312600F0910920E09EEEEF8E08EE099E011926B
S11312701192E817F907D9F70E94380A0E94AB09BE
S11312800E9453090E944E090895E82FF0E0EE0FE2
S1131290FF1FE251F74F7183608308951092BB04DE
S11312A01092BA0408951092BC041092450510924D
S11312B0CE05109257061092E0060895009741F06B
S11312C0FC01E757FF4F87E0E936F80718F012C032
S11312D0ECEBF4E08081882321F00FC08081811140
S11312E00FC0E757FF4F87E0E936F807B8F380E00F
S11312F090E0089580E090E008958E2F9F2F089548
S11313008E2F9F2F0895DC0119962C911997222373
S113131051F01796ED91FC9118972081211105C089
S11313200E94650A089580E0089580E00895EAE740
S1131330F7E02CEA37E050E061E04081442319F003
S113134041504083562F3596E217F307B1F75111F8
S11313500E94F00C0895EAE7F7E08CEA97E0108227
S11313603596E817F907D9F784E690E0A0E0B0E0F5
S113137080936F0790937007A0937107B0937207DF
S11313801092730787E999E0909375078093740727
S113139063E879E080E00E9445090895FF920F9385
S11313A01F93CF93DF93EC0110E080E090E001E025
S11313B00F2EF3E1FF2EF02D13C0FC01208121310B
S11313C079F4EC57FF4F2081318121503109318369
S11313D02083232B21F4FC01F082102F01C0102F55
S11313E00E945E09009749F7112319F0CE010E946B
S11313F0F00CDF91CF911F910F91FF900895EF9220
S1131400FF920F931F93CF93DF93EC0110E080E0E2
S113141090E001E00F2EF7E1EF2EF02D6894FF2409
S1131420F4F816C0FC012081263191F4EC57FF4FEB
S1131430208131812150310931832083232B39F4D8
S1131440FC01E082ED57FF4FF082102F01C0102FF6
S11314500E945E09009731F7112319F0CE010E9412
S1131460F00CDF91CF911F910F91FF90EF900895B1
S11314701092C3071092C20782E390E0A0E0B0E0AC
S11314808093BB079093BC07A093BD07B093BE079E
S11314901092BF078FEF99E09093C1078093C00724
S11314A08AE090E0A0E0B0E08093AE079093AF07AD
S11314B0A093B007B093B1071092B2078EEC99E0F5
S11314C09093B4078093B3070895CF93DF93FC01FF
S11314D0C781D08581858330C9F410C0FC01208187
S11314E0263171F43485298132130AC027E120831F
S11314F02A81EA57FF4F208381E009C080E090E011
S11315000E945E09009751F780E001C080E0DF91FE
S1131510CF91089593E090934201E1E4F1E090814A
S11315209F719830E1F780934201E1E4F1E090810A
S11315309F719813FCCF0895E9E3F1E08081816005
S113154080831092C5071092C40781E08093C60778
S113155088E00E948A0A8BEE80935601ECE4F1E065
S113156080818068808308950F931F93CF93DF93C6
S1131570EC01009759F48FEB92E09F938F930E94B4
S113158038160F900F9080E090E079C00A851B8593
S11315908E851F928F9324ED32E03F932F930E9408
S11315A038160F900F900F900F908E858130A9F010
S11315B038F0823009F449C0843009F456C05DC063
S11315C0D801ED91FC910280F381E02DC8010995C9
S11315D081E08E8780E090E052C0D8011C96ED91A6
S11315E0FC911D970480F581E02D8A859B850995E2
S11315F08F3FBFEF9B0729F484E08E8780E090E063
S11316003EC0009781F481E08E87D8011C96ED914D
S1131610FC911D970680F781E02D8A859B850995AD
S113162080E090E02CC022E02E879D838C839987F4
S113163088878091DD089091DE080E943F0DCE01DD
S11316400E94950B81E090E01AC081E08E878A8524
S11316509B85DC011C96ED91FC911D970680F7811A
S1131660E02D099580E090E00AC084EE92E00E94AB
S11316704C161E8680E090E002C080E090E0DF918E
S1131680CF911F910F9108950F931F93CF93DF93E1
S1131690E9EDF8E0F093DE08E093DD08F093DC0870
S11316A0E093DB08F183E083E1EEF8E0F093E608F1
S11316B0E093E508F093E408E093E308F183E08322
S11316C0C9ECD7E009ED18E0BE018091E5089091DE
S11316D0E6080E94090D6196C017D107A9F7DF91AA
S11316E0CF911F910F9108958091DD089091DE08AC
S11316F00E94FD0CFC01009759F483E093E00E94E2
S11317004C1688E493E00E944C1680E49FE108950F
S11317108481958180342FE1920734F080549F4175
S11317209583848380E49FE10895CF93DF93DC0164
S1131730C091DD08D091DE08EA81FB81CE17DF0776
S113174009F13097C9F04481558114962D913C914B
S113175015972417350754F4421B530B55834483C0
S1131760BD01808191810E94090D15C0241B350B98
S113177015963C932E9314970280F381E02DCE1797
S1131780DF07F9F6E091DD08F091DE08BD01808104
S113179091810E94090DDF91CF910895CF92DF923C
S11317A0EF92FF920F931F93CF93DF936C017B0112
S11317B08A01E9018091E5089091E6080E943F0DB5
S11317C0FC010097B1F0D582C482F782E6821186CB
S11317D0108613870287D587C48781E0868784EBC8
S11317E09AE0908B8787CF010E94950B80E090E070
S11317F002C08FEF9FEFDF91CF911F910F91FF9068
S1131800EF90DF90CF900895CF93DF938091DD0820
S11318109091DE080E94FD0CEC01009709F44CC085
S11318208A859B85892B09F44AC0EF85F889CE0106
S11318300995019769F40E94740B892B11F40E9495
S1131840040C0E94740B0E94A50780E090E039C04C
S11318508091DD089091DE080E943F0D8E819F816A
S11318600097B1F028853985AC01421B530B9A01CE
S11318705D834C83552334F4280F391F3323E4F359
S11318803D832C8319861886CE010E94950B07C0D0
S1131890BE018091E5089091E6080E94090D0E941E
S11318A0740B892B11F40E94040C0E94740B0E9487
S11318B0A50780E090E005C08FEF9FEF02C08FEF97
S11318C09FEFDF91CF9108950E94EF080E94D10C01
S11318D00E949C0A0E94270908950F931F93CF9397
S11318E0DF93EC018091C7079091C807009709F432
S11318F045C04E815F8168857985FC010281138131
S1131900248135814017510762077307C0F40BC067
S113191002811381248135814017510762077307BF
S113192028F0DF010DC0FC01A0E0B0E0041B150BA2
S1131930260B370B02831383248335830AC0DC010F
S1131940401B510B620B730BED91FC911197309777
S1131950F9F64A835B836C837D83109741F08D9104
S11319609C91119799838883CD93DC9315C09983B7
S11319708883D093C807C093C7070EC01982188202
S11319808E819F81A885B9858A839B83AC83BD831F
S1131990D093C807C093C707DF91CF911F910F91D0
S11319A008951092C8071092C7070895E091C707D9
S11319B0F091C807309771F0E817F90721F40CC0CB
S11319C08E179F0759F00190F081E02D3097C1F7F1
S11319D080E0089580E0089581E0089581E008950D
S11319E0CF93DF93EC010E94D60C811103C0CE018A
S11319F00E946D0CDF91CF910895FC012281338107
S1131A002817390719F480E090E00895822F932F66
S1131A100895DC011296ED91FC9113977183608314
S1131A20DB011396FC93EE931297FC01738362839C
S1131A308D939C93CB010895FB01DC0112962D91AB
S1131A403C91139728173907A1F086179707A1F03F
S1131A50A081B1818281938113969C938E93129776
S1131A60A281B381808191818D939C93862F9F2F36
S1131A70089580E090E0089580E090E00895FC01EE
S1131A80628173816817790719F00E941C0D08950B
S1131A9080E090E008952CE132E0FC013587248752
S1131AA0089580E090E0089524E132E0FC01318360
S1131AB02083089580E090E0089583E090E0089505
S1131AC089E094E00E944C1680E090E0089586E15D
S1131AD094E00E944C1680E090E00895CF93DF9349
S1131AE089E294E00E944C160E94BE02C82FD0E006
S1131AF01F928F9328E334E03F932F930E9438166C
S1131B000F900F900F900F90209719F0CE0101962F
S1131B1002C080E090E0DF91CF910895CF93DF93EE
S1131B20CDB7DEB728970FB6F894DEBF0FBECDBF92
S1131B3089E494E00E944C16BE016B5F7F4FCE0196
S1131B4001960E94010688858F938F818F938E81E1
S1131B508F938D818F938C818F938B818F938A81C7
S1131B608F9389818F9388E594E09F938F930E944C
S1131B7038160FB6F894DEBF0FBECDBF80E090E0FC
S1131B8028960FB6F894DEBF0FBECDBFDF91CF917C
S1131B900895EF92FF920F931F93CF93DF937C01ED
S1131BA08B018EE090E00E94F113EC0184E192E05D
S1131BB0998388838CE192E09D878C87FB82EA82FB
S1131BC01F830E836091DF087091E0087D836C832E
S1131BD0600F711F7093E0086093DF087F936F9329
S1131BE08EE794E09F938F930E9438160F900F9086
S1131BF00F900F90CE01DF91CF911F910F91FF9025
S1131C00EF9008955058BB27AA270ED075C166D10E
S1131C1030F06BD120F031F49F3F11F41EF45BC11E
S1131C200EF4E095E7FB51C1E92F77D180F3BA17A1
S1131C30620773078407950718F071F49EF58FC146
S1131C400EF4E0950B2EBA2FA02D0B01B9019001D3
S1131C500C01CA01A0011124FF27591B99F0593F17
S1131C6050F4503E68F11A16F040A22F232F342F5F
S1131C704427585FF3CF469537952795A795F040AD
S1131C805395C9F77EF41F16BA0B620B730B840BC2
S1131C90BAF09150A1F0FF0FBB1F661F771F881F7A
S1131CA0C2F70EC0BA0F621F731F841F48F48795D2
S1131CB077956795B795F7959E3F08F0B3CF9395C1
S1131CC0880F08F09927EE0F979587950895D9D036
S1131CD008F481E008950CD00FC107D140F0FED084
S1131CE030F021F45F3F19F0F0C0511139C1F3C055
S1131CF014D198F39923C9F35523B1F3951B550BCC
S1131D00BB27AA2762177307840738F09F5F5F4FCA
S1131D10220F331F441FAA1FA9F333D00E2E3AF00B
S1131D20E0E830D091505040E695001CCAF729D025
S1131D30FE2F27D0660F771F881FBB1F2617370774
S1131D404807AB07B0E809F0BB0B802DBF01FF27A4
S1131D5093585F4F2AF09E3F510568F0B6C000C10A
S1131D605F3FECF3983EDCF3869577956795B795DE
S1131D70F7959F5FC9F7880F911D9695879597F9F9
S1131D800895E1E0660F771F881FBB1F6217730772
S1131D908407BA0720F0621B730B840BBA0BEE1F87
S1131DA088F7E095089504D06894B111D9C00895D6
S1131DB0BCD088F09F5790F0B92F9927B751A0F065
S1131DC0D1F0660F771F881F991F1AF0BA95C9F7CB
S1131DD012C0B13081F0C3D0B1E00895C0C0672F04
S1131DE0782F8827B85F39F0B93FCCF3869577957B
S1131DF06795B395D9F73EF4909580957095619564
S1131E007F4F8F4F9F4F0895E89409C097FB3EF48E
S1131E1090958095709561957F4F8F4F9F4F992333
S1131E20A9F0F92F96E9BB279395F69587957795B1
S1131E306795B795F111F8CFFAF4BB0F11F460FF71
S1131E401BC06F5F7F4F8F4F9F4F16C0882311F0C9
S1131E5096E911C0772321F09EE8872F762F05C0DD
S1131E60662371F096E8862F70E060E02AF09A9578
S1131E70660F771F881FDAF7880F9695879597F96D
S1131E800895990F0008550FAA0BE0E8FEEF161607
S1131E901706E807F907C0F012161306E407F5075A
S1131EA098F0621B730B840B950B39F40A2661F0CE
S1131EB0232B242B252B21F408950A2609F4A14071
S1131EC0A6958FEF811D811D089597F99F6780E87E
S1131ED070E060E008959FEF80EC089500240A9478
S1131EE01616170618060906089500240A941216F1
S1131EF01306140605060895092E0394000C11F424
S1131F00882352F0BB0F40F4BF2B11F460FF04C0D0
S1131F106F5F7F4F8F4F9F4F089557FD9058440F29
S1131F20551F59F05F3F71F04795880F97FB991F34
S1131F3061F09F3F79F087950895121613061406F1
S1131F40551FF2CF4695F1DF08C01616170618067E
S1131F50991FF1CF86957105610508940895E89459
S1131F60BB2766277727CB0197F908958ADF08F402
S1131F708FEF08950BD0C0CFB1DF28F0B6DF18F093
S1131F80952309F0A2CFA7CF1124EACFC6DFA0F38F
S1131F90959FD1F3950F50E0551F629FF001729FFA
S1131FA0BB27F00DB11D639FAA27F00DB11DAA1F19
S1131FB0649F6627B00DA11D661F829F2227B00D66
S1131FC0A11D621F739FB00DA11D621F839FA00DF1
S1131FD0611D221F749F3327A00D611D231F849F41
S1131FE0600D211D822F762F6A2F11249F57504098
S1131FF08AF0E1F088234AF0EE0FFF1FBB1F661F33
S1132000771F881F91505040A9F79E3F510570F0EB
S11320105CCFA6CF5F3FECF3983EDCF386957795D3
S11320206795B795F795E7959F5FC1F7FE2B880FE6
S1132030911D9695879597F90895A3E1B0E0E3E2A1
S1132040F0E10C94BA137C011B016A01FC011782B4
S11320501682838181FF66C3BE016F5F7F4F4B0190
S1132060F7019381F10193FD859193FF81911F0104
S1132070882309F453C3853239F493FD859193FF82
S113208081911F01853239F4B70190E00E94061650
S113209056016501E5CF10E0512C20E02032A0F478
S11320A08B3269F030F4803259F0833269F4206164
S11320B02CC08D3239F0803339F4216026C022607F
S11320C0246023C0286021C027FD27C030ED380FCD
S11320D03A3078F426FF06C0FAE01F9F300D112431
S11320E0132F13C06AE0569E300D1124532E206224
S11320F00CC08E3221F426FD11C3206406C08C3638
S113210011F4206802C0883641F4F10193FD8591F1
S113211093FF81911F018111C1CF9BEB980F9330E5
S113212018F42061805E06C09BE9980F933008F094
S1132130AAC12F7E26FF16E02F73722E853621F456
S1132140F22FF0647F2E08C0863621F4622F606877
S1132150762E02C01111115077FE07C01C3348F4CB
S113216044244394410E27E00BC0183030F4212F4F
S113217006C027E04CE3442E03C027E017E0412CBF
S1132180560174E0A70EB11CF60160817181828151
S11321909381042DA4010E9418156C01098100FF8C
S11321A002C003FF06C071FC07C072FC08C0612CAA
S11321B008C03DE2632E05C02BE2622E02C090E20D
S11321C0692E802F8C7099F1662011F084E001C093
S11321D083E0851510F0512C0BC0581A73FC08C00D
S11321E0B70180E290E00E9406165A94C9F7F3CF33
S11321F0662029F0B701862D90E00E94061603FDA3
S113220003C008E311E002C004E311E0F72DF0710C
S11322107F2EF8018491882309F476C271108052CC
S1132220B70190E00E9406160F5F1F4FF2CF77FEB2
S11322300FC04C0C04FF04C08A81813309F44A9412
S1132240141474F5F8E0F41578F588E0482E2CC0E1
S113225076FC2AC0812F90E08C159D059CF06CEFD4
S1132260C6166FEFD60674F0772D7068772E0AC005
S1132270E2E0F0E0EC0FFD1FE10FF11D80818033FF
S113228019F411501111F4CF77FE0EC04424439475
S1132290410E812F90E0C816D9062CF41C1904C0F5
S11322A04424439401C010E077FE07C01C141D04AD
S11322B03CF496012F5F3F4F05C025E030E002C09B
S11322C021E030E0662011F02F5F3F4F112331F001
S11322D0412F50E04F5F5F4F240F351F452D50E0D5
S11322E02417350714F4521A01C0512C872D897014
S11322F049F4552039F0B70180E290E00E940616B7
S11323005A94F7CF662029F0B701862D90E00E94F9
S1132310061673FC09C0552039F0B70180E390E03C
S11323200E9406165A94F7CF77FE5FC09C2D8D2D20
S1132330D7FE02C090E080E0692E782E40E050E0A5
S1132340C601841991099D878C879601261937093E
S1132350280D391D812F90E0EE27FF27E81BF90B8C
S1132360FF87EE87FFEF6F167F0669F4B7018EE2F1
S113237090E02B8B3A8B488B598B0E940616598917
S113238048893A892B89C614D70454F06C857D8515
S1132390661577052CF4F901E40FF51F818101C05E
S11323A080E371E0671A71084F5F5F4FEE85FF8528
S11323B06E167F066CF0B70190E02B8B3A8B488B3E
S11323C0598B0E9406162B893A8948895989CACFA4
S11323D06C147D0439F49A81963318F4953311F40E
S11323E004FF81E3B70190E04BC08A81813309F097
S11323F00F7EB70190E00E940616111105C074FE0D
S113240018C085E490E017C0B7018EE290E00E9406
S1132410061682E066246394680EF401E80FF11D49
S11324208081B70190E00E940616115041F3862D79
S1132430F1CF85E690E0B7010E940616D7FC05C0EF
S1132440C114D10439F404FF05C0D194C194D10856
S11324508DE201C08BE2B70190E00E94061680E392
S11324606AE0C616D1042CF08F5FFAE0CF1AD108C7
S1132470F7CFB70190E00E940616B701C601C096D7
S11324800E94061641C1833631F0833779F08335D3
S113249009F058C021C0560172E0A70EB11CF60124
S11324A08081898301E010E0640114C05601F2E0E8
S11324B0AF0EB11CF601C080D18026FF03C0612F8E
S11324C070E002C06FEF7FEFC6012B8B0E94FB15FB
S11324D08C012B892F7715C05601F2E0AF0EB11C89
S11324E0F601C080D18026FF03C0612F70E002C0D6
S11324F06FEF7FEFC6012B8B0E94F0158C012B89A7
S11325002068722E23FD1AC0852D90E00817190744
S1132510A8F4B70180E290E00E9406165A94F4CF22
S1132520F60177FC859177FE81916F01B70190E008
S11325300E94061651105A940150110901151105F3
S113254079F7E2C0843611F0893651F5560127FF38
S113255009C0F4E0AF0EB11CF60160817181828183
S113256093810AC0F2E0AF0EB11CF6016081718163
S1132570882777FD8095982F022F0F7697FF08C044
S113258090958095709561957F4F8F4F9F4F006810
S11325902AE030E0A4010E947916C82EC8183EC073
S11325A0022F853721F40F7E2AE030E01DC0097F19
S11325B08F3691F018F4883559F0B0C0803719F08F
S11325C0883711F0ABC0006104FF09C0046007C084
S11325D024FF08C0066006C028E030E005C020E102
S11325E030E002C020E132E0560107FF09C0F4E008
S11325F0AF0EB11CF601608171818281938108C0A4
S1132600F2E0AF0EB11CF6016081718180E090E0D0
S1132610A4010E947916C82EC8180F7706FF0BC0B4
S1132620202F2E7FC11650F404FF0AC002FD08C0FB
S1132630202F2E7E05C0DC2C202F03C0DC2C01C0F3
S1132640D12E24FF0DC0FE01EC0DF11D80818033DD
S113265011F4297E09C022FF06C0D394D39404C088
S1132660822F867809F0D39423FD13C020FF06C07F
S11326701C2DD51418F4150D1D19D52CD51468F47A
S1132680B70180E290E02B8B0E940616D3942B892D
S1132690F5CFD51410F45D1801C0512C24FF12C0DD
S11326A0B70180E390E02B8B0E9406162B8922FF52
S11326B017C021FF03C088E590E002C088E790E0DE
S11326C0B7010CC0822F867859F021FD02C080E248
S11326D001C08BE227FD8DE2B70190E00E9406164F
S11326E0C11638F4B70180E390E00E940616115039
S11326F0F7CFCA94F401EC0DF11D8081B70190E08D
S11327000E940616C110F5CF552009F4C2CCB701BA
S113271080E290E00E9406165A94F6CFF701868173
S1132720978102C08FEF9FEF6396E2E10C94D6137A
S1132730A1E21A2EAA1BBB1BFD010DC0AA1FBB1FC1
S1132740EE1FFF1FA217B307E407F50720F0A21B33
S1132750B30BE40BF50B661F771F881F991F1A94A0
S113276069F760957095809590959B01AC01BD01CA
S1132770CF0108952F923F924F925F926F927F9272
S11327808F929F92AF92BF92CF92DF92EF92FF927D
S11327900F931F93CF93DF93CDB7DEB7CA1BDB0B29
S11327A00FB6F894DEBF0FBECDBF09942A883988CE
S11327B048885F846E847D848C849B84AA84B984D5
S11327C0C884DF80EE80FD800C811B81AA81B981E1
S11327D0CE0FD11D0FB6F894DEBF0FBECDBFED01F5
S11327E00895CF93DF938230910510F482E090E056
S11327F0E0911209F091130920E030E0A0E0B0E08C
S1132800309739F14081518148175907B8F048177A
S1132810590771F482819381109729F013969C9340
S11328208E9312972CC0909313098093120927C09A
S11328302115310531F04217530718F0A901DB01C6
S113284001C0EF019A01BD01DF010280F381E02D97
S1132850D7CF21153105F9F0281B390B2430310568
S113286080F48A819B816115710521F0FB019383BA
S1132870828304C09093130980931209FE01329657
S113288044C0FE01E20FF31F81939193225031095A
S1132890398328833AC02091100930911109232BE0
S11328A041F42091020230910302309311092093E4
S11328B0100920910002309101022115310541F4E3
S11328C02DB73EB74091040250910502241B350BED
S11328D0E0911009F0911109E217F307A0F42E1BFF
S11328E03F0B2817390778F0AC014E5F5F4F241770
S11328F0350748F04E0F5F1F50931109409310099C
S11329008193919302C0E0E0F0E0CF01DF91CF9199
S11329100895CF93DF93009709F487C0FC013297A1
S113292013821282C0911209D0911309209781F465
S113293020813181280F391F80911009909111094C
S11329408217930779F5F0931109E09310096DC08C
S1132950DE0120E030E0AE17BF0750F412964D912F
S11329605C9113979D014115510509F1DA01F3CFEB
S1132970B383A28340815181840F951F8A179B07DB
S113298071F48D919C911197840F951F02969183F8
S1132990808312968D919C91139793838283211542
S11329A0310529F4F0931309E09312093EC0D901CB
S11329B01396FC93EE9312974D915D91A40FB51F5E
S11329C0EA17FB0779F480819181840F951F0296A1
S11329D0D90111969C938E938281938113969C9333
S11329E08E931297E0E0F0E08A819B81009719F0C2
S11329F0FE01EC01F9CFCE01029628813981820FC4
S1132A00931F20911009309111092817390769F48F
S1132A10309729F4109213091092120902C01382FC
S1132A201282D0931109C0931009DF91CF910895B8
S1132A30283008F027E03327DA01990F311D87FD8C
S1132A40916000966105710539F432602E5F3D9303
S1132A5030E32A95E1F708959F3F30F080387105FF
S1132A60610509F03C5F3C5F3D93913008F080685C
S1132A70911DDF93CF931F930F93FF92EF92192F22
S1132A80987F9695E92F96959695E90FFF27EA5634
S1132A90FE4F99273327EE24FF24A701E701059071
S1132AA00894079428F4360FE71EF81E491F511D99
S1132AB0660F771F881F991F0694A1F70590079446
S1132AC028F4E70EF81E491F561FC11D770F881FF3
S1132AD0991F661F0694A1F70590079428F4F80E31
S1132AE0491F561FC71FD11D880F991F661F771FC7
S1132AF00694A1F70590079420F4490F561FC71FA9
S1132B00D81F990F661F771F881F0694A9F7849111
S1132B101095177041F0D695C79557954795F7943A
S1132B20E7941A95C1F7ECE3F1E0689415901591D8
S1132B3035916591959105907FE27395E118F10ABD
S1132B40430B560BC90BD009C0F7E10CF11E431F10
S1132B50561FC91FD01D7EF4703311F48A95E6CF39
S1132B60E894015030F0080F0AF40027021708F423
S1132B70202F2395022F7A3328F079E37D932A9529
S1132B80E9F710C07D932A9589F606949795679581
S1132B90379517951794E118F10A430B560BC90B97
S1132BA0D00998F023957E9173957A3308F070E3F9
S1132BB07C932013B8F77E9170617D9330F08395F8
S1132BC071E37D9370E32A95E1F71124EF90FF9070
S1132BD00F911F91CF91DF91992787FD90950895CB
S1132BE0FC010590615070400110D8F780959095D4
S1132BF08E0F9F1F0895FC016150704001900110D9
S1132C00D8F7809590958E0F9F1F08950F931F936B
S1132C10CF93DF93182F092FEB018B8181FD03C024
S1132C208FEF9FEF20C082FF10C04E815F812C8107
S1132C303D81421753077CF4E881F9819F012F5F9E
S1132C403F4F39832883108306C0E885F985812F97
S1132C500995892B29F72E813F812F5F3F4F3F83B1
S1132C602E83812F902FDF91CF911F910F91089583
S1132C70A0E0B0E0EEE3F6E10C94CA13FE01359651
S1132C8061917191AF0180911609909117090E9489
S1132C901D10E2E00C94E6130F931F93CF93DF9380
S1132CA0E0911609F0911709238121FF1BC0EC0163
S1132CB000E010E089916091160970911709DB0119
S1132CC01896ED91FC911997882331F00995892B79
S1132CD089F30FEF1FEFEECF8AE00995892B11F4EA
S1132CE0C80102C08FEF9FEFDF91CF911F910F9129
S1132CF00895FA01AA27283051F1203181F1E8948E
S1132D006F936E7F6E5F7F4F8F4F9F4FAF4FB1E0DA
S1132D103ED0B4E03CD0670F781F891F9A1FA11DD5
S1132D20680F791F8A1F911DA11D6A0F711D811DD6
S1132D30911DA11D20D009F468943F912AE0269F9B
S1132D4011243019305D3193DEF6CF010895462FFA
S1132D504770405D4193B3E00FD0C9F7F6CF462FDB
S1132D604F70405D4A3318F0495D31FD4052419344
S1132D7002D0A9F7EACFB4E0A69597958795779501
S1132D806795BA95C9F700976105710508959B0188
S1132D90AC010A2E06945795479537952795BA9511
S1132DA0C9F7620F731F841F951FA01D0895F8941F
S1052DB0FFCF4F
S1132DB200001A0920000000000200000000E108DF
S1132DC200000000540D670D5A0D5D0D4B0D510DA1
S1132DD26E0D8E0D600D424D5032383020537461A9
S1132DE27475732025690A00696E697420646F6EB4
S1132DF26521000A543A202569202C2569202C25B6
S1132E026920503A202569202C2569202C25692027
S1132E122C2569202C2569202C2569202C25692044
S1132E222C2531202C2569200A00636F756E7431BC
S1132E32203D2025640A0054696D657374616D70C8
S1132E42203A20256C640A0054696D657220657805
S1132E526365656473206D617800736574207469B9
S1132E626D657220676170203D2025640A0A004E58
S1132E72756C6C204576656E74204572726F722093
S1132E82212121006375725F7374617465203D2092
S1132E9225640A00536F6D657468696E67207265F4
S1132EA2616C6C792077726F6E67206861707065EF
S1132EB26E73007765206D61792067657420736F86
S1132EC26D65206D656D6F7279206C65616B6167EC
S1132ED2652069737375652C206F7220736F6D653D
S1132EE27468696E67207265616C6C7920626164D2
S1132EF2206F636375727300736F2077652061724C
S1132F026520676F696E6720746F2074616B65203A
S1132F12736F6D65207265616C6C7920736C656585
S1132F22702C2073696E6365206E6F206576656E02
S1132F327420696E207363686564756C6572000A37
S1132F420A0A3D3D3D3D3D3D3D3D3D3D3D3D3D3D11
S1132F523D3D3D0A656E7465722066756E637469E3
S1132F626F6E0A3D3D3D3D3D3D3D3D3D3D3D3D3D5B
S1132F723D3D3D0074696D656F75742025640A00DA
S1132F824E554C4C21003D3D3D3D3D3D3D3D3D3D7D
S1132F923D3D3D3D3D3D3D0A657869742066756E53
S1132FA26374696F6E0A3D3D3D3D3D3D3D3D3D3D92
S1132FB23D3D3D3D3D3D0A0A00424D503238305FB1
S1132FC24572726F7200424D503238302053656E32
S1132FD2736F7220496E697400424D50323830204A
S1132FE25265717565737400095761697420666F5F
S1132FF272202564206D730A00424D50323830200D
S1133002436F6C6C656374000954656D706572611D
S113301274757265203D20252E33660A0950726547
S11330227373757265203D20252E33660A0053653D
S11330326E736F7244617461436F756E742025649C
S10530420A007E
S9030000FC
