S00D000041544D4F532E7372656393
S11300000C941B010C9438010C9438010C943801A5
S11300100C9438010C9438010C9438010C94380178
S11300200C9438010C9438010C9438010C94380168
S11300300C9438010C942B060C9438010C94380160
S11300400C9438010C9438010C9438010C94380148
S11300500C9438010C9438010C9438010C94380138
S11300600C9438010C94F4060C94DC060C943801BE
S11300700C9438010C9438010C9438010C94380118
S11300800C9438010C9438010C9438010C94380108
S11300900C9438010C9438010C9438010C943801F8
S11300A00C9438010C9438010C944F060C943801CC
S11300B00C9438010C9438010C9438010C943801D8
S11300C00C9438010C9438010C9438010C943801C8
S11300D00C9438010C9438010C9438010C943801B8
S11300E00C9438010C9438010C9438010C943801A8
S11300F00C9438010C9438010C9438010C94380198
S11301000C9438010C9438010C9438010C94380187
S11301100C9438010C9438010C9438010C94380177
S11301200C9438010C9438010C9438010C94380167
S11301300C9438016E616E00696E660000407A109E
S1130140F35A00A0724E18090010A5D4E80000E884
S11301507648170000E40B54020000CA9A3B0000E2
S113016000E1F505000080969800000040420F0071
S11301700000A08601000000102700000000E80332
S1130180000000006400000000000A0000000000FD
S11301900100000000002C76D888DC674F0823DFBC
S11301A0C1DFAE59E1B1B796E5E3E453C63AE6518F
S11301B0997696E8E6C28426EB898C9B62ED407CB6
S11301C06FFCEFBC9C9F40F2BAA56FA5F490055A52
S11301D02AF75C936B6CF9676DC11BFCE0E40D4777
S11301E0FEF520E6B500D0ED902E0300943577059A
S11301F00080841E080000204E0A000000C80C3352
S11302003333330F986E12831141EF8D2114893BE0
S1130210E65516CFFEE6DB18D1844B381BF77C1D60
S1130220901DA4BBE424203284725E228100C9F1B3
S113023024ECA1E53D2711241FBECFEFD1E2DEBFA0
S1130240CDBF14E0A0E0B2E0E4E9FCE202C0059016
S11302500D92A030B107D9F728E0A0E0B4E001C0C6
S11302601D92AB3AB207E1F70E943A010C9448168A
S11302700C9400000E94BA0E0E9407050E940B0510
S113028060E07CE281E090E00E94D305249A6B9ABE
S1130290739A60E177E280E090E00E9411050E9489
S11302A0FB040E94F7040E94F3040E9442021F927E
S11302B08F9382E192E09F938F930E94631584E071
S11302C090E00E9422030E940D0584E292E00E94C5
S11302D079150E9401040F900F900F900F9080E009
S11302E090E00895CF92DF92EF92FF920F931F93C5
S11302F0CF93DF938091110490911204892B79F5A7
S113030003E114E0C7E1D4E00F2EF0E4CF2EF4E0D3
S1130310DF2EF02D0F2EF0E0EF2EF4E0FF2EF02D67
S1130320FE01319790819923A1F010931204009358
S11303301104F80180819181F70196838583D38725
S1130340C287FE0132978081F7018487C7010E942A
S1130350A807075F1F4F29960C151D0509F7DF91A4
S1130360CF911F910F91FF90EF90DF90CF90089560
S113037020911C0430911D0428173907F1F02091B5
S11303802504309126042817390789F020912E047A
S113039030912F042817390769F0209137043091E0
S11303A0380428173907E9F484E090E008C082E0B3
S11303B090E005C083E090E002C081E090E0FC01A1
S11303C0EE0FFF1FEE0FFF1FEE0FFF1F8E0F9F1F7D
S11303D0FC01ED5EFB4F81E083830E94720181E0AA
S11303E0089580E008951F93CF93DF93EC01162FB7
S11303F086E70E943D0588810E942F0586E70E94BA
S11304005A0580934004803481F4612F70E040E009
S1130410CE010E949705887F883549F40E94920591
S113042091E0811105C090E003C090E001C090E02C
S1130430892FDF91CF911F9108950F931F93CF932D
S1130440DF9300D0CDB7DEB78B01898362E0CE01A4
S113045001960E94F301882359F08A8190E0982F35
S113046088272981822BF8019183808381E003C04E
S1130470F801118210820F900F90DF91CF911F919C
S11304800F910895CF93DF9300D0CDB7DEB788E8FE
S1130490898362E0CE0101960E94F301882399F0DA
S11304A08A8190E0982F88272981822B9093440495
S11304B08093430469E574E08AE80E941D0288235E
S11304C009F4BBC005C01092440410924304B5C0A3
S11304D067E574E08CE80E941D02882309F4ADC02E
S11304E08EE8898362E0CE0101960E94F30188239D
S11304F099F08A8190E0982F88272981822B909304
S113050046048093450465E574E080E90E941D0279
S1130510882309F492C005C0109246041092450441
S11305208CC063E574E082E90E941D02882309F40B
S113053084C061E574E084E90E941D02882309F403
S11305407CC06FE474E086E90E941D02882309F4EC
S113055074C06DE474E088E90E941D02882309F4E4
S11305606CC06BE474E08AE90E941D02882309F4DC
S113057064C069E474E08CE90E941D02882309F4D4
S11305805CC067E474E08EE90E941D02882309F4CC
S113059054C0809148048F93809147048F93809135
S11305A04A048F93809149048F9380914C048F93D4
S11305B080914B048F9380914E048F9380914D04CE
S11305C08F93809150048F9380914F048F938091E7
S11305D052048F93809151048F93809154048F938C
S11305E0809153048F93809156048F938091550486
S11305F08F93809146048F93809145048F938091CB
S113060058048F93809157048F9380915A048F9349
S1130610809159048F93809144048F938091430473
S11306208F938DE392E09F938F930E9463150FB68F
S1130630F894DEBF0FBECDBF81E00F900F90DF9125
S1130640CF910895909342048093410481E00895EA
S113065080919104843041F481E08093910484E793
S113066092E00E94791508958BE594E00E948A0F28
S11306708AE892E00E94791508958F929F92AF9232
S1130680BF92CF92DF92FF920F931F93CF93DF938A
S11306904C0188EA92E00E947915F401A780B084A5
S11306A08285F501808BF4018385F501818BF4014A
S11306B0C1840781108580E10E94B50682E00E9412
S11306C0B506CC20E9F0E801CA94D12CFFEFCF1A8B
S11306D0DF0AC00ED11EF12C8E018881803121F4F5
S11306E00E94B50680E1F80EF80180810E94B506EB
S11306F02196F8018081F80ECC15DD0569F701C05B
S1130700F12C80E10E94B50683E00E94B50685E2E3
S11307108F0D0E94B506F401808191810E94B80179
S1130720882319F081E00E946809F501808D918D7C
S1130730228D338D9F938F933F932F939F938F930A
S11307408EEB92E09F938F930E946315F501848949
S11307509589268937899F938F933F932F939F93EE
S11307608F9384EE92E09F938F930E9463158DB7CD
S11307709EB740960FB6F8949EBF0FBE8DBF81E022
S1130780DF91CF911F910F91FF90DF90CF90BF9099
S1130790AF909F908F900895CF93DF93EC018F8556
S11307A081110CC080919204811112C080EA94E0FE
S11307B00E94330F81E0809392040AC080919204D6
S11307C0882331F080EA94E00E948A0F1092920408
S11307D08889813061F483E994E00E948A0F85E07E
S11307E08093910486E093E00E94791507C081E02C
S11307F0809391048AE293E00E947915DF91CF916E
S1130800089587E593E00E94791560E07CE281E039
S113081090E00E946006C8E6D4E00F2EF4E32F2E89
S1130820F2E13F2EF02D0F2EFFE0CF2EF02D0F2EF4
S1130830F8E58F2E912CA12CB12CF02D0F2EFBE579
S1130840EF2EF4E0FF2EF02D0F2EF8EE4F2EF3E0F6
S11308505F2E612C712CF02D0DEA14E00E94C30E62
S113086080919104882321F0813009F457C0F6CF98
S113087082E793E00E94791518821A8219821B82FA
S11308801C821D821E821F82188619861A861C8667
S11308901B863E862D86CF86188A198ADD24D3943A
S11308A0DA8A8CE08B8B888E998EAA8EBB8E80E23E
S11308B08C8F8BE08D8FEBE8F3E0A6E8B4E0019039
S11308C00D928A95E1F780E090E00E946107C101F2
S11308D00E9468078C2D0E94E50D81E00E94E00DC6
S11308E06DE373E081E00E946F07D70116964D9285
S11308F05D926D927C9219971A961C921A97E8E26F
S1130900F3E01C96FC93EE931B97D092910487E935
S113091093E00E947915D0929104A0CF8FE690E0E5
S1130920A0E0B0E0888F998FAA8FBB8F82E390E01C
S1130930A0E0B0E08C8B9D8BAE8BBF8BD80116965C
S11309401C921E921597DD24D3941796DC92179768
S11309501896DC9218971996DC9219971B96DC93DB
S1130960CE931A9789E21C968C931C97ECECF3E0D7
S11309701E96FC93EE931D97C8010E94A807888DCC
S1130980998D2A8D3B8D9F938F933F932F939F93A4
S11309908F93ABEAB3E0BF93AF930E9463158C8946
S11309A09D892E893F899F938F933F932F939F9384
S11309B08F93A7EDB3E0BF93AF930E946315FFEF4E
S11309C02BE782E9F15020408040E1F700C00000AD
S11309D0D0929104ADB7BEB750960FB6F894BEBF8F
S11309E00FBEADBF3BCF80E008952D9A0895259AA0
S11309F00E94F504089584E880937A0085EC80933E
S1130A007700EBE7F0E080818823ECF708958AB162
S1130A10806C8AB908955F9A0895239A80E48CBD06
S1130A2008959B01AC011092B90060E074E284EF78
S1130A3090E00E947F13DA01C9014097A109B1092E
S1130A40689412F8B695A795979587951694D1F75B
S1130A508093B80084E08093BC0081E00895809383
S1130A60BB0084E88093BC00ECEBF0E08081882339
S1130A70ECF78091B900887F089594EE9093BC00C0
S1130A80ECEBF0E090819923ECF7EFE9FFE031978C
S1130A90F1F700C000009091B900987F983031F0D0
S1130AA0903121F08091B900887F0895880F0E94C9
S1130AB02F05089594EE9093BC00ECEBF0E0908148
S1130AC09923ECF79091B900987F983031F09031E8
S1130AD021F08091B900887F0895880F81600E9479
S1130AE02F050895DC0184EC8093BC00ECEBF0E06E
S1130AF090819923ECF78091BB008C938091B9008D
S1130B00887F0895DC0184E88093BC00ECEBF0E07E
S1130B1090819923ECF78091BB008C938091B9006C
S1130B20887F089584E98093BC0081E008959F92B2
S1130B30AF92BF92CF92DF92EF92FF920F931F93E7
S1130B40CF93DF93161617060CF5942E8B017C01B8
S1130B50C0E0D0E06B0181E0C81AD1085701AC0CA9
S1130B60BD1C911007C0CC16DD0621F4C5010E94FE
S1130B70820505C0C7018C0F9D1F0E947205803538
S1130B8031F42196C017D10761F701C080E0DF91ED
S1130B90CF911F910F91FF90EF90DF90CF90BF9076
S1130BA0AF909F90089524E032E03093A8082093FA
S1130BB0A708DC01CB01880F991FAA1FBB1F880F50
S1130BC0991FAA1FBB1F9C01AD01220F331F441F95
S1130BD0551F220F331F441F551F60E074E284EF3A
S1130BE090E00E947F13215031093093C500209377
S1130BF0C40086E08093C20088E18093C100089518
S1130C00E0ECF0E0908195FFFDCF8093C60008955D
S1130C10CF93C82F8A3019F48DE00E9400068C2FE0
S1130C200E94000680E090E0CF91089514BE0FB6B4
S1130C30F894A89580916000886180936000109278
S1130C4060000FBEE1E6F0E080E8808310827894D3
S1130C500E943A0608951F920F920FB60F92112424
S1130C608F9381E08093BE048F910F900FBE0F90FD
S1130C701F90189510927C0880E29EE49093A9003E
S1130C808093A800E1EAF0E088E0808380818260BC
S1130C908083E2E7F0E080818260808308951F9280
S1130CA00F920FB60F9211248F9380917C088F5F5F
S1130CB080937C088F910F900FBE0F901F90189512
S1130CC0DC01CB01880F991FAA1FBB1F880F991F36
S1130CD0AA1FBB1F9C01AD01220F331F441F551FC8
S1130CE0220F331F441F551F60E078E488EE91E023
S1130CF00E947F13BA01A901415051096109710988
S1130D00BB27A72F962F852F8093C5004093C4003F
S1130D1082E08093C00088E98093C10086E08093DC
S1130D20C200E1EEF4E086ED94E0918780878AE0EA
S1130D3090E0958384831782168211821082138235
S1130D401282ECECF4E021EC34E0318720879583C7
S1130D50848317821682118210821382128281E0A8
S1130D608093C0041092BF040895CF93DF93E1EE03
S1130D70F4E0268137816481758126173707C9F02D
S1130D80C085D18542815381DA011196B383A28350
S1130D90FE01E40FF51F80836A177B0721F410928C
S1130DA0E4041092E3042F5F3F4F3093E804209350
S1130DB0E704DF91CF9108951F920F920FB60F921F
S1130DC011248F93EF93FF9381E08093C004E1ECAF
S1130DD0F0E080818F7D8083FF91EF918F910F9060
S1130DE00FBE0F901F9018951F920F920FB60F927F
S1130DF011242F933F934F935F936F937F938F931C
S1130E009F93AF93BF93EF93FF938091C000209182
S1130E10C6008C7159F5ECECF4E04681578184816D
S1130E2095814817590711F1408551858281938135
S1130E30BC016F5F7F4F73836283DA01A80FB91F10
S1130E402C9322813381848195812817390721F4D9
S1130E501092CF041092CE04ECECF4E086819781DA
S1130E6001969783868381E08093BF04FF91EF917D
S1130E70BF91AF919F918F917F916F915F914F91AE
S1130E803F912F910F900FBE0F901F901895EDE793
S1130E90F8E0148215821182108217A216A2E3E8E8
S1130EA0F8E083EA98E011921192E817F907D9F76C
S1130EB00E94EC0B0E941E090E9471080E94A30765
S1130EC0089590937E0880937D080E94FB0D0895F9
S1130ED09093800880937F080E94EA0D0895E82F7C
S1130EE0F0E0EE0FFF1FED57F74F71836083089515
S1130EF00E946B090E94EC0C0E94CC070895E091BB
S1130F00EB04F091EC043097D9F022813381281757
S1130F10390789F405C0228133812817390759F428
S1130F20DC01AD57BF4F2C91278713962C91208B52
S1130F3022E0248305C00190F081E02D309759F719
S1130F400E94B30808951092EC041092EB040895E3
S1130F50FC011482178613821282ADE7B8E09696DC
S1130F608D919C919797019697969C938E939697C3
S1130F708091EB049091EC04009739F41182108273
S1130F80F093EC04E093EB04089591838083F09351
S1130F90EC04E093EB0408950F931F93CF93DF9336
S1130FA0E091EB04F091EC04309709F495C0EF0163
S1130FB08C81882321F0823009F468C087C00E94A4
S1130FC07C088C01009721F482E08C838F8784C095
S1130FD09B838A8381E08C83F801E957FF4F8FE775
S1130FE097E0918380833197898582FB882780F9F4
S1130FF080839985D8011B968C911B9790FB80F96F
S11310001B968C931B97998593FB992790F990FBDA
S113101082F91B968C931B97EDE7F8E084818F5F30
S113102084831C968C931C97808191811E969C933B
S11310308E931D978D819E8150969C938E931F97BE
S11310408885982F9F7051968C915197807F892B1A
S113105051968C9351979F819295907F8F70892B95
S113106051968C93F801EF57FF4F4C8550E06A85F9
S11310707B85808191810E941715F80191818C856F
S1131080890F8183C8010E940F0C26C0CE17DF0789
S113109041F4888199819093EC048093EB040AC015
S11310A0FC0180819181C817D907D1F78881998182
S11310B091838083EDE7F8E086A197A1019797A338
S11310C086A3ED85FE85CE01099506C00990D881D9
S11310D0C02D209709F06CCFDF91CF911F910F9114
S11310E008951092ED04109276051092FF05109267
S11310F088061092110708958091ED04882349F021
S1131100E6E7F5E081E090E0AC012081211122C006
S113111002C040E050E069E8649F9001659F300D93
S11311201124C90183519B4FFC0111926A95E9F77F
S113113040E1FC014183EF57FF4F21503B4F318386
S11311402083EDE7F8E026A137A12F5F3F4F37A3B7
S113115026A308950196E757FF4F85309105A1F620
S113116080E090E00895FC011082EDE7F8E086A1AC
S113117097A1019797A386A30895009741F0FC01D6
S1131180E757FF4F87E0EA39F80718F015C0EDEE8E
S1131190F4E08081882339F003C08081882319F02A
S11311A08E2F9F2F0895E757FF4F87E0EA39F807FE
S11311B0A0F380E090E0089580E090E00895FC01C1
S11311C0DC01AD57BF4F1C92ADE7B8E014969C917B
S11311D014979F5F14969C93149794878D919C9178
S11311E0968785870895DC0119962C9119972223F7
S11311F051F01796ED91FC9118972081211105C0AB
S11312000E94A40C089580E0089580E00895BC0134
S1131210ECEAF7E02EED37E040E051E090819923CD
S113122019F091509083452F3596E217F307B1F7E3
S1131230442319F0CB010E948A0F0895ECEAF7E0E9
S11312408EED97E010823596E817F907D9F7EAE9A9
S1131250F7E084E690E0A0E0B0E086839783A0877F
S1131260B187128687E099E09487838763EF78E0FB
S113127080E00E946F070895CF93DF93DC01ED9126
S1131280FC9111972181283801F520812F7D21348B
S1131290E1F412962C912031C0F0EC010E947C08FC
S11312A0009799F020E2FC0120832A8121832B817D
S11312B0ED57FF4F20832C81319620834A8150E0E3
S11312C06881798102960E941715DF91CF91089564
S11312D08093A70708952F923F924F925F926F9247
S11312E07F928F929F92AF92BF92CF92DF92EF92B2
S11312F0FF920F931F93CF93DF93CDB7DEB72C9755
S11313000FB6F894DEBF0FBECDBF00E010E00F2E85
S1131310F4E2DF2EF02D0F2EFDE78F2EF8E09F2E46
S1131320F02D6894CC24C4F80F2EFCEA4F2EF7E07D
S11313305F2EF02D0F2EF8EA6F2EF7E07F2EF02DA2
S11313400F2EFAEDEF2EF7E0FF2EF02D312C212C8D
S11313505801A8C1D5018C91823209F4D1C08432DC
S113136009F49DC1803209F09DC1DC921B968C91D9
S11313701B97982F9A7009F095C115962D913C9161
S113138016972F3F3F4F81F4F50187859089D4014B
S11313902D913C912817390719F0019609F082C163
S11313A022E2F50120837EC1D5011F962D913C9147
S11313B050972F3F3F4F09F07DC180FF7BC172C121
S11313C08C012C91222309F456C0208131814217CB
S11313D0530709F051C0F5019485F801EE0FFF1F82
S11313E0EE0FFF1FE00FF11FE855F84F8281891BB4
S11313F0883038F5F801EE0FFF1FEE0FFF1FE00FE6
S1131400F11FE855F84F9381292F30E0082E02C0D0
S1131410359527950A94E2F720FD44C1F801EE0FB3
S1131420FF1FEE0FFF1FE00FF11FE855F84F21E0FB
S113143030E002C0220F331F8A95E2F7922B938388
S113144049C1F801EE0FFF1FEE0FFF1F0E0F1F1F04
S1131450F801E855F84F9283238130E08195A90182
S113146002C0440F551F8A95E2F7CA018160838345
S11314708BE084832FC1BF01019615963596EE1536
S1131480FF0509F09DCF6115710509F40BC1DB015E
S113149011965C934E93F501848512968C93129762
S11314A0F1E01396FC9313978BE014968C938AE9DE
S11314B097E00E948A0F0EC1D5011F968D919C91D1
S11314C05097F4012081318128173907A9F01B9620
S11314D02C9122FD0EC0C5010E945E0CD5011F9601
S11314E08D919C915097F4012081318128173907FF
S11314F019F0019609F0D6C0E2E2D501EC93D2C00E
S11315001092A707D50151962C91519722952F70CF
S1131510E22FF0E0EE0FFF1FED57F74F0190F0813F
S1131520E02D309709F461C01D968D919C911E9712
S11315309A8389831F964D915C9150975C834B836A
S113154051963C9151973F703D832E83AF57BF4FC7
S11315506D917C917987688795012E5F3F4F261B9B
S1131560370BD50111963C911197230F2A87AD575C
S1131570BF4F2C912B8711962C912C87D5011B964C
S11315803C91632F637032FD02C020E001C020E271
S1131590262B33FD02C030E001C030E4232B4F3F43
S11315A05F4F11F030E001C034E0232BD5011996D0
S11315B04D915C911A978417950711F090E001C042
S11315C098E0822F892B8F83D50115962D913C911C
S11315D016972F3F3F4F11F090E001C09C2D892BAF
S11315E08F83CE010196099501C080E0F5019385B2
S11315F090FF80E0D50117962D913C9118972F3FCD
S11316003F4F69F4F40140815181D5011F962D911A
S11316103C9150974217530711F493FF81E0F50171
S1131620258136812F3F3F4FB9F1D4012D913C9153
S11316302F3F3F4F89F1882379F10E947C088C0168
S1131640009751F10E94DF08F80181818D5F818349
S1131650E957FF4F11821082D5011B968C911B977D
S113166086958170F801938580FB91F993871D9687
S11316708D919C911E97908B8787EF57FF4F019018
S1131680F081E02D10828091A70782831C968C91B3
S11316908183C8010E940F0CD501DC9203C0C501EF
S11316A00E94B308C5010E94BD085C01892B09F0A2
S11316B051CE17C0F50145855685D4018D919C9175
S11316C08417950779F3D201F301832D922D632DAD
S11316D0722D76CEF50187819085019609F0FECEB4
S11316E0EBCE2C960FB6F894DEBF0FBECDBFDF91C4
S11316F0CF911F910F91FF90EF90DF90CF90BF900B
S1131700AF909F908F907F906F905F904F903F909D
S11317102F900895EF92FF920F931F93CF937C0124
S113172010E080E090E001E0C3E113C0FC012081FF
S1131730213179F4EC57FF4F208131812150310957
S113174031832083232B21F4FC01C083102F01C09B
S1131750102F0E94BD08009749F7112319F0C70103
S11317600E948A0FCF911F910F91FF90EF900895DF
S1131770EF92FF920F931F93CF93DF937C0110E0BE
S113178080E090E001E0D7E1C0E116C0FC012081D7
S1131790263191F4EC57FF4F2081318121503109DA
S11317A031832083232B39F4FC01D083ED57FF4F81
S11317B0C083102F01C0102F0E94BD08009731F77D
S11317C0112319F0C7010E948A0FDF91CF911F9155
S11317D00F91FF90EF9008951092F5071092F4077F
S11317E0E7EEF7E082E390E0A0E0B0E08683978341
S11317F0A087B187128688EB9BE094878387EAED04
S1131800F7E08AE090E0A0E0B0E086839783A087C9
S1131810B18712868AE89BE0948783870895CF93E3
S1131820DF93FC01DC01AA57BF4F8C9181FF03C0F9
S113183092E1908302C092E19083DF01AD57BF4FE4
S11318401C9280FF05C08FEF9FEF9683858306C0AF
S113185080917F08909180089683858327853089BD
S113186030872783ADE7B8E08D919C9111979287DB
S1131870818715968C9115978F5F15968C93848329
S11318802F3F3F4F81F4EF0181E498E893838283F3
S11318900E942414FE01EC57FF4F8770992701968C
S11318A09183808308C081E698E893838283EC5710
S11318B0FF4F11821082DF91CF9108950F931F93F0
S11318C0CF93DF938C010E947C08EC01892BB9F142
S11318D082E18883F80181818983FE01ED57FF4FFE
S11318E010820E942414FE01EC57FF4F8770992741
S11318F0019691838083339611821082F80141818D
S113190050E0B8016E5F7F4FCE0102960E9417151A
S113191081E498E89B838A838FEF9FEF98878F8376
S1131920F801858196819E838D83EDE7F8E08081BF
S113193091819A87898785818F5F85838C83DF91E5
S1131940CF911F910F910895CF93DF93FC01C7812D
S1131950D08581858330C9F480E090E010C0FC011B
S11319602081263161F434852981321308C027E1AE
S113197020832A81EA57FF4F208381E007C00E9419
S1131980BD08009761F780E001C080E0DF91CF914E
S11319900895E091F407F091F507813021F048F0C3
S11319A0823019F004C080E205C081E203C081E006
S11319B001C080E0DF01AD57BF4F8C9385E1808388
S11319C01092F5071092F407EDE7F8E086A197A1CD
S11319D0019797A386A308959F92AF92BF92CF9247
S11319E0DF92EF92FF920F931F93CF93DF93C0E0A8
S11319F0D0E00F2EF4E1AF2EF02D0DE718E00F2EFE
S1131A00F7E1DF2EF02D0F2EF6E19F2EF02D0F2E95
S1131A10F5E1EF2EF12CF02D0F2EF3E1CF2EF02D6A
S1131A200F2EF1E1BF2EF02D62C088818331C9F001
S1131A3018F4823139F05BC0853159F1873109F4EA
S1131A4048C055C0FE01EC57FF4F80819181892B1E
S1131A5031F0B8828AED97E00E948A0F48C0C882AC
S1131A6046C08091F4079091F507892B09F03FC097
S1131A70D093F507C093F407A8826981CE0102963A
S1131A800E94110EF80186A197A1019697A386A33F
S1131A902EC0FE01ED57FF4F8081811118C02D85A6
S1131AA03E85F801808191812817390771F48B856F
S1131AB080FF0BC09882FE01EC57FF4FF182E08259
S1131AC087EE97E00E948A0F12C0D88210C0D88295
S1131AD00EC0FE01E957FF4F0190F081E02D3097D1
S1131AE021F4CE010E94B30802C0CE010995CE01B3
S1131AF00E94BD08EC01892B09F097CFDF91CF91AB
S1131B001F910F91FF90EF90DF90CF90BF90AF9017
S1131B109F9008958091F607982F9F70E4E5F1E077
S1131B208081807F892B80838091F607882329F028
S1131B308091F7078093530108958091F707982FB8
S1131B409F71E8E4F1E08081807E892B8083089591
S1131B5093E090934201E1E4F1E090819F71983029
S1131B60E1F780934201E1E4F1E090819F719813E1
S1131B70FCCF089588E00E94A80D8FEF80934F0159
S1131B808091F807882319F086E10E94A80D089532
S1131B90E9E3F1E08081816080831092F80710927C
S1131BA0F60781E08093790888E00E94A80D8BEE07
S1131BB080935601ECE4F1E080818068808308958D
S1131BC08093F8070E94BA0D08958093F7070E9446
S1131BD08A0D0895CF93DF9300D0CDB7DEB79A83F3
S1131BE08983809362018A81809363010F900F90AF
S1131BF0DF91CF910895CF93DF9300D0CDB7DEB7B7
S1131C009A838983809360018A81809361019A8198
S1131C108981890F80936D010F900F90DF91CF918F
S1131C2008950F931F93CF938C01C62F89E10E94CF
S1131C30A80D8FEF80934F0182E08C0F8093800179
S1131C40CC2381F0F801C1502C2F30E02F5F3F4F9F
S1131C50C801820F931FA1E8B1E021912D93E817E9
S1131C60F907D9F783E08093790882E080934201F1
S1131C70CF911F910F9108951F93CF93DF9300D0BD
S1131C8000D01F92CDB7DEB780917908823009F475
S1131C9068C080914F0183FF3FC0A0917B016A2FF0
S1131CA070E0AB014F5F5F4F80E090E020E0FC010B
S1131CB0E058FE4F3081FC01E750F84F30832F5F2E
S1131CC0822F90E08417950794F389EF97E09A8325
S1131CD08983A250AB83FB01E750F84F80818C834A
S1131CE0809147018A558D83CE0101960E943C095B
S1131CF0E1E4F1E080818F718631E1F7EFE4F1E016
S1131D00808188608083ECE4F1E080818F77808338
S1131D1080818068808325C080914F0186FF21C027
S1131D20809141018F718931B9F41091420112956A
S1131D301695177049F0133021F0153021F013E097
S1131D4003C011E001C012E00E94BA0D81E080934B
S1131D507908812F0E94C90CEFE4F1E0808180644E
S1131D6080830F900F900F900F900F90DF91CF9181
S1131D701F9108950E9416060E942E0F0E94C80DFE
S1131D800E94470708950E943C0E0E9478070E9413
S1131D90970F08950F931F93CF93DF93EC018091D6
S1131DA07A0890917B08009709F445C04E815F81C1
S1131DB068857985FC01028113812481358140176E
S1131DC051076207730760F0DC0117C002811381B9
S1131DD024813581401751076207730768F403C0F3
S1131DE0FC01A0E0B0E0041B150B260B370B0283AB
S1131DF01383248335830AC0DF01401B510B620B1C
S1131E00730BED91FC911197309701F74A835B8333
S1131E106C837D83109741F08D919C9111979983E8
S1131E208883CD93DC9315C099838883D0937B08F2
S1131E30C0937A080EC0198218828E819F81A8856A
S1131E40B9858A839B83AC83BD83D0937B08C0937D
S1131E507A08DF91CF911F910F91089510927B081A
S1131E6010927A080895CF93DF93A0917A08B091E5
S1131E707B08109791F1A817B90751F50AC08E177E
S1131E809F0729F5109731F0208131812D933C93E0
S1131E9007C0FC012081318130937B0820937A08AC
S1131EA00190F081E02D3097C1F04281538164812B
S1131EB07581EC018A819B81AC81BD81840F951F62
S1131EC0A61FB71F82839383A483B58306C0DF0153
S1131ED0ED91FC911197309791F6DF91CF91089590
S1131EE0E0917A08F0917B08309771F0E817F907D0
S1131EF021F40CC08E179F0759F00190F081E02D5A
S1131F003097C1F780E0089580E0089581E0089556
S1131F1081E00895CF93DF93EC010E94700F81114B
S1131F2003C0CE010E94CA0EDF91CF910895CF92D3
S1131F30DF92EF92FF92CF93DF9380917C08882306
S1131F4009F45AC08FB7F894C0907C0810927C08AA
S1131F508FBFD12CE12CF12CCC0CDD1CEE1CFF1C12
S1131F60D701C601880F991FAA1FBB1F880F991F8D
S1131F70AA1FBB1FC80ED91EEA1EFB1EC0917A08F9
S1131F80D0917B082097C1F18A819B81AC81BD816E
S1131F90C816D906EA06FB0618F1C81AD90AEA0ACD
S1131FA0FB0A8881998190937B0880937A088A85BB
S1131FB0813019F4CE010E94CA0EEB85FC85CE0156
S1131FC00995C0917A08D0917B082097A9F08A815D
S1131FD09B81AC81BD81C816D906EA06FB06E8F6EA
S1131FE08A819B81AC81BD818C199D09AE09BF0991
S1131FF08A839B83AC83BD83DF91CF91FF90EF9065
S1132000DF90CF900895A3E1B0E0E9E0F0E10C9413
S1132010A1136C014B012A01FC01178216828381F2
S113202081FF43C3AE014F5F5F4F3A01F6019381D5
S1132030F40193FD859193FF81914F01882309F465
S113204030C3853239F493FD859193FF81914F011B
S1132050853239F4B60190E00E942B155201250116
S1132060E5CF10E0F12C20E02032A0F48B3269F0AF
S113207030F4803259F0833269F420612CC08D32FF
S113208039F0803339F4216026C02260246023C0F3
S1132090286021C027FD27C030ED380F3A3078F48E
S11320A026FF06C0FAE01F9F300D1124132F13C022
S11320B04AE0F49E300D1124F32E20620CC08E32BF
S11320C021F426FDEEC2206406C08C3611F420688B
S11320D002C0883641F4F40193FD859193FF819108
S11320E04F018111C1CF9BEB980F933018F42061FD
S11320F0805E06C09BE9980F933008F071C12F7E73
S113210026FF16E02F73322E853619F42064322E02
S113211008C0863621F4F22FF0683F2E02C0111158
S1132120115037FE07C01C3350F4EE24E394E10E43
S113213027E00BC0183038F027E017E005C027E08F
S11321404CE3E42E02C0212FE12C520144E0A40E02
S1132150B11CF20160817181828193810E2DA301F2
S11321600E9434142C01098100FF02C003FF07C040
S113217031FC08C032FE09C030E2232E07C02DE234
S1132180222E04C09BE2292E01C0212C802F8C70AA
S113219019F0211068C2A8C237FE0FC0E40C04FF76
S11321A004C08A81813309F4EA941E1474F5F8E0BA
S11321B0FE1578F588E0E82E2CC036FC2AC0812F65
S11321C090E0841595059CF02CEF42162FEF5206F3
S11321D074F0432D4068342E0AC0E2E0F0E0EC0FC6
S11321E0FD1FE10FF11D8081803319F4115011118D
S11321F0F4CF37FE0EC0EE24E394E10E812F90E07D
S1132200481659062CF4141904C0EE24E39401C0B2
S113221010E037FE06C01414150434F4C20101960C
S113222005C085E090E002C081E090E021100196B5
S1132230112331F0212F30E02F5F3F4F820F931F86
S11322402F2D30E08217930714F4F81A01C0F12CF3
S1132250832D897049F4FF2039F0B60180E290E0C3
S11322600E942B15FA94F7CF222029F0B601822D73
S113227090E00E942B1533FC09C0FF2039F0B60111
S113228080E390E00E942B15FA94F7CF37FE5AC0F2
S1132290942D852D57FE02C090E080E0292E382E23
S11322A020E030E0A2014E1951095D874C87A2015C
S11322B0421953095F874E87612F70E044275527E1
S11322C0461B570B598B488B5FEF2516350649F48F
S11322D0B6018EE290E02A8B3B8B0E942B153B8942
S11322E02A89421453046CF04C855D8542155305CC
S11322F044F4EE85FF85E20FF31FE60DF71D81819F
S113230001C080E351E0251A31082F5F3F4F48890F
S11323105989241635064CF0B60190E02A8B3B8B84
S11323200E942B152A893B89CFCF2414350439F414
S11323309A81963318F4953311F404FF81E3B601BE
S113234090E04BC08A81813309F00F7EB60190E0A2
S11323500E942B15111105C034FC18C085E690E0CD
S113236017C0B6018EE290E00E942B1582E0EE24A5
S1132370E394E80EF301E80FF11D8081B60190E0CB
S11323800E942B1511508E2D91F7E6CF85E490E035
S1132390B6010E942B1557FC05C04114510439F4B1
S11323A004FF05C05194419451088DE201C08BE2B1
S11323B0B60190E00E942B1580E39AE0491651047F
S11323C02CF08F5F5AE0451A5108F7CFB60190E020
S11323D00E942B15B601C201C0960E942B1557C14D
S11323E0833631F0833779F0833509F058C021C042
S11323F05201E2E0AE0EB11CF2018081898301E05A
S113240010E0230114C05201F2E0AF0EB11CF2013E
S11324104080518026FF03C0612F70E002C06FEF3F
S11324207FEFC2012A8B0E9420158C012A892F7705
S113243015C05201F2E0AF0EB11CF2014080518090
S113244026FF03C0612F70E002C06FEF7FEFC2016F
S11324502A8B0E940C158C012A892068322E23FDB8
S11324601AC08F2D90E008171907A8F4B60180E26E
S113247090E00E942B15FA94F4CFF20137FC859179
S113248037FE81912F01B60190E00E942B15F110C7
S1132490FA94015011090115110579F7F8C0843631
S11324A011F0893659F5520127FF09C0F4E0AF0E47
S11324B0B11CF20160817181828193810AC0F2E0D2
S11324C0AF0EB11CF20160817181072E000C880BE4
S11324D0990B2F76322E97FF09C0909580957095B1
S11324E061957F4F8F4F9F4F2068322E2AE030E056
S11324F0A3010E94A915E82EE6183FC0022F8537D4
S113250021F40F7E2AE030E01DC0097F8F3691F060
S113251018F4883559F0C5C0803719F0883711F0A0
S1132520C0C0006104FF09C0046007C024FF08C0E4
S1132530066006C028E030E005C020E130E002C0BB
S113254020E132E0520107FF09C0F4E0AF0EB11CF4
S1132550F201608171818281938108C0F2E0AF0E43
S1132560B11CF2016081718180E090E0A3010E94BE
S1132570A915E82EE6180F77302E36FE0BC0332D42
S11325803E7FE11650F434FE0AC032FC08C0332DFD
S11325903E7E05C00E2D332D03C00E2D01C0012F2C
S11325A034FF0CC0FE01EE0DF11D8081803311F467
S11325B0397E08C032FF05C00E5F04C0832F8678C1
S11325C009F00F5F33FD13C030FF06C01E2D0F1539
S11325D018F41F0D101B0F2D0F1568F4B60180E2BF
S11325E090E03B8B0E942B150F5F3B89F5CF0F15B5
S11325F010F4F01A01C0F12C34FF12C0B60180E3CC
S113260090E03B8B0E942B153B8932FF17C031FDB4
S113261003C088E790E002C088E590E0B6010CC0F2
S1132620832F867859F031FF02C08BE201C080E22B
S113263037FD8DE2B60190E00E942B15E11638F4C7
S1132640B60180E390E00E942B151150F7CFEA9475
S1132650F301EE0DF11D8081B60190E00E942B156F
S1132660E110F5CF14C0F4E0FF1558F584E0F81A32
S113267033FE1EC0211026C003FF2AC004E311E06C
S1132680F32DF0713F2EF8018491811124C0FF20B5
S113269009F4E5CCB60180E290E00E942B15FA948F
S11326A0F6CFF6018681978126C08FEF9FEF23C076
S11326B0B60180E290E00E942B15FA94F110F8CF55
S11326C0D9CFF12CB601822D90E00E942B15D4CFE6
S11326D008E311E0D5CF31108052B60190E00E949A
S11326E02B150F5F1F4FCFCF23E02F1510F483E07E
S11326F0BECFF12CC1CF6396E2E10C94BD13A1E2ED
S11327001A2EAA1BBB1BFD010DC0AA1FBB1FEE1F67
S1132710FF1FA217B307E407F50720F0A21BB30BB2
S1132720E40BF50B661F771F881F991F1A9469F72E
S113273060957095809590959B01AC01BD01CF018A
S113274008952F923F924F925F926F927F928F9251
S11327509F92AF92BF92CF92DF92EF92FF920F932C
S11327601F93CF93DF93CDB7DEB7CA1BDB0B0FB636
S1132770F894DEBF0FBECDBF09942A8839884888F3
S11327805F846E847D848C849B84AA84B984C88489
S1132790DF80EE80FD800C811B81AA81B981CE0F80
S11327A0D11D0FB6F894DEBF0FBECDBFED01089565
S11327B08F929F92AF92BF92CF92DF92EF92FF924D
S11327C0CF93DF93EC01688179818A819B816115C4
S11327D071058105910521F464E279ED8BE597E0BB
S11327E02DE133EF41E050E00E94071649015A0100
S11327F09B01AC01A7EAB1E40E9426166B017C019F
S1132800ACEEB4EFA50194010E943416DC01CB01B7
S11328108C0D9D1DAE1DBF1DB7FF03C00197A109FF
S1132820B04888839983AA83BB839F77DF91CF9134
S1132830FF90EF90DF90CF90BF90AF909F908F90DC
S113284008950E94D813089580E092E00E94D8135E
S11328500895A0E0B0E08093000290930102A09359
S11328600202B09303020895283008F027E03327CA
S1132870DA01990F311D87FD91600096610571059C
S113288039F432602E5F3D9330E32A95E1F70895E1
S11328909F3F30F080387105610509F03C5F3C5F73
S11328A03D93913008F08068911DDF93CF931F937F
S11328B00F93FF92EF92192F987F9695E92F969593
S11328C09695E90FFF27EA56FE4F99273327EE2402
S11328D0FF24A701E70105900894079428F4360F14
S11328E0E71EF81E491F511D660F771F881F991F89
S11328F00694A1F70590079428F4E70EF81E491FE3
S1132900561FC11D770F881F991F661F0694A1F7D4
S11329100590079428F4F80E491F561FC71FD11DB0
S1132920880F991F661F771F0694A1F705900794D7
S113293020F4490F561FC71FD81F990F661F771F12
S1132940881F0694A9F784911095177041F0D695C5
S1132950C79557954795F794E7941A95C1F7ECE313
S1132960F1E06894159015913591659195910590D4
S11329707FE27395E118F10A430B560BC90BD0099A
S1132980C0F7E10CF11E431F561FC91FD01D7EF472
S1132990703311F48A95E6CFE894015030F0080FB3
S11329A00AF40027021708F4202F2395022F7A3304
S11329B028F079E37D932A95E9F710C07D932A9551
S11329C089F6069497956795379517951794E118A6
S11329D0F10A430B560BC90BD00998F023957E914D
S11329E073957A3308F070E37C932013B8F77E91E3
S11329F070617D9330F0839571E37D9370E32A9544
S1132A00E1F71124EF90FF900F911F91CF91DF9187
S1132A10992787FD90950895FC01059061507040B9
S1132A200110D8F7809590958E0F9F1F0895FB0194
S1132A30DC0102C001900D9241505040D8F7089536
S1132A40FC016150704001900110D8F78095909579
S1132A508E0F9F1F08950F931F93CF93DF93FB0156
S1132A60238121FD03C08FEF9FEF28C022FF16C0F2
S1132A7046815781248135814217530744F4A0814C
S1132A80B1819D012F5F3F4F318320838C93268139
S1132A9037812F5F3F4F3783268310C0EB01092F07
S1132AA0182F0084F185E02D0995892BE1F68E819C
S1132AB09F8101969F838E83812F902FDF91CF91E9
S1132AC01F910F910895A0E0B0E0E9E6F5E10C94C0
S1132AD0B113AE014B5F5F4FFA0161917191AF0188
S1132AE08091A7089091A8080E940310E2E00C943A
S1132AF0CD130F931F93CF93DF93E091A708F09129
S1132B00A808238121FF1BC08C01D0E0C0E0F8019C
S1132B1081918F016091A7087091A808DB01189634
S1132B20ED91FC911997882331F00995892B79F35C
S1132B30DFEFCFEFECCF8AE00995892B19F08FEF07
S1132B409FEF02C08D2F9C2FDF91CF911F910F918A
S1132B500895FA01AA27283051F1203181F1E8942F
S1132B606F936E7F6E5F7F4F8F4F9F4FAF4FB1E07C
S1132B703ED0B4E03CD0670F781F891F9A1FA11D77
S1132B80680F791F8A1F911DA11D6A0F711D811D78
S1132B90911DA11D20D009F468943F912AE0269F3D
S1132BA011243019305D3193DEF6CF010895462F9C
S1132BB04770405D4193B3E00FD0C9F7F6CF462F7D
S1132BC04F70405D4A3318F0495D31FD40524193E6
S1132BD002D0A9F7EACFB4E0A695979587957795A3
S1132BE06795BA95C9F700976105710508959B012A
S1132BF0AC010A2E06945795479537952795BA95B3
S1132C00C9F7620F731F841F951FA01D0895052E19
S1132C1097FB1EF400940E941E1657FD07D00E94D5
S1132C207F1307FC03D04EF40C941E165095409568
S1132C30309521953F4F4F4F5F4F08959095809564
S1132C40709561957F4F8F4F9F4F08950E9439165D
S1132C50A59F900DB49F900DA49F800D911D1124EC
S1132C600895B7FF0C9426160E942616821B930B18
S1132C700895A29FB001B39FC001A39F700D811D51
S1132C801124911DB29F700D811D1124911D089571
S1072C90F894FFCFE2
S1132C94010000000000000200000000080600001B
S1132CA40000424D503238302053746174757320DF
S1132CB425690A000A3D3D3D3D3D3D3D3D3D3D2ADE
S1132CC42A2A3D3D3D3D3D3D3D3D3D3D000A543AAE
S1132CD4202569202C2569202C256920503A20259B
S1132CE469202C2569202C2569202C2569202C2574
S1132CF469202C2569202C2569202C2531202C259C
S1132D0469200A0053746174653A204150505F533A
S1132D14544154455F53454E440052657374617283
S1132D24742073797374656D2073656E64696E675A
S1132D342074696D65722E00617070446174614918
S1132D446E642069732063616C6C65642E00526543
S1132D5463656976696E673A2074656D706572613E
S1132D647475726520697320256C64202830782575
S1132D7478290A00526563656976696E673A206248
S1132D8461747465727920697320256C6420283019
S1132D94782578290A0053746174653A20415050A7
S1132DA45F53544154455F574149545F434F4D4D1C
S1132DB4414E445F54494D45520053746174653A1D
S1132DC4204150505F53544154455F53454E444948
S1132DD44E475F444F4E4520616E642074727920DF
S1132DE4726573656E64004C6967687420776569FD
S1132DF4676874206D6573682073746172746564A4
S1132E042E0053746174653A204150505F53544109
S1132E1454455F494E495449414C00436F6F7264B1
S1132E24696E61746F720053746174653A206170E1
S1132E3470496E697420656E642E00456E64206466
S1132E4465766963652053656E64696E673A2074B8
S1132E54656D706572617475726520256C642028D3
S1132E6430782578290A00456E64206465766963A0
S1132E74652053656E64696E673A20626174746593
S1132E84727920256C64202830782578290A00007A
S9030000FC
